:1010000000000420751300005D13000075690000E6
:10101000611300006313000065130000000000006E
:101020000000000000000000000000006713000046
:1010300069130000000000006B1300006D13000036
:1010400051B600006F13000061B600006F1300007E
:101050006F1300006F130000FDB200006F1300005B
:101060006F1300006F1300006F1300006F13000078
:101070006F1300006F1300006F1300006F13000068
:101080006F130000FD5900006F1300006F13000084
:101090006F1300006F1300006F1300006F13000048
:1010A0006F1300006F1300006F1300006F13000038
:1010B0006F1300006F13000000000000000000002C
:1010C0006F1300006F1300006F1300006F13000018
:1010D0006F1300006F1300006F1300007DD5000038
:1010E0006F1300006F1300006F130000000000007A
:1010F000000000006F130000000000006F130000EC
:1011000000000000000000000000000000000000DF
:1011100000000000000000000000000000000000CF
:1011200000000000000000000000000000000000BF
:1011300000000000000000000000000000000000AF
:10114000000000000000000000000000000000009F
:10115000000000000000000000000000000000008F
:10116000000000000000000000000000000000007F
:10117000000000000000000000000000000000006F
:10118000000000000000000000000000000000005F
:10119000000000000000000000000000000000004F
:1011A000000000000000000000000000000000003F
:1011B000000000000000000000000000000000002F
:1011C000000000000000000000000000000000001F
:1011D000000000000000000000000000000000000F
:1011E00000000000000000000000000000000000FF
:1011F00000000000000000000000000000000000EF
:10120000354936480A1A02D0072291438D4634499F
:1012100034480A1A06D00722914381F30988022232
:1012200082F3148830483149314A00F044F831489B
:101230003149324A00F03FF831483249324A00F031
:101240003AF832483249334A00F035F832483349E7
:10125000334A00F030F833483349344A00F02BF871
:1012600033483449344A00F026F8344834490022DF
:1012700000F02CF833483449002200F027F83348B6
:101280003349091A082902DB002202604160314A11
:1012900090471F481F49884205D00268043003B4B4
:1012A000904703BCF7E700208646EC46002000216B
:1012B000294A9047FEE7884207D0521A05D00378A2
:1012C00001300B700131013AF9D17047884202D0E8
:1012D00002700130FAE770470000042000E00320AC
:1012E0000000042000000420244B01009C01002089
:1012F000E0020020D0130000D01300004CFD0000DD
:10130000244B01009C0100209C010020C801010029
:10131000C8010100C8010100C8010100C8010100A5
:10132000C8010100C8010100C8010100244B0100EF
:10133000684C0100E0020020E0020020E0020020F2
:101340006421002064210020682100206821002001
:10135000684100209D13000005E20000FEE7FEE763
:10136000FEE7FEE7FEE7FEE7FEE7FEE7FEE7FEE755
:1013700000F002B8FFF7FCBF0F484FF007018843A9
:1013800085460E4880470E48016841F470010160AF
:10139000BFF34F8FBFF36F8FFFF732BF09480A4982
:1013A0000A4A884207D0521A05D0037801300B70E0
:1013B0000131013AF9D1704700000420A1E6000094
:1013C00088ED00E034000100080000209C010020AE
:1013D000004870475C2100207047000007B50022DC
:1013E00001A909F0DFFA30B9044A01981368013302
:1013F000136009F090F903B05DF804FB5C03002072
:101400000148FFF7EBBF00BFE4FD00000148FFF714
:10141000E5BF00BF00FE000030B585B00546019174
:10142000002401A9284609F011FA10B9204605B098
:1014300030BD002203A9284609F0B4FA0028F0D1F3
:10144000039809F068F90134EBE7000073B583688D
:10145000D3F854339B07054603D50022114607F005
:1014600049FD154C154A24F47F6428464FF48056F4
:10147000082124F00F0406F055FA2346284600966A
:101480000F4A082106F04EFA0E4B0F4A1B681C1B30
:10149000642363432846CDE900461B0B082106F070
:1014A00041FA0A4B0A4A1B680821284602B0BDE8E7
:1014B000704006F037BA00BF675C0100FC01010014
:1014C00010020100540300203D0201005C030020D3
:1014D0006C02010000238B540A460068194606F08E
:1014E00021BA00002DE9F0433B4D3C4F87B08046C8
:1014F0000E46002202A9404609F054FA044600288C
:1015000044D1DDF8089005940C2240230DEB020134
:101510002B6048462346CDE9034409F01FF90C220D
:101520000DEB020138460DF099FF9DF80C3003F0E9
:101530000303012B06D0022B2ED02C60029809F059
:10154000EAF8D6E7BDF80C40C4F38314A4000C23DA
:1015500022462349484609F001F92A6804F10C03A0
:101560009A42EBD3029A1F4C009221681E482B60CE
:101570003A4608F069FEC8B1FEB904281DD10298A8
:1015800009F0C9F8194A136801331360184805F0C7
:10159000AAFB07B0BDE8F083BDF80E40A409342CC7
:1015A00028BF3424033424F00304D0E7002EF0D005
:1015B00023682A6813442360C0E7102806D10298E4
:1015C00009F0A9F80B4B01221A7092E70A494FF46F
:1015D0009F7005F093FA8CE7580300206003002009
:1015E0006C03002054030020540000205C03002002
:1015F00020030020D003002083020100174A38B5E1
:1016000013780446CBB90378012B25D1416879B909
:101610001348144A0368156811602B44036012488C
:10162000FFF760FF6069B8B1BDE8384009F073B8F2
:101630000E4A136801331360F4E7012B0CD10378D1
:10164000022B09D10A4B816823F47F6323F00F0337
:10165000994204BF0023137038BD00BFD00300209F
:101660005403002058030020E4FD00005C03002028
:10167000675C01000D4B1B7810B50C46A3B90846FA
:1016800009F045F821460A48FFF7C6FE094A1368E3
:1016900018441060084805F01DFB014620B90448B5
:1016A000BDE81040FFF71EBF10BD00BFD0030020F3
:1016B000E4FD00005C0300202003002038B50B4C43
:1016C0002378012B0D460FD0084609F020F8294653
:1016D0000748FFF7A1FE2378022B05D1012104481A
:1016E000BDE83840FFF7FEBE38BD00BFD003002084
:1016F00000FE000070B5002286B01B491B4808F0B0
:1017000067FD1B4B044650BB02221A70194B1A4846
:101710001A4E0125C3F884502946FFF7E3FE04F072
:10172000C40343F0290303948DF80C30039B144A3F
:1017300031680E4862F39F23124A0393C2E90034D2
:1017400094600C23009408F07FFD33680E480C333E
:101750002946336006B0BDE87040FFF7C3BE0122E2
:101760001A7006B070BD00BF682D01005400002043
:10177000D003002000E100E0E4FD0000540300205D
:10178000C80101006003002000FE000070B50E4695
:1017900001680446154621B9154921F47F6121F0FD
:1017A0000F012160134808F095FEF0B12168316007
:1017B0000B7803F0030301F10C00012B286003D028
:1017C000022B09D0052070BD0B88C3F383139B0047
:1017D000034423600020F6E74B889B09342B28BF85
:1017E0003423033323F00303F2E70620EBE700BFC3
:1017F000675C0100540000201FB5114B114C23F40D
:101800007F6323F00F03E360014603F6FF73204676
:101810000022236108F0DCFC044668B9019003AAA9
:1018200002A901A8FFF7B2FF0028F8D0064B019AE1
:101830001A60064B00221A70204604B010BD00BF8B
:10184000675C01005400002054030020D0030020F6
:101850002DE9F0418368D3F854339B0788B00446E0
:1018600003D50022114607F045FB0023CDE90233E2
:10187000274E284D284F4FF0010803AA04A902A8BB
:10188000FFF784FF0346002836D1DDE90301CDF8D8
:101890001A30ADF81E308B6805938B88ADF8183080
:1018A0000B78346003F00302012A07D0022A18D013
:1018B000394640F29E2005F021F90FE00A88D1F860
:1018C00000C00095C3F3C2038DF81C30014605AB80
:1018D000C2F383124FEA9C2001F0B6F84FF00008E3
:1018E000CBE74988C3F3C2038DF81C3005AA2B4609
:1018F000890901F00DF9F1E7B8F1000F04D0074AAA
:101900000221204606F00EF808B0BDE8F08100BFC5
:10191000D40300209C01002083020100EA010100A1
:1019200010B5084C084B094824F47F64012224F0C8
:101930000F041A702146002308F046FD044B1C607A
:1019400010BD00BF675C0100D003002054000020E0
:101950005403002008B58368D3F854339B0703D59C
:101960000022114607F0C6FABDE80840FFF7D8BFCD
:10197000F0B595B008460D4616461C4608F0C7FE61
:101980001A9A0D9200230C2205A928460A938DF875
:101990002C300C93CDE9086408F0E0FE079B02931D
:1019A000069B039301238DF811309DF8143003F04A
:1019B0000302012A1DD1BDF81440059EC3F3C203E2
:1019C000C4F383148DF81030A2000C230EA928460E
:1019D00008F0C4FEC6F3952608AB0093224602AB7E
:1019E0000EA9304601F030F8284608F094FE15B0F4
:1019F000F0BD022AF8D1BDF81640C3F3C203A40912
:101A00008DF810300C27082C264628BF08263B46A8
:101A100032460EA9284608F0A1FEA41B08AB02AA74
:101A200031460EA8374401F073F8002CEBD1DBE708
:101A3000014B01221A707047190400207047000002
:101A400070B50F4D06460FCD88B06C460FC495E8B3
:101A50000F00002E84E80F004FF01F03094A0A48C8
:101A6000009308BF0022694609F0A8FA18B1074A96
:101A7000432101F0A9F9064B1E7008B070BD00BFEC
:101A800024040100311A0000B401002050040100B8
:101A9000D803002007B5044B0093044A4023FFF706
:101AA00067FF03B05DF804FBB11A0000D903002002
:101AB00038B50E4B0E4D002018700E4804782D5D81
:101AC000D2B21C4675B104300AF024FB18B10A4AA0
:101AD000532101F079F9094B1A7812B12378002BC0
:101AE000FBD038BD0C300AF079F8EFE7190400207C
:101AF000E40E0020B401002050040100D8030020AF
:101B000008B50848084A0378D35C3BB104300AF0B2
:101B100099FA0020BDE80840FFF792BF0C300AF0A8
:101B200007F8F6E7B4010020E40E002000230428A3
:101B3000CB604B6098BF044B044A98BF53F82030E9
:101B40008A600B60704700BFAC0701008807010086
:101B5000CB6800225A717047C368DB6800225A7153
:101B60007047CB6801225A717047C368DB68012255
:101B70005A7170470D4A8A6070B50D4A0D4C0023AA
:101B8000121BCB604B600B6012091D469A4207D0B6
:101B9000E6683679FF2E05D0854202D1A3680B6036
:101BA00070BD013501331034F0E700BFC0070100FC
:101BB000E0FF000090FF00002DE9F74F164D174C95
:101BC00052F8047C0193641B064689469246240918
:101BD0004FF00008444508D1114A3B4602213046E7
:101BE00003B0BDE8F04F05F09DBEA96838460DF082
:101BF000B3FCAB46103510B108F10108EAE7DDEDA2
:101C0000017A17EE90CA53464A465946304603B009
:101C1000BDE8F04F604700BF90FF0000E0FF00000C
:101C2000F8080100014BFFF7C7BF00BF0D220000FD
:101C3000014BFFF7C1BF00BF511B0000014BFFF775
:101C4000BBBF00BF631B0000014BFFF7B5BF00BF68
:101C500045200000037813F0040216D003F00303BC
:101C6000012B03D0022B09D0012070470A6800889D
:101C70000332C0F3831002440A60F5E70B68428820
:101C8000033303EB92130B60EEE71046704700003E
:101C90002DE9F04F464C0F4687B00546C61C002084
:101CA000914603F097FB20683860D4E90132134471
:101CB00001331B1A04F21C4704F5836A04F214482A
:101CC000B34217D30022B9F1000F6AD0052363F3A2
:101CD000070265F389122168A3680B4003330E44A1
:101CE000002044F82320266003F084FB012007B085
:101CF000BDE8F08F0121384604F0D6FF504604F0CD
:101D0000ECFF404604F0E9FF6068A36802901840C9
:101D1000033004EB800002A90193FFF79BFF834689
:101D2000DDE90130BBF1000FF1D103EA000204EB61
:101D30008202411CD26803920B4004EB830302F041
:101D40000302D968012A00F10303029321D0022A79
:101D500005D018494FF4BF7004F0D0FE08E0BDF87C
:101D60000E00800903304FEA114B03EB9000029004
:101D7000404604F0B5FF08B1029B636059463846FF
:101D800004F092FFD4E901231344226801339B1A23
:101D900096E7BDF80C00C0F383104FEA114B1844CE
:101DA000E5E7062363F3070265F39F5293E700BF5D
:101DB000B4050020E7040100012907B5034604D05B
:101DC0008168D1F85413890707D5002211461846B7
:101DD00003B05DF804EB07F08DB853680193054B31
:101DE00000931368044A022105F09CFD03B05DF8DE
:101DF00004FB00BF73050100690501002DE9F347ED
:101E00008368D3F85443C4F34004074634B1002236
:101E1000114602B0BDE8F04707F06CB8144E154DFE
:101E2000DFF85880DFF85890DFF858A0AD1B2D0977
:101E3000AC4202D102B0BDE8F087F268B368117914
:101E4000FF2907D10C4A0821384605F06BFD013403
:101E50001036EDE75279002A14BF42464A46CDE9D2
:101E6000002138465246082105F05CFDEFE700BF2F
:101E700090FF0000E0FF00009905010088050100C7
:101E800090050100B805010030B50A4B0A4A0B491C
:101E9000D21AD20800239A4201D1052006E031F877
:101EA00023500468A54202D10360002030BD0133F5
:101EB000F1E700BF70FE000090FF00007C000020F2
:101EC0002DE9F84F0546002849D0264CFF23084647
:101ED000A3600023C4F81834C4E90033C4F81434F0
:101EE00084F8203400F06EFE1F48C4F80C5408F04B
:101EF000C7FB814688B91D481D4E1E4CDFF880A0E7
:101F000008F0A4FEA41BE4084D46A54208D1002316
:101F1000194A1A481946A3421BD14846BDE8F88F12
:101F20004FF00008474606EBC50BBD420AD014220D
:101F300056F83710DBF800000DF0EAF90028C8BFAA
:101F400008F101080137BC42EFD12AF8258001359C
:101F5000DBE720F8231042F8041B0133DBE74FF0E6
:101F60000709DAE7B4050020E0FF00007C07010064
:101F700070FE000090FF00000C0100207E00002099
:101F80007C00002007B5019031B9019A064B53F847
:101F9000320003B05DF804FB01A8FFF775FF0028CD
:101FA000F3D00020F5E700BF70FE0000002310B55D
:101FB000CB604B60034B8B600C460121FFF7E2FFC7
:101FC000206010BD88070100094B013903EBC000F8
:101FD000032909D8DFE801F00A020406042070474B
:101FE00000797047407970470020704702207047A1
:101FF00070FE000030B5114C00EB400054F8215049
:102000008240072383406A401A400D4B6A40C2F366
:10201000821044F8212003EB8101C2F3C203834202
:1020200038BF0346C2F34220834202F0070238BFA2
:1020300003469A4238BF1A464A8030BD0C01002040
:102040007C0000202DE9F74F06461D469046002AE9
:102050004FD0CB6828684B4993F8049007220DF0C5
:1020600057F9D0B9B8F1010F07D1474A02213046DC
:1020700003B0BDE8F04F05F055BC444F04460A22BA
:1020800057F8041B68680DF043F9002873D0013439
:10209000052CF4D16B683E4A13E008223D492868BC
:1020A0000DF036F958B9B8F1010F04462AD00127CE
:1020B000394A3A4B9B1A4FEAD30A934645E02B68BC
:1020C000374A0221304603B0BDE8F04F05F02ABC84
:1020D00018F83530A3420FD200212846FFF752FFEF
:1020E000524603460221304605F01CFC0135BD4234
:1020F000EED103B0BDE8F08F224629464846FFF7EF
:1021000079FFF3E7244B254FDFF89CA0FF1AFF0867
:10211000002503F10608EAE7184600210193FFF7BE
:1021200031FF009920220DF0F3F8019B014608B120
:10213000013310E00BEBC3029279A24215D3224681
:1021400019464846FFF756FF01374745D1D255F8A3
:102150002730009300239A45DED155F82730114AE5
:102160000221304605F0DEFBEEE71846FFF70AFFD6
:102170000D4A0346F4E7B8F1020FE4B2C2D00227D9
:1021800096E700BF520601005906010098070100BA
:10219000C40601007006010070FE000090FF000000
:1021A00078060100B00601008D06010013460A46BC
:1021B000C168FFF747BF000013B504460191A3B102
:1021C00062B9019A0F4B04EB4404072053F8223004
:1021D000A0401840E040C0B202B010BD01A8FFF717
:1021E00053FE0028EDD00020F6E72AB9019A064BED
:1021F00003EBC2039879EFE701A8FFF745FE00283B
:10220000F1D1F3E70C01002070FE0000284B294AB1
:102210002DE9F04F9B1A4FEAD309CB685B7985B063
:1022200005460E461BB9244A022105F07BFB234BD1
:10223000234A244F0821284605F074FB224A08212E
:10224000284605F06FFB00244C4502D105B0BDE8DF
:10225000F08FF36893F8048001231A462146404624
:10226000FFF7AAFF01222146834600234046FFF7DD
:10227000A3FF0428034628BF04235FFA83FA80469D
:1022800001212046FFF77EFE57F82A3001930F4ABE
:102290000F4B57F82B100091D04598BF134602936F
:1022A0000C4A03460821284605F03CFB0134CBE7E5
:1022B00090FF000070FE0000E3060100F60601003A
:1022C0000207010098070100200701005B400100A0
:1022D000E10601005D07010013460A46C168FFF7E9
:1022E00095BF0000034BD3E90030C31A5842584150
:1022F000704700BFB40500202DE9F04F85B0FFF70F
:10230000F1FF0646002840F01C818F4DC5F81804E7
:10231000BFF34F8F6868AC6800902040033005EB36
:1023200080006946FFF796FC009B18B1D5F8182489
:10233000002A6CD0591C214005EB810104EA0302FC
:10234000C9680291D91C023305EB8202234005EBD8
:102350008303D268DB68039302F00303022B01922C
:10236000009169D1BDF8063078489DF804604FEAC5
:10237000931ABAF1A00FD14628BF4FF0A00969F314
:102380008F1309F10C01ADF8063008F091F9C6F38E
:10239000C2068046002800F0BB8008F0B8F901A909
:1023A00000230C22404608F0C5F9009924EA0107F1
:1023B0000137BF00B94538D95FFA89F997B3FFB241
:1023C000A9EB0709214003315FFA89FBB946604F49
:1023D00005EB81010C234A46404608F0ABF937B1C2
:1023E00009F10C035A463946404608F0A3F9009B10
:1023F0000AF1030A03EB9A030093D5F81834002B73
:1024000050D1D5F81044DFF85C9107276FE02A68B7
:102410009A4204D86A60304605B0BDE8F08F04EAFD
:1024200003007BE74A49BB46D4E7214003310C2334
:102430004A4605EB8101D7E7012B69D1BDF804605D
:102440004248C6F38311062928BF062161F3891685
:1024500003318900ADF8046008F02AF9C6F3C2061A
:102460008046002854D008F052F900230C2201A91C
:10247000404608F05FF90027BDF80420C2F383123C
:10248000BB00974203F10C03B7D200994A1C2140CC
:102490000331009205EB81010422404608F04AF91D
:1024A0000137E9E7404608F036F9FFF71BFF80F0F7
:1024B0000100C6B2AFE7E3685A79B2B11B79BDF843
:1024C000081003EB430259F8211007FA02F3052E16
:1024D00003EA010323FA02F308BF0326B34204D33D
:1024E000236841461B6820469847E3681C68002C17
:1024F000E1D1404608F00FF9204602F06BFFD5F815
:1025000018340BB9009B6B60002002F073FFCCE71E
:10251000D5F8104474B90F4B5B88012BC5D90E4B0D
:102520000E480F49C01AC008000440F0020000F035
:102530008FF8BAE7236820469B689847E3681C68D1
:10254000E8E7002667E700BFB4050020E0FF0000D1
:10255000C00500209400002070FE0000A0FE0000D6
:10256000A70901000C0100202DE9F74F334C8146EB
:102570008846164601A9012218461F46D4F808A02D
:10258000FFF786FB002845D0019D0023E81CBB42D5
:1025900003EB000248D10021294804F044FB80F3FA
:1025A000100B284B284A4FEA19469B1AB6EBD30F5B
:1025B00004D3264940F2A31004F0A0FA6B1C03EAEE
:1025C0000A0304EB830346EA0B46DE60D4F80C34BE
:1025D000AE1C984706EA0A0604EB860605EA0A03DB
:1025E0000333F06014F8232069F3C50204F82320B4
:1025F00034F8232067F3891224F8232054F8232089
:1026000068F39F2244F8232002F0F80242F001020E
:1026100004F8232094F820341BB1FFF76DFE002846
:10262000FBD103B0BDE8F08F0AEA020204EB82029C
:1026300056F82310D1600133A9E700BFB40500208C
:10264000D009002090FF000070FE0000E7040100A8
:1026500000231A46FFF788BF07B50123019201AA9C
:10266000FFF782FF03B05DF804FB07B5CDE9002357
:1026700002236A46FFF778FF03B05DF804FB1FB53D
:10268000CDE90123069B039301AA0323FFF76CFF07
:1026900005B05DF804FB1FB5CDE90023069B02934E
:1026A000079B03936A460423FFF75EFF05B05DF8BE
:1026B00004FB7FB5CDE90123089B0393099B049399
:1026C0000A9B059301AA0523FFF74EFF07B05DF8AB
:1026D00004FB00001C4A2DE9F843D2F810340746E9
:1026E00088460024194689B9F9680C71A3B9C2F863
:1026F00010740B60154B164DED1AED08002603F112
:102700000709AE420DD12046BDE8F883C9680879B3
:10271000A04212D00968E6E7DB681A680A601F6009
:10272000E8E719F83620FB684245314628BF4246A3
:102730001879FFF75FFC0136E3E701340A2CD1D1A9
:102740004FF0FF34DFE700BFB405002070FE00004B
:1027500090FF0000094A38B50123D2F8104482F8EE
:1027600020341D4604B938BDE3685D7123682046F6
:102770005B689847E3681C68F4E700BFB405002075
:1027800010B588B00023CDE902330493CDE90033BE
:102790001F4B204A0593204B06929B1A9B080793D8
:1027A00002AA6B4643F2274141F26E0003F09EFFFE
:1027B000B0B905A902A803F091FF184B5B88022B62
:1027C00004460AD91648174B1749C01AC008000416
:1027D000224640F00300FFF73FFF204608B010BD3F
:1027E00048F20963984210D105A902A803F072FFCC
:1027F0000A4B5B88022B0446EFD90948094B0B4969
:10280000C01AC00800042246E3E70324E5E700BF3E
:102810006E1027340C0100209C0100209400002041
:10282000A0FE000070FE00004509010076090100CD
:1028300010B58368D3F854339B07044605D50022AE
:102840001146BDE8104006F055BBFFF799FF30B9BF
:10285000044A08212046BDE8104005F063B8024A4A
:102860000221F7E7150601002D06010000B589B029
:102870000023CDE905330793CDE9013305AA01AB68
:1028800043F2274141F26E0003F030FF90B9CDE9E9
:10289000030003A905A803F0D3FE40B91048114A6C
:1028A0000499121A0CF0DAFD05A803F0EFFE09B046
:1028B0005DF804FB48F2096398420FD10A4B5B882C
:1028C000012B09D909480A4B0A49C01AC00800045B
:1028D00040F00200FFF7BCFE0520E8E70320E6E732
:1028E0000C0100209C01002094000020A0FE0000AC
:1028F00070FE00002009010010B58368D3F854333E
:102900009B07044605D500221146BDE8104006F09D
:10291000F1BAFFF7ABFF30B9044A08212046BDE801
:10292000104004F0FFBF024A0221F7E7D905010079
:10293000F1050100037A052B10B50C460FD0437A40
:1029400023B1084A0849204607F014F807492046F1
:1029500007F010F82046BDE8104006F0F9BF002A45
:10296000F8D0F3E72B0C010070260100CD21010007
:10297000F0B5C38885B004460D4633B1284A0092AD
:102980002849294A284606F0F5FF217A052945D02D
:10299000637A4BB1A088FFF717FB244B244953F807
:1029A0002020284606F0E6FF224A23681168B3FB80
:1029B000F1F1214B1F68B1FBF7F34FF461664FF45F
:1029C0007A70B3FBF6F206FB123607FB13134FF0D7
:1029D0003C0C00FB03F1B6FBFCF3B1FBF7FE0CFB78
:1029E000136607FB1E11009641432846B1FBF7F121
:1029F000CDE901E1114906F0BDFF227A104BA08814
:102A000053F822600021FFF7BDFA0E490346324613
:102A1000284605B0BDE8F04006F0ACBF05B0F0BDFB
:102A20002B0C0100380C0100300C0100F80B0100E8
:102A300070260100740A0020700A0020500C01006A
:102A4000780C01006C0C01002DE9F04385B01F46A5
:102A50000C9D002306460C46904695F80C902B736F
:102A600029463846FFF784FFB8F1060F09D8DFE89A
:102A700008F00412181F283340003146284606F09B
:102A800079FF002229463846FFF754FF85F80C905D
:102A900005B0BDE8F08322683146284606F06AFF9B
:102AA000EFE7D4E900233146284606F063FFE8E764
:102AB000A36800933146D4E90023284606F05AFF64
:102AC000DFE7E3680193A36800933146D4E900236C
:102AD000284606F04FFFD4E723690293E368019389
:102AE000A36800933146D4E90023284606F042FF4C
:102AF000C7E76369039323690293E3680193A368BB
:102B000000933146D4E90023284606F033FFB8E7A6
:102B100008292DE9F84F80460E4617461C463AD83C
:102B2000002593F80C901D7319461046FFF720FFFF
:102B3000DFF884A0DFF884B0AE422ED918F8052063
:102B40005946204606F016FF0135082DF4D11849E4
:102B5000DFF86CB0204606F00DFF4FF0000A564536
:102B600020D918F80A507E2D03D828460CF0E5F934
:102B700000B92E252A465946204606F0FBFE0AF1EA
:102B8000010ABAF1080FEAD1012221463846FFF7BF
:102B9000D1FE84F80C90BDE8F88F5146204606F02F
:102BA000E9FED1E70349204606F0E4FEE7E700BF6F
:102BB000260C0100240C0100220C01001C0C010059
:102BC000280C0100084A10B50123084C13600021AD
:102BD000A04204D801B11360054B186010BD400835
:102BE0005B000121F4E700BF740A002040420F009F
:102BF000700A00200C4B186810F0010010B511D1BC
:102C000019685860C1F30721024604468A4204D17C
:102C100005225A60BFF34F8F10BD9A601C610132CC
:102C2000DC60F3E70620F7E790ED00E02DE9F84FD0
:102C30009B461F4B1F2A07468A4614461E68984625
:102C400031D9013A02EA04051FFA8BF31D430A4009
:102C5000154328D1284602F0BDFBC6F30726A94636
:102C6000B14514D0C8F80890D8F81030DB0702D569
:102C700009F10109F4E7B4FA84F4C4F11E044BEA43
:102C8000440444F00104C8F80CA0C8F81040002027
:102C900002F0B0FBB14508D2BFF34F8F87F8009028
:102CA0002846BDE8F88F0725FAE70425F8E700BFB6
:102CB00090ED00E02DE9F041234F244E07F17F0411
:102CC00024F07F0404F180039E4286B0B84603D806
:102CD0001F49432003F012FF1E4B802221460DF1B5
:102CE0001700FFF7A3FF1C4B05465B88D0B9022BEA
:102CF00014D91A4B1A481B49C01A1B4BC008DF1BBA
:102D0000000404F17F03A6EB0806009302970196E6
:102D10002346802240F00300FFF7CBFC284606B094
:102D2000BDE8F081002BF9D008F00CF80C4C0B4BEF
:102D30000E49E41AE408240403462A4644F001003C
:102D4000FFF793FCEAE700BF00E003200000042047
:102D5000D00C0100000029170801002070FE0000BF
:102D600088FF0000550D010080FF0320B50D010014
:102D700082B001238DF807309DF80730114B1860A1
:102D8000596044F2010188429A6012D044F2020173
:102D9000884206D1DA60DA6812889A61DA68526885
:102DA000DA6172B69DF80730002BFBD162B602B033
:102DB00070471A611A6992685A611A6912689A61B1
:102DC0001A69ECE7780A002000B583B00290009100
:102DD000019244F2010071466A4600F003F803B024
:102DE00000BD00002DE9F043064685B00F461546AC
:102DF00072B6FFF7AFFCFFF77FFA0028FBD1DFF8D0
:102E0000C88044F201029642B8F802301DD044F264
:102E1000020296423BD15BB1244B25486A682549A2
:102E2000C01AC00800042B8840F00100FFF71DFC09
:102E3000214B1B68DB0700D500BE2A4639463046C9
:102E400005B0BDE8F043FFF793BF002BF0D0174B60
:102E5000D5F80890164C4846E41AE40807F072FFCB
:102E60002B680297019324046B68009344F00104DB
:102E700003464A4611492046FFF71BFCB8F80230CA
:102E8000002BD5D00E492046FFF7E2FBD0E7002B00
:102E9000CED0064B06480B49C01AC00800043A467B
:102EA00040F00100FFF7D8FBC2E700BF70FE000052
:102EB000A0FE0000200E0100F0ED00E03A0E01003F
:102EC000600E0100740E010094000020D0E902237E
:102ED000D1E90201994208BF90422CBF0120002095
:102EE000704700002DE900480C4802F072FD0C4BC1
:102EF000D3E9002312EB000B43F1000C094BD3E99B
:102F000000239C4508BF93455846614603D21BF1F8
:102F100080704CF10001BDE8008800BFE401002092
:102F2000A00A0020080B002037B505460C461248C1
:102F300001A903F003FEE8B14460057001A90E4841
:102F400003F026FE044628B10C4802F047FD00209D
:102F500003B030BD0A4B5B88012B09D909480A4BE5
:102F60000A49C01AC008000440F00200FFF770FBD5
:102F70002046EDE70420EBE7D0010020E40100202B
:102F80009C000020B0FE000070FE0000A4100100B4
:102F900043692DE9304804461BB92249A22003F0B9
:102FA000ADFD214B1B781BB900252846BDE83088B4
:102FB00094F8203003F0FF05002BF5D0FFF792FFC7
:102FC000D4E90223994208BF904226D323690BB962
:102FD00084F82030154B5B88032B0AD91448154B15
:102FE000A2691549C01AC008000440F00400FFF7A8
:102FF00033FBD4E90530984721690029D4D094F8EF
:10300000203003F0FF05002BCED0D4E9022312EBD1
:10301000010B43F1000CC4E902BC2146074807F04C
:103020001FFEC2E70E100100A80A00209C0000202D
:10303000B0FE000070FE000088100100900E01003C
:1030400013B5114B114918680190082358221048F4
:1030500003F061FD044698B90E4A0F4801A902F039
:103060004DFB044660B901210B4802F09FFC01238F
:103070000A4A0948194602F0EDFB094B01221A7071
:10308000204602B010BD00BF8C0E0100AC0A00202B
:10309000D001002055310000E4010020FFFF7F0037
:1030A000A80A002070B50C461546064620B90A4904
:1030B00040F22E2003F022FD35B940F22F200649C0
:1030C00003F01CFD072070BD621E3368544254415A
:1030D0005D611C610020F6E70E10010070B50D4621
:1030E0001646044620B90D4940F23E2003F006FD85
:1030F00094F8203083B9A661FFF7F4FE421941F13C
:103100000003C4E90223236903B12561214600209D
:10311000BDE87040FFF708BF002070BD0E10010031
:1031200010B5044620B907494FF4157003F0E6FCCA
:10313000002384F8203021460120BDE81040FFF72D
:10314000F3BE00BF0E100100014802F042BC00BFF8
:10315000E40100202DE9F04F87B00746B14C02F0A2
:1031600029FCB14BE41AE408240444F0040A80B1B9
:10317000AE4B5B88032B03D9AD495046FFF768FA85
:10318000AC4AD2E9003113F1807341F10001C2E988
:1031900000310021384602F017FC48B3A64D2B68D9
:1031A000002B00F0BB80384602F013FC2B689B68B4
:1031B000C01A20F07F40B0F5960F04D39F4940F22B
:1031C0002B1003F09BFC2B68DB695B88032B0AD96F
:1031D0002B689B49D8699B4BC01A8008000440F0BB
:1031E0000400FFF735FA2868FFF7D2FE00232B60B2
:1031F0000121384602F0E8FB20B1FFF773FE924B45
:10320000C3E9000105A991488B4EDFF83882DFF849
:10321000689203F0CDFC44F003058346BBF1000F38
:1032200040F0878044F00103DFF83C92DFF8FCB106
:103230000393484607F040FD7F4C2368002800F0C8
:103240002D8103B32368D0E90201D3E90223994217
:1032500008BF90425FD2236893F820309BB1236867
:10326000DB695B88032B0AD923687949D869754BD8
:10327000C01A8008000440F00400FFF7E9F9216853
:10328000484607F0EDFC484607F006FD0546C069D4
:103290004388032B0AD96B4B6E49C01A8008AB6870
:1032A00000041A4640F00400FFF7DFF9D5E9026890
:1032B000FFF718FE331A009368EB01030193DDE971
:1032C0000023012A73F10003C0F29480624E009B38
:1032D000B34240F28D80FFF737FF06444FF4960368
:1032E000324600215D4802F0E3FABBF80230032BBE
:1032F000804606D9034626F07F4259495046FFF7DB
:10330000B4F9B8F1000F40F0B980236813B938461A
:1033100002F084FA256007B0BDE8F08F434B5B886C
:10332000012B7FF665AF4F4944F00200FFF790F99B
:103330005EE79BF80030012B35D073B1022B28D10A
:10334000494B4FF0000B184607F0A6FC002800F090
:10335000AC8080F820B0444BF5E7DBF8041091F81E
:103360002030B3B9012381F820303F4807F078FCC2
:10337000DBF80430D8694288032A0AD9A0EB080098
:103380009B683A49800800041A4640F00400FFF7A1
:103390006CF905A92D4803F036FC05A92B4803F06C
:1033A00007FC83463AE7DBF804103368994211D1F1
:1033B00000233360DBF80430D8694388032BE8D955
:1033C000A0EB080080080004494640F00400FFF725
:1033D0003FF9DEE7244807F07BFC0028EAD1134BD5
:1033E0005B88022BE6D922492846FFF731F9E1E74D
:1033F000AE6873E70021194802F0E0FA2846FFF7AB
:10340000C7FDE8694388032B08D90E4B1949C01A38
:103410008008000440F00400FFF71AF9002323603D
:1034200007E700BFB0FE000070FE00009C00002017
:103430009C0E0100A00A0020100B00200E100100BD
:10344000A90E01007C000020080B0020D001002004
:10345000670F0100780F0100FFFFB400E4010020B6
:10346000970F0100B50E0100900E0100EA0E010059
:10347000110F0100CB0F0100470F0100B8F10D0F34
:10348000BCD0BBF8023023B142460D490398FFF788
:10349000E3F80C49F52003F031FBB2E7002B7FF491
:1034A0003AAF384602F0C8F935E7074B01221A70E7
:1034B000064B5B88022B7FF66CAF0549284686E7F2
:1034C000B60F01000E100100A80A00209C00002089
:1034D000550F0100024B5B6803B11847704700BFEE
:1034E000140B0020024B01465A681868104700BFB1
:1034F000680B00200378052B0CD1084AD2F88434DD
:10350000D2F8802412F0FF0F04D1054ADBB2052B5C
:1035100008BF1046034B1B68184700BF00700240ED
:1035200058120100140B0020FFF7E4BF38B50D4618
:10353000044620B9064940F2431003F0DFFA6378ED
:10354000AB4283BFA07840190019002038BD00BFEE
:10355000D610010038B50D46044620B906494FF48F
:10356000887003F0CBFA237AAB4283BF093405EBB2
:1035700045056019002038BDD610010070B50D4614
:10358000044620B90D4940F20F1003F0B7FA636802
:1035900023B90A494FF4887003F0B0FA63681B68D6
:1035A00023B9064940F2111003F0A8FA63682946CE
:1035B00020461B68BDE87040184700BFCF110100CE
:1035C00008B520B1044940F27B2003F097FA034884
:1035D000BDE80840FFF78EBFCF1101005C1201006B
:1035E00010B5044620B9044940F2432003F086FA9E
:1035F0002368186810BD00BF5811010000F00F03C8
:1036000010F0800F10B51CB20AD0082B04D909495C
:103610004FF4CC7003F072FA074800EBC40010BD01
:10362000082B04D903494FF4CF7003F067FA03481D
:10363000F3E700BFCF110100200B0020680B002032
:1036400070B50D460646FFF7D9FF044605604DB933
:10365000730604D105494FF4E17003F04FFA0023DB
:10366000636070BD6B681B68FAE700BFCF11010093
:1036700001280AD030B1022809D0064940F2622060
:1036800003F03CBA0448FFF735BF0448FBE70448A1
:10369000F9E700BFCF1101004C12010050120100E8
:1036A0005412010038B5831EDBB2062B98BF1A4AAC
:1036B0001A4C98BFD25C2378A3F10203DBB288BF17
:1036C0000022062B9ABF1449CB5C00239342054687
:1036D00003D0B2B1124807F0B7FB022D14D0A5F108
:1036E0000800424242412378022B0FD0A3F1080187
:1036F0004B424B41934202D052B109F02FFA257050
:1037000038BD07F0DDFBE8E70122ECE70123F1E734
:1037100009F01AFAF3E700BFCF100100B90B00203F
:10372000EC0100202DE9F04F87B0002605468946C0
:103730009246984602966B6800225C6829460123EF
:1037400002A8A04740B98DF8060004900446074639
:10375000BE4203D805202AE00136ECE76B680DF184
:103760000602D3F804B02946012304A8D8476B68A1
:103770000DF10702D3F804B02946012304A8D84765
:103780009DF807304B459DF8063015D1544511D1B1
:10379000109A136088F8003088F801906A68023B3C
:1037A0005468294608F1020204A8A047002007B087
:1037B000BDE8F08F0134E4B26A68023BD2F804B08D
:1037C0002946002204A8D8479DF806301F44BFE7C9
:1037D0002DE9F341054607F0DFFA20B92E4940F202
:1037E000313003F08BF92D4809F0F8F90446002830
:1037F00036D12B4B18702B4B18602B4B01461860A1
:1038000048222A480BF053FE4822214628480BF054
:103810004EFE284B45BB284A1D72C3E900250020F7
:1038200007F072FB30B1852804D01B4A40F25F31AB
:10383000FFF7CAFADFF88480002421464046FFF7EC
:1038400089FE651CEDB2074618BB0B2301A91B4876
:103850008DF80430FFF792FE044608B109F01AF81B
:10386000204602B0BDE8F08195E8070083E8070034
:103870000028D4D1104A1A60D1E741460078FFF7FA
:10388000DFFEF1B23846FFF751FE01360028F4D1D1
:10389000D3E700262C46F4E7CF11010029350000BC
:1038A000B90B0020B00B0020B40B0020200B00202F
:1038B000680B0020140B0020CD3C000058130100C1
:1038C00010B509F0EFF810B90823184610BD09F03B
:1038D000F1F804460028F7D1064807F030FB03460C
:1038E0000028F2D0044A40F2C231FFF76DFA2346B5
:1038F000EBE700BF48120100CF11010008F0E0BF64
:1039000008B509F0E1F820B1044940F2D13003F0E4
:10391000F5F8BDE8084009F03BBF00BFCF1101003A
:1039200008B509F0C7F820B90A494FF4767003F0DA
:10393000E5F84FF08043D3F83824920704D50648C1
:10394000BDE80840FFF7D6BDD3F83824D107F2D43C
:1039500008BD00BFCF1101005D12010007B5822331
:1039600001A88DF80430FFF7C5FD03B05DF804FB36
:103970002DE9F341044620B93B4940F26A5003F077
:10398000BDF8636823B9384940F26B5003F0B6F8CC
:1039900063681B6823B9344940F26C5003F0AEF8F9
:1039A00023681B6823B1304940F26D5003F0A6F83C
:1039B00009F080F830B12C4940F2715003F09EF8C4
:1039C000002617E009F06EF80028F9D1F3E7007837
:1039D000FFF714FE036808F1010823B1112026E067
:1039E0004FF000083E465FFA88F12846FFF79EFD3B
:1039F0000028ECD131462046FFF7ACFD771CFFB222
:103A000005460028ECD129462046FFF7A3FD6E1C91
:103A1000F6B28046D0B9154D134E2B68CBB92C6049
:103A20000B2301A920468DF80430FFF7A7FD02B053
:103A3000BDE8F08121460078FFF702FEF9B240466A
:103A4000FFF774FD01370028F4D1DCE70027354685
:103A5000F4E7A34204D1314640F2975003F04EF808
:103A60002B681D68D9E700BFCF110100B00B002003
:103A7000024B1878003018BF01207047B80B0020A7
:103A8000030710B5044604D409F0BEFB204609F034
:103A900051FF2046BDE8104009F0F8BE09F0C0BE55
:103AA000014B1868704700BFB00B00202DE9F843A8
:103AB0000E4B1C6880460F46ACB194F80890002667
:103AC000F5B2A94504D82046FFF78AFD0446F3E77E
:103AD00029462046FFF73EFD0378434506F10106DF
:103AE000EED107B13D702046BDE8F883B00B002051
:103AF0001146FFF743BD00F00F03082B10B50C462D
:103B000008D8FFF77BFD006820B12146BDE81040D2
:103B1000FFF734BD102010BD38B5074B1C680546B3
:103B200004B938BD29462046FFF728FD2046FFF797
:103B300057FD0446F4E700BFB00B002038B5084B32
:103B40001C6805460CB9062038BD29462046FFF7FB
:103B500015FD0628F8D12046FFF742FD0446F1E79F
:103B6000B00B002038B504460D4609F082F848B184
:103B7000054B1B78022B05D129462046BDE838406D
:103B800009F084B8082038BDB90B002038B50446C8
:103B90000D4609F06EF848B1054B1B78022B05D194
:103BA00029462046BDE8384009F0FAB8082038BD5B
:103BB000B90B002043689B6870B505460E46144655
:103BC0009BB92B7AB34204D20F4940F2F92002F09C
:103BD00095FFB4B931462846FFF7BCFC4678054648
:103BE000E1B2B14205D3002002E098470628E8D0B0
:103BF00070BD2846FFF79AFC0078FFF741FF0134BB
:103C0000EEE70720F4E700BFCF1101004368DB684F
:103C100070B504460D4603B19847237AAB4204D2EF
:103C20000B494FF4467002F069FF29462046FFF722
:103C300091FC467805460024E1B28E4200D870BD62
:103C40002846FFF773FC007809F0EAFD0134F3E73A
:103C5000CF11010043681B6903B11847184670472C
:103C6000F8B50D4B0D4E1C6804B9F8BD277A002538
:103C7000E9B28F4204D82046FFF7B2FC0446F3E7CE
:103C800000222046FFF796FF20B1314640F26A70CD
:103C900002F034FF0135EBE7B00B0020CF1101003B
:103CA000094B70B51C6804B970BD267A0025E9B2CD
:103CB0008E42204603D8FFF793FC0446F3E7FFF754
:103CC000A5FF0135F3E700BFB00B002038B58C4BE2
:103CD0001B68054623B98B4940F2254002F00EFFD0
:103CE00001F098FB052804D8864940F22C4002F0E8
:103CF00005FF2C78092C20D023D8032C00F0C0809D
:103D000012D8012C00F0AA8040F291800320FFF726
:103D1000C9FC0220FFF7DEFB2846FFF7FDFE284620
:103D2000BDE83840FFF7DEBB052CF8D0C0F0B78007
:103D3000062C00F0C380082C13D12046FFF7CAFBE5
:103D400099E0812C14D005D80F2CF6D0802C4AD0C5
:103D50000A2CF1E7832C52D027D3842C58D0852C01
:103D6000DDD0684940F22650BDE8384002F0C6BEBA
:103D70006548FFF7B7FB6448FFF7CEFE0D20FFF75D
:103D8000A9FBFFF78DFF00F0F2FF604B1B6853B9F2
:103D90005F4B187A00F0010008F04CFE0120BDE8EE
:103DA0003840FFF77FBC0120F4E7FFF779FF09F007
:103DB000C5FC0020FFF776FC5648FFF7ADFE5548DE
:103DC000FFF790FB0E20FFF785FB534B1B78023B60
:103DD000DBB2062B3AD8514AD35C002B36D0BDE873
:103DE000384007F06DB84C4B1B78062B05D0072BDD
:103DF00001D0052B2AD10220D1E70820CFE7464B7E
:103E00001B78032B22D109F0E5FCF8B10420C6E7AA
:103E1000414B1B78032B05D109F0DCFC10B10420C9
:103E2000FFF740FC08F05EFE80B10620B7E73A4B92
:103E30001B78032B01D0082B02D13948FFF746FF2E
:103E40000020FFF747FB314B1C6804B938BD204602
:103E50002946FFF793FB23685C68F6E7FFF720FF2E
:103E600000F07CFF0220FFF71DFC2046FFF732FB2D
:103E70002846FFF737FB2846BDE83840FFF74CBE21
:103E8000254B1B78082B06D10220FFF70BFC08F00E
:103E90006FFE0320EAE70520FFF704FCF9E70320A3
:103EA000FFF718FB1F48FFF71DFB1E48FFF734FE06
:103EB000194B1B78062B9ED1072070E7A878FFF7D7
:103EC0009DFB0368044623B90E4940F2025002F0FC
:103ED00015FE636823B90B4940F2035002F00EFE51
:103EE00063682068294698470028AFD0A878020761
:103EF000ACD00307AAD4BDE8384009F047B900BFE9
:103F0000B00B0020CF1101005E120100B40B0020A5
:103F1000140B00205F120100B90B0020CF1001002C
:103F20006012010061120100CA699A4210B5436033
:103F30000CD38C690460086FD21A18441C440867BB
:103F4000101C8C61CA6118BF012010BD01F128024C
:103F500002608B670020F8E7CA6943609A4227BF76
:103F60008A69026001F12802026026BF0B67CB61FB
:103F70008B6700207047000038B50D46044620B915
:103F800006494FF4887002F0B9FD237AAB4283BF33
:103F9000093405EB45056019002038BD8012010089
:103FA00038B50D46044620B9064940F2431002F0E8
:103FB000A5FD6378AB4283BFA078401900190020AB
:103FC00038BD00BF8012010008B50121FFF7D4FF02
:103FD0000121FFF7E5FF007808BD00002DE9F84357
:103FE0001746C94A99460B7A13700E460546904605
:103FF00020B9C64940F20F3002F080FD2B68B3F5BE
:10400000517F00F0C58200F2CF8040F22632934209
:1040100000F0348262D840F21632934200F0F08110
:1040200025D840F21332934200F0CF81B3F5457F9B
:104030000AD2002B00F0B38140F21232934200F01A
:10404000B98100202860B3E100F0CD8140F2153243
:104050009342F6D100240FB12B793B550134022352
:104060004C452B71C0F0CD8140F216339EE140F2F9
:104070001932934200F0DD8114D840F21732934296
:1040800000F0CA81B3F5467FDBD100240FB12B7954
:104090003B55013400234C452B71C0F0CB8140F2DD
:1040A000193383E1B3F5487F00F0DB8140F2213220
:1040B0009342C6D100240FB12B793B55944B304627
:1040C0001978FFF759FF934B013418604C4503787A
:1040D0002B71C0F0D48140F2263367E140F23332D5
:1040E000934200F00982B3F54D7F38D2B3F54B7F90
:1040F00000F0DF811CD840F22732934200F0CA81E1
:10410000B3F54A7F9DD100240FB12B793B55814BEC
:10411000327D1B681B789A4204F1010440F0E28171
:1041200002234C452B71C0F0C5814FF44B733DE128
:1041300040F22D32934200F0C88140F22E32934279
:104140007FF47FAF00240FB12B793B55013400235E
:10415000A1452B7100F2F0814FF44F7326E1B3F5C6
:104160004F7F00F0E88106D8B3F54D7F00F0D08195
:1041700040F23532E3E740F24232934200F0F08100
:1041800000F2FA8140F2413293427FF45AAF0024A8
:104190000FB12B793B55013424234C452B71C0F0D2
:1041A000E08140F2423301E140F25632934200F0A6
:1041B0005A826AD8B3F5537F00F01D8232D840F29C
:1041C0004932934200F0FE8115D840F245329342C5
:1041D00000F0EB81B3F5527F7FF433AF00240FB1D1
:1041E0002B793B55013424234C452B71C0F0EB81D6
:1041F00040F24933DAE040F24A32934200F0EE8175
:1042000040F24B3293427FF41CAF00240FB12B7964
:104210003B550134B37D2B714C45C0F0ED814FF41B
:104220005373C3E040F25132934200F0038215D839
:1042300040F24F32934200F0EA81B3F5547F7FF4AD
:1042400000AF00240FB12B793B55013402234C45BC
:104250002B71C0F0F08140F25133A7E040F25232AE
:10426000934200F0F38140F2553293427FF4E9AE7D
:1042700000240FB12B793B55013424234C452B717D
:10428000C0F0F28140F2563390E040F27232934235
:1042900000F0378242D840F25932934200F0FC815C
:1042A00015D840F25732934200F0E981B3F5567FBA
:1042B0007FF4C7AE00240FB12B793B550134B37D99
:1042C0002B714C45C0F0E98140F259336EE040F269
:1042D0006D32934200F0088240F26E3293427FF4D6
:1042E000B0AE00240FB12B793B550B4B1978094B1D
:1042F0001868FFF755FE013403782B714C45C0F068
:10430000018240F2723351E0BC0B0020C212010066
:10431000BB0B0020C00B0020BD0B002040F28332FD
:10432000934200F01382B3F5617F14D240F27732EA
:10433000934203D0B3F55F7F7FF483AE00240FB1C7
:104340002B793B5501344023A1452B7100F2FF81AD
:1043500040F283332AE040F28932934200F00D822A
:1043600040F28E32934200F00882B3F5617F7FF411
:1043700068AE00240FB12B793B55AB4B327D1B68E7
:104380001B789A4204F1010440F0ED81336A4C45F8
:104390001B782B71C0F0F28140F2893306E00823CC
:1043A0002B71B9F1000F05D140F212332B600120BF
:1043B000BDE8F8830FB12B793B700B23B9F1010FE6
:1043C0002B710ED840F21333F0E700240FB12B7994
:1043D0003B550134337D2B714C4505D34FF4457368
:1043E000E4E70124F2E700240FB12B793B550134B7
:1043F00002234C452B71FFF42EAE40F21533D5E766
:1044000000240FB12B793B55013402234C452B710D
:1044100003D340F21733C9E700240FB12B793B5582
:104420000134737E2B714C45FFF430AE4FF446736C
:10443000BCE700240FB12B793B557C4B00220134A3
:104440001A707A4B1A7898F800309A4202D340F2E8
:104450009933ABE70923A1452B7103D84FF4487377
:10446000A4E700240FB12B793B55013404234C45BC
:104470002B71FFF420AE40F2213397E700240FB1F7
:104480002B793B55013400234C452B7103D340F26B
:1044900027338BE700240FB12B793B55624B1B6808
:1044A00001345B782B714C45FFF42EAE4FF44A7308
:1044B0007CE700240FB12B793B55013402234C4596
:1044C0002B7103D340F22D3370E700240FB12B7909
:1044D0003B550134737E2B714C45FFF434AE40F2F2
:1044E0002E3363E7B27D9A421FD10A234C452B71CC
:1044F00003D340F2333359E700240FB12B793B55F6
:10450000013400234C452B7103D34FF44D734DE719
:1045100000240FB12B793B55013400234C452B71FE
:10452000FFF411AE40F2353340E7414940F23930F3
:1045300002F0E4FA0BE600240FB12B793B553A4B1D
:10454000327D1B681B789A4204F1010440F0BC8064
:1045500005234C452B71FFF41BAE40F2413325E798
:1045600000240FB12B793B55013400234C452B71AE
:1045700003D340F2433319E700240FB12B793B55A5
:10458000013410234C452B7103D34FF451730DE7C5
:1045900000240FB12B793B55013401204C45287183
:1045A00004D340F245332B6002E700240FB12B798E
:1045B0003B55013405234C452B71FFF410AE4FF4ED
:1045C0005273F3E600240FB12B793B5501340120DF
:1045D0004C45287103D340F24A33E4E700240FB17D
:1045E0002B793B55013403234C452B71FFF40EAE60
:1045F00040F24B33DAE600240FB12B793B550134FE
:1046000004234C452B7103D340F24F33CEE60024F4
:104610000FB12B793B55013424234C452B71FFF40A
:1046200011AE4FF45473C1E6C00B0020BB0B002049
:10463000C212010000240FB12B793B550134022333
:104640004C452B7103D340F25233AFE600240FB137
:104650002B793B55013405234C452B71FFF409AEF2
:1046600040F25533A2E600240FB12B793B550134BB
:1046700006234C452B7103D340F2573396E60024B2
:104680000FB12B793B550134337D2B714C45FFF431
:1046900012AE4FF4567389E600240FB12B793B55C7
:1046A00001343E4B1B685A783D4B1A703D4B00223B
:1046B0001A703C4B1A783A4B1B789A420DD33A4AFF
:1046C000137801331370BCE6B27D9A42E9D03749C2
:1046D00040F2623002F012FAE3E70723A1452B71A2
:1046E00003D840F26D3361E600240FB12B793B55BE
:1046F000013405234C452B71FFF4F4AD40F26E33C9
:1047000054E600240FB12B793B55244B327D1B68B6
:104710001B789A4204F1010407D103234C452B7105
:10472000FFF40DAE40F2773340E6B27D9A4207D1F6
:1047300002234C452B71FFF402AE4FF45F7335E654
:104740001A494FF4607002F0D9F9FCE500240FB16A
:104750002B793B55013400234C452B71FFF40AAEF5
:104760004FF4617322E6B27D9A4210D100234C458A
:104770002B7103D340F28E3318E600240FB12B794E
:104780003B550134074A13780133137091E7074909
:1047900040F2923002F0B2F9F4E700BFC00B002003
:1047A000BA0B0020BD0B0020BB0B0020C212010081
:1047B00010B5044618B906495F2002F09FF9236836
:1047C0001BB90349602002F099F920680C3010BD34
:1047D000C21201000149522002F090B9C212010038
:1047E00070B50D46044608B9FFF7F4FFE36923B13D
:1047F00029462046BDE87040184770BD10B50446F4
:1048000008B9FFF7E7FF2046FFF7D2FF00238382B6
:1048100083610362C0E91B33C0E91D3300F1280343
:10482000836610BD2DE9F0430D4689B0064620B9D8
:10483000AA4940F2DD2002F061F925B9A74940F20A
:10484000DE2002F05BF92B780E2B21D8DFE803F095
:104850000B080B0B2010BE202008200B0B0B0B00AD
:104860003046FFF7CBFF0024204609B0BDE8F083B7
:1048700026B99A494FF4E47002F040F96A78D109F8
:104880004FEA52133AD013F0030303D0012B25D083
:104890000624E9E702F01F02012AF9D1AC78062CC0
:1048A000F6D105A8039300F02FFD03AB0093074654
:1048B0000346EA7829793046FEF734FF0528D3D03D
:1048C000039B3F2B03D98549C92002F017F9039AAE
:1048D0003946681C00F066FA0446C5E70EB9FFF7D2
:1048E00079FF3046FFF764FFAB78212BD0D1B5F8C4
:1048F0000720072ACCD100F10C01EAE7012BC7D130
:104900000EB9FFF767FF3046FFF752FFAB78202B59
:10491000074632D0222BBBD1B5F80730002BB7D1D8
:10492000027DB5F80330838202F0010203F0010337
:104930009A429CB297D0002C14BF0221032130462A
:10494000FFF74EFF002C8ED101213046FFF714FBFC
:104950002146FFF725FB007808F0D6FD3046FFF72B
:1049600033FB08F0D1FD07F12803BC613C62C7E9C5
:104970001B44C7E91D44BB6676E7B5F80730072B33
:1049800086D10EB9FFF726FF3046FFF711FFAB784F
:104990000370B5F80730DBB2437000240230CDE974
:1049A00005032046079400F015FD204605A9FFF7F2
:1049B000D9F8044630B94A4B03A9CDE9033600F0D3
:1049C000DFF90446002000F015FD4DE700213046D8
:1049D000FFF7D2FA0021FFF7E3FAAB7802789A42A8
:1049E0003FF441AF1B06EC780AD524B1032C3FF409
:1049F0003AAF032438E701213046FFF7F1FE33E7F1
:104A0000012C3FF430AF002CF0D10EB9FFF7E2FEDD
:104A10003046FFF7CDFE05463046FFF7D5FA314B5D
:104A2000EC698046CDE90535BCB92B6FEC66C5E96C
:104A30001C432B6A73B105F1200292E8030005F1D3
:104A4000180383E803002C6205A94046FFF79EF88F
:104A5000044600E0AC610021CEE7D5F87890A86963
:104A60004C4528BF4C4605F12807224639460AF036
:104A7000F5FC2B6F23446B67A9EB0403EB662B6AF1
:104A800000223C442A67AC66002B3CD005F120098B
:104A900099E8030005F1180787E8030014462A6225
:104AA000EB6EA8695BB3EA69A96E9A421CD80AF05A
:104AB000D5FCEB69EA6E6B67D21AEA66AA6E1A44F5
:104AC000AA6600213046FFF78BFE2B6ADBB199E81E
:104AD000030087E803002C62E2E700BFC212010076
:104AE0000D4B0000293F00001A460AF0B7FCEA6EA1
:104AF000EB692A679B1AEB61AB691344AB61AB6945
:104B0000002BA1D100E0AB610024A4E710B504465E
:104B100060B90846FFF74CFE0378202B08D1811CB2
:104B200007220C300AF09AFC204610BD0320FCE757
:104B30000620FAE77FB5144606460D46FFF738FE15
:104B4000838ADA0713D501213046FFF715FA0021D1
:104B5000FFF726FAA30600780CBF0123002301A962
:104B6000CDE901540393FEF7FDFF04B070BD0820AA
:104B7000FBE708B5FFF71CFE406F08BD2DE9F341C8
:104B8000074690460E4621B91E4940F21F4001F0EB
:104B9000B5FF3846FFF70CFE838ADB0704462ED5A7
:104BA000002000F017FCE56EB5B1454528BF45462D
:104BB000A16E2A4630460AF051FCE36E65675B1B26
:104BC000E366A36E2B44A3660024002000F012FCD1
:104BD000204602B0BDE8F081A36973B9C4E9066854
:104BE0003846FFF7F1F9084B6946CDE90034FEF786
:104BF000CDFF041E08BF9224E7E71124E5E708244F
:104C0000E6E700BFC2120100593F000000207047D4
:104C100010B5044620B9044940F2432001F06EFF6C
:104C20002368186810BD00BF581101002DE9F04F2E
:104C30004B6885B081460C4693465BB90868FFF720
:104C4000E7FF38B9A5682DB9C9E90055284605B070
:104C5000BDE8F08FBBF1400F04D9334940F2971003
:104C600001F04CFF08F0E6F8E76800905F454FF070
:104C7000000A04F1100328BF5F4656460125019340
:104C8000002F2DD0A3686168BB42984628BFB84664
:104C900051B3009B424698190AF0E0FB0023636081
:104CA000A368E268A3EB0803A2EB0802A360E2603A
:104CB000A7EB0807464433B9BAF1000F03D02068C8
:104CC000FFF7A6FF2060E368002B2BD0A368002B22
:104CD000D6D12268B2B9626016B1B34588BF00254B
:104CE000009BC9E90036B1E7002BD9D02168009AB2
:104CF0004B680198D3F804A032444346D0474FF0A4
:104D0000010ACDE7029321684B680022D3F80480A2
:104D100002A80123C04708B92061B1E7A3680133A5
:104D2000A360F0E71D46ABE7B2130100084B1A7809
:104D300082420CD0052818BF064A187018BF137895
:104D400005481CBF23F002031370FEF7BFBF704776
:104D5000D00B0020EC0B00206813010008B50020E8
:104D6000FEF78EFE8020BDE80840FEF789BE08B53C
:104D70000020FEF793FE8020BDE80840FEF78EBEBF
:104D800038B505460C4608F0CDFAA84205BFD4E96F
:104D90000001034B1020C3E9000108BF002038BD0B
:104DA000F00B00207FB5C38893421D4628BF1546EF
:104DB00093420E46144620D9802007F055FFB4FBDD
:104DC000F0F303FB1040B0FA80F04009039000209C
:104DD000CDE9016500F0FEFA01A98020FEF7C2FED0
:104DE000044620B906498020FFF7CAFF0446002088
:104DF00000F000FB204604B070BD0020E6E700BFD5
:104E00009C1301002DE9F04F0C78062C87B0074663
:104E10000D4600F03F8220D8022C51D003D8012C3F
:104E20003CD0062453E0032C3CD0052CF9D10DF1E5
:104E30000D008DF80C4008F00BFA9DF80D60AA4D9E
:104E4000002306F01F062B60032E00F2C481DFE86A
:104E500016F042007201B90115010D2C00F0078215
:104E600011D80B2C00F0F8810C2CDAD19F4B1B7859
:104E7000012B04D09E4940F2524001F03FFE002039
:104E8000FFF754FF1CE00E2C00F0F981852CC8D1EF
:104E9000964B1B78032BC4D1042000E00320FFF7BE
:104EA00045FFBEE7934801F01BFF30B1924B012252
:104EB0001A60BFF36F8FBFF34F8F8C4B1C780CB110
:104EC000002404E08A494FF4876001F017FE204671
:104ED00007B0BDE8F08F27B9854940F25E3001F098
:104EE0000DFE9DF80D30C3F34112002A40F0C6803C
:104EF000DB099DF80E1000F0B280062918D00829B1
:104F000000F0A080002940F0B9807C4C02222046AD
:104F10000AF0CDFA237843F001022270784A127821
:104F2000910744BF43F003032370022273490FE04B
:104F30009DF81030022B11D0032B75D0012B40F0BF
:104F40009D80BDF81330002B00F0AC806D4912221B
:104F50000DF10D00FFF726FF04463BE0BDF81330CE
:104F6000002B00F09F80092B28BF09239846FEF7ED
:104F700097FDDFF87CA104464FF009097CBB5F4C2C
:104F80006149424620460AF069FA2671A4F8029067
:104F9000FEF76EFD18B1E37943F02003E371FEF7ED
:104FA0007FFD5A4BC3E90004C3F80880BDF8132005
:104FB000DA60002000F00EFA55498020FEF7E6FD89
:104FC000044620B953498020FFF7DAFE044600204A
:104FD00000F010FA062C51D0002C63D05AE0636820
:104FE00023B9514640F2C72001F088FD63685B6831
:104FF00023B951464FF4327001F080FD002701972C
:1050000063680022D3F804B02146012301A8D847E1
:1050100040B9237A20461E44FFF7FAFDB944F6B2A0
:105020000446ABE70137EBE7BDF81330002B39D06E
:10503000BDF811109DF80F0000F098F90146E8B195
:10504000027885E729490978052903D12B4A13708D
:1050500001226BE7042911D1284B1A70F8E70139B6
:1050600008290BD8DFE801F02B0A0E0A050A0A0A04
:1050700038001F4940F2823001F040FD03A8FEF7DE
:105080005DFD9DE0BDF80F30012BF7D1FEF7F0FC80
:1050900018B90F2408F043F919E7194A137843F0B7
:1050A000020313702C68002C00F01C8108F03AF900
:1050B000044600287FF404AF08F0F0F807E7BDF8D5
:1050C0000F30012BDAD1FEF7D3FC0028E1D00C4AD7
:1050D000137823F00203E4E7044B1B78043B012B15
:1050E0001AD90824D6E700BFF00B0020D00B00200F
:1050F000B2130100F80B00205C700240FC0B002092
:10510000EC0B00208813010069130100D40B002070
:10511000301401009C1301009DF80F302BB9FEF7ED
:10512000BFFD0420FFF702FEBCE7012B41D1FEF7D3
:1051300097FD0520F6E701A99DF81100FEF7B6FCE2
:10514000074608B91024A5E703AA9DF80410FEF746
:10515000CFFC062804467FF43FAF9DF80D2012F0E7
:10516000600F97D1624B9DF8041018789DF80E30AF
:10517000D60915D073B10A2B8CD10528B1D1384688
:10518000FEF768FD5B49324608700DF10D00FFF730
:1051900009FE15E00528A4D156490B800222F4E748
:1051A0000B2B7FF477AF05289BD1BDF80F30FF2B79
:1051B00001D907246EE79DF80F203846FEF7FAFC68
:1051C000044609E79DF81100020706D19DF80D304D
:1051D00013F0600F09D006245CE703A9FEF78BFCEF
:1051E000062804467FF4F8AEF0E79DF80E20404B09
:1051F0009DF811401B78012A1CD082B1032AEAD104
:105200002707E8D4BDF80F20002AE4D1052B02D0EF
:1052100026077FF466AF204607F0B8FF42E7052B6C
:1052200002D023077FF45DAF204607F0CDFF314960
:105230000880B3E72007CED4BDF80F20002ACAD1DA
:10524000052B02D021077FF44CAF204607F0DCFF8E
:10525000204608F06FFB25E7254B1B78002B3FF419
:105260002FAE254940F24C4001F048FC28E64FF0B3
:105270008043D3F83834DA070AD5022000E61C4B05
:105280001B78012B04D81C4940F2664001F036FC23
:105290000120F5E5CB78032B3FF419AE8B785B0644
:1052A00004D0154940F2754001F028FC134E3368D4
:1052B000DBB1002232607168E87898470446002824
:1052C0007FF4E8AE336823B1AB78002B7FF4F8AD00
:1052D000F2E60B4B1B68082B04D10A4B1B68002B12
:1052E0003FF4EEAD08F018F8F1E50E24D2E600BF69
:1052F000D00B0020FC0B0020B2130100F00B0020AB
:10530000300100103401001008B14023036001484F
:10531000704700BFFC0B0020F8B5124B53F820502B
:105320002B7813B9AE1C3046F8BD0020FFF7ECFF18
:105330000D4F0646013D002315F8012F5C1C2AB9CC
:105340006400E4B244F440743480ECE71E2B03D9CB
:105350003946E62001F0D2FBE3B22A7826F8132082
:10536000EAE700BF141501009014010008B9FFF727
:10537000D3BF052807D8054A105C20B1044B53F869
:105380002030002BF3D10020704700BF2C15010006
:105390001415010072B6024A136801331360704796
:1053A0003C0C0020034A1368013B136003B962B64A
:1053B000704700BF3C0C0020EFF30583C3F30803E4
:1053C0002BB9EFF31480C04300F0010070470120B7
:1053D0007047000008B5FFF7EFFF012803D004492C
:1053E000432001F08BFBBDE80840FFF7D3BF00BFAF
:1053F0003215010008B5FFF7DFFF012803D004498B
:10540000512001F07BFBBDE80840FFF7CBBF00BF98
:1054100032150100EFF30583C3F308038BB1103B92
:105420005AB2002AADBF02F1604303F00F03064AEF
:1054300003F56143B4BFD05C93F800034009C0B2E8
:1054400070470F20704700BF14ED00E08368D3F869
:1054500054339B0703D50022114603F04BBDBFF325
:105460004F8F0549054BCA6802F4E0621343CB60D5
:10547000BFF34F8F00BFFDE700ED00E00400FA0529
:1054800070B58368D3F85443C4F3400415462CB177
:1054900000221146BDE8704003F02CBD0139274BB6
:1054A00001295B8819D051B102292AD0012B43D997
:1054B0002348244B2449C01AC008000407E0012BEC
:1054C0003AD91F481F4B2149C01AC008000440F0B8
:1054D0000200BDE87040FDF7BBB8012B2CD9214676
:1054E0000A22686809F065FF164A154B18499B1A8D
:1054F000DB081B040246BDE8704043F00200FDF7E4
:10550000ABB8012B18D921460A22686809F051FF6F
:10551000214606460A22A868094C09F04AFF094BB1
:105520000C49E41AE40824040346324644F002001D
:10553000BDE87040FDF799B870BD00BF9400002031
:10554000A0FE000070FE00001F170100D51601002C
:10555000EA1601000317010070B58368D3F85443BD
:10556000C4F3400415462CB100221146BDE870403A
:1055700003F0C0BC0139264B01295B8819D051B119
:10558000022929D0002B41D02248234B2349C01A9D
:10559000C008000407E0002B38D01E481E4B2049ED
:1055A000C01AC008000440F00100BDE87040FDF7DB
:1055B0004FB85BB321460A22686809F0FAFE164A22
:1055C000144B18499B1ADB081B040246BDE87040C7
:1055D00043F00100FDF740B8C3B121460A226868D4
:1055E00009F0E7FE214606460A22A868094C09F0A0
:1055F000E0FE094B0C49E41AE40824040346324651
:1056000044F00100BDE87040FDF72FB870BD00BF49
:1056100094000020A0FE000070FE0000A71601000C
:1056200063160100761601008D1601001FB5836810
:10563000D3F854339B0706D50022114605B05DF818
:1056400004EB03F057BC064B064A0093D21ACDE98F
:1056500001220821044A02F065F905B05DF804FB57
:1056600000100000684C0100B21501008368D3F8F7
:1056700054339B0703D50022114603F03BBC024A7A
:1056800045210320FDF7A0BBE715010038B50C4606
:10569000054618B90449B32001F030FA2B68C3F865
:1056A0004843C3F8084338BD2619010070B50C46BD
:1056B0001646054618B90549A92001F01FFA2B68BE
:1056C000C3F844430EB1C3F8044370BD261901006A
:1056D00037B50C46054618B90749BA2001F00EFA4D
:1056E0002B68185928B100221A511B590193019BAC
:1056F000012003B030BD00BF261901002DE9F84399
:105700000E461446054618B93849552001F0F6F9F9
:105710001EB93649562001F0F1F91CB9334957201A
:1057200001F0ECF96B79324A324F42F8234007EB33
:10573000C303DFF8E4801B7983B1B8F80230012B92
:1057400009D92D482D4B2E49C01AC008000440F03D
:105750000200FCF77DFF0820BDE8F8833488D5F807
:105760000090B4F5805F04D326494FF4BE7001F079
:10577000C5F9C9F80845B67895F90440072E03D94C
:1057800021496B2001F0BAF9002CB8BF1F4B20490A
:10579000ACBF04F1604404F00F044FEA4616F6B2C1
:1057A000AABF04F561441E5584F8006395F90430DE
:1057B0000122580903F01F0302FA03F341F82030D5
:1057C0006B7907EBC30147F83350B8F802300A7120
:1057D000022B09D90848094B0E49C01AC008000419
:1057E00040F00300FCF734FF0020B5E72619010064
:1057F000480C0020400C0020B0FE000070FE0000AD
:1058000096180100B8180100E518010014ED00E039
:1058100000E100E0141901009C00002010B50446CE
:1058200018B90449872001F069F9236801221A6038
:1058300010BD00BF2619010010B5044618B904496F
:105840008D2001F05BF9236801225A6010BD00BF72
:10585000261901002DE9F3410D4616461F468046E4
:1058600018B91249962001F049F905F15001890053
:10587000D8F8000089B24FF48034AC400023C0F85F
:105880000843C0F84843435005F5A87543580193B1
:1058900026F07F46019B40F82560C0F844430FB1D5
:1058A000C0F8044302B0BDE8F08100BF2619010032
:1058B0002DE9F74F894614469846064618B93949E6
:1058C000CD2001F01BF94FF4803707FA09F739466C
:1058D0003046FFF7DBFE32684FEA890A09F15005CE
:1058E00002EB0A00AD00ADB2D2F80415D0F8403595
:1058F000C0F840154FF0000B42F805B05B1A525942
:10590000009223F07F43012B24F07F44009A0BD1B7
:10591000254B4FF4806043F001039847336843F808
:1059200005B05B590193019B3068D0F80455C0F86D
:105930004473631B23F07F43012B1AD109F5A87927
:10594000194B013440F8294043F001034FF48060C3
:1059500098473368D3F804359D4208D13046012278
:105960003946FFF7A3FE002003B0BDE8F08F0D20FD
:10597000FAE78244621ECAF84045D0F80435C8F1FF
:10598000FF18D21A22F07F4208F57F489045EED3E7
:10599000002AE3D10134CAF84045D0F804259342E7
:1059A000DBE700BF26190100901801000A4602211A
:1059B000FFF77CBE4FF48271FFF78ABE4FF480334D
:1059C00003FA01F1FFF762BE5031890089B2FFF797
:1059D0007FBE0368D3F804057047000090F90430D7
:1059E00001215A0903F01F0301FA03F3403202496F
:1059F00041F82230704700BF00E100E0024B034A4B
:105A00001B681068184700BF480C0020400C00209D
:105A100070B5064D0646002455F8043B0BB13046E0
:105A200098470134042CF7D170BD00BF580C0020FA
:105A3000033080B240F2FE33984230B51FD8134B8A
:105A40001A783AB91C895D892C440444A4B2B4F58F
:105A5000806F0AD91A7DAAB99A8BDC8B2244024442
:105A600092B2B2F5806F0DD801220A80144614223A
:105A700002FB04335A8910445881002030BD48F29B
:105A80000860FBE748F20660F8E700BF8C0C0020D6
:105A90000B4A0C4B5188142000FB0131CB6833B901
:105AA0000420496810700122074804F08DBC0523CA
:105AB0000649137002238B80012200230968F3E753
:105AC000700C00208C0C002068000020440D002089
:105AD00007B5002305490093054A096805480823CE
:105AE00004F0B2FB03B05DF804FB00BF440D0020DE
:105AF000AC1901006800002007B50023009301469F
:105B00000823034A034804F09FFB03B05DF804FB3D
:105B1000A41901006800002013B500230C4600936F
:105B200001460423074A084804F08EFB38B9074BA6
:105B3000142202FB04340123237402B010BD48F286
:105B40000D60FAE7A0190100680000208C0C00200D
:105B500037B50A480A4B42689C8819685388032560
:105B6000033305709BB2002000909B0001EB840181
:105B7000044804F069FB03B030BD00BF700C002086
:105B8000440D00206800002010B50146044800F0D4
:105B9000D5FF1C220446002109F089FC204610BDD7
:105BA000F401002068B10268084B9A4209D14068AC
:105BB000074B984207D0013398420CBF01200320C5
:105BC0007047032070470020704700BFDEC0ADDE85
:105BD000FE011EF14388033300EB830399420BD38C
:105BE00082884FF6FF739A4208D0038833B18068E9
:105BF000431C5842584170470220704701207047AB
:105C00002DE9F8430223DFF860800B800D4617462C
:105C100000F5805600F108044FF00109B4420FD29C
:105C2000236801330CD031462046FFF7D3FF48B13B
:105C30000FB187F8009002280BD14FF480632B80BE
:105C4000BDE8F883A368D8F80020934201D9C8F8CA
:105C500000302B886288033313442B80638803331E
:105C600004EB8304DAE700BF840C0020154A1423F8
:105C700003FB002070B50B6844680D4604F58056A0
:105C8000ABB15C88033403EB8404B4420DD22368C7
:105C900001330AD031462046FFF79CFF01280BD084
:105CA00010F0FF0F05D00228EFD1002003E00834E8
:105CB000EBE72C60012070BD6388033304EB8304A1
:105CC000E3E700BF8C0C0020436873B504460D4623
:105CD0006BB3244AD1688B4229D31269934226D8E8
:105CE00013F0030023D1204A2189128991421ED149
:105CF00021689A6891421AD11C4A51688B4203D993
:105D000001F580518B420DD3926993420CD902F573
:105D10008052934208D201232B80B0FA80F04009D0
:105D200002B070BD0346F7E748F20960F5E70023CB
:105D30002B801E46019601A92888FFF797FF30B9EE
:105D40002B8801339BB2012B2B80F3D9E8E7019B11
:105D5000226899689142EED16360034B1B892381CD
:105D6000DEE700BF68000020700C00208C0C0020D3
:105D70002DE9F8431C461D4B1B7806460F46154679
:105D800073B382B37CB3DFF86C804FF01409A3883F
:105D9000012B02D948F2096020E009FB03F318F84F
:105DA00003302BB92146A088FFF760FF20B920609F
:105DB000A3880133A380EAE723681EB1998832885B
:105DC0009142EFD11FB119883A889142EAD19A687D
:105DD000C5E90023064B1B892B810020BDE8F88311
:105DE00048F20160FAE748F20460F7E7680C002027
:105DF000700C00208C0C002008B5074B191D58882A
:105E0000FFF734FF18B1BDE80840FFF7A1BEBDE8B9
:105E10000840FFF73DBE00BF700C00202DE9F04F99
:105E2000A64FDFF8C09289B00646B8463B6853B922
:105E30004946A34800F0BCFE386020B9A14940F2B1
:105E40009B5000F05BFED8F8005029784B1E052BC4
:105E500000F2FE80DFE813F0060060006000F20050
:105E6000F20066012EB1984B00225A604FF40644AE
:105E7000F0E02B79032B1DD8DFE803F015022B3659
:105E800092490B78022B08461AD00B7D022B4FF05B
:105E9000010317D114225343C2180020C85450687C
:105EA000FFF72AFE03E001232B71FFF711FE002804
:105EB00000F0BE80844B00225A6048F20D64C9E0B5
:105EC0000023E7E7804A13700023536041F61D5416
:105ED000C0E07F497F48002302222B718A80012283
:105EE000096804F071FAE2E7794C00262E71206807
:105EF000764DFFF701FE784BD4F800C05A88142382
:105F00005343EA18EE5451682160A188C2F804C0D6
:105F100011810222A280CAE7B5F814A0AA7DDFF899
:105F2000ACB1AEB1022AEB8806D9142101FB0AB14B
:105F3000DA1C088902440A81142202FB0ABAC3F55A
:105F40007F43BAF80A20FD331344AAF80A308DE7DC
:105F5000142303FB0AB318895C6804EB8004062A47
:105F600069D8DFE802F0274E36441D5A040041F696
:105F70001D54AA7DEB88022A06D9142101FB0AB11F
:105F8000DA1C088902440A81142202FB0ABAC3F50A
:105F90007F43BAF80A20FD331344AAF80A3059E0C7
:105FA0004E484F4900234360AB690360FFF78CFE06
:105FB000002874D00223AB75002300930423EA1851
:105FC0002146444804F040F9002831D048F20D64DD
:105FD000CFE72B69002B14BF03230123AB750023EC
:105FE000009305F10C02042304F10801E9E7012301
:105FF000AB750022EB8800929B002A6904F10C012A
:10600000DFE703290CBF05230623AB7500230093AC
:10601000042305F10802E118D3E70623AB75304BE2
:1060200019882E4B5868FFF777FD04460028A0D149
:1060300009B0BDE8F08F48F20E649AE7002E7FF4B5
:1060400015AF2B79012B4FD0EBB1022B3FF43EAFB4
:1060500048F20E641422002103A809F028FA41F640
:106060001D539C4208BF0024D8F8003004941A78CD
:10607000023A042A00F20A81DFE812F0EB00F7008E
:1060800023012B01320102232B710DF10A01EB6870
:10609000039303A8CDE90466FFF716FE10B948F292
:1060A0000964D7E70498BDF80A108388EB80038859
:1060B0002B81FFF731FD04462BE000BF880C002048
:1060C000F4010020B4190100680C00208C0C0020A1
:1060D000440D002068000020700C00204C0C0020B3
:1060E0004C0D0020800C0020DFF814A203AA5346B8
:1060F0003146A81DFFF73CFE044668B9BAF8041003
:106100000498FFF709FD044648F209639C423FF4F6
:10611000DDAE002C9ED18BE708223146504609F0B7
:10612000C6F9F1E7002E7FF4A1AE6F4B1A7BAAB13E
:106130001E731A78013A062A8AD801A151F822F072
:10614000E76100000D6200002B6200003162000078
:106150005160000037620000496200001A78072A87
:10616000E7D801A151F822F08961000033610000F5
:1061700033610000AF610000C3610000E361000013
:10618000E3610000AB6100001A89584901321A81AD
:1061900000225A801A730A78B2FA82F252099A726D
:1061A0000A7DB2FA82F25209DA72012207E05049FE
:1061B00058688A884088033202448A8002221A7012
:1061C000B7E74A4C5A884A49142505FB0242086839
:1061D000546850608888108102228A800C600622F0
:1061E000EDE70722EBE79A7A32B9DA7A8AB9002228
:1061F0001A705A805A6069E63C4900229A72CA684D
:10620000002AF2D1097C0029EFD05A80FFF7F4FD73
:1062100051E70022DA72354A116A0029E7D192F873
:106220002420002AE3D00122EFE7FFF791FC42E7A8
:10623000FFF72EFC3FE72D4A5B88142101FB032367
:106240005868FFF759FC36E700225A60FFF740FC18
:1062500031E701228DF80C201A89ADF818209A88B0
:10626000DB68ADF81A20059310E002228DF80C20AF
:106270001A89ADF818209A88ADF81A20DA689B7D43
:1062800005929A1F534253418DF81C3003A8FFF723
:10629000BFFB002349461748C8F8003000F0B3FCA4
:1062A000154B1B6823B915494FF4247000F026FCE8
:1062B0000121114800F003FD00283FF4B9AE00268B
:1062C000B4E503228DF80C20DA88ADF818201A897D
:1062D000C6E70422DB888DF80C20ADF81830D5E72E
:1062E00005238DF80C30D1E7700C00208C0C0020B9
:1062F000440D0020F4010020400D0020B4190100DD
:10630000500D00204068FFF789BD000008B501214D
:10631000044800F0BEFC18B9BDE80840FFF77EBD98
:1063200008BD00BF400D00202DE9F3419846374BD2
:106330001B7806460D46002B5CD000295DD00988ED
:106340004FF6FF7399425BD06B88002B58D06B6877
:106350009B0758D14AB92F890DF102013846FFF742
:1063600067FB30B102B0BDE8F08113885788ADF803
:10637000023001A8FFF708FC044660B9BDF80230FE
:10638000234A142101FB032358890338C01B588179
:1063900048F20760E6E700238375BDF80230838288
:1063A0006B68036180F8008001211A4800F07CFCD2
:1063B0002B882381B8F1030F6B88A38004BF0423CB
:1063C000A3754FF0000508BF3368E06008BFA36104
:1063D000E780658101A9104800F0DAFB36B1E36877
:1063E00033600E4B75601B89B5723381FFF78EFFEA
:1063F0000020B7E748F20160B4E748F20460B1E773
:1064000048F20360AEE748F20260ABE7680C002098
:106410008C0C0020840C0020F4010020700C002063
:106420002DE9F04F89B01422002103A809F03FF8AC
:10643000784A137803F0FF01009190463BB103A81E
:10644000FFF7E6FA0027384609B0BDE8F08F101DC7
:1064500000F040FC0028F5D140F6F8734FF0805270
:106460001B685C1C08BF6C4B6C4C08BF1B68116937
:106470005269581C08BF02FB01F323610022A3F5F7
:1064800040536749E360204603F0A2FE01940746AB
:106490000028D8D11C238C2262496348DFF89CB1C4
:1064A00000F039FBBA463D464FF003093C46019BDC
:1064B000DE6856443046FFF775FB012860D042B2D3
:1064C000002A4AD0032827D13268531C02D0574BE8
:1064D0009A4234D1321D06F58051106801302ED118
:1064E00004329142F9D1DBF800203AB902220123AB
:1064F000CBF80060ABF8042000930BE01422624359
:106500004B4B0220991898544A4A4E6054800134EB
:106510000881A4B245F001050AF5805ABAF5405F3A
:10652000C5D1B9F1010F98BF0025EDB2022D03D0FE
:10653000062D44D0002D4CD148F20A6783E73C4930
:1065400014226243881809F1FF39466003208854F9
:106550001FFA89F90134A4B2DEE7354914206043FB
:1065600001EB000C0A5400F1100208300A44CCF888
:10657000046001443046FFF743FB45F00205E9E7BC
:10658000009B6BB12A4B1422624399180220985445
:10659000DBF800204A60274A088154800134A4B205
:1065A00000222549CBF800603046FFF729FBBBF8F5
:1065B0000420022A0CBF042208221543ACE7012361
:1065C00088F8003003A80023C8F80430FFF720FA49
:1065D00039E702A8FFF7D8FAC8B10123013D0370DB
:1065E0000A2D09D8DFE805F006080608070807089D
:1065F0000F110F000023037102A90B4800F0C8FA25
:10660000FFF784FE1FE70323F5E70223F3E748F2D1
:10661000076718E7680C00201410001068000020BD
:10662000682D0100B40C0020F4010020DEC0ADDEB6
:106630008C0C0020700C0020480D0020440D002020
:1066400073B50D460446C8B1C1B10DF10601FFF79F
:106650003BFBB0B10C4BBDF806006668142202FB90
:10666000003001210C3000F01FFB63682E600C33FA
:106670006B600123A372002002B070BD48F2046079
:10668000FAE748F20960F7E78C0C002013B50446DE
:10669000A8B10DF10601FFF717FB98B10C4ABDF840
:1066A0000630142101FB0323DA6872B1A27A62B1C9
:1066B000DA680020013ADA60A07202B010BD48F238
:1066C0000460FAE748F20960F7E748F20560F4E78A
:1066D0008C0C002002230022FFF726BE18B10323F2
:1066E0000022FFF721BE48F20460704707B5ADF8FD
:1066F0000600ADF804100DF1060001A9FFF738FB04
:1067000003B05DF804FB0B0710B5044607D508F08D
:10671000DDFB20B12046BDE8104008F013BC204648
:1067200010BD2DE9F04F87B08A4615460293064604
:1067300018B9012007B0BDE8F08F0029F9D0029BFD
:10674000002B00F0118102F004030C460493B046C4
:10675000294618F8010BFFF7D6FFC7B23F2F22D00A
:106760000ADCCFB12A2F36D0294614F8010BFFF7E7
:10677000CAFF87421FD0DCE75B2F7CD05C2FF3D1B0
:10678000EB07F1D429467078FFF7BDFFC7B2002FA1
:10679000EAD006F10208E7E7E906207838D52F2885
:1067A00036D10020C6E72378002BC2D02F2B04D18E
:1067B000AA07BED401344646C9E72E2BFAD1049B62
:1067C000002BF7D05445B4D0AB07F3D514F8013CF7
:1067D0002F2BEFD1ADE770782946FFF794FFC1B2B8
:1067E0002A2919D023782E2B09D1049B3BB154457B
:1067F0009FD0AF0703D514F8013C2F2B99D079B95E
:10680000AE07CED5ED06CCD42F21204608F070FD82
:10681000003018BF01208DE7294618F8010FDCE78A
:106820002F2901D1A8071FD4029B25F004095F1E60
:1068300005F0020AA34629469BF80000FFF763FF14
:10684000C6B20134002E3FF474AF3B464A46594667
:106850004046FFF766FF01287FF46CAF2F2EE9D189
:10686000BAF1000FE6D064E7204608F041FD044687
:106870000028A0D15DE7207800283FF45AAF2F28E8
:1068800002D1A9073FF555AF2946FFF73CFF8346E4
:10689000B8F1000F3FF44DAF7378212B01D05E2B80
:1068A00025D1023601230122019305EA02034FF0AC
:1068B000000903933746294617F8010B0592FFF7A5
:1068C00022FFC3B25D2B059A14D112BB019B4B452D
:1068D0003FF42FAF002F3FF42CAF7A1C04D1237864
:1068E0005B2B7FF426AF47460134B84663E7464644
:1068F0000023D8E72F2BF2D05C2B07D1039A42B9A3
:1069000029467078FFF7FFFEB71CC3B2002B3FF497
:1069100010AF3A782D2A21D1294678780593FFF7D0
:10692000F2FEC0B2059BC8B15D2817D05C2807F104
:1069300002060BD1039A4AB92946B878FFF7E3FE5D
:10694000C0B200283FF4F5AE059BFE1C9B4503DB5F
:106950008345D8BF4FF001090022ABE73E469B4577
:1069600008BF4FF00109F7E70320E3E64023FFF7F4
:10697000D8BE00001EF0040F1CBFEFF309800AE030
:10698000EFF308800549064A884201D8904202D8B0
:106990008D464FF00000034B184700000000042014
:1069A00000E00320CD690000BFF34F8F0549064B7F
:1069B000CA6802F4E0621343CB60BFF34F8F00BF9D
:1069C000FDE700BF00ED00E00400FA052DE9F74FF8
:1069D0000646FBF7BFFEFBF78FFC0028FBD1394CC6
:1069E000394A3A4B3A4D9F6A6B88A41AE40824044A
:1069F00044F00104002E5ED0D3B1B269354920467F
:106A0000FBF72AFE6B889BB1F3680193B368009390
:106A10003149D6E900232046FBF73DFE6B883BB1A8
:106A2000F36900932D49D6E904232046FBF727FE9E
:106A3000264BDB6A980705D56B881BB12849204691
:106A4000FBF706FEDFF8ACA0DFF8ACB04FF00008B3
:106A50004FF0010909FA08F33B4208D05AF8282000
:106A60002AB16B881BB159462046FBF7F5FD08F1AA
:106A70000108B8F11A0FEDD1390607D56B882BB193
:106A8000124B18495A6B2046FBF7E6FD3A0407D52E
:106A90006B882BB10D4B14499A6B2046FBF7DCFD3C
:106AA000124B1B68DB0700D500BE3046FFF77CFFAA
:106AB00003B0BDE8F08F002BBAD00D492046FBF79C
:106AC000C7FDB5E738FF000070FE000000ED00E0F4
:106AD000E0000020341A0100491A01007E1A01006A
