:020000022000DC
:1070000000000420757302005D7302005F730200CC
:1070100061730200637302006573020000000000E8
:107020000000000000000000000000006773020084
:1070300069730200000000006B7302006D730200B0
:1070400041A602006F730200F9AA02006F730200EA
:107050006F7302006F7302004DA902006F7302008C
:107060006F7302006F7302006F7302006F73020090
:107070006F73020019AC02006F7302006F7302009D
:107080006F730200D18202006F7302006F730200FF
:107090006F7302006F730200152A03006F73020002
:1070A0006F7302006F7302006F7302006F73020050
:1070B0006F7302006F730200000000000000000008
:1070C0006F7302006F7302006F7302006F73020030
:1070D0006F7302006F7302006F7302006F73020020
:1070E0006F7302006F730200ED5703000000000091
:1070F000000000006F730200000000006F730200C8
:10710000000000000000000000000000000000007F
:10711000000000000000000000000000000000006F
:10712000000000000000000000000000000000005F
:10713000000000000000000000000000000000004F
:10714000000000000000000000000000000000003F
:10715000000000000000000000000000000000002F
:10716000000000000000000000000000000000001F
:10717000000000000000000000000000000000000F
:1071800000000000000000000000000000000000FF
:1071900000000000000000000000000000000000EF
:1071A00000000000000000000000000000000000DF
:1071B00000000000000000000000000000000000CF
:1071C00000000000000000000000000000000000BF
:1071D00000000000000000000000000000000000AF
:1071E000000000000000000000000000000000009F
:1071F000000000000000000000000000000000008F
:10720000354936480A1A02D0072291438D4634493F
:1072100034480A1A06D00722914381F309880222D2
:1072200082F3148830483149314A00F044F831483B
:107230003149324A00F03FF831483249324A00F0D1
:107240003AF832483249334A00F035F83248334987
:10725000334A00F030F833483349344A00F02BF811
:1072600033483449344A00F026F83448344900227F
:1072700000F02CF833483449002200F027F8334856
:107280003349091A082902DB002202604160314AB1
:1072900090471F481F49884205D00268043003B454
:1072A000904703BCF7E700208646EC46002000210B
:1072B000294A9047FEE7884207D0521A05D0037842
:1072C00001300B700131013AF9D17047884202D088
:1072D00002700130FAE770470000042000E003204C
:1072E000000004200000042074EF03003C2B002069
:1072F0007C310020D0730200D0730200F8950300A7
:1073000074EF03003C2B00203C2B0020209803004E
:107310002098030020980300209803002098030081
:1073200020980300209803002098030074EF0300C6
:10733000B4F503007C3100207C3100207C3100203A
:107340004C6D00204C6D00204C6D00204C6D0020D9
:107350004C8D00209D7302000DCA0200FEE7FEE77F
:10736000FEE7FEE7FEE7FEE7FEE7FEE7FEE7FEE7F5
:1073700000F002B8FFF7FCBF0F484FF00701884349
:1073800085460E4880470E48016841F4700101604F
:10739000BFF34F8FBFF36F8FFFF732BF09480A4922
:1073A0000A4A884207D0521A05D0037801300B7080
:1073B0000131013AF9D170470000042039CC0200B4
:1073C00088ED00E00C980300282B00203C2B0020C7
:1073D000022004F03DB900002DE9F04781460D463A
:1073E00004F064F90328044604D8012D04D025B321
:1073F000022D2FD0BDE8F087194D47003A18A91883
:10740000AE5C4A7852B1DFF86880164842464FF4C5
:10741000804100F002FD08B988F800903B192B4428
:107420009A78114B1A55002EE4D0104B1B68002B94
:10743000E0D03046BDE8F04718470A4800F005FDA7
:10744000074B04EB440213449E78074B1B5DB34289
:10745000D0D1E8E7024B00EB40041C446678E2E739
:10746000E0310020A0310020F9310020F43100206B
:107470007C31002002210078FFF7AEBF08B5094B30
:107480001B7853B1002004F0B1F8012004F0AEF8ED
:107490000320BDE8084004F0A9B8BDE8084004F0A6
:1074A000B9B800BF7D310020F8B57B4C2378054684
:1074B0001BB100232370FFF7E1FF172D00F2888036
:1074C000DFE805F00C17174354657680888D888DAA
:1074D000959A9A9A9A9AC4C9D1D9E4E4FFF7CEFF53
:1074E0006E4800F0B2FC6E4B002204461A70204633
:1074F000F8BD002004F052F8F8B1002004F076F84E
:10750000022D0CBF4FF4E1614FF47A61644B1D70A2
:107510004FF400404FF47A740025E0FB01454FF42E
:10752000FA620023204629460BF0E8FB00220146C0
:107530005A48BDE8F84000F070BC04F043F8022D52
:107540000CBFC8214FF4C871E0E7002004F026F812
:1075500040B1002004F04AF84FF44871504B032228
:107560001A70D5E704F02EF8C821F7E7002004F0E0
:1075700015F838B1002004F039F84FF47A61484B1F
:107580000422EDE704F01EF84FF4C871F7E700207D
:1075900004F004F848B1002004F028F8404B05221C
:1075A0001A7040F6CD410022C2E704F00BF8F5E76F
:1075B000002004F04DF83A4B06221A70002240F2E7
:1075C0006661B5E7002003F0FDFF354B07221A7016
:1075D00000248CE70120207004F03AF8EEE7012047
:1075E000207004F035F800224FF40051A0E704F0B9
:1075F00020F82B4B0C22EAE72A482B4E00F025FC02
:10760000D5F1110504461CD0D8B9012D13D0C823DB
:107610005D434FF400474FF47A7000214FF4FA6253
:107620000023C7FB05010BF069FB224601461D48FC
:1076300000F0F3FB0446022003F0C4FF0123337083
:1076400055E7022003F0D2FF0023F8E7FFF716FF0B
:10765000134B1222BBE7FFF711FF002003F0B2FF2C
:107660000F4B1322B3E7FFF709FF012003F0AAFF36
:107670000B4B1422ABE7FFF701FF002003F0A2FF42
:10768000012003F09FFF064B1522A0E703F0D1FF76
:10769000034B1D709CE700BFF0310020C03100207B
:1076A000F8310020803100207D310020044B1B6820
:1076B000DB0703D5034B1878FFF7F6BE704700BF12
:1076C000EC310020F8310020002910B514BF03244C
:1076D000002403F0FDFF1F288ABF0A4B4FF0A04390
:1076E00000F01F0003EB8000D0F8002722F44032A6
:1076F000C0F80027D0F8003743EA0443C0F8003749
:10770000002010BD00030050032801D803F0BABFC9
:1077100000207047044B1B6813F0010301D0FFF7F2
:10772000C3BE1846704700BFEC31002038B51C4B73
:1077300018601C4B10F00204054619601AD01A4B51
:107740001A480E221A700F22DA7010229A71112232
:107750005A72042140F2333200F0EEF9044648B97F
:1077600000F040FA044628B90146114A114800F0D9
:1077700049FB0446EB0711D5012003F0AFFF6CB9BC
:1077800021460D4A0D4800F03DFB044630B90C4A35
:107790000C480121BDE8384000F034BB204638BD1C
:1077A000EC310020F4310020E0310020209803006B
:1077B0007574020044980300AD76020048980300F7
:1077C000D173020040980300032813D8012A0BD17B
:1077D000012908D100F10E02D2B200EB40000C4B9F
:1077E0001A540020704700220129F6D04BB24BB149
:1077F000022901D007207047054B00EB40001844D8
:107800004270EEE7024900EB400008448270E8E76E
:10781000E0310020032802D80121FFF755BF0620E0
:10782000704708B5012202210020FFF7CDFF08B103
:10783000072810D1072202210120FFF7C5FF08B158
:10784000072808D100210A220846FFF7BDFF10B122
:10785000072808BF002008BD0388102B10B502D0F0
:10786000112B1ED010BD1A4C2168B1B90122084657
:10787000FFF7AAFF08B1072824D10722022101201F
:10788000FFF7A2FF08B107281CD104220221002023
:10789000FFF79AFF08B1072814D12368013323604A
:1078A000E0E70B4A1368013B1360002BDAD1FFF7C6
:1078B000B8FF0028D6D0074B1B68002BD2D0BDE8FC
:1078C00010401847034B1B68002BE6D09847E4E7AD
:1078D000043200200032002008B50020FFF79AFF94
:1078E00008B1062806D10120FFF794FF10B1062841
:1078F00008BF002008BD00000D4B10B518600C46F5
:1079000029B10120FFF700FF40B102232370094B8A
:107910001B6853B9BDE81040FFF783BFFFF7F4FEC3
:1079200008B10B23F2E72070F1E7002010BD00BF83
:107930000032002004320020C30710B507D4F02322
:107940004008054A145C23401943115410BD090135
:10795000C9B20F23F4E700BF3832002030B5094B1D
:107960001C78094B196800239C4202DC0022104657
:1079700030BD11F83350854201EBC302F7D001331B
:10798000F2E700BF083200205832002070B50446EC
:107990000D46FFF7E3FF30B1436823B12946204687
:1079A000BDE87040184770BD034B044819680022B9
:1079B000490800F032BA00BF0C320020103200201B
:1079C00010B5C0B2FFF7CAFF0446007802F0B0FF5E
:1079D00063785A1E53425341834208D1044BD3E982
:1079E0000023134303D1BDE81040FFF7DDBF10BDF6
:1079F0003032002037B54308364AD35CC2074CBF4B
:107A00001B0903F00F0304460D46042B36D8DFE8AC
:107A100003F003262D393D0081B30121FFF78CFFD0
:107A200000230DF107008DF8073000F0E5FA012280
:107A3000A4F12003C4F12000274902FA03F322FA3B
:107A400000F0034302FA04F4D1E900201443034395
:107A5000C1E900439DF8070000F0F2FA0EE00029AA
:107A600018BF02212046FFF767FF07E041B103215D
:107A7000FFF762FF01212046FFF788FF03B030BD0A
:107A80000121EFE70029F9D10421EBE709B1032136
:107A9000E8E7FFF751FF29462046FFF777FF0DF192
:107AA00007008DF8075000F0A7FA0122A4F1200387
:107AB000C4F12000084902FA03F322FA00F003435C
:107AC00002FA04F4D1E9002022EA040420EA0303C4
:107AD000BEE700BF38320020303200202DE9F041EF
:107AE000124E134F00243378A34208DC114BD3E924
:107AF0000023134318D0BDE8F041FFF755BF3D68A0
:107B000005EBC40815F8340002F012FF98F80110D4
:107B10004B1E594259410A1A514215F8340051413D
:107B2000FFF768FF0134DEE7BDE8F081083200208E
:107B30005832002030320020092AF7B505460C469D
:107B400016463DD902F024FED8B11E4B1E481D60DA
:107B50001E4B1F4F1C701F4B002120221E600BF07C
:107B600013FA1D4B00200021C3E90001013CE4B2DF
:107B70000326FF2C0BD1194A1948002100F042F9C5
:107B800003E002F0CDFD0028DFD003B0F0BD20B24D
:107B90009DF806308DF8046005EBC00223F0070362
:107BA0008DF8063001A9937815F830008DF805306E
:107BB0003A4602F0F7FD013CE4B20028D9D0E4E7F0
:107BC0000720E2E758320020383200200832002037
:107BD000C17902000C32002030320020DD7A020030
:107BE0004C98030070B5084D084E00242B789C4239
:107BF00001D3002070BD3368012113F8340002F076
:107C00004DFE0134F2E700BF083200205832002058
:107C10001FB50021039001AA44F20100CDE9011132
:107C200000F004F805B05DF804FB000010B572B672
:107C300004F040F903F070FF0028FBD1104B114C09
:107C40001149E41AE408240444F0010004F0CEF8D9
:107C50000E4B1B68DB0700D500BE0D4944F0020047
:107C600004F0C4F8BFF34F8F0A490B4BCA6802F403
:107C7000E0621343CB60BFF34F8F00BFFDE700BF4F
:107C80008C960300BC9603005B980300F0ED00E0C7
:107C90006798030000ED00E00400FA05D0E9022334
:107CA000D1E90201994208BF90422CBF0120002077
:107CB000704700002DE900480C4800F0F4FA0C4B26
:107CC000D3E9002312EB000B43F1000C094BD3E97D
:107CD00000239C4508BF93455846614603D21BF1DB
:107CE00080704CF10001BDE8008800BF3C2B0020F3
:107CF00060320020D832002037B505460C460A48CD
:107D000001A901F094FA60B10570446001A9064828
:107D100001F0B7FA18B1054800F0CAFA002003B024
:107D200030BD0420FBE700BFC43200203C2B002004
:107D3000194B1B782DE9304804461BB9002528460D
:107D4000BDE830880028F9D0037F03F0FF05002B41
:107D5000F4D0FFF7AFFFD4E90223994208BF904265
:107D600015D3236903B92377D4E9053098472169EE
:107D70000029E3D0237F03F0FF05002BDED0D4E9F8
:107D8000022312EB010B43F1000CC4E902BC2146B3
:107D9000024802F094FAD2E7683200207898030093
:107DA00013B5114B11491868019008235822104847
:107DB00001F008FA044698B90E4A0F4801A900F0EC
:107DC00063F9044660B901210B4800F04FFA012322
:107DD0000A4A0948194600F0B5F9094B01221A7000
:107DE000204602B010BD00BF749803006C32002022
:107DF000C4320020657E02003C2B0020FFFF7F0084
:107E0000683200203AB103685A614A1E514251411A
:107E10001961002070470720704738B5037F04467A
:107E20000D4683B98261FFF745FF421941F1000316
:107E3000C4E90223236903B1256121460020BDE87E
:107E40003840FFF759BF002038BD002301460377B3
:107E50000120FFF751BF0000014800F024BA00BF25
:107E60003C2B00202DE9F04F85B0074600F006FAC4
:107E700040B1594AD2E9003113F1807341F1000158
:107E8000C2E900310021384600F007FA38B1534CFE
:107E9000236823B12068FFF74BFF002323600121F3
:107EA000384600F0FAF920B1FFF704FF4C4BC3E964
:107EB000000103A94B48494D4B4C4C4E01F0F1F9E0
:107EC000002845D1DFF820A1444CDFF828B1504606
:107ED00002F00BFA2368002875D07BB12368D0E943
:107EE0000201D3E90223994208BF90422DD22368B0
:107EF0001B7F1BB12168504602F0E1F9504602F0A9
:107F0000EEF9D0E9026305460193FFF7D3FE019B2A
:107F1000B6EB000863EB0109B8F1010F79F100033A
:107F200044DB334EB0453FD9FFF796FF82194FF43B
:107F300096030021584600F025F900283ED1236819
:107F400013B9384600F0F6F8256005B0BDE8F08FAB
:107F50000378012B1DD05BB1022B11D14FF0000A29
:107F6000204602F0BCF9002833D080F81CA0F7E7C7
:107F700041680B7F23B901230B77204602F09FF95C
:107F800003A9184801F0B8F903A9164801F089F9C6
:107F900096E741682B68994202D100232B60EFE7F6
:107FA000204602F0A5F9EBE7AA68C0E70021584691
:107FB00000F069F92846FFF7BBFE01E00D28F9D073
:107FC0000023236083E7002BBFD1384600F0B6F8CA
:107FD000BBE701233370D3E760320020E03200209A
:107FE000D8320020C4320020789803006832002084
:107FF000FFFFB4003C2B002070B5EFF3108672B683
:108000000C4A946801239CB993600B4B0B4DD3F839
:10801000801029401160C3F88050D3F8841051605B
:108020004FF0FF32C3F88420047006B962B670BD09
:108030000370FAE7E432002000E100E0FC06FFBD37
:10804000084B9A6810B55AB150B9EFF3108172B667
:10805000054A1C6814605C685460986001B962B697
:1080600010BD00BFE432002000E100E0435882B0C0
:108070003BB10023435043580193019B012002B0C0
:1080800070471846FBE70000F8B5224B4679224DB1
:1080900043F82620214A224BF7009B1AEA19DB08F5
:1080A00012791B0432B143F002001E4903F09EFE18
:1080B0000820F8BD02680C88C2F8084590F9042031
:1080C0008978002AA8BF02F1604CD4B2BABF04F08C
:1080D0000F0EDFF858C00CF5614C4FEA4111C9B2E0
:1080E000B4BF0CF80E108CF8001352090121DFF810
:1080F00040C004F01F042F4401FA04F44CF822405D
:10810000397145F83600084943F0030003F06EFE6C
:108110000020CEE7F8320020F03200208C960300D9
:10812000CC96030096980300B898030014ED00E085
:1081300000E100E0036801221A6070470368012231
:108140005A60704773B501F15005AD000068ADB2DB
:108150004FF480348C400026C0F80843C0F84843F0
:10816000465101F5A8714559019522F07F42019DC4
:1081700040F82120C0F844430BB1C0F8044302B0DA
:1081800070BD00002DE9F74F884699464FF48036C0
:10819000036808F150058E404FEA880AAD00C3F825
:1081A0004863ADB2C3F80863074603EB0A00D3F88F
:1081B00004154FF0000B22F07F44D0F84025C0F8A2
:1081C000401543F805B05B590093009B531A23F008
:1081D0007F43012B0BD1244B4FF4806043F001030C
:1081E00098473B6843F805B05B590193019B386899
:1081F000D0F80455C0F84463631B23F07F43012B80
:108200001AD108F5A878184B013440F8284043F0FB
:1082100001034FF4806098473B68D3F804359D42D2
:1082200008D13B680020C3F84463C3F8046303B07B
:10823000BDE8F08F0D20FAE78244C9F1FF19CAF8B2
:108240004045D0F80435E21A013A22F07F4209F5A0
:108250007F499145EED3002AE3D10134CAF8404565
:10826000D0F804259342DBE79098030003680222CC
:10827000C3F8442309B1C3F8042370474FF4827153
:108280000068FFF7F3BE4FF4803303FA01F103688F
:10829000C3F84813C3F8081370475031890089B2F6
:1082A0000068FFF7E3BE0368D3F8040570470000D9
:1082B00090F9043001215A0903F01F0301FA03F376
:1082C0004032024941F82230704700BF00E100E02F
:1082D000024B034A1B681068184700BFF8320020A1
:1082E000F032002070B5064D0646002455F8043BD8
:1082F0000BB1304698470134042CF7D170BD00BF54
:1083000008330020033080B240F2FE33984230B58B
:108310001FD8134B1A783AB91C895D892C44044440
:10832000A4B2B4F5806F0AD91A7DAAB99A8BDC8BF6
:108330002244024492B2B2F5806F0DD801220A8025
:108340001446142202FB04335A8910445881002039
:1083500030BD48F20860FBE748F20660F8E700BF6E
:108360003C3300200B4A0C4B5188142000FB013198
:10837000CB6833B90420496810700122074801F026
:1083800065BB05230649137002238B80012200235D
:108390000968F3E7203300203C330020282B00201D
:1083A0000434002007B5002305490093054A0968F5
:1083B0000548082301F0B4FA03B05DF804FB00BFE0
:1083C00004340020D8980300282B002007B5002390
:1083D000009301460823034A034801F0A1FA03B0C1
:1083E0005DF804FBD0980300282B002013B5002370
:1083F0000C46009301460423074A084801F090FA0E
:1084000038B9074B142202FB04340123237402B051
:1084100010BD48F20D60FAE7CC980300282B00202D
:108420003C33002037B50A480A4B42689C881968DB
:1084300053880325033305709BB2002000909B00F6
:1084400001EB8401044801F06BFA03B030BD00BFBA
:108450002033002004340020282B002010B50146D2
:10846000044800F0E4FE1C22044600210AF08CFDC2
:10847000204610BDF033002068B10268084B9A42D4
:1084800009D14068074B984207D0013398420CBF8E
:10849000012003207047032070470020704700BF71
:1084A000DEC0ADDEFE011EF14388033300EB830323
:1084B00099420BD382884FF6FF739A4208D0038803
:1084C00033B18068431C58425841704702207047BE
:1084D000012070472DE9F8430223DFF860800B800C
:1084E0000D46174600F5805600F108044FF00109CB
:1084F000B4420FD2236801330CD031462046FFF737
:10850000D3FF48B10FB187F8009002280BD14FF488
:1085100080632B80BDE8F883A368D8F800209342DD
:1085200001D9C8F800302B886288033313442B80AC
:108530006388033304EB8304DAE700BF343300209D
:10854000154A142303FB002070B50B6844680D46E0
:1085500004F58056ABB15C88033403EB8404B44269
:108560000DD2236801330AD031462046FFF79CFF25
:1085700001280BD010F0FF0F05D00228EFD100200A
:1085800003E00834EBE72C60012070BD63880333FF
:1085900004EB8304E3E700BF3C330020436873B57A
:1085A00004460D466BB3244AD1688B4229D3126925
:1085B000934226D813F0030023D1204A218912893F
:1085C00091421ED121689A6891421AD11C4A516881
:1085D0008B4203D901F580518B420DD392699342AE
:1085E0000CD902F58052934208D201232B80B0FAB5
:1085F00080F0400902B070BD0346F7E748F2096019
:10860000F5E700232B801E46019601A92888FFF775
:1086100097FF30B92B8801339BB2012B2B80F3D904
:10862000E8E7019B226899689142EED16360034BB1
:108630001B892381DEE700BF282B00202033002088
:108640003C3300202DE9F8431C461D4B1B780646A1
:108650000F46154673B382B37CB3DFF86C804FF0DE
:108660001409A388012B02D948F2096020E009FB14
:1086700003F318F803302BB92146A088FFF760FFF9
:1086800020B92060A3880133A380EAE723681EB1E4
:10869000998832889142EFD11FB119883A88914266
:1086A000EAD19A68C5E90023064B1B892B8100207B
:1086B000BDE8F88348F20160FAE748F20460F7E7A2
:1086C00018330020203300203C33002008B5074B2E
:1086D000191D5888FFF734FF18B1BDE80840FFF7AF
:1086E000A1BEBDE80840FFF73DBE00BF203300201B
:1086F0002DE9F04FA34FDFF8B09289B00646B84697
:108700003B6823B94946A04800F0CBFD3860D8F853
:10871000005029784B1E052B00F2FE80DFE813F095
:10872000060060006000F200F20064012EB1974B79
:1087300000225A604FF40644F0E02B79032B1DD839
:10874000DFE803F015022B3691490B78022B08461F
:108750001AD00B7D022B4FF0010317D11422534383
:10876000C2180020C8545068FFF730FE03E0012310
:108770002B71FFF717FE002800F0BE80834B00220C
:108780005A6048F20D64C9E00023E7E77F4A13709E
:108790000023536041F61D54C0E07E497E4800230B
:1087A00002222B718A800122096801F04FF9E2E769
:1087B000784C00262E712068754DFFF707FE774B29
:1087C000D4F800C05A8814235343EA18EE54516871
:1087D0002160A188C2F804C011810222A280CAE7E8
:1087E000B5F814A0AA7DDFF8A8B1AEB1022AEB88D3
:1087F00006D9142101FB0AB1DA1C088902440A8156
:10880000142202FB0ABAC3F57F43BAF80A20FD33EB
:108810001344AAF80A308DE7142303FB0AB318891E
:108820005C6804EB8004062A69D8DFE802F0274E72
:1088300036441D5A040041F61D54AA7DEB88022AD5
:1088400006D9142101FB0AB1DA1C088902440A8105
:10885000142202FB0ABAC3F57F43BAF80A20FD339B
:108860001344AAF80A3059E04D484E4900234360AA
:10887000AB690360FFF792FE002874D00223AB754A
:10888000002300930423EA182146434801F048F8E6
:10889000002831D048F20D64CFE72B69002B14BFBC
:1088A00003230123AB750023009305F10C0204237D
:1088B00004F10801E9E70123AB750022EB8800927F
:1088C0009B002A6904F10C01DFE703290CBF052393
:1088D0000623AB7500230093042305F10802E11879
:1088E000D3E70623AB752F4B19882D4B5868FFF73C
:1088F0007DFD04460028A0D109B0BDE8F08F48F204
:108900000E649AE7002E7FF415AF2B79012B4DD022
:10891000EBB1022B3FF43EAF48F20E64142200216B
:1089200003A80AF031FB41F61D539C4208BF002406
:10893000D8F8003004941A78023A042A00F2088128
:10894000DFE812F0E900F5001801200127010223F9
:108950002B710DF10A01EB68039303A8CDE90466BE
:10896000FFF71CFE10B948F20964D7E70498BDF878
:108970000A108388EB8003882B81FFF737FD0446BC
:1089800029E000BF38330020F033002018330020E6
:108990003C33002004340020282B0020203300200A
:1089A000FC3200201034002030330020DFF800A219
:1089B00003AA53463146A81DFFF744FE044668B992
:1089C000BAF804100498FFF711FD044648F2096351
:1089D0009C423FF4DFAE002CA0D18DE70822314647
:1089E00050460AF0D1FAF1E7002E7FF4A3AE6B4BAC
:1089F0001A7BAAB11E731A78013A062A8CD801A1F3
:108A000051F822F0AB8A0200D18A0200EF8A0200FC
:108A1000F58A020019890200FB8A02000D8B020010
:108A20001A78072AE7D801A151F822F04D8A0200EE
:108A3000F7890200F7890200738A0200878A020020
:108A4000A78A0200A78A02006F8A02001A89544985
:108A500001321A8100225A801A730A78B2FA82F21D
:108A600052099A720A7DB2FA82F25209DA7201222E
:108A700007E04C4958688A884088033202448A805B
:108A800002221A70B7E7464C5A884649142505FB5E
:108A900002420868546850608888108102228A80E7
:108AA0000C600622EDE70722EBE79A7A32B9DA7A10
:108AB0008AB900221A705A805A606BE6384900223F
:108AC0009A72CA68002AF2D1097C0029EFD05A8034
:108AD000FFF7FCFD53E70022DA72314A116A0029E0
:108AE000E7D192F82420002AE3D00122EFE7FFF734
:108AF00099FC44E7FFF736FC41E7294A5B881421DB
:108B000001FB03235868FFF761FC38E700225A6035
:108B1000FFF748FC33E701228DF80C201A89ADF8E5
:108B200018209A88DB68ADF81A20059310E002221D
:108B30008DF80C201A89ADF818209A88ADF81A2003
:108B4000DA689B7D05929A1F534253418DF81C3081
:108B500003A8FFF7C7FB002649461348C8F8006082
:108B600000F0CAFB0121114800F079FC00287FF4D5
:108B7000C7ADC1E603228DF80C20DA88ADF81820C5
:108B80001A89CFE70422DB888DF80C20ADF8183065
:108B9000DEE705238DF80C30DAE700BF2033002034
:108BA0003C33002004340020F03300200034002047
:108BB000143400204068FFF79BBD000008B5012178
:108BC000044800F036FC18B9BDE80840FFF790BD36
:108BD00008BD00BF003400202DE9F3419846374B13
:108BE0001B7806460D46002B5CD000295DD0098815
:108BF0004FF6FF7399425BD06B88002B58D06B689F
:108C00009B0758D14AB92F890DF102013846FFF769
:108C100079FB30B102B0BDE8F08113885788ADF818
:108C2000023001A8FFF71AFC044660B9BDF8023013
:108C3000234A142101FB032358890338C01B5881A0
:108C400048F20760E6E700238375BDF802308382AF
:108C50006B68036180F8008001211A4800F0F4FB82
:108C60002B882381B8F1030F6B88A38004BF0423F2
:108C7000A3754FF0000508BF3368E06008BFA3612B
:108C8000E780658101A9104800F0FBFA36B1E3687E
:108C900033600E4B75601B89B5723381FFF78EFF11
:108CA0000020B7E748F20160B4E748F20460B1E79A
:108CB00048F20360AEE748F20260ABE718330020E9
:108CC0003C33002034330020F033002020330020D8
:108CD00008B5084B1A68042A09D01968064A42F8F0
:108CE00021000121184600F0AFFB002008BD48F22A
:108CF0000B60FBE70C340020083300202DE9F04F17
:108D000089B01422002103A80AF03EF9784A1378AA
:108D100003F0FF01009190463BB103A8FFF7E2FA90
:108D20000027384609B0BDE8F08F101D00F0A2FB07
:108D30000028F5D140F6F8734FF080521B685C1C98
:108D400008BF6C4B6C4C08BF1B6811695269581CFA
:108D500008BF02FB01F323610022A3F540536749DA
:108D6000E360204600F0A8FD019407460028D8D112
:108D70001C238C2262496348DFF89CB100F022FA80
:108D8000BA463D464FF003093C46019BDE68564417
:108D90003046FFF771FB012860D042B2002A4AD06A
:108DA000032827D13268531C02D0574B9A4234D142
:108DB000321D06F58051106801302ED104329142E7
:108DC000F9D1DBF800203AB902220123CBF8006088
:108DD000ABF8042000930BE0142262434B4B0220BB
:108DE000991898544A4A4E60548001340881A4B2BC
:108DF00045F001050AF5805ABAF5405FC5D1B9F1D1
:108E0000010F98BF0025EDB2022D03D0062D44D0EE
:108E1000002D4CD148F20A6783E73C491422624393
:108E2000881809F1FF394660032088541FFA89F930
:108E30000134A4B2DEE735491420604301EB000C95
:108E40000A5400F1100208300A44CCF804600144CE
:108E50003046FFF73FFB45F00205E9E7009B6BB1A9
:108E60002A4B14226243991802209854DBF8002000
:108E70004A60274A088154800134A4B2002225495F
:108E8000CBF800603046FFF725FBBBF80420022A30
:108E90000CBF042208221543ACE7012388F80030F8
:108EA00003A80023C8F80430FFF71CFA39E702A82A
:108EB000FFF7D4FAC8B10123013D03700A2D09D888
:108EC000DFE805F006080608070807080F110F007D
:108ED0000023037102A90B4800F0D3F9FFF76EFEDF
:108EE0001FE70323F5E70223F3E748F2076718E7D4
:108EF0001833002014100010282B0020D49A0300EF
:108F000064330020F0330020DEC0ADDE3C330020AF
:108F100020330020083400200434002073B50D46AF
:108F20000446C8B1C1B10DF10601FFF737FBB0B17E
:108F30000C4BBDF806006668142202FB00300121CC
:108F40000C3000F081FA63682E600C336B600123F3
:108F5000A372002002B070BD48F20460FAE748F244
:108F60000960F7E73C33002013B50446A8B10DF1C2
:108F70000601FFF713FB98B10C4ABDF80630142127
:108F800001FB0323DA6872B1A27A62B1DA680020C9
:108F9000013ADA60A07202B010BD48F20460FAE74C
:108FA00048F20960F7E748F20560F4E73C33002037
:108FB00002230022FFF710BE18B103230022FFF79F
:108FC0000BBE48F204607047114B1B7813B5044682
:108FD000ABB14FF6FF73984214D001A8FFF73EFAE9
:108FE00098B10523037001230371C48001A90948C6
:108FF00000F047F9FFF7E2FD002002B010BD48F293
:109000000160FAE748F20360F7E748F20760F4E727
:1090100018330020F03300200F4B1B7807B5A3B1A5
:1090200001A8FFF71BFA98B10623037001A90B48AA
:1090300000F027F90A4B1A780AB101221A73FFF7D8
:10904000BDFD002003B05DF804FB48F20160F9E7C4
:1090500048F20760F6E700BF18330020F033002025
:109060002033002007B5ADF80600ADF804100DF16F
:10907000060001A9FFF7E6FA03B05DF804FB07B5A7
:109080001346ADF806000A4600200DF10601FFF771
:10909000D9FA03B05DF804FB07B51346ADF8060036
:1090A0000A460DF106000021FFF7CCFA03B05DF887
:1090B00004FB20B119B103680B600020704748F22F
:1090C000046070472DE9F84F3C4B1B780446002B99
:1090D0006ED000286FD012220021DFF8E4A009F042
:1090E00053FF032323804FF0000BD04614274FF08B
:1090F0000109DAF80410BAF80A50BAF8086008460C
:10910000FFF7BAF9032808BF2388628804BF03F178
:10911000FF33238007FB0B832E44DB6813446380FB
:1091200023891D4463892581B6B233446381C6F522
:109130008066A389B6B2B34238BFA68101F10805A3
:1091400001F58056AE4217D92B68013314D0314651
:109150002846FFF7A9F9012819D010F0FF0F23D0F6
:109160000228EFD1E38884F81090761BE58901335B
:1091700005EBA605E380E5810AF1140ABBF1000FB7
:1091800002D00020BDE8F88F4FF0010BB1E7E38873
:109190000133E380E3896A8803331344E3816B88F6
:1091A000033305EB8305CDE7A3880133A380F6E7FE
:1091B00048F20160E6E748F20460E3E71833002074
:1091C0003C33002010B561B1B2FBF3F403FB14246F
:1091D000A4B244B9C0E9001484608281C3812046EE
:1091E00010BD0E20FCE70920FAE782B050E8022FFC
:1091F000C188B2EB324F4FF0000317BF92B241EA81
:10920000014142EA014104E04268B2EB324F08BF3B
:10921000012340E80212002AE8D18DF807309DF8BA
:109220000730002B0CBF1120002002B0704737B56B
:1092300050E8013F9DB2C48925448489A54228BFD6
:109240002D1B0489A54202BFBFF32F8F002207E028
:10925000C5EA030540E80154002CE9D14FF00102B2
:109260008DF803200193019B9DF803200B6002F011
:10927000FF0322B10B880068184403B030BD1846C4
:10928000FBE70A884B889A4209D150E8012FC2EACD
:10929000024240E80123002BF7D101207047002053
:1092A000704737B550E8023F1FFAA3F5C488A542BE
:1092B00002BFBFF32F8F00220DE0C48925448489AB
:1092C000A54228BF2D1BC3EA054540E80254002CE7
:1092D000E8D14FF001028DF803200193019B9DF826
:1092E00003200B6002F0FF0322B14B880068184492
:1092F00003B030BD1846FBE70A884B889A4209D173
:1093000050E8022FC2EA224240E80223002BF7D1A4
:10931000012070470020704701F01F024B09012116
:10932000914000EB830000F063B84B0910B501F0E9
:109330001F040121A14000EB830000F04EF8E04043
:1093400000F0010010BD01F01F0301229A404B09FB
:1093500000EB8300D14300F061B84B0901F01F011D
:1093600050F82300C84000F0010070472DE9F04795
:109370004E1E760980460F460136002558F82540D6
:1093800008EB8509E44394FAA4F4B4FA84F44FEAB0
:10939000451A202C06D10135AE42EFD83C46204676
:1093A000BDE8F0875444A742F5D921464046FFF76F
:1093B000BCFF0028F3D0D9F80040E44394FAA4F4A9
:1093C000B4FA84F4E5E750E8002F0B4640E8003C8F
:1093D0009CF0000FF7D11046704750E8002F42EA8A
:1093E000010340E8003C9CF0000FF6D110467047A6
:1093F00050E8003F43EA010240E8002C9CF0000FD7
:10940000F6D11046704750E8002F02EA010340E809
:10941000003C9CF0000FF6D11046704750E8003F2A
:1094200003EA010240E8002C9CF0000FF6D1104640
:10943000704750E8002F02EB010340E8003C9CF02D
:10944000000FF6D11046704750E8003F03EB0102D1
:1094500040E8002C9CF0000FF6D11046704750E811
:10946000003FA3EB010240E8002C9CF0000FF6D176
:10947000104670470121FFF7B0BF0121FFF7B8BFC9
:109480000021FFF7C0BF10B590B1D0E901230168FA
:109490009B1ADBB20A60013BDBB2FF2B026802D1F0
:1094A0000020107110BD11684C1C14600B70F2E7A5
:1094B0000E20F7E737B5054600240DF107008DF8BB
:1094C0000740FEF799FD2A686B68116899420ED92A
:1094D000481E106011F8014CEB68298A01FB043426
:1094E000AB6811791B1ADBB2994238BF13719DF832
:1094F0000700FEF7A5FD204603B030BD37B5054691
:1095000000230DF107000C468DF80730FEF774FDBF
:109510002A681368591C1160E968641A298AB4FB27
:10952000F1F41C709DF80700FEF78AFD03B030BD12
:10953000826810B504462AB14369016800699847FA
:109540000023A36010BD0EB403B5039921B104AB91
:1095500001AA019300F074F802B05DF804EB03B0C7
:1095600070470A2938B504460D4602D10D21FFF790
:10957000F8FFA3682268591CA160D554D4E90132D0
:109580009A4204D32046BDE83840FFF7D1BF38BD2A
:109590002DE9F84F9946DDE90A4317468246884689
:1095A0000A460126BA420FD24E4538BF4E4613F046
:1095B000010B01D164B900240125B9F1010F1AD9B9
:1095C00009F1FF397D43F8E7B2FBF7F20136E9E72D
:1095D0009B070ED5B9F1000F0CBF30252025A64200
:1095E000EAD2013C29465046FFF7BBFF002CF6D1DA
:1095F000E1E72025F3E7B8FBF5F39F42E2D9DFF876
:109600003C90B8FBF5F3504619F8031005FB13889E
:10961000FFF7A7FFB5FBF7F3BD4207D2BBF1000F81
:1096200002D00CB1A64203D3BDE8F88F1D46E8E78F
:1096300020215046013CFFF794FFF2E7E998030030
:109640002DE9F74F054617468846002900F030817E
:1096500018F8011B49B92B7B002B00F02981284603
:1096600003B0BDE8F04FFFF763BF252940F0C0808D
:10967000002698F800302D2B424608F1010823D02F
:10968000302B24D02B2B25D000242A2B02F10101D2
:1096900023D13B681A1D1B683A601C440A461378A4
:1096A0002E2B26D101324FF00009104610F8011B75
:1096B000A1F1300CBCF1090F1DD80A2303FB0913DB
:1096C000A3F130090246F0E746F00106D1E746F083
:1096D0000206CEE746F00406CBE711F8013CA3F101
:1096E00030000928DBD80A2202FB0434303C0A4649
:1096F000CBE74FF0000912F8011B01F0FB006828CE
:109700009046F8D069290ED04AD8582964D006D896
:1097100025296DD098F80030002B99D19BE763295B
:1097200062D06429F6D13A68D2F800A0111D8AEA05
:10973000EA723960A2EBEA724FF0010B092A5BDC96
:10974000CB4538BFCB462CB1BAF1000F01DB720715
:1097500000D5013CB30702D5B9F1000F04D0F007E2
:1097600002D4002C4ED10024BAF1000F52DACAF113
:10977000000A2D212846FFF7F4FE06F00302022A14
:1097800005D1B9F1000F02D1002C47D10024CDE959
:1097900000464B460A2251462846FFF7F9FEB9E734
:1097A00073294CD014D87029B4D13B681A1D3A6083
:1097B000302128461C68FFF7D4FE78212846FFF7A1
:1097C000D0FE00220823CDE9003221461022E3E733
:1097D00075292BD078299DD139680A1D3A60CDE9C9
:1097E00000464B46102228E03B681A1D19783A6063
:1097F0002846FFF7B6FE8DE70A230BF1010BB2FBFB
:10980000F3F29BE7A345AFD220212846013CFFF7A6
:10981000A8FEA6E77107B0D52B21ABE7A345B6D2CA
:1098200030212846013CFFF79CFEADE73968CDE9C1
:1098300000460A1D3A604B460A220968ACE73B68BD
:109840001A1D3A6016F00106D3F800A020D1BAF133
:10985000000F03D0504609F0F1FB0646B44200D990
:10986000C4B90AF1FF3A1EE028460136FFF779FE37
:109870001AF806100029F7D1A642BFF44BAF002C0E
:109880003FF448AF20212846013CFFF76AFEF3E78A
:109890000026EDE720212846013CFFF762FEDDE7C8
:1098A0002846FFF75EFE1AF8011F0029F8D131E7BC
:1098B00003B0BDE8F08F000007B50B4688B9124B26
:1098C0001248134AC01A0E23C0080093114B00041B
:1098D000114940F0010002F0A0FA0E2003B05DF83B
:1098E00004FB4BB9084B09480C4AC01AC0080E23A8
:1098F00000930004074BEBE703601B68114603B0BD
:109900005DF804EB184700BF8C9603001C9703001A
:10991000A6990300F9980300AB990300229A03006B
:109920002DE9F34188B93D4B3D483E4AC01AC00875
:109930000E243D4B009400043C4940F0010002F02D
:109940006CFA204602B0BDE8F0814AB9334B344886
:10995000374AC01AC0080E2400040094324BEBE7CB
:10996000D0F800C0BCF1000F09D12C4B2C48314A73
:10997000C01AC0080824000400942B4BDCE74BB944
:10998000264B27482C4AC01AC0080924000400941A
:10999000254BD1E74768D7F80480B3FBF8F708FBFD
:1099A00017374FB11D4B1E48244AC01AC00809245E
:1099B000000400941C4BBFE78F0709D0174B1848D1
:1099C0001F4AC01AC008102400040094164BB3E7C5
:1099D00012F0030F09D0114B11481A4AC01AC008DF
:1099E000102400040094104BA6E7C768B9420BD3BB
:1099F0004C1E05691C44AC4206D8DCF80C40A44659
:109A000002B0BDE8F0416047044B05480E4AC01A59
:109A1000C008102400040094034B8DE78C960300CB
:109A20001C970300A69903000B990300AB99030050
:109A3000289A03001C9A0300DB9903002E9A030066
:109A4000589A0300709A0300939A0300F7B580B9FF
:109A50002A4B2B482B4AC01AC0080E242A4B0094CC
:109A600000042A4940F0010002F0D7F9204603B073
:109A7000F0BDD0F800C0BCF1000F09D11F4B204849
:109A8000234AC01AC0080824000400941E4BE8E7CB
:109A90004AB91A4B1A481F4AC01AC00809240004C0
:109AA0000094194BDDE74768D7F800E00EF1FF3767
:109AB0000F4209D0114B1248174AC01AC00810248F
:109AC00000040094104BCCE7C768B9420CD34C1E7D
:109AD00005690EFB0244AC4206D8DCF81040A446EF
:109AE00003B0BDE8F0406047044B05480B4AC01A7C
:109AF000C008102400040094034BB2E78C960300C6
:109B00001C970300A69903001E990300AB9903005C
:109B10001C9A0300DB990300319903005799030055
:109B200070B508B10368ABB90C4D0D4C0026641B31
:109B30001423B4FBF3F4B44201D1002009E02B68F4
:109B400013B901361435F6E7DB6928469847002833
:109B5000F7D070BDDB69BDE870401847282B0020A6
:109B60003C2B002029DF704728DF704770B5036861
:109B70009D6886B004460E466DB1142200216846E9
:109B800009F002FAA3680593237901962BB1012B02
:109B90000DD06846A84706B070BD01238DF800308F
:109BA00023690293E368039363690493F1E7022353
:109BB0008DF80030E3681B030293F5E70846704711
:109BC00000207047024B187A003018BF0120704700
:109BD000B8340020034B187A0122B0FA80F05A748E
:109BE00040097047B834002008B510461A4609F0FD
:109BF000A2F9002008BD000008B514220021044885
:109C000009F0C2F90348FFF7F0FA002008BD00BFD1
:109C1000B8340020A834002010B5094C094B43602B
:109C20002046FFF727FC40B908F0DAFE1C23207419
:109C30008C2205490548FFF7C5FA002010BD00BF7A
:109C4000B8340020C89A03001C340020A834002037
:109C500070B5244C244E237A25463BB92349244829
:109C6000FFF71FFB306008B9606070BD34680223E5
:109C70002B72237973B1012B24D020460321FFF7E7
:109C800075FF00232B726B6018491948BDE87040BE
:109C9000FFF732BBD4E90523D21AB2F5805F28BFA3
:109CA0004FF48052D4E903109208012A38BF0122F0
:109CB00019441844FFF756FF50B11128DDD1012394
:109CC0002B72D2E7D4E903031844FFF74DFFF3E703
:109CD0002B7C002BC9D10146BDE87040022000F06A
:109CE00009B800BFB8340020D0340020CC340020A4
:109CF000A834002038B5831E012B45D8234C237A85
:109D0000002B41D0022B09D1032830D0204B1B68F7
:109D10000022E2601A793AB1012A22D0637C7BBB2F
:109D2000BDE83840FFF794BFD3E905128D1AB5F5A9
:109D3000805F94BF521902F580529A619142EDD131
:109D400002284FF0000308BF19462372104B18BFBA
:109D50000D211868FFF70AFF0E490F48FFF7CCFAEC
:109D6000DCE71A6901321A615B699A42E7E7E36846
:109D70000133082B01D8E360D0E70023E360DFE77D
:109D8000BDE8384008F01CBE38BD00BFB834002024
:109D9000D0340020CC340020A834002000F0FD0393
:109DA000012B08D1044B00225A74421E50425041EC
:109DB0001874FFF74DBF7047B834002010B5064C3B
:109DC000201DFFF757FB28B9637C1BB9BDE8104085
:109DD000FFF73EBF10BD00BFB83400202DE9F341AE
:109DE00080460D460F4801A916461F46FFF71FFA89
:109DF0000446A8B11C22002109F0C6F82D0B01234E
:109E0000237101A9C4F80080A760E5606661054878
:109E1000FFF737FAFFF7D2FF002002B0BDE8F0816C
:109E20000420FAE7A83400202DE9F743814688464C
:109E3000104801A917461E46FFF7F9F90446B0B1CC
:109E40001C22002109F0A0F800250A9BA36001A9AB
:109E50002571C4F80090C4E9037866610548FFF7EE
:109E600010FAFFF7ABFF284603B0BDE8F0830420EB
:109E7000FAE700BFA83400202DE9F047B0F80690BB
:109E80004479D2F800A09DF8208009FB04F4043C3A
:109E900006460AEB0300A0420F4688BFA4EB030A64
:109EA000191DC2F800A0B1FBF9F509FB15114DB958
:109EB000A9EB0104544528BF5446BAF1000F04D160
:109EC000BDE8F0873668013DF1E704317B19701871
:109ED0002246B8F1000F0ED001461846AAEB040A3C
:109EE00009F029F8D145254436684C464FF0000169
:109EF00028BF5446E1E71946F0E7FFF7C4BAF8B5C2
:109F000046790146721E0546002393422D6803D30D
:109F10000024A64202D8F8BD0133F6E70F682846B0
:109F2000FFF7ECFA01343946F3E72DE9F843068AE6
:109F3000CD1C0746FFF7BEFA043E35440446B5FB88
:109F4000F6F5F0B14FF48073EDB28380C680013D29
:109F5000076081464FF00008A84512D23846FFF747
:109F6000A9FA064648B163790133637108F1010823
:109F7000C9F8000007608146EEE72046FFF7BFFF03
:109F800034462046BDE8F88301210430FFF75CBA6F
:109F900010B5012104460430FFF761FA10F0FF0FFD
:109FA00004D12046BDE81040FFF7A9BF10BD1FB582
:109FB00003920022009203AAFFF75EFF05B05DF84E
:109FC00004FB1FB503920122009203AAFFF754FF7E
:109FD00005B05DF804FB33DF704741DF70470000D8
:109FE000064B10B500241C70054B1C60BFF35F8F3F
:109FF0000449054800F04DF9204610BDDD3400202D
:10A00000E0340020F49A0300D434002007B5002384
:10A010000DF107008DF80730FDF7EEFFF1EE103A75
:10A0200023F09F03E1EE103ABFF35F8F094B40220C
:10A03000C3F884219DF80700FEF702F808F0D0FC71
:10A0400020B1FFF7CAFF03B05DF804FB20BF40BF9B
:10A0500020BFF8E700E100E070B5264C054601217D
:10A060002046FFF7B0F9BFF35F8F264638B9042DBD
:10A070000AD0214B1A781AB1BFF35F8F206070BDF0
:10A080001E4A157001221A701D4C1C4D6368BBB925
:10A0900001F010FF01F040FD0028FBD1174B1B78A9
:10A0A000023B012B14D8BFF34F8F1649164BCA68D9
:10A0B00002F4E0621343CB60BFF34F8F00BFFDE7B4
:10A0C0001B682878984788B1204600F0ECF8DDE757
:10A0D00008F086FC08B1FFF77EFF4FF080430122B5
:10A0E000C3F80025BFF34F8F20BFFDE7BFF35F8F9D
:10A0F0003060C4E7E0340020DD340020DC34002090
:10A10000D434002000ED00E00400FA050268136872
:10A110005268934291BFD01A80680130801888BF7E
:10A12000C01A7047036881681A685B688B4234BF45
:10A1300001330023D31A584258417047F7B5002322
:10A1400004460DF107000D468DF80730FDF754FF6A
:10A150002046FFF7E7FF10B1237C002B3CD122689B
:10A16000A66853685168B14234BF01310021516083
:10A1700030B11168A068814234BF01310021116003
:10A18000E2686068511E072920D8DFE801F004105A
:10A190001F141F1F1F182A78C2542046FFF7B6FF4E
:10A1A00023689A68824200D29860002415E02A88C9
:10A1B00020F81320F1E72A6840F82320EDE7D5E9DD
:10A1C000006700EBC300C0E90067E6E7294602FB31
:10A1D000030008F0B0FEE0E704249DF80700FDF757
:10A1E0002FFF204603B0F0BD036818685B68C31AF0
:10A1F00058425841704773B5002305460DF10700DA
:10A200000C4616468DF80730FDF7F6FE2846FFF798
:10A21000EBFF002832D129680B682EB90A68A868BC
:10A22000824238BF561C0E60EA686968501E0728D3
:10A230001ED8DFE800F0040E1D121D1D1D16CB5C9C
:10A24000237000249DF80700FDF7FAFE204602B0B7
:10A2500070BD31F813302380F3E751F823302360C9
:10A26000EFE701EBC301D1E90023C4E90023E8E7EC
:10A2700003FB0211204608F05EFEE2E70524E1E759
:10A28000836800225A609A60C3E90422DA601A6087
:10A2900070470B684A684360934208BF002301601F
:10A2A00008BF43607047436843B1026891685268D1
:10A2B0000B449342436004BF00234360704770B572
:10A2C000446806460D46206818B1B3682946984789
:10A2D00018B923682B60256070BD2468F3E74368D4
:10A2E000186808B102681A607047436818687047B8
:10A2F0004368186800B97047884203D102681A6041
:10A300000120704703460068F4E7000010B50D49CE
:10A31000A1F59472914201D800200FE08B1ADB1056
:10A3200003EBD3735B1002EBC30452F83330834268
:10A3300005D802D204F10802ECE7606810BD21469E
:10A34000E8E700BF509C030008B5FFF7DFFF024BB2
:10A35000002808BF184608BD129B030038B5074CFB
:10A36000051E04F1080318BF1C4623682BB11A68A8
:10A3700022605B6828469847F7E738BDEC34002038
:10A3800020B9054B01225A70FFF7E8BF012802D11E
:10A39000014A9070F8E77047E434002020B9034B7D
:10A3A00001225A70FFF7DABF704700BFE434002083
:10A3B00038B50B4C237883B90A486360A3602361E6
:10A3C000E36000F013F9054608F00AFB08B900F055
:10A3D00019F901232370284638BD8525FBE700BF06
:10A3E000E434002081A3020037B50B4C00230DF1AB
:10A3F00007008DF80730FDF7FFFDE368013BE360E0
:10A40000E56815B900F010F9A5709DF80700FDF793
:10A4100017FE03B030BD00BFE4340020012813B59F
:10A4200009D018B103281CD002B010BD0F4B012277
:10A43000C3F88020F8E70E4C00230DF107008DF8DB
:10A440000730FDF7D9FD23780BB9FFF7B1FFE368BB
:10A450009DF807000133E3600123A370FDF7F0FDD1
:10A46000E2E700F0CFF8FFF7BFFFDDE700E100E033
:10A47000E43400201FB500238DF807000DF10F0014
:10A480008DF80F30FDF7B8FD08F0AAFA50B90DF1BC
:10A4900007010848FFF752FE0648FFF743FE08B1E0
:10A4A00000F09EFB9DF80F00FDF7CAFD05B05DF8BA
:10A4B00004FB00BF6496030007B520B103280BD04E
:10A4C00003B05DF804FB0F4B1B78012BF8D100F0B3
:10A4D00087FB00F08DFBF3E700230DF107008DF8FB
:10A4E0000730FDF789FD07480378012B05D10649A0
:10A4F000013000F035FB00F061FB9DF80700FDF72F
:10A500009FFDDDE74835002075A402001FB50378E4
:10A510008DF800304368019383688DF80830C36874
:10A520000393054A054B684653F8213052F8211031
:10A53000984705B05DF804FB4C35002054350020E9
:10A540001FB503788DF800304368019383688DF858
:10A550000830C3680393054A054B684653F8213019
:10A5600052F82110984705B05DF804FB4C350020E7
:10A5700054350020F0B5184B0778DFF86CE043F84D
:10A580002720164B16460A6943F827204B7F0EF802
:10A5900007300C4684460FCC89B06D460FC594E851
:10A5A0000F0085E80F001EF80730049753B1002E06
:10A5B0000B4A694608BF32460CF1040000F05CFE0D
:10A5C00009B0F0BD002E074A694608BF32460CF1BB
:10A5D0000C0000F025FCF3E7543500204C3500203A
:10A5E0000DA5020041A502005C350020044A137944
:10A5F00023B901211060918018467047852070476B
:10A6000060350020074B1A68D2075FBFC02283F86D
:10A61000002301221A604FF080430122C3F818255D
:10A62000704700BF00E100E0044B01221A604FF0C8
:10A630008042D2F81834DB03FBD470470C00004092
:10A64000154B07B51A687AB100221A601B6800938F
:10A65000009B4FF080430122C3F808230F4B587929
:10A6600010B95A711B6898470D4B1A6882B10022C5
:10A670001A601B680193019B4FF080430222C3F8CC
:10A680000823064B1B68012003B05DF804EB184754
:10A6900003B05DF804FB00BF0001004060350020FE
:10A6A0000401004000F1804000F5C040002382B06A
:10A6B000036003680193019B02B0704703681F2B7E
:10A6C00083BF03F01F03036001484FF0A0407047B1
:10A6D0000003005007B5019001A8FFF7EFFF019BB1
:10A6E00000EB8300D0F8002722F44032C0F80027A6
:10A6F000D0F8003743EA0143C0F8003703B05DF8F3
:10A7000004FB0000054B4FF0FF32072843F82020E0
:10A7100084BF1B1883F85820704700BF683500209D
:10A7200010B5174C94F86A3043BB04F13003302164
:10A73000FF22013911F0FF0103F8012BF9D1C8B252
:10A74000FFF7E0FF01310C29F9D1062200210D4865
:10A7500008F01AFC0C4BC02283F8062340221A6032
:10A760004FF4BE70FFF79EFF084B4FF00042C3F856
:10A770000423012384F86A30002010BD0820FCE780
:10A7800068350020CC35002000E100E0006000408A
:10A79000034B93F86A00003018BF0120704700BFD8
:10A7A00068350020F7B53B4E3318054693F9303035
:10A7B000002B6CDA8B78C3F34003002B0BBF08240B
:10A7C00000240C200820844202D1042003B0F0BDF4
:10A7D00056F82470013743D1701946F8242080F8C8
:10A7E000304013B9331983F858508B785A0717D46F
:10A7F000D80737D501A80195FFF760FF019B00EB53
:10A800008300D0F8003723F00203C0F80037224855
:10A81000EA0805F007070123BB40875C3B438354EC
:10A8200088780A7810F0020028D0A40004F180444F
:10A8300004F5C0442D02D4F8103523F44F3323F42B
:10A840004073C4F810351204D4F8103505F47C5563
:10A8500002F4403215431D43C4F810550020B5E7FB
:10A860000134B0E701A84A780195FFF727FF019B63
:10A8700003F5E073920040F82320C8E7083C344415
:10A8800094F8605045EA821284F860209EE7082020
:10A890009CE700BF68350020CC35002073B5224C02
:10A8A0002518064695F93020072A19DD224492F82A
:10A8B00058309B09032B0FD1019001A8FFF7FEFE32
:10A8C000019AD0F81035D340DB0707D40221304677
:10A8D000FFF700FF02B070BD012BF7D00321F6E7B0
:10A8E000D3B2072BF6D8930003F1804303F5C0439E
:10A8F000D3F8100540F00100C3F8100502F1400044
:10A90000800080B2FFF7CEFE0029E3D095F9303009
:10A9100054F82330002BDDD0012303FA02F2034B5D
:10A92000C3F80423D6E700BF68350020006000406C
:10A9300007B5019001A8FFF7C1FE019BD0F81005F3
:10A94000D84000F0010003B05DF804FB2DE9F04FA2
:10A95000002489B0CDE90244624D4FF48072012198
:10A9600002F1804303F5C04390B21B68012B06D16E
:10A97000D5F804330B4202D0FFF794FE0C430432A7
:10A98000B2F5907F4FEA4101EAD1574B1B68012B8A
:10A990000ED14FF4BE70FFF785FE4FF0A04344F098
:10A9A0000044D3F810350293504BD3F8103503937D
:10A9B00014F0FF0F1AD04E4F00250126344210D05C
:10A9C000AB0003F1804303F5C043D3F81005D3F87F
:10A9D000101557F8253023B1C1F30141C0F305200C
:10A9E00098470135082D4FEA4606E7D1002C75DA65
:10A9F0000DF1100800230493C8F804304FF0FF3322
:10AA0000CDE90633DFF8E8A0DFF8E89000273D46FF
:10AA100019F9014B631C48D0E4B2012324F0C006AD
:10AA200004F0070203FA02F2F00808AB191811F853
:10AA3000083C134239D00AEB0603A40993F93030DD
:10AA40005AF823B0BBF1000F08D1032C2DD118F810
:10AA500000C04CEA020C08F800C001E0032CF6D05C
:10AA600001A80196FFF72AFE019B11F8181C03F5B7
:10AA7000E07C114250F82C00C0F3014005D00228C0
:10AA800013D1032C0BD1214604E003280DD1032C54
:10AA900005D102213046FFF71DFE0135EDB2BBF1B5
:10AAA000000F02D021463046D8470137042FAFD1DE
:10AAB000A5B14FF0A0430299D3F8102503F54073D8
:10AAC0009142D3F8103502D10399994206D00292EF
:10AAD0000393049A059B0692079395E709B0BDE896
:10AAE000F08F00BF006000407C6100400003005018
:10AAF00068350020C8350020014B1B68184700BF8F
:10AB0000D43500200E4B984237B50D4602D00020B8
:10AB100003B030BD00230DF107008DF80730FDF7BD
:10AB20006BFA084B1C7914B901221D601A719DF84B
:10AB30000700FDF785FA002CE9D01120E8E700BFF7
:10AB400000200040D4350020034B984201BF034B46
:10AB500000221A601A71704700200040D43500208E
:10AB600010B5124C2278FAB9114B1960037813F022
:10AB7000010F104B1EBFD3F8042542F00102C3F8A9
:10AB80000425D3F8002222F00102C3F80022437802
:10AB9000094A5B01DBB282F80D334FF400531360B6
:10ABA00001232370002010BD8520FCE7E035002044
:10ABB000DC35002000D0004000E100E0064B002220
:10ABC0001A6082B01B680193019B044B0122C3F8F9
:10ABD00004231A6002B0704700D1004000D000404A
:10ABE000024A0123C2F808335360704700D0004086
:10ABF000064A0123C2F808335360054B4FF4005254
:10AC0000C3F88020034B00221A70704700D0004028
:10AC100000E100E0E0350020074B00221A6082B01E
:10AC20001B680193019B054BD3F80805044B1B6877
:10AC3000C0B202B0184700BF00D1004000D00040B1
:10AC4000DC3500200023435082B043580193019B20
:10AC500002B070470A4610B54FF48E71FFF7F2FF4D
:10AC6000136A9168C95C136A01331362C0F81C153A
:10AC700010BD8B690A4610B54FF4847123B9FFF7F4
:10AC8000E1FFD0F8183510BDFFF7DCFF536AD1683B
:10AC9000D0F81805C854536A01335362F3E7000033
:10ACA0001FB501238DF80030044BCDE90110D3E925
:10ACB00000126846904705B05DF804FBE4350020BB
:10ACC00030B54D4AD2F8043313F4007F85B01546F1
:10ACD0004FD0D2F82431002B4BD04FF49271104654
:10ACE000FFF7B0FF4FF40173C2F80833434B93F8FA
:10ACF000291009B9012151603F4902228DF8002035
:10AD0000D1F88024C1F8802403929A690292DA680B
:10AD100001920022C3E906226846D3E90012904757
:10AD20003548D0F81C315BB134494A690B6A9A4204
:10AD30000A464BD991F82830002B47D1FFF78AFFFC
:10AD40002D4AD2F8443193B14FF4A2711046FFF767
:10AD500079FF2A4B93F8291009B1012111609A69F2
:10AD60002AB100229A61586AD968FFF799FF05B0A5
:10AD700030BDD5F804335B07D2D5D5F80831002BA8
:10AD8000CED01E4C1C482146FFF773FF636AA269B0
:10AD90009A422346C4D1E269E1684AB12369E3607B
:10ADA0000023606AA261E3616362FFF779FFB7E79E
:10ADB00094F829200AB901226A600F4A4FF4017001
:10ADC000C2F8080300229A61586AEEE74FF48E71C8
:10ADD0000948FFF737FF5369002BB1D05169029141
:10ADE000002391688DF80030019153616846D2E9E3
:10ADF00000139847A4E700BF00200040E43500207E
:10AE00001F2886BF00F01F00044B4FF0A04300F541
:10AE1000E070022243F82020704700BF000300507A
:10AE20002DE9F843624F047991462C2202FB04720B
:10AE3000064692F82A200D46002A40F0B3805D496C
:10AE40000068FFF75FFE8046002840F0AE8029686A
:10AE50004A1C10D01F2987BF01F01F03564A0B461A
:10AE60004FF0A0420120984003F5E073C2F80805B6
:10AE7000032042F823006868431C0DD01F288BBFB5
:10AE800000F01F0303464C4A4FF0A04203F5E07365
:10AE90004FF0000C42F823C03368AA6995F814C03B
:10AEA000C3F824256A7DBCF1010F4CEA0202C3F805
:10AEB0006C25C3F81405C3F80C152BD1A968481CE0
:10AEC0000DD01F298BBF01F01F020A463A484FF0F0
:10AED000A04002F5E0724FF0000C40F822C0E86894
:10AEE000421C13D01F2887BF00F01F0C324A844633
:10AEF0004FF0A0424FF0010E0EFA0CFE0CF5E07C74
:10AF0000C2F808E54FF0030E42F82CE0C3F808053C
:10AF1000C3F810152C236343FA18C2F804902A6969
:10AF2000FA50B9F1000F2AD04FF48E7130682D7F9E
:10AF3000FFF788FE30684FF4A271FFF783FE326896
:10AF40001E4BC2F80433120B51B20029A8BF01F105
:10AF500060404FEA4513BABF194802F00F0500F5EB
:10AF60006140DBB2B4BF435580F8003302F01F02EA
:10AF7000012303FA02F24909124B43F821203368F6
:10AF80000422C3F800252C2303FB04730022C3E929
:10AF9000062283F829205A61012283F82A2040469C
:10AFA000BDE8F8834FF00808F9E74FF01108F6E71D
:10AFB000E4350020C1AC0200000300508000020014
:10AFC00014ED00E000E100E02DE9F04103680479B0
:10AFD000254D0022C3F800252C2202FB0452064610
:10AFE000526872B1214AC3F80823190B4AB20120F2
:10AFF000520901F01F0100FA01F120321C4840F80B
:10B000002210D3F80C05D3F81485D3F80815D3F81B
:10B0100010754FF0FF329042C3F81425C3F80C2589
:10B02000C3F80825C3F8102501D0FFF7E9FEB8F1F1
:10B03000FF3F02D04046FFF7E3FE7A1C02D03846BD
:10B04000FFF7DEFE4B1C02D00846FFF7D9FE306842
:10B05000FFF77AFD2C2303FB0454002384F82A30E5
:10B060006360BDE8F08100BFE43500208402020087
:10B0700000E100E02DE9F84F224F06794FF02C094E
:10B0800009FB067480466569002D38D16261A160B4
:10B0900025624FF48E71006884F82850FFF7D2FDC6
:10B0A000D8F80000012383602146FFF7D3FD6368D1
:10B0B000A1469BB9D8F800A0D4F814B0236A9B45E8
:10B0C00012D8D8F80020D2F81C31002BFBD0012375
:10B0D000D3602C2303FB067300225A612846BDE887
:10B0E000F88F94F8283043B9DAF81C31002BF8D0E7
:10B0F00049465046FFF7AEFDE0E70F25E9E7112589
:10B10000ECE700BFE43500200023435082B04358F1
:10B110000193019B02B070471FB501238DF80030E9
:10B12000044BCDE90110D3E900126846904705B001
:10B130005DF804FB103600201F2886BF00F01F00BA
:10B14000044B4FF0A04300F5E070022243F82020AA
:10B15000704700BF000300507FB5454AD2F8246114
:10B16000002E63D010464FF49271FFF7CDFF0223FB
:10B170008DF80030D2F88034C2F880340393D2F8CE
:10B180003C3502933B4BDA6801920022C3E9062268
:10B190006846D3E900129047354AD2F844317BB172
:10B1A0004FF4A2711046FFF7AFFF324B996939B1E6
:10B1B0000021C3E90611D968D2F83C05FFF7ACFFBE
:10B1C0002B4AD2F82031B3B14FF490711046FFF7FB
:10B1D0009BFF0123D360274B596961B1D2F84C150D
:10B1E0000291002299688DF8002001915A61684609
:10B1F000D3E9001290471E4AD2F85831A3B14FF458
:10B20000AC711046FFF780FF1A4B596961B1D2F853
:10B210004C150291002299688DF8002001915A6125
:10B220006846D3E90012904704B070BDD2F81031DF
:10B23000002BB1D04FF488711046FFF765FF0D4B1E
:10B24000D2F83C0599698842A6D1DC69D96864B115
:10B25000D2F8005225F02005C2F800521A699C610C
:10B26000DA60DE61FFF758FF96E79C61FAE700BFFE
:10B2700000200040103600202DE9F843694F067980
:10B280009146242202FB0672044692F820200D46C5
:10B29000002A40F0C08064490068FFF733FC804614
:10B2A000002840F0BB802868421C10D01F2887BFB0
:10B2B00000F01F035D4A03464FF0A0420121994070
:10B2C00003F5E073C2F80815032142F823106968FA
:10B2D0004B1C0DD01F298BBF01F01F030B46534A97
:10B2E0004FF0A04203F5E0734FF0000C42F823C08A
:10B2F0002368AA6995F814C0C3F824256A7DBCF1B7
:10B30000010F4CEA0202C3F86C25C3F80C05C3F820
:10B3100014152BD1A968481C0DD01F298BBF01F033
:10B320001F020A4641484FF0A04002F5E0724FF07C
:10B33000000C40F822C0E868421C13D01F2887BFC9
:10B3400000F01F0C394A84464FF0A0424FF0010E26
:10B350000EFA0CFE0CF5E07CC2F808E54FF0030E87
:10B3600042F82CE0C3F80805C3F8101524237343F2
:10B37000FA18C2F804902A69FA50B9F1000F39D0CE
:10B380004FF4887120682D7FFFF7BEFE4FF4907157
:10B390002068FFF7B9FE4FF492712068FFF7B4FE02
:10B3A0004FF4A2712068FFF7AFFE20684FF4AC7134
:10B3B000FFF7AAFE22681E4BC2F80433120B51B2EB
:10B3C0000029A8BF01F160404FEA4513BABF1948F0
:10B3D00002F00F0500F56140DBB2B4BF435580F8C1
:10B3E000003302F01F02012303FA02F24909124B53
:10B3F00043F8212023680822C3F80025242303FBF7
:10B4000006730022C3E906225A61012283F8202034
:10B410004046BDE8F8834FF00808F9E74FF01108FF
:10B42000F6E700BF1036002059B1020000030050BB
:10B430001003420014ED00E000E100E02DE9F041CE
:10B440002F4D0479242303FB045306465B680068F0
:10B4500073B12C4BC0F80833020B53B201215B09C6
:10B4600002F01F0201FA02F22033274941F823209B
:10B47000D0F80032012223F02003C0F800324FF44C
:10B48000AC714260FFF740FE3368DA60D3F85821B0
:10B49000002AFBD00022C3F80025D3F80C05D3F80E
:10B4A0001485D3F80815D3F810754FF0FF32904289
:10B4B000C3F80C25C3F81425C3F80825C3F81025D4
:10B4C00001D0FFF739FEB8F1FF3F02D04046FFF749
:10B4D00033FE7A1C02D03846FFF72EFE4B1C02D0FA
:10B4E0000846FFF729FE3068FFF72EFB242303FBF5
:10B4F0000454002384F820306360BDE8F08100BF6D
:10B50000103600201003420000E100E001F060432B
:10B51000B3F1005F2DE9F041074638D11E4B0679A3
:10B52000242505FB063598466C69002C31D16A61EB
:10B53000A96000684FF49071FFF7E6FD4FF4AC711D
:10B540003868FFF7E1FD3B686A69A968C3F84415EC
:10B55000C3F8482501229A606A68AAB9D3F8202165
:10B56000D3F858411AB9002CF8D00F2407E0002C6A
:10B57000FBD10122DA60D3F85821002AFBD0242322
:10B5800003FB0686002373612046BDE8F08110248A
:10B59000FAE71124F8E700BF10360020074B1B5CC8
:10B5A0001F2B8ABF064A4FF0A04203F01F03D2F8B8
:10B5B0000405D840C04300F00100704738A00300E4
:10B5C00000030050074B1B5C1F2B86BF03F01F03BB
:10B5D00005494FF0A041012202FA03F3C1F80C35EE
:10B5E000704700BF38A0030000030050074B1B5CEE
:10B5F0001F2B86BF03F01F0305494FF0A041012216
:10B6000002FA03F3C1F80835704700BF38A0030001
:10B610000003005008B50020FFF7E8FF0120FFF706
:10B62000E5FF0220FFF7E2FF0320BDE80840FFF737
:10B63000DDBF08B50020FFF7C5FF0120FFF7C2FFFF
:10B640000220FFF7BFFF0320BDE80840FFF7BABFA5
:10B650000A4B185C1F288ABF094B4FF0A04300F02B
:10B660001F00D3F804250121814021EA02000A408D
:10B67000C3F80805C3F80C25704700BF38A00300C5
:10B6800000030050074B1B5C1F2B8ABF064A4FF07C
:10B69000A04203F01F03D2F81005D840C04300F0C9
:10B6A0000100704734A00300000300500B2809D0AC
:10B6B0000C2809D0182809D019280CBF03204FF0F6
:10B6C000FF3070470020704701207047022070470C
:10B6D000014B185C704700BF34A00300C20710B5CF
:10B6E00004460CD54FF0A0430322C3F83427C3F817
:10B6F0003827C3F83C27C3F84027FFF78BFFA30781
:10B700000AD54FF0A0430C22C3F82C27C3F83027EA
:10B71000C3F86027C3F8642710BDF0B595B01C4688
:10B72000164608460D46FEF72FFC1A9B0D93CDE9F1
:10B73000086400242346082205A928460A948DF8A7
:10B740002C400C94FEF73DFC079B0293069B039351
:10B750009DF814308DF8114003F00302012A1DD129
:10B76000BDF81440059EC3F3C203C4F383148DF8DF
:10B770001030A20008230EA92846FEF722FCC6F3CB
:10B78000952608AB0093224602AB0EA9304600F086
:10B7900001FC2846FEF7FCFB15B0F0BD022AF8D1EB
:10B7A000BDF81640C3F3C203A4098DF81030082772
:10B7B000082C264628BF08263B4632460EA92846B6
:10B7C000FEF7FFFBA41B08AB02AA31460EA83744C4
:10B7D00000F044FC002CEBD1DBE70000014B012220
:10B7E0001A707047753600207047000070B50E4D16
:10B7F00006460FCD88B06C460FC495E80F00002EAA
:10B8000084E80F004FF00603084A0948009308BF78
:10B8100000226946FEF7AEFE08B1FCF7F9F9054BC8
:10B820001E7008B070BD00BF3CA00300DDB7020071
:10B83000442B00203436002007B5044B0093044A03
:10B840004023FFF76AFF03B05DF804FB55B8020020
:10B850003536002038B50D4B0D4D002018700D48C1
:10B8600004782D5DD2B21C4665B10430FFF74EFE60
:10B8700008B1FCF7CDF9084B1A7812B12378002BE8
:10B88000FBD038BD0C30FFF7F5FBF1E77536002033
:10B890005C350020442B00203436002008B50848D1
:10B8A000084A0378D35C3BB10430FFF7C7FD0020A2
:10B8B000BDE80840FFF79ABF0C30FFF785FBF6E7BD
:10B8C000442B00205C3500200120FFF78FBF0000D3
:10B8D00008B5FFF7F9FF0421034800F0C9FA034B4C
:10B8E00001225A7108BD00BFFC970300582B0020AD
:10B8F000037813F0040216D003F00303012B03D0E6
:10B90000022B09D0012070470A6800880232C0F378
:10B91000831002440A60F5E70B684288023303EBA8
:10B9200092130B60EEE71046704700002DE9F04FD0
:10B9300087B000230446851C0DF107000F46904692
:10B940008DF80730FCF758FB454806683E60D0E9A3
:10B950000132134401339B1B824600F21C4600F562
:10B96000836900F21447AB421BD30022B8F1000FE9
:10B9700070D0052363F3070264F38912DAF800102C
:10B98000DAF808309DF807000B4003330D444AF8FD
:10B990002320CAF80050FCF753FB012007B0BDE894
:10B9A000F08F01213046FDF74FFD4846FDF765FD5C
:10B9B0003846FDF762FDDAF80400DAF808B00290C4
:10B9C00000EA0B0003300AEB800002A9FFF790FFAA
:10B9D000029B50BB0BEA03020AEB820203F1020C4A
:10B9E000D2680392013303EA0B0B0AEB8B0B02F0D4
:10B9F0000302012ACDF808C0DBF80C1022D0022A7D
:10BA000016D083463846FDF73BFD10B1029BCAF8BD
:10BA1000043059463046FDF717FDDAE90123134497
:10BA2000DAF8002001339B1A9DE70BEA0300C9E70F
:10BA3000BDF80E309B0903334FEA114B0CEB930317
:10BA40000293DFE7BDF80C30C3F383134FEA114BC9
:10BA50006344F5E7062363F3070264F39F528DE71F
:10BA6000483700200B4B0C48FF2210B59A6000228B
:10BA7000C3F81824C3E90022C3F8142483F820244F
:10BA8000FEF73BFA044610B90448FEF7F9FB2046DE
:10BA900010BD00BF483700209C9703007CA0030026
:10BAA00030B50A4C71B10A4A0A49121BD208002368
:10BAB0009A4201D1002030BD31F82350854202D096
:10BAC0000133F5E7034654F83300F4E78C9603009E
:10BAD0009C970300282B0020094B013903EBC00081
:10BAE000032909D8DFE801F00A02040604207047A0
:10BAF00000797047407970470020704702207047F6
:10BB00008C960300034BD3E90030C31A58425841C6
:10BB1000704700BF483700202DE9F04387B0FFF79A
:10BB2000F1FF0646002840F0FB807E4DC5F8180462
:10BB3000BFF34F8F6868AC6802902040033005EB7C
:10BB4000800002A9FFF7D4FE029B18B1D5F8182493
:10BB5000002A5FD004EA0302991C013305EB82023C
:10BB6000234005EB8303D268DB68049302F00303F0
:10BB7000022B0392029162D1BDF80E306A484FEA5F
:10BB80009318B8F1500FC14628BF4FF0500969F320
:10BB90008F1309F10801ADF80E30FEF7C6F907461C
:10BBA000002800F0A880FEF7EFF903A9002308227F
:10BBB0003846FEF7FCF9029924EA01060136B60080
:10BBC000B14535D95FFA89F97EB3F6B2A9EB06091A
:10BBD000214003315FFA89F4B146544E05EB8101EF
:10BBE00008234A463846FEF7E2F936B109F1080360
:10BBF000224631463846FEF7DAF9029B08F103087F
:10BC000003EB98030293D5F81834002B4BD1D5F8E9
:10BC100010445BE02A689A4204D86A60304607B054
:10BC2000BDE8F08304EA030088E740493446D7E7DB
:10BC30002140033108234A4605EB8101DAE7012B55
:10BC400059D1BDF80C303848C3F38311062928BFF9
:10BC5000062161F3891302318900ADF80C30FEF73B
:10BC600064F90746002846D0FEF78EF90023082223
:10BC700003A93846FEF79BF90026BDF80C20C2F355
:10BC80008312B300964203F10803BCD202994A1C06
:10BC900021400331029205EB810104223846FEF770
:10BCA00086F90136E9E73846FEF772F9FFF72AFF11
:10BCB00080F00100C6B2B1E7E3685B7923B1236885
:10BCC00039461B6820469847E3681C68002CF3D16E
:10BCD0003846FEF75DF90DF107008DF80740FCF7D7
:10BCE0008BF9D5F818340BB9029B6B609DF80700EF
:10BCF000FCF7A6F9DAE7D5F8104454B90C4B0D4817
:10BD00000D49C01AC008000440F0020000F06EF8AF
:10BD1000CCE7236820469B689847E3681C68ECE7FB
:10BD200000267BE7483700209C970300543700200B
:10BD30008C960300BC96030088A003002DE9F74F02
:10BD4000284C80460F46924601A9012218469B4680
:10BD5000D4F80890FFF7EAFD80B3019D0026A91CE6
:10BD60005E4506EB010233D100211F48FDF72BFB96
:10BD700080F310006A1C02EA090204EB820200044C
:10BD800005EA0903033340EA1840D06014F8232081
:10BD900068F3C50204F8232034F8232066F38912DF
:10BDA00024F8232054F8232067F39F2244F823200B
:10BDB00002F0F80242F0010204F8232094F8203443
:10BDC0001BB1FFF7A9FE0028FBD103B0BDE8F08F3F
:10BDD00009EA020204EB82025AF82630D3600136E7
:10BDE000BEE700BF48370020643B002000231A460E
:10BDF000FFF7A4BF07B50123019201AAFFF79EFF39
:10BE000003B05DF804FB07B5CDE9002302236A46C1
:10BE1000FFF794FF03B05DF804FB1FB5CDE90123E4
:10BE2000069B039301AA0323FFF788FF05B05DF883
:10BE300004FB1FB5CDE90023069B0293079B0393E8
:10BE40006A460423FFF77AFF05B05DF804FB7FB56F
:10BE5000CDE90123089B0393099B04930A9B059357
:10BE600001AA0523FFF76AFF07B05DF804FB000095
:10BE700030B50F49D1F81024002314463CB9C468EA
:10BE8000237152B9C1F810042260184630BDE4682D
:10BE900025799D4206D02468F0E7D26811682160B8
:10BEA0001060F2E701330A2BE7D14FF0FF33ECE7E4
:10BEB00048370020094A38B50123D2F8104482F8E7
:10BEC00020341D4604B938BDE3685D7123682046FF
:10BED0005B689847E3681C68F4E700BF48370020B8
:10BEE000037A052B10B50C460FD0437A23B1084ACC
:10BEF00008492046FDF727FB07492046FDF723FBAD
:10BF00002046BDE81040FDF713BB002AF8D0F3E748
:10BF1000D3A0030093B70300F5A00300C38873B553
:10BF200004460D4633B1144A00921449144A284677
:10BF3000FDF709FB217A05291CD0637A4BB1A08853
:10BF4000FFF7CAFD0F4B104953F820202846FDF794
:10BF5000FAFA227A0D4BA08853F822600021FFF7ED
:10BF60009FFD0B4903463246284602B0BDE87040AB
:10BF7000FDF7E9BA02B070BDD3A00300E0A0030052
:10BF8000D8A00300A0A0030093B7030004A10300FE
:10BF9000F8A003002DE9F04385B01F460C9D002357
:10BFA00006460C46904695F80C902B732946384669
:10BFB000FFF7B4FFB8F1060F09D8DFE808F0041264
:10BFC000181F2833400031462846FDF7BCFA0022EE
:10BFD00029463846FFF784FF85F80C9005B0BDE888
:10BFE000F083226831462846FDF7ADFAEFE7D4E941
:10BFF000002331462846FDF7A6FAE8E7A368009338
:10C000003146D4E900232846FDF79DFADFE7E368CF
:10C010000193A36800933146D4E900232846FDF735
:10C0200092FAD4E723690293E3680193A36800932B
:10C030003146D4E900232846FDF785FAC7E763694E
:10C04000039323690293E3680193A3680093314645
:10C05000D4E900232846FDF776FAB8E708292DE948
:10C06000F84F80460E4617461C463AD8002593F8EE
:10C070000C901D7319461046FFF750FFDFF884A09F
:10C08000DFF884B0AE422ED918F805205946204674
:10C09000FDF759FA0135082DF4D11849DFF86CB0D5
:10C0A0002046FDF750FA4FF0000A564520D918F8FF
:10C0B0000A507E2D03D8284606F0E0FE00B92E2552
:10C0C0002A4659462046FDF73EFA0AF1010ABAF11E
:10C0D000080FEAD1012221463846FFF701FF84F814
:10C0E0000C90BDE8F88F51462046FDF72CFAD1E7B9
:10C0F00003492046FDF727FAE7E700BFCEA003007B
:10C10000CCA00300CAA00300C4A00300D0A0030079
:10C1100028B139B10023C1E900301846704748F210
:10C120001050704748F21350704730B1036848F21E
:10C1300040508B4208BF0020704748F210507047B3
:10C1400030B119B10B68934205D30A6000207047E3
:10C1500048F21350704748F2145070472DE9F041EF
:10C16000884600AF06461146404615461C46FFF776
:10C17000CFFF08BB21464046FFF7CAFFE0B998F859
:10C180000430104A52F82380B8F1000F17D056B986
:10C190000D4A32F8133033B107336A46DB08A2EB9D
:10C1A000C3039D466E46224629463046C04718B90D
:10C1B000064B2B60063B2360BD46BDE8F08148F28C
:10C1C0000350F9E780A1030064A103007652464DB5
:10C1D00070B505460C461E46FFF79AFF70B9AB795D
:10C1E0006AB1B3420ED12979094B53F8213063B1BA
:10C1F00011462046984708B9064B236070BD48F2A7
:10C200001050FBE748F21150F8E748F20350F5E709
:10C21000B4A103007052464D2DE9F0410D460D4981
:10C2200004461746FFF781FF90B966683946B27930
:10C230002846FFF785FF58B93279074B53F822306B
:10C2400023B129462046BDE8F041184748F2035083
:10C25000BDE8F0817052464DE8A10300F0B528B169
:10C260004079D9B18AB948F2135315E01846F8E776
:10C27000441E00254E5D0F5D575516550135013C96
:10C28000A542F7D91B1A014402448342F0D2002B85
:10C2900048F2115218BF13461846F0BD48F2105329
:10C2A000FAE700002DE9F8430C4600AF81461E492D
:10C2B000204615461E46FFF738FF58BB1B49284647
:10C2C000FFF733FF30BBD4F804806B68984524D166
:10C2D00098F80520396A3046FFF732FFD0B998F850
:10C2E0000430134A52F82380B8F1000F18D0B9F186
:10C2F000000F0AD10F4A32F8133033B107336A46C0
:10C30000DB08A2EBC3039D46E94633462A46214695
:10C310004846C047BD46BDE8F88348F24150F9E7BA
:10C3200048F20350F6E700BF7652464D7052464D34
:10C330001CA203004CA20300F8B50A4F0A4C0B4D97
:10C34000E41B0121E40829700026A64203D1022340
:10C350002B700020F8BD57F8363098470028F9D1E7
:10C360000136F2E7F4970300FC970300043C002039
:10C37000054B1A78022A04D01878431E58425841B7
:10C3800070470120704700BF043C002070B51B4B74
:10C390006A469A4206460D4605D3FFF7E9FF78B98B
:10C3A0004FF4054070BD164B16481749C01AC00817
:10C3B000000440F00100FFF719FD48F21950F1E7C1
:10C3C000124C236823B1124B1A68124B9A420FD0B9
:10C3D00086B97DB910481149206000F0CBFF0028D4
:10C3E000E0D10B4B0B4A1A6023680D4A1A60D9E75B
:10C3F0000020D7E748F21750D4E700BF00E0032041
:10C400008C960300BC96030064A20300D454002061
:10C41000F03C00206572E54B083C0020F43C002015
:10C420006169614D10B51346154A6C4694420ED3AE
:10C43000D3B9144A1468144A94421AD1E0B9134883
:10C440000A4600681249BDE8104000F0DDBF114BFC
:10C4500011481249C01AC008000440F00100FFF75B
:10C46000C5FC48F2195010BD0029E2D148F2105025
:10C47000F9E748F20250F6E748F21750F3E700BF39
:10C4800000E00320F03C00206572E54BD45400200E
:10C49000F43C00208C960300BC96030064A20300C9
:10C4A0002DE9F0410D4617460446F0B109B3144B8F
:10C4B0001A68144B9A421FD1134E3B460A46014656
:10C4C000306800F07DFF48F2715398420FD100228E
:10C4D00011461046FFF7A6FF48B93B462A462146BB
:10C4E0003068BDE8F04100F06BBF48F21350BDE882
:10C4F000F08148F21450FAE748F20250F7E700BF23
:10C50000F03C00206572E54BD45400200122FFF777
:10C51000C7BF0022FFF7C4BF75DF704776DF7047E3
:10C520008FDF7047FBF774BB10B501460446044823
:10C5300006F09EF821460348BDE8104005F0A4BF70
:10C540000C570020D854002010B504460020FBF7FB
:10C55000E1F808B1FBF75CFB24B9FBF7BDF908B1C2
:10C56000FBF756FB012010BD08B50020FDF7D8FAF7
:10C5700018B10E4B01221A7008BD0D4B0D480E4923
:10C58000C01AC008000440F00300FFF72FFC0B485E
:10C5900003F082FB08B1FBF73BFB0120FBF7BAF885
:10C5A0000028E9D0BDE80840FBF732BB2057002047
:10C5B0008C960300BC9603007DA403002457002042
:10C5C00010B50388192B86B0044674D011D8112BEE
:10C5D00047D003D8102B26D006B010BD172B63D040
:10C5E000182BF9D13F48404B4049C01AC0080004FD
:10C5F0004DE0212B50D00DD81B2B3FD01F2BEBD162
:10C6000000F108018088FFF787FF0028E4D0FBF7DE
:10C61000FFFAE1E73B2B01D0562BDDD11321A08897
:10C62000FFF77CFFF1E7304B2E483149C01AC008B4
:10C63000000440F00300FFF7D9FBA1882D4801F06A
:10C640003DFB08B1FBF7E4FA0720FBF763F808B1FC
:10C65000FBF7DEFA01F0F8F80028BDD1FFF784FF00
:10C66000BAE7214B1F48227A2349C01AC0080004A8
:10C6700040F00300FFF7BEFB0020E6E7037A022B41
:10C68000AAD11848184B1D49C01AC008000440F030
:10C690000300FFF7ABFB9FE7002305A98088ADF8F7
:10C6A0001430FFF73DFFB0E70E480F4B1449C01A96
:10C6B000C0080004EBE7437A0B4A0A481149801A84
:10C6C000627B0292227B0192A27AC008C2F3C0026E
:10C6D00000040092C3F38003227A40F00300FFF7C6
:10C6E000B6FB79E7BC9603008C9603001EA30300FB
:10C6F000BDA20300782B0020C8A20300E3A2030020
:10C7000001A303003DA3030010B5044604F04AFF53
:10C71000204604F02DFD23780C2B03D1BDE81040FA
:10C72000FFF722BF10BD0000072810B513D00A285C
:10C730000CD0042824D113210020FFF7EFFE30F0A5
:10C7400008031DD0BDE81040FBF762BA0020BDE829
:10C750001040FDF781BC0B4C23788BB90A4B0B487A
:10C760000B49C01AC008000440F00300FFF73EFB6D
:10C770000123237003F031FABDE81040FFF7F4BE47
:10C7800010BD00BFA05700208C960300BC9603008C
:10C7900093A303000238012806D8044B1A781AB173
:10C7A00000221A70FFF7E0BE704700BF205700203C
:10C7B0000B8840F67722934204D04DF67A229342BA
:10C7C0000CD070470A4B0B484A88C01AC0088B88A7
:10C7D0000949000440F00300FFF715BB044B05486E
:10C7E0004A88C01AC0080B7904490004F2E700BF68
:10C7F0008C960300BC960300B3A30300E2A30300DE
:10C8000038B50B78012B05460C4602D0022B19D007
:10C8100038BD0A1D498805F0FBFF08B1FBF7F8F9A0
:10C820000021608804F0D6F9112802D008B1FBF786
:10C83000EFF9284605F0C6FF0028E9D0BDE83840EA
:10C84000FBF7E6B9064B07488A880749C01AC008B3
:10C85000000440F00300BDE83840FFF7CBBA00BF4A
:10C860008C960300BC96030011A403000B78012BE7
:10C8700010B5044619D013B1022B23D010BD0A1DE8
:10C88000498805F0E5FE08B1FBF7C2F9204605F03E
:10C89000BBFE08B1FBF7BCF9204605F087FE002877
:10C8A000ECD0BDE81040FBF7B3B90A480A4B0A794F
:10C8B0000A49C01AC008000440F00300BDE8104057
:10C8C000FFF798BA0348044B0A790549C01AC00813
:10C8D0000004F1E7BC9603008C96030082A20300DB
:10C8E000A0A2030070B50378042BB4B057D0062B78
:10C8F0004FD0012B43D13822002106A806F044FB7B
:10C900008022002114A806F03FFB082310224FF6D6
:10C91000FF710DEB0300CDE9003306F035FB4FF658
:10C92000FF7004F09BF902AD00244FF6FF76B04291
:10C9300027D1214602A804F05BF908B1FBF768F99A
:10C94000214602A804F076F9062802D008B1FBF7C8
:10C950005FF901AB14AA694606A804F053F9DDE9B2
:10C9600000231343144C01D0237833B10021134822
:10C9700003F0C8F908B1FBF74BF90023237034B07A
:10C9800070BD082CD5D0013425F8020B04F066F9EF
:10C99000CDE740680028F2D0FBF73AF9EFE7084B03
:10C9A00008480949C01AC008000440F00300FFF716
:10C9B0001DFAFFF7D9FDE2E7A05700202457002019
:10C9C0008C960300BC9603006DA4030008B50378A1
:10C9D00083B10B4B0B480C49C01AC008000440F04F
:10C9E0000300FFF703FA04F057F938B1BDE8084037
:10C9F000FBF70EB9BDE80840FFF7B6BD08BD00BFA4
:10CA00008C960300BC9603008CA403007FB54FF402
:10CA100080410020FFF726F808B1FBF7F9F8FEF790
:10CA200057FFFBF7BDF908B1FBF7F2F8FDF7D8FAAD
:10CA300008B1FBF7EDF864490320FAF777FE08B177
:10CA4000FBF7E6F802A90020FAF756FF08B1FBF75A
:10CA5000DFF89DF808309A1E534253418DF8033099
:10CA600005F040FF08B1FBF7D3F8002302A901202D
:10CA7000029306F005F808B1FBF7CAF802A806F021
:10CA8000D3F808B1FBF7C4F85049514802F03AFB1B
:10CA900008B1FBF7BDF803F0F9FF08B1FBF7B8F8F0
:10CAA0000522002102A806F06FFA029B03F07C42E7
:10CAB000484B134302939DF80C3023F0030343F0DB
:10CAC000030302A88DF80C3004F07AF808B1FBF7E4
:10CAD0009FF8414804F05CF808B1FBF799F8082288
