:020000022000DC
:1070000000000420757302005D7302005F730200CC
:1070100061730200637302006573020000000000E8
:107020000000000000000000000000006773020084
:1070300069730200000000006B7302006D730200B0
:10704000AD9902006F730200659E02006F7302002B
:107050006F7302006F730200B99C02006F7302002D
:107060006F7302006F7302006F7302006F73020090
:107070006F7302006F7302006F7302006F73020080
:107080006F730200498902006F7302006F73020080
:107090006F7302006F73020095CA02006F730200E3
:1070A0006F7302006F7302006F7302006F73020050
:1070B0006F7302006F730200000000000000000008
:1070C0006F7302006F7302006F7302006F73020030
:1070D0006F7302006F7302006F7302006F73020020
:1070E0006F7302006F7302006F73020000000000F4
:1070F000000000006F730200000000006F730200C8
:10710000000000000000000000000000000000007F
:10711000000000000000000000000000000000006F
:10712000000000000000000000000000000000005F
:10713000000000000000000000000000000000004F
:10714000000000000000000000000000000000003F
:10715000000000000000000000000000000000002F
:10716000000000000000000000000000000000001F
:10717000000000000000000000000000000000000F
:1071800000000000000000000000000000000000FF
:1071900000000000000000000000000000000000EF
:1071A00000000000000000000000000000000000DF
:1071B00000000000000000000000000000000000CF
:1071C00000000000000000000000000000000000BF
:1071D00000000000000000000000000000000000AF
:1071E000000000000000000000000000000000009F
:1071F000000000000000000000000000000000008F
:10720000354936480A1A02D0072291438D4634493F
:1072100034480A1A06D00722914381F309880222D2
:1072200082F3148830483149314A00F044F831483B
:107230003149324A00F03FF831483249324A00F0D1
:107240003AF832483249334A00F035F83248334987
:10725000334A00F030F833483349344A00F02BF811
:1072600033483449344A00F026F83448344900227F
:1072700000F02CF833483449002200F027F8334856
:107280003349091A082902DB002202604160314AB1
:1072900090471F481F49884205D00268043003B454
:1072A000904703BCF7E700208646EC46002000210B
:1072B000294A9047FEE7884207D0521A05D0037842
:1072C00001300B700131013AF9D17047884202D088
:1072D00002700130FAE770470000042000E003204C
:1072E000000004200000042050EC0200382A002096
:1072F0005C300020D0730200D0730200ECD8020092
:1073000050EC0200382A0020382A00202CDA020033
:107310002CDA02002CDA02002CDA02002CDA02004D
:107320002CDA02002CDA02002CDA020050EC020007
:1073300074F202005C3000205C3000205C300020E1
:10734000984000209840002098400020984000205D
:10735000986000209D73020001B20200FEE7FEE784
:10736000FEE7FEE7FEE7FEE7FEE7FEE7FEE7FEE7F5
:1073700000F002B8FFF7FCBF0F484FF00701884349
:1073800085460E4880470E48016841F4700101604F
:10739000BFF34F8FBFF36F8FFFF732BF09480A4922
:1073A0000A4A884207D0521A05D0037801300B7080
:1073B0000131013AF9D170470000042029940200FC
:1073C00088ED00E02CDA0200382A0020382A00205C
:1073D0007047000007B5044B0093044A402300F0B7
:1073E00032F803B05DF804FBF17302005D30002059
:1073F0002DE9F84389461446B2B10F4B0F4E0325D1
:10740000002743F00108224609EB0701002004F0A1
:1074100043F80744241A48B933782BB14FF47A4023
:10742000C047013D02D13570BDE8F88301233370B8
:10743000002CE8D1F8E700BF30DA02005C30002011
:10744000704704F05DB8F0B595B01C461646084686
:107450000D4601F0E8FD1A9B0D93CDE90864002468
:107460002346082205A928460A948DF82C400C943E
:1074700001F0F6FD079B0293069B03939DF81430E1
:107480008DF8114003F00302012A1DD1BDF814400C
:10749000059EC3F3C203C4F383148DF81030A20019
:1074A00008230EA9284601F0DBFDC6F3952608AB9C
:1074B0000093224602AB0EA9304600F07BFB284623
:1074C00001F0B5FD15B0F0BD022AF8D1BDF81640A7
:1074D000C3F3C203A4098DF810300827082C2646F0
:1074E00028BF08263B4632460EA9284601F0B8FDC3
:1074F000A41B08AB02AA31460EA8374400F0BEFB1D
:10750000002CEBD1DBE7000008B5FFF79AFF042160
:10751000034800F0BDFA034B01225A7108BD00BFB9
:107520001CDA0200382A0020037813F0040216D077
:1075300003F00303012B03D0022B09D00120704775
:107540000A6800880232C0F3831002440A60F5E73B
:107550000B684288023303EB92130B60EEE7104690
:10756000704700002DE9F04F87B000230446851CCA
:107570000DF107000F4690468DF8073001F078F8BE
:10758000454806683E60D0E90132134401339B1B35
:10759000824600F21C4600F5836900F21447AB42B4
:1075A0001BD30022B8F1000F70D0052363F307024C
:1075B00064F38912DAF80010DAF808309DF8070051
:1075C0000B4003330D444AF82320CAF8005001F061
:1075D00073F8012007B0BDE8F08F0121304601F0BB
:1075E00065FA484601F078FA384601F075FADAF89B
:1075F0000400DAF808B0029000EA0B0003300AEB4E
:10760000800002A9FFF790FF029B50BB0BEA030228
:107610000AEB820203F1020CD2680392013303EAFF
:107620000B0B0AEB8B0B02F00302012ACDF808C00A
:10763000DBF80C1022D0022A16D08346384601F01F
:107640004EFA10B1029BCAF804305946304601F098
:107650002DFADAE901231344DAF8002001339B1AEA
:107660009DE70BEA0300C9E7BDF80E309B09033321
:107670004FEA114B0CEB93030293DFE7BDF80C309C
:10768000C3F383134FEA114B6344F5E7062363F317
:10769000070264F39F528DE7703100200B4B0C48BA
:1076A000FF2210B59A600022C3F81824C3E9002213
:1076B000C3F8142483F8202401F06EFC044610B9AA
:1076C000044801F02BFE204610BD00BF70310020A1
:1076D00090D9020054DA020030B50A4C71B10A4A5E
:1076E0000A49121BD20800239A4201D1002030BD62
:1076F00031F82350854202D00133F5E7034654F8B0
:107700003300F4E7F8D8020090D90200382A0020AC
:10771000094B013903EBC000032909D8DFE801F068
:107720000A020406042070470079704740797047C8
:107730000020704702207047F8D80200034BD3E9BD
:107740000030C31A58425841704700BF70310020C2
:107750002DE9F04387B0FFF7F1FF0646002840F01F
:10776000FB807E4DC5F81804BFF34F8F6868AC6886
:1077700002902040033005EB800002A9FFF7D4FE01
:10778000029B18B1D5F81824002A5FD004EA03023E
:10779000991C013305EB8202234005EB8303D26879
:1077A000DB68049302F00303022B0392029162D17F
:1077B000BDF80E306A484FEA9318B8F1500FC14631
:1077C00028BF4FF0500969F38F1309F10801ADF894
:1077D0000E3001F0F9FB0746002800F0A88001F008
:1077E00022FC03A900230822384601F02FFC02994D
:1077F00024EA01060136B600B14535D95FFA89F9A8
:107800007EB3F6B2A9EB0609214003315FFA89F491
:10781000B146544E05EB810108234A46384601F033
:1078200015FC36B109F1080322463146384601F00D
:107830000DFC029B08F1030803EB98030293D5F8B3
:107840001834002B4BD1D5F810445BE02A689A42DB
:1078500004D86A60304607B0BDE8F08304EA03004C
:1078600088E740493446D7E72140033108234A4698
:1078700005EB8101DAE7012B59D1BDF80C3038480E
:10788000C3F38311062928BF062161F3891302314E
:107890008900ADF80C3001F097FB0746002846D070
:1078A00001F0C1FB0023082203A9384601F0CEFBFA
:1078B0000026BDF80C20C2F38312B300964203F1F8
:1078C0000803BCD202994A1C21400331029205EB05
:1078D00081010422384601F0B9FB0136E9E7384658
:1078E00001F0A5FBFFF72AFF80F00100C6B2B1E767
:1078F000E3685B7923B1236839461B6820469847C3
:10790000E3681C68002CF3D1384601F090FB0DF1C0
:1079100007008DF8074000F0ABFED5F818340BB91E
:10792000029B6B609DF8070000F0C6FEDAE7D5F811
:10793000104454B90C4B0D480D49C01AC00800043E
:1079400040F0020000F06EF8CCE7236820469B6808
:107950009847E3681C68ECE700267BE7703100205D
:1079600090D902007C310020F8D8020020D9020012
:1079700060DA02002DE9F74F284C80460F46924608
:1079800001A9012218469B46D4F80890FFF7EAFDAA
:1079900080B3019D0026A91C5E4506EB010233D190
:1079A00000211F4801F062F880F310006A1C02EA0F
:1079B000090204EB8202000405EA0903033340EAEA
:1079C0001840D06014F8232068F3C50204F823207F
:1079D00034F8232066F3891224F8232054F8232056
:1079E00067F39F2244F8232002F0F80242F00102DC
:1079F00004F8232094F820341BB1FFF7A9FE0028D7
:107A0000FBD103B0BDE8F08F09EA020204EB820269
:107A10005AF82630D3600136BEE700BF703100202F
:107A20008C35002000231A46FFF7A4BF07B50123B9
:107A3000019201AAFFF79EFF03B05DF804FB07B5B2
:107A4000CDE9002302236A46FFF794FF03B05DF8F7
:107A500004FB1FB5CDE90123069B039301AA032371
:107A6000FFF788FF05B05DF804FB7FB5CDE9002383
:107A7000089B0293099B03930A9B04930B9B05931A
:107A80006A460623FFF776FF07B05DF804FB0000A7
:107A900030B50F49D1F81024002314463CB9C4680E
:107AA000237152B9C1F810042260184630BDE46851
:107AB00025799D4206D02468F0E7D26811682160DC
:107AC0001060F2E701330A2BE7D14FF0FF33ECE708
:107AD00070310020094A38B50123D2F8104482F8E9
:107AE00020341D4604B938BDE3685D712368204623
:107AF0005B689847E3681C68F4E700BF70310020BA
:107B0000037A052B10B50C460FD0437A23B1084AEF
:107B10000849204601F046F80749204601F042F89E
:107B20002046BDE8104001F032B8002AF8D0F3E753
:107B3000ABDA0200B0DA0200E9E20200C38873B5F2
:107B400004460D4633B1144A00921449144A28469B
:107B500001F028F8217A05291CD0637A4BB1A0885E
:107B6000FFF7D6FD0F4B104953F82020284601F0AF
:107B700019F8227A0D4BA08853F822600021FFF7F4
:107B8000ABFD0B4903463246284602B0BDE87040C3
:107B900001F008B802B070BDABDA0200BBDA020037
:107BA000B3DA020078DA0200B0DA0200E0DA0200AA
:107BB000D3DA02002DE9F04385B01F460C9D002367
:107BC00006460C46904695F80C902B73294638468D
:107BD000FFF7B4FFB8F1060F09D8DFE808F0041288
:107BE000181F283340003146284600F0DBFF0022F2
:107BF00029463846FFF784FF85F80C9005B0BDE8AC
:107C0000F08322683146284600F0CCFFEFE7D4E944
:107C100000233146284600F0C5FFE8E7A36800933B
:107C20003146D4E90023284600F0BCFFDFE7E368D3
:107C30000193A36800933146D4E90023284600F05D
:107C4000B1FFD4E723690293E3680193A36800932B
:107C50003146D4E90023284600F0A4FFC7E7636952
:107C6000039323690293E3680193A3680093314669
:107C7000D4E90023284600F095FFB8E708292DE94C
:107C8000F84F80460E4617461C463AD8002593F812
:107C90000C901D7319461046FFF750FFDFF884A0C3
:107CA000DFF884B0AE422ED918F805205946204698
:107CB00000F078FF0135082DF4D11849DFF86CB0D9
:107CC000204600F06FFF4FF0000A564520D918F803
:107CD0000A507E2D03D8284605F044F900B92E2518
:107CE0002A465946204600F05DFF0AF1010ABAF122
:107CF000080FEAD1012221463846FFF701FF84F838
:107D00000C90BDE8F88F5146204600F04BFFD1E7BC
:107D10000349204600F046FFE7E700BFA6DA02006D
:107D2000A4DA0200A2DA02009CDA0200A8DA020059
:107D3000C30710B507D4F0234008054A145C23405C
:107D40001943115410BD0901C9B20F23F4E700BF54
:107D50006036002030B5094B1C78094B19680023A8
:107D60009C4202DC0022104630BD11F8335085429F
:107D700001EBC302F7D00133F2E700BF2C3600203D
:107D80008036002070B504460D46FFF7E3FF30B1A2
:107D9000436823B129462046BDE87040184770BDAE
:107DA000034B044819680022490800F064BA00BF78
:107DB000303600203836002010B5C0B2FFF7CAFFB9
:107DC0000446007801F06AFF63785A1E534253411B
:107DD000834208D1044BD3E90023134303D1BDE808
:107DE0001040FFF7DDBF10BD5836002037B54308FF
:107DF000364AD35CC2074CBF1B0903F00F0304468D
:107E00000D46042B36D8DFE803F003262D393D005C
:107E100081B30121FFF78CFF00230DF107008DF8DE
:107E2000073000F025FC0122A4F12003C4F120005A
:107E3000274902FA03F322FA00F0034302FA04F49A
:107E4000D1E9002014430343C1E900439DF8070032
:107E500000F032FC0EE0002918BF02212046FFF797
:107E600067FF07E041B10321FFF762FF01212046D0
:107E7000FFF788FF03B030BD0121EFE70029F9D1FA
:107E80000421EBE709B10321E8E7FFF751FF294699
:107E90002046FFF777FF0DF107008DF8075000F03F
:107EA000E7FB0122A4F12003C4F12000084902FAF3
:107EB00003F322FA00F0034302FA04F4D1E90020AC
:107EC00022EA040420EA0303BEE700BF6036002074
:107ED000583600202DE9F041124E134F002433781C
:107EE000A34208DC114BD3E90023134318D0BDE8AB
:107EF000F041FFF755BF3D6805EBC40815F83400A5
:107F000001F0CCFE98F801104B1E594259410A1A53
:107F1000514215F834005141FFF768FF0134DEE7A4
:107F2000BDE8F0812C360020803600205836002035
:107F3000092AF7B505460C4616463DD901F0DEFD87
:107F4000D8B11E4B1E481D601E4B1F4F1C701F4B8F
:107F5000002120221E6005F09FF81D4B002000210B
:107F6000C3E90001013CE4B20326FF2C0BD1194AFE
:107F70001948002100F074F903E001F087FD0028A2
:107F8000DFD003B0F0BD20B29DF806308DF804605C
:107F900005EBC00223F007038DF8063001A99378A2
:107FA00015F830008DF805303A4601F0B1FD013C7E
:107FB000E4B20028D9D0E4E70720E2E780360020C9
:107FC000603600202C360020B97D020030360020BB
:107FD00058360020D57E020040DB020070B5084D07
:107FE000084E00242B789C4201D3002070BD3368DA
:107FF000012113F8340001F007FE0134F2E700BF5D
:108000002C360020803600201FB50021039001AAE5
:1080100044F20100CDE9011100F004F805B05DF86B
:1080200004FB000010B572B6FFF754FDFFF790FB9C
:108030000028FBD1104B114C1149E41AE408240428
:1080400044F00100FFF7EEFC0E4B1B68DB0700D588
:1080500000BE0D4944F00200FFF7E4FCBFF34F8F70
:108060000A490B4BCA6802F4E0621343CB60BFF3CA
:108070004F8F00BFFDE700BFF8D8020020D90200F3
:108080004FDB0200F0ED00E05BDB020000ED00E002
:108090000400FA0549B152B1531E1A4007D182605B
:1080A00001608380C260104670470E20704709202F
:1080B000704710B58468C2688388121B934208D346
:1080C000C26813400268D154C3680133C360002002
:1080D00010BD0420FCE78268C3689A420AD0826817
:1080E000838813400268D35C0B708368013383601C
:1080F0000020704705207047D0E90223D1E9020132
:10810000994208BF90422CBF012000207047000018
:108110002DE900480C4800F002FC0C4BD3E9002389
:1081200012EB000B43F1000C094BD3E900239C45F3
:1081300008BF93455846614603D21BF180704CF14D
:108140000001BDE8008800BF402A002088360020DA
:108150000037002037B505460C460A4801A900F053
:1081600010FC60B10570446001A9064800F033FCC2
:1081700018B1054800F0D8FB002003B030BD042042
:10818000FBE700BFEC360020402A0020194B1B788B
:108190002DE9304804461BB900252846BDE8308843
:1081A0000028F9D0037F03F0FF05002BF4D0FFF780
:1081B000AFFFD4E90223994208BF904215D3236947
:1081C00003B92377D4E90530984721690029E3D022
:1081D000237F03F0FF05002BDED0D4E9022312EB4E
:1081E000010B43F1000CC4E902BC2146024801F036
:1081F000B4F8D2E7903600206CDB020013B5114BC7
:1082000011491868019008235822104800F0A6FB75
:10821000044698B90E4A0F4801A900F071FA0446C5
:1082200060B901210B4800F05DFB01230A4A0948AF
:10823000194600F0C3FA094B01221A70204602B019
:1082400010BD00BF68DB020094360020EC36002031
:10825000C1820200402A0020FFFF7F0090360020EC
:108260003AB103685A614A1E5142514119610020D6
:1082700070470720704738B5037F04460D4683B921
:108280008261FFF745FF421941F10003C4E902236F
:10829000236903B1256121460020BDE83840FFF77E
:1082A00059BF002038BD0023014603770120FFF7A6
:1082B00051BF0000014800F032BB00BF402A00203F
:1082C0002DE9F04F85B0074600F014FB40B1594A44
:1082D000D2E9003113F1807341F10001C2E90031AC
:1082E0000021384600F015FB38B1534C236823B108
:1082F0002068FFF74BFF002323600121384600F080
:1083000008FB20B1FFF704FF4C4BC3E9000103A9B0
:108310004B48494D4B4C4C4E00F06DFB002845D16D
:10832000DFF820A1444CDFF828B1504601F02BF8CB
:108330002368002875D07BB12368D0E90201D3E916
:108340000223994208BF90422DD223681B7F1BB1A4
:108350002168504601F001F8504601F00EF8D0E9CE
:10836000026305460193FFF7D3FE019BB6EB0008BD
:1083700063EB0109B8F1010F79F1000344DB334EDF
:10838000B0453FD9FFF796FF82194FF496030021BD
:10839000584600F033FA00283ED1236813B9384616
:1083A00000F004FA256005B0BDE8F08F0378012BDA
:1083B0001DD05BB1022B11D14FF0000A204600F016
:1083C000DCFF002833D080F81CA0F7E741680B7F62
:1083D00023B901230B77204600F0BFFF03A91848FB
:1083E00000F034FB03A9164800F005FB96E741684E
:1083F0002B68994202D100232B60EFE7204600F062
:10840000C5FFEBE7AA68C0E70021584600F077FAFD
:108410002846FFF7BBFE01E00D28F9D000232360BA
:1084200083E7002BBFD1384600F0C4F9BBE7012336
:108430003370D3E78836002008370020003700204B
:10844000EC3600206CDB020090360020FFFFB40009
:10845000402A00200648074A03780749D35C0122D6
:1084600013B1043002F094B90C3001F03BBF00BFEF
:10847000482A002084370020343700200648074A65
:1084800003780749D35C012213B1043002F02CB900
:108490000C3001F0D1BE00BF482A002084370020F4
:1084A0003537002037B50578012D05D0002D32D0A5
:1084B000022D25D003B030BD037A13B9FFF7CAFFF0
:1084C000F8E743681A4C19782046FFF7F2FD80B1AF
:1084D0008DF800500190174B68461B689847A168BB
:1084E000E368A2885B1A9A42E8D2134B01221A7001
:1084F000E0E7A268E3689A42F1D08DF80000EAE76D
:10850000C3688DF800500193FFF7A4FF094B68463C
:108510001B689847CEE709490948FFF7DCFD10B909
:10852000FFF7ACFFC6E703238DF80030EEE700BF8E
:10853000103700200C37002020370020353700206E
:1085400024370020F0B51F46234B89B006461A6039
:108550000C4600293DD08A8820480968FFF79AFD1B
:10856000002834D1A289A1681D48FFF793FD002897
:108570002DD11C4D0FCD6C460FC495E80F0084E83B
:108580000F0073690693337C174A18488DF81C70E6
:10859000003318BF01238DF81430737C002B14BFF7
:1085A0000E2300238DF81530F3680293B36803930C
:1085B0003368019369467368009301F091F930B90B
:1085C0000B4B18703368013301D0FFF743FF09B03C
:1085D000F0BD0720FBE700BF0C370020103700205C
:1085E0002437002084DB0200A5840200482A0020F2
:1085F0002037002070B5084C014608482678FFF760
:108600006AFD054636B100232370FFF723FF08B14A
:10861000FFF7FAFC284670BD2037002010370020F5
:1086200010B501460E48FFF744FD0446A8B90D48B1
:108630000D4A0378D35C63B1043002F09DF860B951
:108640000A490748FFF747FD38B9BDE81040FFF772
:1086500015BF0C3001F03AFEF1E7204610BD00BF17
:1086600024370020482A0020843700203537002096
:1086700070B5EFF3108672B60C4A946801239CB96A
:1086800093600B4B0B4DD3F8801029401160C3F859
:108690008050D3F8841051604FF0FF32C3F884202B
:1086A000047006B962B670BD0370FAE7383700206F
:1086B00000E100E0FC06FFBD084B9A6810B55AB116
:1086C00050B9EFF3108172B6054A1C6814605C68FB
:1086D0005460986001B962B610BD00BF3837002001
:1086E00000E100E0435882B03BB1002343504358BF
:1086F0000193019B012002B070471846FBE7000080
:10870000F8B5224B4679224D43F82620214A224BC8
:10871000F7009B1AEA19DB0812791B0432B143F007
:1087200002001E49FFF77EF90820F8BD02680C8898
:10873000C2F8084590F904208978002AA8BF02F100
:10874000604CD4B2BABF04F00F0EDFF858C00CF57D
:10875000614C4FEA4111C9B2B4BF0CF80E108CF84D
:10876000001352090121DFF840C004F01F042F4418
:1087700001FA04F44CF82240397145F836000849F2
:1087800043F00300FFF74EF90020CEE74C370020FE
:1087900044370020F8D8020030D90200B6DB0200CE
:1087A000D8DB020014ED00E000E100E003680122E4
:1087B0001A607047036801225A60704773B501F16F
:1087C0005005AD000068ADB24FF480348C400026F7
:1087D000C0F80843C0F84843465101F5A87145590F
:1087E000019522F07F42019D40F82120C0F84443CA
:1087F0000BB1C0F8044302B070BD00002DE9F74F83
:10880000884699464FF48036036808F150058E403B
:108810004FEA880AAD00C3F84863ADB2C3F80863F5
:10882000074603EB0A00D3F804154FF0000B22F0C3
:108830007F44D0F84025C0F8401543F805B05B5997
:108840000093009B531A23F07F43012B0BD1244B41
:108850004FF4806043F0010398473B6843F805B04C
:108860005B590193019B3868D0F80455C0F8446304
:10887000631B23F07F43012B1AD108F5A878184B0E
:10888000013440F8284043F001034FF480609847DA
:108890003B68D3F804359D4208D13B680020C3F8FB
:1088A0004463C3F8046303B0BDE8F08F0D20FAE71A
:1088B0008244C9F1FF19CAF84045D0F80435E21ADC
:1088C000013A22F07F4209F57F499145EED3002A13
:1088D000E3D10134CAF84045D0F804259342DBE7E0
:1088E000B0DB020003680222C3F8442309B1C3F8D5
:1088F000042370474FF482710068FFF7F3BE4FF412
:10890000803303FA01F10368C3F84813C3F808136E
:1089100070475031890089B20068FFF7E3BE0368F1
:10892000D3F804057047000090F9043001215A097A
:1089300003F01F0301FA03F34032024941F82230E9
:10894000704700BF00E100E0024B034A1B6810685B
:10895000184700BF4C3700204437002010B561B1E4
:10896000B2FBF3F403FB1424A4B244B9C0E900142D
:1089700084608281C381204610BD0E20FCE709205F
:10898000FAE737B550E8013F9DB2C4892544848990
:10899000A54228BF2D1B0489A54202BFBFF32F8F1C
:1089A000002207E0C5EA030540E80154002CE9D1A4
:1089B0004FF001028DF803200193019B9DF80320E5
:1089C0000B6002F0FF0322B10B880068184403B06B
:1089D00030BD1846FBE70A884B889A4209D150E817
:1089E000012FC2EA024240E80123002BF7D1012007
:1089F00070470020704737B550E8023F1FFAA3F5D3
:108A0000C488A54202BFBFF32F8F00220DE0C489A6
:108A100025448489A54228BF2D1BC3EA054540E8AB
:108A20000254002CE8D14FF001028DF8032001938D
:108A3000019B9DF803200B6002F0FF0322B14B88DD
:108A40000068184403B030BD1846FBE70A884B881D
:108A50009A4209D150E8022FC2EA224240E802239A
:108A6000002BF7D1012070470020704750E8002FFD
:108A70000B4640E8003C9CF0000FF7D110467047D1
:108A800050E8003F43EA010240E8002C9CF0000F50
:108A9000F6D11046704750E8002F02EA010340E883
:108AA000003C9CF0000FF6D11046704750E8003FA4
:108AB00003EB010240E8002C9CF0000FF6D11046B9
:108AC000704750E8003FA3EB010240E8002C9CF007
:108AD000000FF6D1104670470121FFF7D1BF0021EA
:108AE000FFF7D9BF10B590B1D0E9012301689B1AF7
:108AF000DBB20A60013BDBB2FF2B026802D100202F
:108B0000107110BD11684C1C14600B70F2E70E2040
:108B1000F7E737B5054600240DF107008DF807404B
:108B2000FFF7A6FD2A686B68116899420ED9481EA6
:108B3000106011F8014CEB68298A01FB0434AB6822
:108B400011791B1ADBB2994238BF13719DF80700E7
:108B5000FFF7B2FD204603B030BD37B50546002310
:108B60000DF107000C468DF80730FFF781FD2A68EC
:108B70001368591C1160E968641A298AB4FBF1F47E
:108B80001C709DF80700FFF797FD03B030BD8268A9
:108B900010B504462AB1436901680069984700236B
:108BA000A36010BD0EB403B5039921B104AB01AAB3
:108BB000019300F075F802B05DF804EB03B0704764
:108BC0000A2938B504460D4602D10D21FFF7F8FFFA
:108BD000A3682268591CA160D554D4E901329A4295
:108BE00004D32046BDE83840FFF7D1BF38BD0000B0
:108BF0002DE9F84F9946DDE90A4317468246884633
:108C00000A460126BA420FD24E4538BF4E4613F0EF
:108C1000010B01D164B900240125B9F1010F1AD962
:108C200009F1FF397D43F8E7B2FBF7F20136E9E7D6
:108C30009B070ED5B9F1000F0CBF30252025A642A9
:108C4000EAD2013C29465046FFF7BAFF002CF6D184
:108C5000E1E72025F3E7B8FBF5F39F42E2D9DFF81F
:108C60003C90B8FBF5F3504619F8031005FB138848
:108C7000FFF7A6FFB5FBF7F3BD4207D2BBF1000F2C
:108C800002D00CB1A64203D3BDE8F88F1D46E8E739
:108C900020215046013CFFF793FFF2E7EADB020098
:108CA0002DE9F74F054617468846002900F0308128
:108CB00018F8011B49B92B7B002B00F029812846AD
:108CC00003B0BDE8F04FFFF762BF252940F0C08038
:108CD000002698F800302D2B424608F1010823D0D9
:108CE000302B24D02B2B25D000242A2B02F101017C
:108CF00023D13B681A1D1B683A601C440A4613784E
:108D00002E2B26D101324FF00009104610F8011B1E
:108D1000A1F1300CBCF1090F1DD80A2303FB091384
:108D2000A3F130090246F0E746F00106D1E746F02C
:108D30000206CEE746F00406CBE711F8013CA3F1AA
:108D400030000928DBD80A2202FB0434303C0A46F2
:108D5000CBE74FF0000912F8011B01F0FB00682877
:108D60009046F8D069290ED04AD8582964D006D840
:108D700025296DD098F80030002B99D19BE7632905
:108D800062D06429F6D13A68D2F800A0111D8AEAAF
:108D9000EA723960A2EBEA724FF0010B092A5BDC40
:108DA000CB4538BFCB462CB1BAF1000F01DB7207BF
:108DB00000D5013CB30702D5B9F1000F04D0F0078C
:108DC00002D4002C4ED10024BAF1000F52DACAF1BD
:108DD000000A2D212846FFF7F3FE06F00302022ABF
:108DE00005D1B9F1000F02D1002C47D10024CDE903
:108DF00000464B460A2251462846FFF7F9FEB9E7DE
:108E000073294CD014D87029B4D13B681A1D3A602C
:108E1000302128461C68FFF7D3FE78212846FFF74B
:108E2000CFFE00220823CDE9003221461022E3E7DD
:108E300075292BD078299DD139680A1D3A60CDE972
:108E400000464B46102228E03B681A1D19783A600C
:108E50002846FFF7B5FE8DE70A230BF1010BB2FBA5
:108E6000F3F29BE7A345AFD220212846013CFFF750
:108E7000A7FEA6E77107B0D52B21ABE7A345B6D275
:108E800030212846013CFFF79BFEADE73968CDE96C
:108E900000460A1D3A604B460A220968ACE73B6867
:108EA0001A1D3A6016F00106D3F800A020D1BAF1DD
:108EB000000F03D0504604F044F90646B44200D9EE
:108EC000C4B90AF1FF3A1EE028460136FFF778FEE2
:108ED0001AF806100029F7D1A642BFF44BAF002CB8
:108EE0003FF448AF20212846013CFFF769FEF3E735
:108EF0000026EDE720212846013CFFF761FEDDE773
:108F00002846FFF75DFE1AF8011F0029F8D131E766
:108F100003B0BDE8F08F2DE9F047B0F80690447932
:108F2000D2F800A09DF8208009FB04F4043C06461A
:108F30000AEB0300A0420F4688BFA4EB030A191DE9
:108F4000C2F800A0B1FBF9F509FB15114DB9A9EB69
:108F50000104544528BF5446BAF1000F04D1BDE8BE
:108F6000F0873668013DF1E704317B19701822461D
:108F7000B8F1000F0ED001461846AAEB040A04F01F
:108F800062F8D145254436684C464FF0000128BFB1
:108F90005446E1E71946F0E7FFF7A4BDF8B5467976
:108FA0000146721E0546002393422D6803D3002418
:108FB000A64202D8F8BD0133F6E70F682846FFF74E
:108FC000CCFD01343946F3E72DE9F843068ACD1C80
:108FD0000746FFF79EFD043E35440446B5FBF6F513
:108FE000F0B14FF48073EDB28380C680013D07601D
:108FF00081464FF00008A84512D23846FFF789FD98
:10900000064648B163790133637108F10108C9F874
:10901000000007608146EEE72046FFF7BFFF3446B9
:109020002046BDE8F88301210430FFF73FBD10B5AD
:10903000012104460430FFF744FD10F0FF0F04D176
:109040002046BDE81040FFF7A9BF10BD1FB5039231
:109050000022009203AAFFF75EFF05B05DF804FB53
:109060001FB503920122009203AAFFF754FF05B037
:109070005DF804FB33DF704741DF7047064B10B5E6
:1090800000241C70054B1C60BFF35F8F044905482A
:1090900000F04DF9204610BD593700205C37002004
:1090A000FCDB02005037002007B500230DF107005C
:1090B0008DF80730FFF7DCFAF1EE103A23F09F034A
:1090C000E1EE103ABFF35F8F094B4022C3F88421D1
:1090D0009DF80700FFF7F0FA03F0C2FC20B1FFF79C
:1090E000CBFF03B05DF804FB20BF40BF20BFF8E713
:1090F00000E100E070B5264C054601212046FFF74F
:10910000B5FCBFF35F8F264638B9042D0AD0214B3A
:109110001A781AB1BFF35F8F206070BD1E4A1570B8
:1091200001221A701D4C1C4D6368BBB9FEF7D2FCBE
:10913000FEF70EFB0028FBD1174B1B78023B012BDF
:1091400014D8BFF34F8F1649164BCA6802F4E06279
:109150001343CB60BFF34F8F00BFFDE71B68287838
:10916000984788B1204600F0ECF8DDE703F078FC82
:1091700008B1FFF77FFF4FF080430122C3F80025BD
:10918000BFF34F8F20BFFDE7BFF35F8F3060C4E7B1
:109190005C37002059370020583700205037002016
:1091A00000ED00E00400FA0502681368526893427B
:1091B00091BFD01A80680130801888BFC01A7047EC
:1091C000036881681A685B688B4234BF01330023EF
:1091D000D31A584258417047F7B5002304460DF1A1
:1091E00007000D468DF80730FFF742FA2046FFF7DB
:1091F000E7FF10B1237C002B3CD12268A66853689E
:109200005168B14234BF01310021516030B1116861
:10921000A068814234BF013100211160E2686068BA
:10922000511E072920D8DFE801F004101F141F1F6A
:109230001F182A78C2542046FFF7B6FF23689A68A1
:10924000824200D29860002415E02A8820F813207A
:10925000F1E72A6840F82320EDE7D5E9006700EB45
:10926000C300C0E90067E6E7294602FB030003F0FC
:10927000EAFEE0E704249DF80700FFF71DFA204608
:1092800003B0F0BD036818685B68C31A58425841C0
:10929000704773B5002305460DF107000C461646CE
:1092A0008DF80730FFF7E4F92846FFF7EBFF0028B9
:1092B00032D129680B682EB90A68A868824238BF83
:1092C000561C0E60EA686968501E07281ED8DFE841
:1092D00000F0040E1D121D1D1D16CB5C2370002412
:1092E0009DF80700FFF7E8F9204602B070BD31F89D
:1092F00013302380F3E751F823302360EFE701EBCD
:10930000C301D1E90023C4E90023E8E703FB02110C
:10931000204603F098FEE2E70524E1E78368002297
:109320005A609A60C3E90422DA601A6070470B68D9
:109330004A684360934208BF0023016008BF43604E
:109340007047436843B10268916852680B44934286
:10935000436004BF00234360704770B5446806460D
:109360000D46206818B1B3682946984718B9236894
:109370002B60256070BD2468F3E74368186808B166
:1093800002681A6070474368186870474368186835
:1093900000B97047884203D102681A600120704703
:1093A00003460068F4E7000010B50D49A1F594727A
:1093B000914201D800200FE08B1ADB1003EBD3732E
:1093C0005B1002EBC30452F83330834205D802D25B
:1093D00004F10802ECE7606810BD2146E8E700BF31
:1093E00058DD020008B5FFF7DFFF024B002808BF79
:1093F000184608BD1ADC020010B50446C0B2FFF7DB
:109400000FF9204610BD0000054B1B68082B01BF5B
:10941000044B1868B0FA80F0400918BF002070476C
:10942000300100103401001008B54FF080430022D5
:10943000C3F80C21C3F81021C3F838254FF080522F
:1094400003F54043D2F80414C3F82015D2F80814E9
:10945000C3F82415D2F80C14C3F82815D2F8101448
:10946000C3F82C15D2F81414C3F83015D2F8181418
:10947000C3F83415D2F81C14C3F84015D2F82014E0
:10948000C3F84415D2F82414C3F84815D2F82814A8
:10949000C3F84C15D2F82C14C3F85015D2F8301478
:1094A000C3F85415D2F83414C3F86015D2F8381440
:1094B000C3F86415D2F83C14C3F86815D2F8401408
:1094C000C3F86C15D2F84424C3F87025FFF79CFF4D
:1094D00010B1384B384A1A60FFF796FF18B1374B76
:1094E000FB22C3F81825FFF78FFF48B13449354BED
:1094F0000A681B6822F00F0203F00F0313430B608E
:10950000FFF782FF18B1304B4FF400721A604FF032
:109510008043D3F80024D20744BF6FF00102C3F8A0
:1095200000242A4AD2F8883043F47003C2F8883005
:10953000BFF34F8FBFF36F8F4FF01023D3F800228C
:10954000002A03DBD3F80432002B2FDA204B012250
:10955000C3F80425D3F80024002AFBD04FF01022D2
:109560001221C2F80012D3F80024002AFBD04FF0D9
:1095700010231222C3F80422154B1A46D3F8001404
:109580000029FBD00021C3F80415D2F80034002BC9
:10959000FBD0BFF34F8F0D490E4BCA6802F4E06257
:1095A0001343CB60BFF34F8F00BFFDE70A4B0B4A5D
:1095B0001A6008BD8C5600404881030000F000404E
:1095C000E40E0040580200104096024000ED00E01A
:1095D00000E001400400FA055C2A00200090D0035E
:1095E000074B1B5C1F2B8ABF064A4FF0A04203F0BB
:1095F0001F03D2F80405D840C04300F001007047B3
:1096000016E1020000030050074B1B5C1F2B86BFB6
:1096100003F01F0305494FF0A041012202FA03F3B2
:10962000C1F80C35704700BF16E10200000300507E
:10963000074B1B5C1F2B86BF03F01F0305494FF030
:10964000A041012202FA03F3C1F80835704700BFB8
:1096500016E102000003005008B50020FFF7E8FF04
:109660000120FFF7E5FF0220FFF7E2FF0320BDE83E
:109670000840FFF7DDBF08B50020FFF7C5FF012058
:10968000FFF7C2FF0220FFF7BFFF0320BDE808403D
:10969000FFF7BABF0A4B185C1F288ABF094B4FF06F
:1096A000A04300F01F00D3F804250121814021EAE6
:1096B00002000A40C3F80805C3F80C25704700BF34
:1096C00016E1020000030050074B1B5C1F2B8ABFF2
:1096D000064A4FF0A04203F01F03D2F81005D8400D
:1096E000C04300F00100704712E102000003005087
:1096F0000B2809D00C2809D0182809D019280CBF2C
:1097000003204FF0FF307047002070470120704762
:1097100002207047014B185C704700BF12E1020045
:10972000C20710B504460CD54FF0A0430322C3F87E
:109730003427C3F83827C3F83C27C3F84027FFF77E
:109740008BFFA3070AD54FF0A0430C22C3F82C27A8
:10975000C3F83027C3F86027C3F8642710BD0000A2
:1097600038B5074C051E04F1080318BF1C462368D2
:109770002BB11A6822605B6828469847F7E738BD26
:109780006837002020B9054B01225A70FFF7E8BF67
:10979000012802D1014A9070F8E770476037002035
:1097A00020B9034B01225A70FFF7DABF704700BFA0
:1097B0006037002038B50B4C237883B90A486360C2
:1097C000A3602361E36000F0C7F8054603F048F9A1
:1097D00008B900F0CDF801232370284638BD85254F
:1097E000FBE700BF603700208597020037B50B4CC0
:1097F00000230DF107008DF80730FEF739FFE3680D
:10980000013BE360E56815B900F0C4F8A5709DF868
:109810000700FEF751FF03B030BD00BF60370020E6
:10982000012813B509D018B103281CD002B010BD0F
:109830000F4B0122C3F88020F8E70E4C00230DF1F6
:1098400007008DF80730FEF713FF23780BB9FFF7F9
:10985000B1FFE3689DF807000133E3600123A370C3
:10986000FEF72AFFE2E700F083F8FFF7BFFFDDE72E
:1098700000E100E0603700201FB503788DF800306C
:109880004368019383688DF80830C3680393054AE1
:10989000054B684653F8213052F82110984705B01F
:1098A0005DF804FB743700207C3700201FB5037877
:1098B0008DF800304368019383688DF80830C368E1
:1098C0000393054A054B684653F8213052F821109E
:1098D000984705B05DF804FB743700207C37002002
:1098E000F0B5184B0778DFF86CE043F82720164BEB
:1098F00016460A6943F827204B7F0EF807300C46BE
:1099000084460FCC89B06D460FC594E80F0085E8FA
:109910000F001EF80730049753B1002E0B4A69461A
:1099200008BF32460CF1040000F0FCFD09B0F0BDA8
:10993000002E074A694608BF32460CF10C0000F0C1
:10994000A7FBF3E77C3700207437002079980200EA
:10995000AD98020084370020044A137923B901210D
:109960001060918018467047852070478837002026
:10997000074B1A68D2075FBFC02283F80023012279
:109980001A604FF080430122C3F81825704700BFCA
:1099900000E100E0044B01221A604FF08042D2F84F
:1099A0001834DB03FBD470470C000040154B07B59F
:1099B0001A687AB100221A601B680093009B4FF06E
:1099C00080430122C3F808230F4B587910B95A710C
:1099D0001B6898470D4B1A6882B100221A601B68F9
:1099E0000193019B4FF080430222C3F80823064BEA
:1099F0001B68012003B05DF804EB184703B05DF865
:109A000004FB00BF00010040883700200401004033
:109A100000F1804000F5C040002382B0036003687D
:109A20000193019B02B0704703681F2B83BF03F0B3
:109A30001F03036001484FF0A0407047000300502F
:109A400007B5019001A8FFF7EFFF019B00EB830032
:109A5000D0F8002722F44032C0F80027D0F80037B1
:109A600043EA0143C0F8003703B05DF804FB00008F
:109A7000054B4FF0FF32072843F8202084BF1B1806
:109A800083F85820704700BF9037002010B5174C5E
:109A900094F86A3043BB04F130033021FF220139CE
:109AA00011F0FF0103F8012BF9D1C8B2FFF7E0FF75
:109AB00001310C29F9D1062200210D4803F0ECFAFE
:109AC0000C4BC02283F8062340221A604FF4BE706C
:109AD000FFF79EFF084B4FF00042C3F80423012319
:109AE00084F86A30002010BD0820FCE79037002081
:109AF000F437002000E100E000600040034B93F8E1
:109B00006A00003018BF0120704700BF9037002066
:109B1000F7B53B4E3318054693F93030002B6CDA1D
:109B20008B78C3F34003002B0BBF082400240C20C8
:109B30000820844202D1042003B0F0BD56F82470FE
:109B4000013743D1701946F8242080F8304013B90A
:109B5000331983F858508B785A0717D4D80737D55C
:109B600001A80195FFF760FF019B00EB8300D0F88F
:109B7000003723F00203C0F800372248EA0805F056
:109B800007070123BB40875C3B43835488780A78EE
:109B900010F0020028D0A40004F1804404F5C04471
:109BA0002D02D4F8103523F44F3323F44073C4F856
:109BB00010351204D4F8103505F47C5502F4403207
:109BC00015431D43C4F810550020B5E70134B0E734
:109BD00001A84A780195FFF727FF019B03F5E07381
:109BE000920040F82320C8E7083C344494F86050C1
:109BF00045EA821284F860209EE708209CE700BFB7
:109C000090370020F437002073B5224C2518064603
:109C100095F93020072A19DD224492F858309B0923
:109C2000032B0FD1019001A8FFF7FEFE019AD0F897
:109C30001035D340DB0707D402213046FFF700FF81
:109C400002B070BD012BF7D00321F6E7D3B2072B8A
:109C5000F6D8930003F1804303F5C043D3F8100511
:109C600040F00100C3F8100502F14000800080B20E
:109C7000FFF7CEFE0029E3D095F9303054F82330B9
:109C8000002BDDD0012303FA02F2034BC3F80423B7
:109C9000D6E700BF903700200060004007B5019074
:109CA00001A8FFF7C1FE019BD0F81005D84000F0D5
:109CB000010003B05DF804FB2DE9F04F002489B0EA
:109CC000CDE90244624D4FF48072012102F18043DC
:109CD00003F5C04390B21B68012B06D1D5F80433BD
:109CE0000B4202D0FFF794FE0C430432B2F5907F92
:109CF0004FEA4101EAD1574B1B68012B0ED14FF4BB
:109D0000BE70FFF785FE4FF0A04344F00044D3F847
:109D100010350293504BD3F81035039314F0FF0F16
:109D20001AD04E4F00250126344210D0AB0003F16B
:109D3000804303F5C043D3F81005D3F8101557F846
:109D4000253023B1C1F30141C0F305209847013507
:109D5000082D4FEA4606E7D1002C75DA0DF1100800
:109D600000230493C8F804304FF0FF33CDE90633E5
:109D7000DFF8E8A0DFF8E89000273D4619F9014B2D
:109D8000631C48D0E4B2012324F0C00604F00702AB
:109D900003FA02F2F00808AB191811F8083C134254
:109DA00039D00AEB0603A40993F930305AF823B0EE
:109DB000BBF1000F08D1032C2DD118F800C04CEADC
:109DC000020C08F800C001E0032CF6D001A80196AF
:109DD000FFF72AFE019B11F8181C03F5E07C1142E5
:109DE00050F82C00C0F3014005D0022813D1032CF9
:109DF0000BD1214604E003280DD1032C05D102210B
:109E00003046FFF71DFE0135EDB2BBF1000F02D069
:109E100021463046D8470137042FAFD1A5B14FF0C6
:109E2000A0430299D3F8102503F540739142D3F86B
:109E3000103502D10399994206D002920393049AF5
:109E4000059B0692079395E709B0BDE8F08F00BF28
:109E5000006000407C61004000030050903700200B
:109E6000F0370020014B1B68184700BFFC3700206B
:109E70000E4B984237B50D4602D0002003B030BDDE
:109E800000230DF107008DF80730FEF7F1FB084BBA
:109E90001C7914B901221D601A719DF80700FEF7A4
:109EA0000BFC002CE9D01120E8E700BF00200040A7
:109EB000FC3700200023435082B043580193019B9C
:109EC00002B070470A4610B54FF48E71FFF7F2FFEB
:109ED000136A9168C95C136A01331362C0F81C15D8
:109EE00010BD024608B54FF492710068FFF7E2FF1B
:109EF0004FF484711068FFF7DDFF136801221A60C8
:109F000008BD8B690A4610B54FF4847123B9FFF779
:109F1000D1FFD0F8183510BDFFF7CCFF536AD168D8
:109F2000D0F81805C854536A01335362F3E70000B0
:109F30001FB501238DF80030044BCDE90110D3E9A2
:109F400000126846904705B05DF804FB0438002015
:109F500030B54D4AD2F8043313F4007F85B015466E
:109F60004FD0D2F82431002B4BD04FF492711046D1
:109F7000FFF7A0FF4FF40173C2F80833434B93F887
:109F8000291009B9012151603F4902228DF80020B2
:109F9000D1F88024C1F8802403929A690292DA6889
:109FA00001920022C3E906226846D3E900129047D5
:109FB0003548D0F81C315BB134494A690B6A9A4282
:109FC0000A464BD991F82830002B47D1FFF77AFF8A
:109FD0002D4AD2F8443193B14FF4A2711046FFF7E5
:109FE00069FF2A4B93F8291009B1012111609A6980
:109FF0002AB100229A61586AD968FFF799FF05B023
:10A0000030BDD5F804335B07D2D5D5F80831002B25
:10A01000CED01E4C1C482146FFF773FF636AA2692D
:10A020009A422346C4D1E269E1684AB12369E360F8
:10A030000023606AA261E3616362FFF779FFB7E71B
:10A0400094F829200AB901226A600F4A4FF401707E
:10A05000C2F8080300229A61586AEEE74FF48E7145
:10A060000948FFF727FF5369002BB1D051690291CE
:10A07000002391688DF80030019153616846D2E960
:10A0800000139847A4E700BF0020004004380020D8
:10A090002DE9F843624F047991462C2202FB0472A9
:10A0A000064692F82A200D46002A40F0B3805D490A
:10A0B0000068FFF7DDFE8046002840F0AE8029688A
:10A0C0004A1C10D01F2987BF01F01F03564A0B46B8
:10A0D0004FF0A0420120984003F5E073C2F8080554
:10A0E000032042F823006868431C0DD01F288BBF53
:10A0F00000F01F0303464C4A4FF0A04203F5E07303
:10A100004FF0000C42F823C03368AA6995F814C0D8
:10A11000C3F824256A7DBCF1010F4CEA0202C3F8A2
:10A120006C25C3F81405C3F80C152BD1A968481C7D
:10A130000DD01F298BBF01F01F020A463A484FF08D
:10A14000A04002F5E0724FF0000C40F822C0E86831
:10A15000421C13D01F2887BF00F01F0C324A8446D0
:10A160004FF0A0424FF0010E0EFA0CFE0CF5E07C11
:10A17000C2F808E54FF0030E42F82CE0C3F80805DA
:10A18000C3F810152C236343FA18C2F804902A6907
:10A19000FA50B9F1000F2AD04FF48E7130682D7F3C
:10A1A000FFF788FE30684FF4A271FFF783FE326834
:10A1B0001E4BC2F80433120B51B20029A8BF01F1A3
:10A1C00060404FEA4513BABF194802F00F0500F589
:10A1D0006140DBB2B4BF435580F8003302F01F0288
:10A1E000012303FA02F24909124B43F82120336894
:10A1F0000422C3F800252C2303FB04730022C3E9C7
:10A20000062283F829205A61012283F82A20404639
:10A21000BDE8F8834FF00808F9E74FF01108F6E7BA
:10A2200004380020519F020000030050800002000B
:10A2300014ED00E000E100E02DE9F84F224F06792F
:10A240004FF02C0909FB067480466569002D38D152
:10A250006261A16025624FF48E71006884F8285015
:10A26000FFF728FED8F80000012383602146FFF79E
:10A2700029FE6368A1469BB9D8F800A0D4F814B0B1
:10A28000236A9B4512D8D8F80020D2F81C31002B45
:10A29000FBD00123D3602C2303FB067300225A61F9
:10A2A0002846BDE8F88F94F8283043B9DAF81C3115
:10A2B000002BF8D049465046FFF704FEE0E70F2593
:10A2C000E9E71125ECE700BF043800200379044AD0
:10A2D0002C2101FB03235869003018BF012070476F
:10A2E000043800202DE9F843394E05792C2303FB6F
:10A2F000056307465C6824B103684FF40170C3F836
:10A3000008032C2303FB0563986950B1D869002822
:10A310003ED024B13B684FF40172C3F804231124EA
:10A3200033E09A61D9605862D8612C2303FB05633E
:10A3300093F829301BB910B93846FFF7D2FD4FF01A
:10A340002C0909FB05683868D8F80430002B34D193
:10A350004FF4A271FFF7AEFDC1463868D0F8243142
:10A36000D0F80821D0F84441B2B90CB9002BF4D090
:10A370002C2202FB05650022AA6123BB2CBB95F8A9
:10A3800029103B680122B1B11A602046BDE8F8836C
:10A390001961DA610120C8E7002BE9D1002CE7D16F
:10A3A0004946FFF7AEFDD8F82430D8F818209A4275
:10A3B000D3D82346DCE75A60E7E74FF40173C0F8CF
:10A3C00004330024E1E70324DFE70F24DDE700BFC7
:10A3D000043800200023435082B043580193019B6E
:10A3E00002B070471FB501238DF80030044BCDE952
:10A3F0000110D3E900126846904705B05DF804FBF0
:10A40000303800207FB5454AD2F82461002E63D051
:10A4100010464FF49271FFF7DDFF02238DF80030F4
:10A42000D2F88034C2F880340393D2F83C350293DA
:10A430003B4BDA6801920022C3E906226846D3E961
:10A4400000129047354AD2F844317BB14FF4A271E3
:10A450001046FFF7BFFF324B996939B10021C3E9BC
:10A460000611D968D2F83C05FFF7BCFF2B4AD2F899
:10A470002031B3B14FF490711046FFF7ABFF0123C9
:10A48000D360274B596961B1D2F84C150291002273
:10A4900099688DF8002001915A616846D3E900124D
:10A4A00090471E4AD2F85831A3B14FF4AC71104610
:10A4B000FFF790FF1A4B596961B1D2F84C15029120
:10A4C000002299688DF8002001915A616846D3E90D
:10A4D0000012904704B070BDD2F81031002BB1D0FB
:10A4E0004FF488711046FFF775FF0D4BD2F83C050D
:10A4F00099698842A6D1DC69D96864B1D2F8005262
:10A5000025F02005C2F800521A699C61DA60DE610C
:10A51000FFF768FF96E79C61FAE700BF0020004064
:10A52000303800202DE9F843694F067991462422FE
:10A5300002FB0672044692F820200D46002A40F0E5
:10A54000C08064490068FFF793FC8046002840F013
:10A55000BB802868421C10D01F2887BF00F01F0353
:10A560005D4A03464FF0A0420121994003F5E07394
:10A57000C2F80815032142F8231069684B1C0DD05E
:10A580001F298BBF01F01F030B46534A4FF0A04217
:10A5900003F5E0734FF0000C42F823C02368AA696A
:10A5A00095F814C0C3F824256A7DBCF1010F4CEA6C
:10A5B0000202C3F86C25C3F80C05C3F814152BD19F
:10A5C000A968481C0DD01F298BBF01F01F020A4645
:10A5D00041484FF0A04002F5E0724FF0000C40F807
:10A5E00022C0E868421C13D01F2887BF00F01F0C50
:10A5F000394A84464FF0A0424FF0010E0EFA0CFE8D
:10A600000CF5E07CC2F808E54FF0030E42F82CE0B0
:10A61000C3F80805C3F8101524237343FA18C2F8C9
:10A6200004902A69FA50B9F1000F39D04FF48871BB
:10A6300020682D7FFFF7CEFE4FF490712068FFF762
:10A64000C9FE4FF492712068FFF7C4FE4FF4A27167
:10A650002068FFF7BFFE20684FF4AC71FFF7BAFE29
:10A6600022681E4BC2F80433120B51B20029A8BF56
:10A6700001F160404FEA4513BABF194802F00F05D7
:10A6800000F56140DBB2B4BF435580F8003302F0FF
:10A690001F02012303FA02F24909124B43F8212059
:10A6A00023680822C3F80025242303FB0673002235
:10A6B000C3E906225A61012283F820204046BDE802
:10A6C000F8834FF00808F9E74FF01108F6E700BFEC
:10A6D0003038002005A4020000030050100342009F
:10A6E00014ED00E000E100E001F06043B3F1005F31
:10A6F0002DE9F041074638D11E4B0679242505FB8C
:10A70000063598466C69002C31D16A61A9600068F1
:10A710004FF49071FFF75EFE4FF4AC713868FFF7AD
:10A7200059FE3B686A69A968C3F84415C3F848250F
:10A7300001229A606A68AAB9D3F82021D3F8584157
:10A740001AB9002CF8D00F2407E0002CFBD101220D
:10A75000DA60D3F85821002AFBD0242303FB0686B5
:10A76000002373612046BDE8F0811024FAE711242C
:10A77000F8E700BF303800200379044A242101FBA8
:10A7800003235869003018BF01207047303800207B
:10A79000F8B501F06043B3F1005F04460F465ED1A7
:10A7A0000379304D242101FB0351486820B1216811
:10A7B0004FF40476C1F80863242101FB03539E691A
:10A7C00056B1D969002939D020B123684FF40472F9
:10A7D000C3F80423112030E09A61DF60DE614FF49A
:10A7E00088712068FFF7F6FD4FF4A2712068FFF72B
:10A7F000F1FD2368C3F83475C3F8382516BB012270
:10A800001A602179242202FB015252680ABBD3F854
:10A810001041D3F84421D3F82401144302D1002875
:10A82000F5D02246242303FB01550023984218BF8C
:10A8300003209A42AB6118BF0F20F8BD1F61DA6197
:10A840000126CCE7D3F8002242F02002C3F8002210
:10A85000D7E74FF40472C3F804230020EDE710207B
:10A86000EBE700BF303800200220FEF713BF0000E6
:10A870002DE9F04781460D46FEF73AFF03280446CE
:10A8800004D8012D04D025B3022D2FD0BDE8F087C8
:10A89000194D47003A18A918AE5C4A7852B1DFF852
:10A8A0006880164842464FF48041FDF7E4FC08B941
:10A8B00088F800903B192B449A78114B1A55002EBA
:10A8C000E4D0104B1B68002BE0D03046BDE8F047C9
:10A8D00018470A48FDF7E7FC074B04EB4402134412
:10A8E0009E78074B1B5DB342D0D1E8E7024B00EBEB
:10A8F00040041C446678E2E7B8380020783800202D
:10A90000D1380020CC3800205438002002210078B3
:10A91000FFF7AEBF08B5094B1B7853B10020FEF717
:10A9200087FE0120FEF784FE0320BDE80840FEF705
:10A930007FBEBDE80840FEF78FBE00BF553800203F
:10A94000F8B57B4C237805461BB100232370FFF735
:10A95000E1FF172D00F28880DFE805F00C171743A0
:10A9600054657680888D888D959A9A9A9A9AC4C9EA
:10A97000D1D9E4E4FFF7CEFF6E48FDF794FC6E4BAF
:10A98000002204461A702046F8BD0020FEF728FE7B
:10A99000F8B10020FEF74CFE022D0CBF4FF4E16130
:10A9A0004FF47A61644B1D704FF400404FF47A7499
:10A9B0000025E0FB01454FF4FA62002320462946BA
:10A9C00002F0DAF9002201465A48BDE8F840FDF7E6
:10A9D00052BCFEF719FE022D0CBFC8214FF4C871FE
:10A9E000E0E70020FEF7FCFD40B10020FEF720FE6E
:10A9F0004FF44871504B03221A70D5E7FEF704FE5E
:10AA0000C821F7E70020FEF7EBFD38B10020FEF784
:10AA10000FFE4FF47A61484B0422EDE7FEF7F4FD98
:10AA20004FF4C871F7E70020FEF7DAFD48B10020C7
:10AA3000FEF7FEFD404B05221A7040F6CD41002284
:10AA4000C2E7FEF7E1FDF5E70020FEF723FE3A4BF3
:10AA500006221A70002240F26661B5E70020FEF778
:10AA6000D3FD354B07221A7000248CE7012020709B
:10AA7000FEF710FEEEE701202070FEF70BFE00222D
:10AA80004FF40051A0E7FEF7F6FD2B4B0C22EAE74E
:10AA90002A482B4EFDF707FCD5F1110504461CD0C2
:10AAA000D8B9012D13D0C8235D434FF400474FF4AC
:10AAB0007A7000214FF4FA620023C7FB050102F00F
:10AAC0005BF9224601461D48FDF7D5FB04460220EE
:10AAD000FEF79AFD0123337055E70220FEF7A8FD2B
:10AAE0000023F8E7FFF716FF134B1222BBE7FFF72F
:10AAF00011FF0020FEF788FD0F4B1322B3E7FFF78D
:10AB000009FF0120FEF780FD0B4B1422ABE7FFF796
:10AB100001FF0020FEF778FD0120FEF775FD064BD2
:10AB20001522A0E7FEF7A7FD034B1D709CE700BFB1
:10AB3000C838002098380020D0380020583800202D
:10AB400055380020044B1B68DB0703D5034B1878EE
:10AB5000FFF7F6BE704700BFC4380020D038002091
:10AB6000002910B514BF03240024FEF7D3FD1F28CD
:10AB70008ABF0A4B4FF0A04300F01F0003EB800098
:10AB8000D0F8002722F44032C0F80027D0F8003770
:10AB900043EA0443C0F80037002010BD0003005012
:10ABA000032801D8FEF790BD00207047044B1B68B6
:10ABB00013F0010301D0FFF7C3BE1846704700BF72
:10ABC000C438002038B51C4B18601C4B10F0020430
:10ABD000054619601AD01A4B1A480E221A700F2215
:10ABE000DA7010229A7111225A72042140F2333223
:10ABF000FDF79EF9044648B9FDF7F0F9044628B977
:10AC00000146114A1148FDF72BFB0446EB0711D50D
:10AC10000120FEF785FD6CB921460D4A0D48FDF770
:10AC20001FFB044630B90C4A0C480121BDE83840EE
:10AC3000FDF716BB204638BDC4380020CC380020B4
:10AC4000B83800203CE102000DA9020060E10200DA
:10AC500045AB020064E1020069A802005CE1020069
:10AC6000032813D8012A0BD1012908D100F10E02C3
:10AC7000D2B200EB40000C4B1A5400207047002267
:10AC80000129F6D04BB24BB1022901D00720704701
:10AC9000054B00EB400018444270EEE7024900EB20
:10ACA000400008448270E8E7B8380020032802D842
:10ACB0000121FFF755BF0620704708B50122022188
:10ACC0000020FFF7CDFF08B1072810D1072202218D
:10ACD0000120FFF7C5FF08B1072808D100210A228B
:10ACE0000846FFF7BDFF10B1072808BF002008BDC8
:10ACF0000388102B10B502D0112B1ED010BD1A4C9A
:10AD00002168B1B901220846FFF7AAFF08B1072858
:10AD100024D1072202210120FFF7A2FF08B1072852
:10AD20001CD1042202210020FFF79AFF08B1072856
:10AD300014D1236801332360E0E70B4A1368013B19
:10AD40001360002BDAD1FFF7B8FF0028D6D0074BED
:10AD50001B68002BD2D0BDE810401847034B1B687E
:10AD6000002BE6D09847E4E7DC380020D8380020F4
:10AD700008B50020FFF79AFF08B1062806D1012088
:10AD8000FFF794FF10B1062808BF002008BD00009F
:10AD90000D4B10B518600C4629B10120FFF700FFDC
:10ADA00040B102232370094B1B6853B9BDE8104022
:10ADB000FFF783BFFFF7F4FE08B10B23F2E7207023
:10ADC000F1E7002010BD00BFD8380020DC3800209B
:10ADD00075DF704776DF70477FDF70478FDF704722
:10ADE000FDF712B90146014801F06CBC643B00203C
:10ADF00003881B2B13B5044639D01BD8112B29D03F
:10AE0000132B42D0102B1AD181882A48002201F03E
:10AE100091FD08B1FDF7F8F80720FFF7C7FE08B16C
:10AE2000FDF7F2F8A188244800F0B2FD38B1FDF733
:10AE3000EBF804E0212B35D003D81F2B2CD002B027
:10AE400010BD3B2B01D0562BF9D11321A088FFF761
:10AE5000C1FFEBE7194B1A48A2881A49C01AC0086B
:10AE60000004237A40F00300FCF7E9FDE7E7037AEA
:10AE7000022BE4D1114B12481349C01AC008000438
:10AE800040F00300FCF7CEFDD9E700231A468521E8
:10AE90008088FFF7A1FFC9E700F108018088FFF76C
:10AEA00097FFC3E7002301A98088ADF80430FFF7BE
:10AEB00095FFBBE7643B0020782A0020F8D8020009
:10AEC00020D9020080E10200AEE1020008B5074887
:10AED00001F0EAFA08B1FDF797F80120FFF766FEE6
:10AEE00018B1BDE80840FDF78FB808BD903B0020C1
:10AEF0000378012B70B5044638D013B1022B26D04D
:10AF000070BD1E4C1E4D20882844FDF773FB23881E
:10AF100001339BB21D44238015F8012C0A2A05D069
:10AF20000D2A03D0174A12889A42E9D8144D164EBA
:10AF300022882946304601F0ADFC082804D01328A9
:10AF4000F6D008B1FDF760F800232380D8E70F485A
:10AF50000F4B1049C01AC008000440F00100FCF774
:10AF600061FD6068BDE87040FDF74EB80748084BCA
:10AF70000949C01AC0080004EFE700BFD439002017
:10AF8000E0380020762A0020643B002020D902000F
:10AF9000F8D802004CE302007EE3020010B504463C
:10AFA0000020FFF703FE08B1FDF72EF824B9FFF7E4
:10AFB000DFFE08B1FDF728F8012010BD0A8840F631
:10AFC00077239A4270B50D4616D10C4B0C4C0D49A7
:10AFD000E41AE408240444F003042046FCF722FDAC
:10AFE000AB88094A0949033B9BB2138020461A46A5
:10AFF000BDE87040FCF723BD70BD00BFF8D802006B
:10B0000020D902006BE20200762A002087E20200CB
:10B01000042808B506D00A2810D10020BDE8084051
:10B02000FEF768B8064B13215888FFF7D3FE30F0BF
:10B03000080303D0BDE80840FCF7E6BF08BD00BF29
:10B04000643B00202DE9F8430B78012B06460D46A2
:10B0500024D01BB1022B60D0BDE8F883364B374CAF
:10B060003749E41AE408240444F003042046FCF7BA
:10B07000D9FC05F10E026988304601F05BFC08B18D
:10B08000FCF7C2FF304601F0D3FB08B1FCF7BCFF70
:10B0900020462C49BDE8F843FCF7C4BC274C264B9E
:10B0A0008E688F89DFF8A890E41AE408240444F03D
:10B0B00001040025BD421AD3F31913F8013C0D2BEE
:10B0C00026D0DFF890803A463146404601F0E2FB58
:10B0D00005460028C0D01128F5D002461A4920465E
:10B0E000FCF7A4FC2846BDE8F843FCF78DBF705D73
:10B0F000FDF796FA804648B11128F8D020462A4636
:10B100004946FCF793FC4046FCF77EFF0135D1E74A
:10B110000A20FDF785FA1128D2E7074B07480B49AB
:10B12000C01AC008000440F00300FCF77BFCBDE837
:10B13000F843FFF7CBBE00BFF8D8020020D90200C9
:10B14000CCE10200E0E1020034E202005DE2020034
:10B150000EE20200643B00201FB50378062B12D0DC
:10B16000072B17D0042B2AD1164B17481749C01AA2
:10B17000C008000440F00300FCF754FC04B0BDE834
:10B180001040FFF7A3BE4068C8B104B0BDE810404E
:10B19000FCF73ABF41680B4C0B488B784A78001B90
:10B1A0008C7903944C7902940C790194C008C97885
:10B1B00000910004064940F00300FCF756FC04B07F
:10B1C00010BD00BFF8D8020020D902003CE3020005
:10B1D0000EE3020008B50849084800F0A9FD08B1CF
:10B1E000FCF712FFF721054800F0B6FD18B1BDE8E5
:10B1F0000840FCF709BF08BDBDAF02007C3B002042
:10B2000000B54FF480418BB00020FCF747FA08B13D
:10B21000FCF7FAFEFCF778F9FCF7F0FF08B1FCF751
:10B22000F3FE4B4D0FCD04AC0FC495E80300494B22
:10B23000494A00934FF4807384E80300CDE9022368
:10B240000193464A0723694604A8FDF77BF908B134
:10B25000FCF7DAFE42490120FFF7B4FC08B1FCF725
:10B26000D3FE04A90020FFF793FD08B1FCF7CCFE44
:10B270000822002104A801F00FFF3A4C3A4B049336
:10B2800004A8059400F046FB08B1FCF7BDFEFDF7ED
:10B29000F5FE08B1FCF7B8FE01F0A4FB08B1FCF71D
:10B2A000B3FE002304A90120049301F029FC08B196
:10B2B000FCF7AAFE04A801F0F5FC08B1FCF7A4FE17
:10B2C000FFF788FF294B0493294B2A4804A9CDE9AD
:10B2D000053401F047FA08B1FCF796FE1022002170
:10B2E0000DEB020001F0D8FE0123234A23488DF81C
:10B2F000143004A98DF81C3001F07CF808B1FCF77B
:10B3000083FE1F4A1D48032101F049F808B1FCF7EC
:10B310007BFE00220421194801F058F808B1FCF71F
:10B3200073FE184801F05EFE174B18481849C01A02
:10B33000C008000440F00300FCF774FBFFF7C6FDF3
:10B34000FCF706FA0028FBD1FDF7AEFEF8E700BFD8
:10B3500068E10200E03B0020E03C0020F1AE02008A
:10B3600011B00200602A0020E5AD020045B00200E5
:10B37000E1AD0200643B002059B10200903B002087
:10B38000C4E20200C8E20200F8D8020020D902009C
:10B39000ECE202000369C1688B429DBF8268D2184B
:10B3A00002F1FF3203F1FF3394BF501A581A70476D
:10B3B0002DE9F041D0E9027405463E1B40689642F3
:10B3C00020448846144404D901F03DFEEC60BDE8F9
:10B3D000F0813246E41B01F036FE224608EB0601FE
:10B3E0006868F1E72DE9F843C568064689461746BF
:10B3F0004FF000083469B3687068A54228BFE418AC
:10B40000013C621B5C1BBC4228BF3C46944228BFE7
:10B41000144649462844224601F015FEB3682544E7
:10B42000AB4208BF00253F1BA044A144F560E1D119
:10B430004046BDE8F883000010B5114C114AA261E6
:10B440000223C4E90433104BE361A2644FF4007398
:10B450000E4A2362E264002310220D49A362E01D1C
:10B460006362E362A3656365E365226501F047FEFD
:10B470000849204601F043FE2023A37110BD00BF00
:10B48000E03D0020AAE30200683E0020583E002074
:10B49000B3E30200B7E30200F8B5184C182300FB31
:10B4A000033503FB00402544C46A012C0F461646B1
:10B4B00011D024B1022C1BD000242046F8BD284610
:10B4C000FFF768FFB042F8D3324639462846FFF707
:10B4D0006FFF3446F1E72846FFF75CFF86423446AB
:10B4E00028BF0446224639462846FFF761FFE4E7B5
:10B4F0002846BDE8F840FFF775BF00BFE03D0020DB
:10B50000FFF79ABF64DF704770B5E0B14AB11688A3
:10B510000024B44203D305196D789D4208D0A1429E
:10B5200001D800200FE0055D01352C44A4B2F0E7FE
:10B53000A142F6D9005DA31C01389BB280B21C1851
:10B540008C42EEDC138070BDF0B587B00023064658
:10B550000D461046ADF8063002AA10230DF1050184
:10B560008DF80530FFF7CEFF16B9002007B0F0BD0B
:10B570000028FAD19DF80540042C2BD0102C2BD09C
:10B58000022CF3D10323BDF806207AB90DF106028F
:10B5900029463046FFF7B8FFBDF806302BB92346E1
:10B5A0000DF106023046FFF7AFFF0546BDF8067005
:10B5B000002FDAD00024A542D7D9E0199DF8052044
:10B5C00002A9304401F0D3FC48B19DF805301C4479
:10B5D000A4B2F0E70523D6E706240723D3E701202A
:10B5E000C4E7000030B50B4B19680B4B00229142A9
:10B5F00001D1002009E09D788478A54206D11D88FC
:10B600000488A54202D1054B186830BD01320433CD
:10B61000EDE700BF7040002074400020684000202B
:10B620002DE9F84F90F8C6824FF07609044608FBE2
:10B6300009008A469346FFF7D5FF074670B3D4F852
:10B64000CC52052D2AD804EBC5164A46A6F8D2B22C
:10B6500009FB084106F5357001F0F5FCBAF1000F61
:10B6600014BF0023022386F8D0320D4BC6F84C736A
:10B670001A6801359542C4F8CC521D460ED104F526
:10B6800034760027F36F304698472B6801379F4286
:10B6900006F18006F6D30023C4F8CC32BDE8F88F5B
:10B6A0007040002030B5A1B004460D467C22002138
:10B6B00001A801F0F1FC03238DF80430044BADF830
:10B6C00006501B6802940BB101A8984721B030BD09
:10B6D000684000202DE9F041804691F8C6027623AB
:10B6E0000027A0B081F8C87200FB03100C46154675
:10B6F000FFF778FF064668B17C22394601A801F0C1
:10B70000CBFC01238DF80430ADF80650CDF808804D
:10B7100001A8B04729462046FFF7C4FF20B0BDE886
:10B72000F081000030B58BB0044620220D4602A8FF
:10B73000002101F0B1FC04220DEB0200002101F018
:10B74000ABFC94F8C53294F8C62213B3013B7621C2
:10B75000DBB25143122000FB031323445B8A013305
:10B760009BB2ADF80430762303FB024202A9138991
:10B77000ADF8063003238DF80830019BCDE9054371
:10B78000064B0493064B2A46186800F0DFFC0BB00A
:10B7900030BD762303FB0243DB88E2E7D5B6020027
:10B7A0008C400020F0B5044689B020220D46684642
:10B7B000002101F071FC94F8C7321E4A013312686F
:10B7C000DBB2934284F8C7324FF000022BD294F8D8
:10B7D000C632194F84F8C5220133DBB2762113FB40
:10B7E00001F057F8237084F8C6322618275001FB61
:10B7F000034332711B68CDF81230104B02930222C2
:10B800000F4B8DF800200122ADF8102069462A4622
:10B810001868039400F09AFC18B12A462146FFF7F5
:10B8200059FF09B0F0BD84F8C82229462046FFF729
:10B8300039FFF6E77040002074400020D5B60200C2
:10B840008C4000202DE9F047044688B00D4616468E
:10B8500000212022684601F01FFC94F8C62294F8CB
:10B86000C512762312FB03F2A018122790F804C029
:10B8700017FB012301F1010E0A33E645234411D0E1
:10B8800004F11C0900F1220E0CF1FF389144CAB2F8
:10B8900094450BD988451B890ED102899A421BD148
:10B8A000002312E01B890289934215D101232B70DA
:10B8B000002008B0BDE8F08707FB01FA01333EF82D
:10B8C0000A2093421DD109EB0A0394F8C5220132E4
:10B8D00084F8C5220131DAE701339BB2ADF81030AC
:10B8E0000A4B029300210A4B297004218DF80010A5
:10B8F000ADF81220694632461868039400F026FC21
:10B90000D7E7013A9BB292B2E8E700BFD5B6020092
:10B910008C40002010B570B1026862B1436853B129
:10B92000064900200860064901240C7005490A6098
:10B93000054A136010BD0E20FCE700BF70400020D8
:10B940006C400020684000208C40002010B5044668
:10B9500080B10C4B1B787BB1FFF744FE70B90A4AEB
:10B960001368052B0CD80949246841F8234001339A
:10B97000136010BD0E20FCE70820FAE70020F8E76E
:10B980000420F6E76C400020704000207440002046
:10B99000F0B50D4689B00446002839D01F4B1B78FE
:10B9A000002B37D01E4B1B68A3B390F8C8629EBB18
:10B9B0004FF4BA6231461B4F01F06EFB3146202234
:10B9C000684601F069FB2946386800F05DFCE8B97B
:10B9D000154BC4F8CC0284F8C502A4F8C602186856
:10B9E000206002238DF800300126CDF812000F4BA5
:10B9F000A4F8CA522A4669463868ADF81060039424
:10BA0000029300F0A3FB08B984F8C86209B0F0BD46
:10BA10000E20FBE70820F9E71120F7E76C40002033
:10BA2000704000208C40002074400020D5B60200F9
:10BA30002DE9F7430C46054650B149B1924B1B78AE
:10BA400033B10388302B26D005D8112B00F00E819E
:10BA500003B0BDE8F083322B5BD0332BF8D1828862
:10BA6000B1F8CA329342F3D1C68891F8C6C291F8B0
:10BA7000C572002E00F0C480762101FB0C4C00231F
:10BA80009CF804108DF807307B1C8B4200F0E88096
:10BA900084F8C532A6E08388B1F8CA229A42D7D189
:10BAA000C3886BBB91F8C632762202FB031302698E
:10BAB000C3F8062091F8C432827A1344062B0CDCBA
:10BAC00081F8C432A9882046FFF72CFE0028BFD099
:10BAD000AA882146FFF7FEFDBAE7062381F8C432A3
:10BAE0006A4E6B4B6B49F61AF608360446F00206AE
:10BAF0003046FBF797FF68493046FBF793FFE1E7D5
:10BB000000212046FFF78CFDA9882046FFF74AFE5A
:10BB10009EE78288B1F8CA329A4299D1C388002B35
:10BB20005CD191F8C662762316FB03F701EB070997
:10BB3000837A99F804603344062B25DC89F80430B5
:10BB400006EBC60307EB430305F10C0C234400226C
:10BB500099F8040086420CF10A0C03F112032AD36F
:10BB60001223013E03FB064694F8C632762202FBFE
:10BB700003433E441B89728A9A422FD206282DD055
:10BB8000A98884F8C5029EE7062389F80430404A54
:10BB90003E4BA3EB02084FEAD8084FEA084848F0AA
:10BBA0000208CA5B3D494046FBF740FF3C4940461E
:10BBB000FBF738FFC4E76046A3F1080150F80AED2F
:10BBC00043F808ECD0F804E043F804EC008908815D
:10BBD00001365A809A80DA801A81B9E7002384F806
:10BBE000C532AA880DF107012046FFF72BFE002879
:10BBF0007FF46EAF9DF80730002B3FF429AF32E0A1
:10BC0000762303FB0CF1122303FB0713B0F80AE0C1
:10BC100023447645BFF430AFC189A1F524510829EA
:10BC200008D8DFE801F014170507070707071A000F
:10BC300081899982998A39B1D98A29B1198B19B127
:10BC4000598B00297FF418AF01360630E1E781896E
:10BC5000D982EFE781891983ECE781895983E9E784
:10BC600001238DF80730AA8801214AE7B1F8CA32CA
:10BC700082889A4201BF002381F8C8324FF6FF73D1
:10BC8000A1F8CA32E4E600BF6C40002038D90200B7
:10BC9000F8D80200BEE30200DDE3020022E4020065
:10BCA00068E4020090DF7047A5DF7047B5DF70479A
:10BCB0007FB50023ADF80810ADF80A106A4602A956
:10BCC000064603930093ADF80430FFF7EBFF0546FB
:10BCD00000B3124B124CE41AE408FDF783FB240472
:10BCE00044F00104034632460E492046FBF7A7FE06
:10BCF000BDF80020BDF8023052EA030103D00A4922
:10BD00002046FBF79CFEBDF804201AB107492046E7
:10BD1000FBF78CFE284604B070BD00BFF8D80200C7
:10BD200058D90200CEE4020018E5020057E50200EF
:10BD300080B14FF0F7130360FB230371F723C38037
:10BD40001723038141F6FB32002301614381828185
:10BD5000184670470E20704730B1A1F11703E02B51
:10BD600004D84180002070470E207047072070479C
:10BD700013B5034680880C46A0B91A88232A00F020
:10BD8000A48011D8102A22D0112A51D0A37A4BB105
:10BD9000E1880020FFF788FF002840F09C804FF4E6
:10BDA0008073638102B010BD3A2A4AD0552A60D010
:10BDB000242AEBD11A7A0B694A73002BE6D04DF690
:10BDC0007A21ADF8040000918DF8042079E0DB7B46
:10BDD0000A790A73012B13D0022B14D0E18823892E
:10BDE0008B4205D20020FFF75FFF70B90123E37299
:10BDF000217B637B8B42C9D20020FFF759FFC5E747
:10BE00000B88E380EAE74B88FBE7112802D1012386
:10BE1000A372EDE7FDF7E6FA374A384B38499B1A2B
:10BE2000DB081B04024643F00100FBF7FFFDDFE7E0
:10BE3000F723CB8017230B8141F6FB3348818B819D
:10BE4000A4E75B89CA88934228BF1346172B0A6967
:10BE500038BF17230B814AB1C97A39B140F677212F
:10BE60000091ADF804306946204690470023638175
:10BE70008CE7DB88C988A072172B38BF17238B4249
:10BE800028BF0B462381FFF711FF60B1FDF7AAFA27
:10BE9000194A1A4B1B499B1ADB081B04024643F044
:10BEA0000100FBF7C3FDE37A002B7FF46FAF23693A
:10BEB000002B3FF46BAF40F6772200922289ADF859
:10BEC000042069462046984760E7197A237B994207
:10BED00028BF194691E711283FF464AFFDF782FAB5
:10BEE000054A064B06499B1ADB081B04024643F031
:10BEF0000100FBF79BFD55E7F8D8020058D9020076
:10BF0000ADE50200DEE502009BDF70479DDF704774
:10BF10009EDF7047A1DF7047A3DF7047AEDF704739
:10BF200030B5048800239AB2944206D9456835F8A2
:10BF300013508D4203F10103F5D1104630BD8B69DA
:10BF400010B50C461988102912D80231FDF73CF8BB
:10BF5000606078B100230222A169FDF777F8A26939
:10BF600060681288E1690223FDF770F8002010BDB7
:10BF70000920FCE70420FAE710B50C46C98A10290D
:10BF80000AD8FDF721F8606040B10023E28AA16978
:10BF9000FDF75CF8002010BD0920FCE70420FAE75B
:10BFA000F0B58BB0054600220DF10601C068114FB7
:10BFB000FDF76FF9142608B10BB0F0BDBDF80640CF
:10BFC000AB6806FB0434002202A92046FDF761F9A4
:10BFD00030B100220DF10601E868FDF75AF9EAE7F1
:10BFE0009DF8083057F82330002BECD00398FCF76D
:10BFF000D5FFE8E71CE6020073B50D4B009204463E
:10C000000C48C01AC00800040B460E4615460A49E3
:10C01000227840F00100FBF71CFDA36833B1E16812
:10C020003246284602B0BDE87040184702B070BDE5
:10C03000F8D8020060D902004FE60200F0B58FB0D8
:10C040000D46012206A90646FDF723F9044690B9DC
:10C050009DF81830052B65D8DFE803F0030F1C248A
:10C06000292EBDF82A20BDF828102846FFF752FFD8
:10C070000446112C40D10FB0F0BD02A90798BDF8BD
:10C080002E200C910023FCF7EBFF0AA92846FFF7AE
:10C0900043FFEDE70DF12A02BDF828102846FFF70F
:10C0A00033FFE5E70AA92846FFF730FFE0E70AA9D2
:10C0B0002846FFF72DFFDBE70DF1060402AB214612
:10C0C0000D93022200230798FCF7CAFF0223BDF854
:10C0D00006200D9907980C94FCF7C2FF0AA9284680
:10C0E000BDF80670FFF71AFF04460028C1D1BDF85D
:10C0F0000630BB4218BF0C249DF818200F4B53F894
:10C10000223013B10798FCF749FF002206A93046F8
:10C11000FDF7BFF8002CAED02246294606A8FFF74F
:10C120006BFFA8E7064B07480749C01AC008000480
:10C1300040F00200FBF776FCDEE700BF1CE60200E1
:10C14000F8D8020060D9020034E602002DE9F84375
:10C150000C461646074618B90E252846BDE8F88352
:10C160000029F9D0FFF71CFF2378052B6AD8314648
:10C170003846FFF7D5FE3B88834263D04FF0140862
:10C1800008FB00F8B8684044FDF77CF800285DD053
:10C190002378052B39D8DFE803F00311171E242A72
:10C1A000628A218A3046FFF7B5FE11284ED050B37F
:10C1B000024631462046FFF71FFF24E004F110013C
:10C1C0003046FFF7A9FEF0E704F11202218A30465B
:10C1D000FFF79AFEE9E704F110013046FFF796FEFB
:10C1E000E3E704F110013046FFF792FEDDE7A369B3
:10C1F00004F1100130461D88FFF790FE20BBA369B3
:10C200001B88AB420CD10025A7E71B4B1B481C49E0
:10C21000C01AC008000440F00200FBF703FCF2E77C
:10C220000C20C5E73869002896D021469847054676
:10C2300098B192E7237859F82330B3B16068FCF7DE
:10C24000ADFE12E0072588E71128B1D10D4A237809
:10C2500052F823309146002BE4D1B868214640447F
:10C26000FCF7BAFF05460028E4D1B86831464044DF
:10C27000FFF7E4FE71E700BFF8D8020060D90200C2
:10C2800034E602001CE60200F8B50D46044670B321
:10C29000FFF786FE29462046FFF742FE22888242AB
:10C2A00011D00020F8BD616831F81310814203F10C
:10C2B00001030BD0208800234FF6FF769AB282420A
:10C2C0000BD30420EEE700234FF6FF7099B28A42A9
:10C2D000E9D82069FCF760FEECE75A0061688F1826
:10C2E0008A5AB24203F10103E8D13D80D9E70E201A
:10C2F000D8E773B50C4610B309B30688112E16D1D2
:10C30000858820462946FFF70BFE2388ADF80600F6
:10C31000834214D0112E14D163684FF6FF7223F8B4
:10C3200010200DF10601E068FCF756FF07E0A6F1CA
:10C3300030031F2BE4D9A6F150031F2BE0D902B024
:10C3400070BDA368142202FB0030FFF777FEF6E70A
:10C350008ADF70478BDF70478CDF704770B5037AD8
:10C3600086B004460D46C3B1867CFFF7F3FF142266
:10C37000002101A800F090FE334604F10A0204F106
:10C380001401A81CFFF7E8FF06238DF80430029083
:10C3900018B1636A0BB101A8984706B070BD10B51B
:10C3A000034668B162B103290CD1007960B91C88D9
:10C3B00011888C4203D00121197112681A6010BDD6
:10C3C0000E20FCE70720FAE70420F8E750B1CB067F
:10C3D0000AD011F0040116BF01234171437182712B
:10C3E000002070470E20704707207047007DC0F383
:10C3F000C0007047F8B50D460446002852D042628E
:10C400000021082200F048FE002D38D02B7923723D
:10C410002B7BA3742B68FBB104F1140203F1080712
:10C4200018685968164603C60833BB423246F7D12E
:10C43000186830609B88B380AA68C2B11368C4F8DA
:10C440000A305368C4F80E3004F12803A3641F2394
:10C45000A4F84C300020F8BD636903F0E30343F413
:10C46000200343F4827363615023A361E4E706234E
:10C4700063811823E3604FF4C8732382E4E76369A0
:10C48000257203F0E30343F4200343F482736361F2
:10C490005023A361062363811823E3604FF4C8731C
:10C4A0002382D1E70E20D6E710B5044686B048B304
:10C4B0001422002101A800F0EFFDFFF74BFF2046FA
:10C4C000FFF794FF30B1636A23B101228DF8042095
:10C4D00001A8984704F1480104F11400FFF738FF60
:10C4E000044630F008000BD0074B08480849C01A32
:10C4F000C008000440F001002246FBF797FA2046EE
:10C5000006B010BD0E20FBE7F8D8020048D90200A3
:10C51000A4E602002DE9F04F05468BB035F8083B44
:10C520001B2B80460C4600F0998005D8102B00F09C
:10C53000AE800BB0BDE8F08F1D2B18D0202BF8D1AA
:10C5400014220DEB0200002100F0A6FD626A002A11
:10C55000EFD02868696805238DF8143006AB03C353
:10C560001434297A0994197005A89047E1E7142238
:10C5700000210DEB020000F08FFD04F114032046B2
:10C580000993FFF733FF04F1480B78B102238DF8CC
:10C59000143005A8636A0695984759460020FFF7AE
:10C5A000D7FE29462046FFF7D9FEC2E7677994F8FF
:10C5B0000690002F47D02379B8F82420019204EB8D
:10C5C0008302A24602920646029A92450CD1B9F124
:10C5D000000F17D0B34217D19DF81C3043F004036D
:10C5E0008DF81C30012311E052460199D8F8200043
:10C5F0000393FEF7A9FF039BF8B10136F6B2B9F138
:10C60000000F1DD1002EE7D100273B4601220695E1
:10C61000B9F1000F1AD09A421CD100238DF81430C2
:10C6200029462046FFF79AFE636A0BB105A8984792
:10C6300059460020FFF78CFE7BE7B9F1000FC9D106
:10C640000AF1040AC0E73B463A46E0E717B18DF825
:10C650001490E5E703238DF81430E5E714220DEB81
:10C660000200002100F018FD98F80820012A7FF44C
:10C6700060AF636A002B3FF45CAF042114348DF883
:10C68000141009948DF8182005A8984751E7142232
:10C6900000210DEB020000F0FFFC07238DF81430A1
:10C6A000B8F80430ADF81C3004F114030993636A40
:10C6B0000695002BE8D13CE762DF70470B6903B1B8
:10C6C000184770472DE9F0410C4686B00546142204
:10C6D000002101A800F0E0FC23785BBBA288012ABE
:10C6E00028D1A1792A78914224D1277ABDF8126005
:10C6F000BDF81400BDF816C0122111FB07412246F7
:10C700001F469E46914218D1BEF1000F01D0ADF8F0
:10C7100016C00FB1ADF812600BB1ADF81400EB68A4
:10C7200043B16288ADF8062000228DF8042001A9EB
:10C730002846984706B0BDE8F081B2F80E80B8F1FF
:10C74000020F04D0B8F1030F06D01232DAE7B2F8C4
:10C7500016C04FF0010EF8E70123D68A108B1F4652
:10C76000F3E70000F0B5184B87B002AA04460D4667
:10C7700003F1100C174618685968164603C60833AB
:10C7800063453246F7D1ECB1E5B1AB68D3B1214690
:10C790003846FFF791FF98B923788DF806300123CA
:10C7A000ADF804304FF6FF7363802B68E3606B686D
:10C7B0002361AB68A0802081636101A8FFF7C6F800
:10C7C00007B0F0BD0E20FBE7D1E6020010B503462E
:10C7D00086B00846F9B1F3B149884FF6FF7291422D
:10C7E00019D09C888C4216D11988112915D0392965
:10C7F00011D182887AB1598991420CD1C26852B163
:10C8000001218DF8041003F11001DB890391ADF8CB
:10C81000103001A9904706B010BDC368002BFAD0B4
:10C8200002218DF80410428001A99847F3E7000027
:10C8300010B504468AB030B342884FF6FF739A426F
:10C8400023D0C3880BB32022002102A800F024FCCF
:10C850000123ADF804308DF808300D4B6288606913
:10C86000CDE90434E388ADF81A304FF40033079370
:10C8700001AB089302A940F20113ADF81830FFF79D
:10C8800065FC0AB010BD0E20FBE70820F9E700BFE9
:10C89000BDC6020070B50E4688B015460446002895
:10C8A0003CD020220021684600F0F6FBF42D0CD984
:10C8B0001B4B1C481C49C01AC008000440F0020071
:10C8C000FBF7B0F8072008B070BD62884FF6FF7321
:10C8D0009A420BD1124B13481449C01AC0080004E5
:10C8E00040F00200FBF79EF80820ECE701238DF8EA
:10C8F00000300F4B6069ADF81650CDE90234238942
:10C90000ADF812300023ADF8143069464FF481734E
:10C910000696ADF81030FFF719FCD4E70E20D2E7E9
:10C92000F8D8020040D90200E1E60200F3E6020076
:10C93000BDC6020050B141802AB15388C38013881C
:10C940008380938803814069FFF79EBC0E20704767
:10C9500010DF704713B5044609496846FCF7E7FC49
:10C96000019808B902B010BDD0E9003120469847BF
:10C9700018B16846FCF7E5FCF2E71120F2E700BFCA
:10C980001CE7020013B5044607496846FCF7CFFCD4
:10C99000019B0BB902B010BD2046D3E9002190479E
:10C9A0006846FCF7CEFCF3E734E702000B4991F848
:10C9B00016335A09EC231341DB0706D5084B9A6856
:10C9C0003AB94FF480030B60704742F20200FBF764
:10C9D0001BBB1A6842F480021A60704700E100E055
:10C9E00038370020F7B5194F3C7864BB184E012545
:10C9F00020463570FFF7AEFF112821D02046FFF703
:10CA0000C1FF144B8DF80340186801900DF103002D
:10CA1000FBF72EFE104901A8FFF79AFF0446B0FA73
:10CA200080F0400938709DF80300FBF745FE3CB9E3
:10CA30000A4B34701C70FFF7B9FF2846FFF7A2FFBE
:10CA4000204603B0F0BD0824FAE700BF9140002063
:10CA50009040002018E7020025800200924000204C
:10CA6000014B1878704700BF9140002007B5084976
:10CA70006846FCF75CFC019B13B903B05DF804FB4E
:10CA8000D3E9002090476846FCF75BFCF3E700BF62
:10CA900028E70200FFF7EABF60DF704769DF7047F1
:10CAA00061DF704730B5114DADF5017D4FF4FA747B
:10CAB0000DF1020103A8ADF80240FFF7F1FF70B9D4
:10CAC000294601A8FCF733FC029B002BF0D003A8F9
:10CAD000D3E90021904701A8FCF733FCF4E70528CF
