:1010000000000420751300005D1300005F13000052
:10101000611300006313000065130000000000006E
:101020000000000000000000000000006713000046
:1010300069130000000000006B1300006D13000036
:10104000E98400006F1300009D9300006F130000FF
:101050006F1300006F130000B59000006F130000C5
:101060006F1300006F1300006F1300006F13000078
:101070006F130000B99700006F1300006F1300009A
:101080006F130000FD3600006F1300006F130000A7
:101090006F1300006F130000059801006F1300002C
:1010A0006F1300006F1300006F1300006F13000038
:1010B0006F1300006F13000000000000000000002C
:1010C0006F1300006F1300006F1300006F13000018
:1010D0006F1300006F1300006F1300006F13000008
:1010E0006F1300006F130000ADC701000000000087
:1010F000000000006F130000000000006F130000EC
:1011000000000000000000000000000000000000DF
:1011100000000000000000000000000000000000CF
:1011200000000000000000000000000000000000BF
:1011300000000000000000000000000000000000AF
:10114000000000000000000000000000000000009F
:10115000000000000000000000000000000000008F
:10116000000000000000000000000000000000007F
:10117000000000000000000000000000000000006F
:10118000000000000000000000000000000000005F
:10119000000000000000000000000000000000004F
:1011A000000000000000000000000000000000003F
:1011B000000000000000000000000000000000002F
:1011C000000000000000000000000000000000001F
:1011D000000000000000000000000000000000000F
:1011E00000000000000000000000000000000000FF
:1011F00000000000000000000000000000000000EF
:10120000354936480A1A02D0072291438D4634499F
:1012100034480A1A06D00722914381F30988022232
:1012200082F3148830483149314A00F044F831489B
:101230003149324A00F03FF831483249324A00F031
:101240003AF832483249334A00F035F832483349E7
:10125000334A00F030F833483349344A00F02BF871
:1012600033483449344A00F026F8344834490022DF
:1012700000F02CF833483449002200F027F83348B6
:101280003349091A082902DB002202604160314A11
:1012900090471F481F49884205D00268043003B4B4
:1012A000904703BCF7E700208646EC46002000216B
:1012B000294A9047FEE7884207D0521A05D00378A2
:1012C00001300B700131013AF9D17047884202D0E8
:1012D00002700130FAE770470000042000E00320AC
:1012E00000000420000004205C7D02001C0000209F
:1012F000E4060020D0130000D0130000B80502005F
:101300005C7D02001C0000201C000020E0070200A1
:10131000E0070200E0070200E0070200E007020029
:10132000E0070200E0070200E00702005C7D020027
:1013300024840200E4060020E4060020E4060020E5
:101340000443002004430020044300200443002001
:10135000046300209D13000035DF0000FEE7FEE778
:10136000FEE7FEE7FEE7FEE7FEE7FEE7FEE7FEE755
:1013700000F002B8FFF7FCBF0F484FF007018843A9
:1013800085460E4880470E48016841F470010160AF
:10139000BFF34F8FBFF36F8FFFF732BF09480A4982
:1013A0000A4A884207D0521A05D0037801300B70E0
:1013B0000131013AF9D170470000042081E00000BA
:1013C00088ED00E0CC070200080000201C0000208F
:1013D00000B583B001220021002000F017FD01902C
:1013E000019B002B04D0019B072B01D0019B1CE02B
:1013F00007220221012000F009FD0190019B002B32
:1014000004D0019B072B01D0019B0EE00422022196
:10141000002000F0FBFC0190019B002B04D0019BFD
:10142000072B01D0019B00E00023184603B05DF8B4
:1014300004FB00B583B001220221002000F0E6FC8D
:101440000190019B002B04D0019B072B01D0019B35
:101450001CE007220221012000F0D8FC0190019B32
:10146000002B04D0019B072B01D0019B0EE00A2228
:101470000021002000F0CAFC0190019B002B04D049
:10148000019B072B01D0019B00E00023184603B00D
:101490005DF804FB00B583B00190012000F0ECF88A
:1014A0000346002B03D0019B02221A700CE000209F
:1014B00000F0E2F80346002B03D0019B0B221A70C8
:1014C00002E0019B00221A7000BF03B05DF804FB2C
:1014D00000B583B0002000F00EFD0190019B002BB1
:1014E00004D0019B062B01D0019B0CE0012000F0F1
:1014F00002FD0190019B002B04D0019B062B01D023
:10150000019B00E00023184603B05DF804FB0000D7
:1015100000B585B001900091019B1B88102B02D073
:10152000112B18D02FE01A4B1B68002B0DD1FFF7A1
:101530004FFF0390039B002B07D0164B1B68002B1B
:1015400003D0144B1B6803989847114B1B68013359
:101550000F4A136017E00E4B1B68013B0C4A1360E7
:101560000B4B1B68002B0DD1FFF763FF0390039B10
:10157000002B07D0074B1B68002B03D0054B1B68C3
:101580000398984700BF00BF05B05DF804FB00BF9B
:10159000E8060020E406002000B585B00190009127
:1015A000002303930A4A019B1360009B002B02D087
:1015B0000098FFF76FFF074B1B68002B02D1FFF766
:1015C00038FF0390039B184605B05DF804FB00BF8D
:1015D000E4060020E806002000B583B00190019BDE
:1015E0001B682F2B04D90B4940F2CD100BF046FDA0
:1015F000019B1B681F2B02D84FF0A04306E0019B04
:101600001B6803F01F02019B1A60034B184603B0CE
:101610005DF804FBE00702000003005000B585B050
:1016200001900B468DF8033001AB1846FFF7D4FF4D
:101630000390019A039B02F5E07253F82230019A5D
:1016400023F44031039B02F5E07243F82210019A23
:10165000039B02F5E07253F822309DF80320120438
:101660001146019A1943039B02F5E07243F82210D8
:1016700000BF05B05DF804FB00B583B00190019B8D
:10168000032B04D8019809F00DFF034600E0002366
:10169000184603B05DF804FB00B587B003460A4660
:1016A0008DF8073013468DF8063000238DF817307B
:1016B000002304939DF80730184609F03BFF04907F
:1016C000049B032B60D89DF80630012B04D0022B1D
:1016D0004FD0002B30D05AE03649049A13465B00B5
:1016E00013440B441B788DF817303249049A134683
:1016F0005B0013440B4401331B78002B0ED02E4BA0
:101700002E4A4FF48041184601F008FB0390039BDA
:10171000002B03D1294A9DF8073013702549049AFC
:1017200013465B0013440B4402331978244A049B8C
:1017300013440A461A702AE01F4B184601F026FB94
:101740001F4A049B134419781A48049A13465B00F5
:101750001344034402331B78994217D11549049A64
:1017600013465B0013440B4402331B788DF817308B
:101770000CE01049049A13465B0013440B440133F8
:101780001B788DF8173002E000BF00E000BF9DF825
:101790001730002B09D00B4B1B68002B05D0094BD1
:1017A0001B689DF817201046984700BF07B05DF8EA
:1017B00004FB00BF3C07002048070020680700200A
:1017C0006C0700203807002000B583B00190019B12
:1017D0001B7802211846FFF75FFF00BF03B05DF8DA
:1017E00004FB000000B583B00C4B1B78002B0FD01E
:1017F0000023019308E0019B022B02D0019809F01D
:10180000A5FD019B01330193019B032BF3D901E05B
:1018100009F0B6FD00BF03B05DF804FBF40600203C
:101820002DE9F04788B003468DF817300023079361
:1018300000230693D04B1B78002B04D0CE4B002204
:101840001A70FFF7CFFF9DF81730172B00F2268292
:1018500001A252F823F000BFB9180000D11800000F
:10186000D118000061190000F1190000631A00008E
:10187000ED1A00000D1B00001D1B00003B1B0000AB
:10188000591B0000851B0000A31B0000B11B0000BA
:10189000B11B0000B11B0000B11B0000B11B000018
:1018A0003F1C00004D1C0000611C0000751C000066
:1018B0008F1C00008F1C0000FFF794FFAF4B1846F1
:1018C00001F064FA0790AE4A9DF817301370E6E114
:1018D000002009F0F3FC0346002B0DD0002009F096
:1018E00035FD9DF81730022B02D14FF4E16301E082
:1018F0004FF47A6306930BE0002009F00DFD9DF88C
:101900001730022B01D1C82301E04FF4C8730693AE
:101910009B4A9DF817301370984D069B19464FF05F
:1019200000024FF000034FF00004D40344EA514496
:10193000CB0313F57A72009244F1000301934FF444
:10194000FA624FF00003DDE9000118F0B7F9034631
:101950000C4600221946284601F0E0F907909EE166
:10196000002009F0ABFC0346002B0DD0002009F04D
:10197000EDFC9DF81730032B02D14FF4487301E0C2
:101980004FF47A6306930BE0002009F0C5FC9DF844
:101990001730032B01D1C82301E04FF4C87306931D
:1019A000774A9DF817301370744D069B19464FF017
:1019B00000024FF000034FF00004D40344EA514406
:1019C000CB0313F57A72029244F1000303934FF4B0
:1019D000FA624FF00003DDE9020118F06FF90346E7
:1019E0000C4600221946284601F098F9079056E166
:1019F000002009F063FC0346002B06D0002009F00C
:101A0000A5FC4FF47A63069305E0002009F084FCFE
:101A10004FF4C87306935A4A9DF817301370574D08
:101A2000069B19464FF000024FF000034FF00004F0
:101A3000D40344EA5144CB0313F57A7944F1000A04
:101A40004FF4FA624FF000034846514618F036F959
:101A500003460C4600221946284601F05FF907901C
:101A60001DE1002009F02AFC0346002B0CD00020C9
:101A700009F06CFC9DF81730052B01D1C82301E05B
:101A80004FF47A6306930BE0002009F045FC9DF8C3
:101A90001730052B01D1C82301E04FF4C87306931A
:101AA000374A9DF817301370344D069B19464FF096
:101AB00000024FF000034FF00004D40344EA514405
:101AC000CB0313F57A7744F100084FF4FA624FF034
:101AD00000033846414618F0F1F803460C46002250
:101AE0001946284601F01AF90790D8E0002009F0BD
:101AF0006BFC234A9DF817301370204B002240F2F4
:101B00006661184601F00AF90790C8E0002009F064
:101B100003FC1B4A9DF817301370C0E0164B0122DE
:101B20001A70012009F050FC144B002240F266614B
:101B3000184601F0F3F80790B1E00F4B01221A703C
:101B4000012009F041FC0D4B00224FF400511846D2
:101B500001F0E4F80790A2E0074B01221A7001207F
:101B600009F032FC054B002240F26661184601F094
:101B7000D5F8079093E000BFED060020F80600209E
:101B8000EC060020484B01221A70012009F01CFCD1
:101B9000464B00224FF40051184601F0BFF8079061
:101BA0007DE009F0FFFB424A9DF81730137076E0A4
:101BB000404B184601F0EAF807909DF81730C3F142
:101BC00011030693069B002B32D0079B002B2FD1CD
:101BD000069B012B25D9374F069B9BB21A46C8237B
:101BE00003FB02F319464FEAE1724FF000034FF096
:101BF0000004D40344EA5144CB0313F57A7544F14D
:101C000000064FF4FA624FF000032846314618F000
:101C100055F803460C4600221946384601F07EF876
:101C20000790022009F078FB234B01221A7036E05E
:101C3000022009F08BFB204B00221A702FE0FFF7E7
:101C4000D1FD1B4A9DF81730137028E0FFF7CAFD3D
:101C5000002009F061FB164A9DF8173013701EE052
:101C6000FFF7C0FD012009F057FB114A9DF817301E
:101C7000137014E0FFF7B6FD002009F04DFB0120C2
:101C800009F04AFB0A4A9DF81730137007E009F083
:101C900089FB074A9DF81730137000E000BF079BCF
:101CA000184608B0BDE8F087ED060020F8060020D1
:101CB000EC06002018070020F406002000B583B0D1
:101CC0000190074B1B6803F00103002B04D0054B68
:101CD0001B781846FFF7A4FD00BF03B05DF804FBB6
:101CE000F0060020EC06002000B583B00190022031
:101CF00009F06AFB00BF03B05DF804FB00B585B0D6
:101D000003468DF8073000230393084B1B6803F04C
:101D10000103002B05D09DF807301846FFF780FD22
:101D20000390039B184605B05DF804FBF006002005
:101D300000B585B001900091002303932A4A019BCE
:101D400013602A4A009B1360019B03F00203002BDF
:101D50002AD00023029308E001220121029800F01A
:101D600055F80390029B01330293029B032B02D888
:101D7000039B002BF0D0039B002B06D140F23332A3
:101D800004211B4800F0F0FA0390039B002B02D1C2
:101D900000F072FB0390039B002B05D1154A002134
:101DA000154800F087FF0390019B03F00103002B0F
:101DB00014D0012009F0F4FB039B002B05D10F4A3E
:101DC00000210F4800F076FF0390039B002B05D104
:101DD0000C4A01210C4800F06DFF0390039B18464C
:101DE00005B05DF804FB00BFF006002038070020B6
:101DF00020080200C91700001C080200BD1C0000DA
:101E000014080200E91C00001808020084B00190C8
:101E10000B468DF8033013468DF8023000230393F0
:101E2000019B032B3CD89DF80230012B0BD19DF870
:101E30000330012B04D1019BDBB20E33DBB200E097
:101E400000238DF802309DF80330012B04D0022BC3
:101E50000CD0002B15D01FE01449019A13465B00EB
:101E600013440B449DF802201A701BE00F49019A9D
:101E700013465B0013440B4401339DF802201A7093
:101E800010E00A49019A13465B0013440B440233E5
:101E90009DF802201A7005E00723039300BF01E0BC
:101EA00007230393039B184604B070473C070020A8
:101EB00000B585B001900B468DF80330019B032BD4
:101EC00014D89DF80330002B01D0032300E0002339
:101ED0008DF80F30019809F04DFB02469DF80F3048
:101EE00019461046FFF79AFB002300E00623184628
:101EF00005B05DF804FB00B583B0019001210198A5
:101F0000FFF7D6FF0346184603B05DF804FB000058
:101F100084B003468DF807309DF807305B08DBB2CC
:101F20001A460D4B9B5C8DF80F309DF8073003F07F
:101F30000103002B04D09DF80F301B09DBB204E035
:101F40009DF80F3003F00F03DBB28DF80E309DF8D3
:101F50000E30184604B07047A807002084B003462E
:101F60000A468DF8073013468DF806309DF8073085
:101F700003F00103002B01D00F2300E0F0238DF8C4
:101F80000F309DF8073003F00103002B04D09DF8BB
:101F900006301B01DBB201E09DF806308DF80E30F3
:101FA0009DF807305B08DBB21A46114B9A5C9DF82E
:101FB00007305B08DBB219469DF80F301340DAB2E8
:101FC0000B4B5A549DF807305B08DBB21A46084B9E
:101FD0009A5C9DF807305B08DBB219469DF80E301D
:101FE0001343DAB2024B5A5400BF04B0704700BF2B
:101FF000A807002000B585B003468DF80730002300
:10200000039310E00F4B1A68039BDB001344029309
:10201000029B1B789DF807209A4201D1029B0DE09C
:10202000039B01330393084B1B781A46039B93428F
:10203000E8DB064988200BF021F80023184605B09C
:102040005DF804FB70070020740700204C080200B4
:1020500000B585B003460A468DF8073013468DF863
:1020600006309DF807301846FFF7C4FF0390039B26
:10207000002B0BD0039B5B68002B07D0039B5B6896
:102080009DF806109DF807201046984700BF05B040
:102090005DF804FB2DE9F04F87B003460A468DF842
:1020A0000F3013468DF80E309DF80F301846FFF7AD
:1020B0002FFF0346042B00F2C38001A252F823F045
:1020C000D52000004B21000067210000972100006F
:1020D000AD2100009DF80E30002B00F0AE809DF881
:1020E0000F3001211846FFF739FF00238DF8173014
:1020F0000DF11703184600F0EDFE9DF80F204FF08C
:1021000001034FF00004A2F12000C2F1200104FA03
:1021100002F703FA00F0074323FA01F10F4303FA31
:1021200002F6494BD3E9003446EA0302009247EA3B
:1021300004030193444BDDE90012C3E900129DF84A
:102140001730184600F0DCFE77E09DF80E30002BCB
:1021500001D0022200E000229DF80F3011461846FF
:10216000FFF7FCFE6CE09DF80E30002B0CD09DF8C4
:102170000F3003211846FFF7F1FE9DF80F300121C3
:102180001846FFF765FF5BE09DF80F300121184608
:10219000FFF7E4FE54E09DF80E30002B4FD19DF880
:1021A0000F3004211846FFF7D9FE48E09DF80E30A5
:1021B000002B06D09DF80F3003211846FFF7CEFE06
:1021C0003EE09DF80F3000211846FFF7C7FE9DF84E
:1021D0000F3000211846FFF73BFF00238DF8163023
:1021E0000DF11603184600F075FE9DF80F104FF024
:1021F00001024FF00003A1F12006C1F1200003FA13
:1022000001F502FA06F6354322FA00F0054302FA18
:1022100001F46FEA04086FEA05090B4BD3E90034B7
:1022200008EA030A09EA040B074BC3E900AB9DF86F
:102230001630184600F064FE02E000BF00E000BF68
:1022400000BF07B0BDE8F08FA007002000B583B045
:102250000648074B1B685B080022194600F05EFD2C
:10226000019000BF03B05DF804FB00BF80070020B1
:102270007807002010B586B001900023059328E070
:102280001C4B1A68059BDB0013440493049B1B78CA
:10229000184606F0F5FE03468DF80F30049B5B7878
:1022A000012B0CBF01230023DBB21A469DF80F302F
:1022B0009A420CBF012300238DF80E30049B1B783B
:1022C0009DF80E2011461846FFF7E4FE059B0133EA
:1022D0000593094B1B781A46059B9342D0DB074BAD
:1022E000D3E90034234301D0FFF7B0FF00BF06B0AD
:1022F00010BD00BF7007002074070020A007002059
:1023000010B584B001900B468DF80330019BDBB211
:102310001846FFF76FFE0390039B1B78184606F0E4
:10232000AFFE03468DF80B30039B5B78012B0CBF8F
:1023300001230023DBB21A469DF80B309A420CBFF2
:10234000012300238DF80A309DF80A30002B06D0B7
:10235000044BD3E90034234301D1FFF777FF00BFDB
:1023600004B010BDA007002010B58AB003900B4642
:1023700001928DF80B30019B092B01D8072367E0F0
:1023800006F014FD034683F00103DBB2002B09D0F5
:1023900006F0BAFC0990099B0893089B002B01D01A
:1023A000089B55E02C4A039B13602C4A9DF80B3088
:1023B00013702B4A019B136020220021294817F03B
:1023C000C3FD294A4FF000034FF00004C2E9003476
:1023D00031E09DF80B30DB00039A1344079303238D
:1023E0008DF8143000238DF815309DF816306FF3FA
:1023F00000038DF816309DF816306FF341038DF809
:1024000016309DF816306FF382038DF81630079B57
:102410009B788DF81530079B1B78184605AB134A3F
:10242000194606F02BFD0990099B0693069B002B8D
:1024300001D0069B0CE09DF80B305A1E8DF80B2046
:10244000002BC6D10A4A00210A4800F033FC03469B
:1024500018460AB010BD00BF7007002074070020A6
:1024600078070020A8070020A00700200123000013
:1024700075220000C808020000B583B0114B1B682C
:10248000002B04D1104940F235100AF0F7FD00236B
:1024900001930CE00B4B1A68019BDB0013441B7883
:1024A0000121184606F064FD019B01330193074B9F
:1024B0001B781A46019B9342ECD30023184603B0C5
:1024C0005DF804FB700700204C0802007407002030
:1024D00086B003900291019201238DF817309DF888
:1024E0001730204A039B13601E4A029B53601D4A0B
:1024F000019B9360039B44F20102934213D0039B20
:1025000044F20202934221D1019B164AD360154B3B
:10251000DB681B881A46134B9A61124BDB685B68B9
:10252000104AD36112E0019B0E4A13610D4B1B69E7
:102530009B680C4A53610B4B1B691B68094A9361EA
:10254000084B1B695B68074AD36100BF72B600BFC6
:102550009DF81730DBB2002BFAD162B600BF06B08F
:10256000704700BFC807002000B583B002900091FB
:10257000019244F2010071466A4600F003F803B08C
:1025800000BD00BF30B58BB007900691059272B6C2
:1025900009F0DCFF00BF09F09BFD0346002BFAD1D8
:1025A000079B41F2010293421FD0079B41F20102B7
:1025B000934203D8079B012B0BD061E0079B44F2A9
:1025C000010293422FD0079B44F20202934218D09B
:1025D00056E0394A394BD31ADB081B0443F0010398
:1025E0003749184609F0EAFC57E0334A334BD31A0F
:1025F000DB081B0443F001033249184609F0DEFCF6
:102600004BE0059B09932C4A2C4BD31ADB081B0487
:1026100043F00100099B5B681A46099B1B882A4905
:1026200009F0EBFC39E0059B0893234A234BD31AAE
:10263000DB081B0443F00104089B9D68089B9B6812
:10264000184605F019FB03461846089B5B681946B7
:10265000089B1B68069A02920193009103462A4642
:102660001A49204609F00BFD134A144BD31ADB0814
:102670001B0443F001031649184609F09FFC0CE0C7
:102680000D4A0E4BD31ADB081B0443F00103069AD4
:102690001049184609F0A0FC00BF0F4B1B6803F05F
:1026A0000103002B00D000BE059A06990798FFF79A
:1026B0000FFF00BF0BB030BD7C0602004C060200CD
:1026C000CC080200EC080200100902002C090200EC
:1026D0005409020068090200F0ED00E02DE9F04124
:1026E00082B0134800F0F0FF034619464FF0000295
:1026F000104BD3E90034CF1842EB0408CDE9007841
:102700000D4BD3E90034DDE90012A24208BF994223
:1027100007D2DDE9003413F1807544F10006CDE9FC
:102720000056DDE900341846214602B0BDE8F081CC
:102730001C000020F0070020F807002010B489B02A
:1027400001900091019B0793009B0693079BD3E99F
:102750000234CDE90434069BD3E90234CDE90234D6
:10276000DDE90434DDE90212A24208BF99422CBF20
:1027700001230023DBB2184609B05DF8044B704713
:1027800070B584B00190019B5B69002B03D12B498C
:10279000A2200AF073FC00238DF80F30284B1B7821
:1027A000002B46D0019B002B43D0019B1B7FDBB24B
:1027B000002B3ED0FFF792FF0A460146019BD3E96A
:1027C0000234A24208BF99422BD3019B1B69002B04
:1027D00002D1019B00221A77019B5B69019A9269E1
:1027E00010469847019B1B69002B22D0019B1B7F41
:1027F000DBB2002B1DD0019BD3E90212019B1B69A8
:102800004FF00004CD1842EB0406019BC3E90256C9
:10281000019B19460B4805F089F901238DF80F300B
:1028200007E0019B1946074805F080F901238DF860
:102830000F309DF80F30184604B070BD8C090200AF
:10284000EC0700200C0A0200F0B589B0019000915D
:102850000D230793009B00221A70019BD3E90245C8
:10286000FFF73CFF02460B46A61A65EB0307CDE9CE
:102870000467DDE90434012B74F100031ADB049BC7
:10288000B3F5350F05D300F0A9FA0246154B1344F2
:1028900002E0019BD3E9023403934FF49603039AB9
:1028A0000021114800F012FE0790079B002B05D174
:1028B000012313E000210C4800F0E0FE079B0D2BE4
:1028C00007D10198FFF75CFF03461A46009B1A7078
:1028D00003E00649F5200AF0D1FB0023184609B0B1
:1028E000F0BD00BFFFFFB4001C0000208C090200F7
:1028F00000B583B0044805F053F90190019B1846D8
:1029000003B05DF804FB00BF0C0A020000B583B001
:10291000044805F067F90190019B184603B05DF883
:1029200004FB00BF0C0A020000B583B0FFF7E0FF14
:102930000190019B002B02D0019B00221A77019B82
:10294000002BF3D100BF03B05DF804FB10B4074BBC
:10295000D3E9003413F1807144F10002034BC3E961
:10296000001200BF5DF8044B704700BFF007002065
:1029700010B582B00190134B1B68002B1ED001983C
:1029800000F0A2FE02460F4B1B68D3E9023423F08D
:102990007F431946104600F015FA0346B3F5960F2B
:1029A00004D3094940F22B100AF068FB054B1B6861
:1029B0001846FFF7E5FE034B00221A6000BF02B085
:1029C00010BD00BFE80700208C09020010B582B0DE
:1029D0000190FFF783FE03460C46034AC2E9003428
:1029E00000BF02B010BD00BFF807002010B586B0D0
:1029F0000190FFF78BFF049000238DF81730049BA4
:102A0000002B48D02B4B1B68002B03D101238DF8E2
:102A1000173019E0049BD3E90212264B1B68D3E957
:102A20000234A24208BF99420ED201238DF817301A
:102A3000204B1B681B7FDBB2002B05D01D4B1B6896
:102A400019461D4805F072F89DF81730002B2AD062
:102A5000FFF74EFF04900DF10F0319460498FFF79E
:102A6000F3FE0346002B12D0124B1B68002B02D141
:102A7000019800F037FC0F4A049B13609DF80F305B
:102A800083F00103DBB2002BB3D000BF0EE0094B93
:102A900000221A60ADE7074B1B68002B05D1019897
:102AA00000F036FC01E000BF00E000BF00BF06B050
:102AB00010BD00BFE80700200C0A020000B587B077
:102AC00001902A4A03AB1946104602F094FE059085
:102AD00045E0059B1B78012B17D0022B29D0002B3A
:102AE0002DD1059B5B681B7FDBB283F00103DBB25A
:102AF000002B26D0059B5B6801221A77059B5B683B
:102B000019461B4805F012F81BE0059B5A68194B43
:102B10001B689A4203D1174B00221A6012E0059BF2
:102B20005B681946124805F071F803468DF81330BA
:102B300008E0FFF7F9FE104B01221A7002E000BF17
:102B400000E000BF094A03AB1946104602F06CFED4
:102B5000064A03AB1946104602F04DFE0590059B50
:102B6000002BB6D100BF07B05DF804FB5808002069
:102B70000C0A0200E8070020EC07002000B583B033
:102B80000190019800F06DFD0346002B01D0FFF786
:102B9000DDFE0021019800F082FD0346002B02D0EB
:102BA0000198FFF7E5FE0121019800F078FD03464A
:102BB000002B02D00198FFF709FF0198FFF77EFF75
:102BC0000198FFF713FF00BF03B05DF804FB00009E
:102BD00008B5024800F085FD00BF08BD1C000020BC
:102BE00000B585B0034600918DF80730114A02AB5D
:102BF0001946104602F0D2FD0390039B002B13D020
:102C0000039B9DF807201A70039B009A5A60094A9B
:102C100002AB1946104602F0DAFD0346002B01D044
:102C2000FFF7D6FF002300E00423184605B05DF847
:102C300004FB00BF5808002000B583B0164B1B688A
:102C40000093164808235822154902F060FD0190B0
:102C5000019B002B01D0019B19E06B46114A1946DC
:102C6000114800F0C1FA0190019B002B01D0019B9B
:102C70000DE001210C4800F0E3FC01230B4A012187
:102C8000094800F05BFB0A4B01221A70019B1846B1
:102C900003B05DF804FB00BF080A020058080020DA
:102CA000000800207D2B00001C000020FFFF7F009B
:102CB000EC07002000B587B003900B4601928DF819
:102CC0000B30039B002B04D1134940F22E200AF055
:102CD000D5F9019B002B04D10F4940F22F200AF0B7
:102CE000CDF9019B002B01D1072310E0039B1B684A
:102CF0000593059B019A5A619DF80B30012B0CBF7F
:102D000001230023DBB21A46059B1A6100231846F3
:102D100007B05DF804FB00BF8C09020070B586B0F7
:102D2000039002910192039B002B04D1164940F2BB
:102D30003E200AF0A3F9039B0593059B1B7FDBB2A2
:102D4000002B01D000231BE0059B019A9A61FFF73D
:102D5000C5FC0A460146029B4FF00004CD1842EB29
:102D60000406059BC3E90256059B1B69002B02D094
:102D7000059B029A1A6105990020FFF731FF03466F
:102D8000184606B070BD00BF8C09020000B585B0C2
:102D90000190019B002B04D109494FF415700AF0F2
:102DA0006DF9019B0393039B00221A77039901207D
:102DB000FFF716FF0346184605B05DF804FB00BF99
:102DC0008C09020082B001900091019A009BD31AF5
:102DD00023F07F43184602B07047000008B503484F
:102DE00000F072FC0346184608BD00BF1C0000201E
:102DF00082B0EFF310830093009B019372B6019BA6
:102E0000184602B0704762B600BF704700B585B083
:102E10000190FFF7EDFF0390164B9B68002B1BD131
:102E2000144B01229A60144BD3F88020134B1340AB
:102E3000104A1360104B114AC3F880200E4BD3F890
:102E400084300C4A53600C4B4FF0FF32C3F884209F
:102E5000019B00221A7002E0019B01221A70039B61
:102E6000002B01D1FFF7CFFF0023184605B05DF816
:102E700004FB00BF6C08002000E100E0FC06FFBD81
:102E800000B585B003468DF80730104B9B68002BCA
:102E900016D09DF80730002B12D1FFF7A9FF039041
:102EA0000B4A0A4B1B681360094A084B5B68536066
:102EB000064B00229A60039B002B01D1FFF7A3FF72
:102EC0000023184605B05DF804FB00BF6C08002025
:102ED00000E100E000B583B0019000F02BF803465C
:102EE000012B03D0054943200AF0C8F80198FFF7E9
:102EF0008DFF00BF03B05DF804FB00BF180A02009D
:102F000000B583B003468DF8073000F013F8034690
:102F1000012B03D0064951200AF0B0F89DF8073084
:102F20001846FFF7ADFF00BF03B05DF804FB00BF1C
:102F3000180A020084B0EFF305830193019BC3F3E9
:102F400008030393039B002B0DD1EFF3148300932D
:102F5000009B0293029B03F00103002B0CBF012393
:102F60000023DBB200E00123184604B070470000E4
:102F700082B003468DF807309DF8073003F01F023A
:102F800005499DF907305B09012000FA02F241F87A
:102F9000232000BF02B0704700E100E082B003468A
:102FA0008DF807309DF8073003F01F0206499DF9A0
:102FB00007305B09012000FA02F2403341F8232078
:102FC00000BF02B0704700BF00E100E082B00346DE
:102FD00000918DF807309DF90730002B0CDA009B2B
:102FE000DAB20C499DF8073003F00F03043B52019D
:102FF000D2B20B441A7609E0009BDAB206499DF979
:1030000007305201D2B20B4483F8002300BF02B054
:10301000704700BF00ED00E000E100E000B583B0C4
:1030200003460A468DF8073013468DF806309DF8A2
:103030000630012B03D99DF80630032B0BD99DF8E0
:103040000630042B03D99DF80630072B03D9084915
:103050006B200AF013F89DF806209DF90730114601
:103060001846FFF7B3FF00BF03B05DF804FB00BFD5
:10307000980A020000B583B003468DF807309DF929
:1030800007301846FFF774FF00BF03B05DF804FB7C
:1030900000B585B00190019B002B0AD0074B43F08F
:1030A00001030393019B9B010293039B02989847A2
:1030B00000E000BF05B05DF804FB00BFD00B0200CC
:1030C00084B0039002910192039B029A02F5A872C8
:1030D000019943F8221000BF04B0704782B00190FC
:1030E0000091019B009A02F5A87253F8223018460D
:1030F00002B0704782B001900091019B009AC3F822
:10310000042300BF02B0704782B001900091019B80
:10311000009AC3F8082300BF02B0704782B0019044
:103120000B46ADF80230BDF80230019A13441B681B
:10313000184602B0704784B001900B46ADF80230DB
:10314000BDF80230019A134400221A60BDF8023023
:10315000019A13441B680393039B00BF04B070479C
:1031600082B00190019BD3F80435184602B0704735
:1031700000B583B001900091009BB3F5805F04D34C
:1031800006494FF4BE7009F079FF019B009AC3F81D
:10319000082500BF03B05DF804FB00BFD00A0200A1
:1031A00082B001900B468DF803309DF80320019BFF
:1031B00013441A460123136000BF02B0704782B067
:1031C00001900091019B009AC3F8442300BF02B014
:1031D000704782B001900091019B009AC3F8482388
:1031E00000BF02B07047000000B587B003900291A5
:1031F0000192039B002B03D13349552009F03EFF78
:10320000029B002B03D13049562009F037FF019B68
:10321000002B03D12C49572009F030FF039B5B7929
:1032200019462A4A019B42F82130039B5B79284AC0
:10323000DB0013441B79002B0ED008230593254A8D
:10324000254BD31ADB081B0443F00203234918461D
:1032500008F0B4FE059B32E0039B1A68029B1B88B2
:1032600019461046FFF784FF039B93F90420029B45
:103270009B7819461046FFF7D1FE039B93F9043063
:103280001846FFF7F7FE039B5B79114ADB001344F6
:1032900001221A71039B5B7919460D4A039B42F880
:1032A0003130002305930B4A0B4BD31ADB081B0468
:1032B00043F003030A49184608F080FE059B1846B0
:1032C00007B05DF804FB00BF040B02007808002083
:1032D0007C0800208C0602004C0602007C0B0200D9
:1032E000A00B020000B583B00190019B002B03D11D
:1032F0000649872009F0C2FE019B1B680021184681
:10330000FFF74EFF00BF03B05DF804FB040B0200A3
:1033100000B583B00190019B002B03D106498D209D
:1033200009F0ACFE019B1B6804211846FFF738FF2B
:1033300000BF03B05DF804FB040B020000B587B0CA
:103340000390029101928DF80330039B002B03D16F
:103350002149962009F092FE4FF48032029B02FA36
:1033600003F30593029B50339BB29B00ADF81230E0
:10337000019B23F07F430193039B1B68059918462B
:10338000FFF7C2FE039B1B6805991846FFF721FF54
:10339000039B1B68BDF8122011461846FFF7CBFEB1
:1033A000039B1B68019A02991846FFF789FE039B4D
:1033B0001B6805991846FFF702FF9DF80330002BA4
:1033C00005D0039B1B6805991846FFF793FE00BFC5
:1033D00007B05DF804FB00BF040B020000B585B028
:1033E0000390029113468DF80730039B002B03D105
:1033F0000B49A92009F042FE039B1B68029918465D
:10340000FFF7DDFE9DF80730002B05D0039B1B68FE
:1034100002991846FFF76EFE00BF05B05DF804FB89
:10342000040B020000B583B001900091019B002BBA
:1034300003D10A49B32009F021FE019B1B680099C2
:103440001846FFF7C6FE019B1B6800991846FFF758
:103450005BFE00BF03B05DF804FB00BF040B02007D
:1034600000B583B001900B46ADF80230019B002BF4
:1034700003D10F49BA2009F001FE019B1B68BDF87A
:10348000022011461846FFF749FE0346002B09D0DB
:10349000019B1B68BDF8022011461846FFF74BFE42
:1034A000012300E00023184603B05DF804FB00BFD1
:1034B000040B020082B001900091019A009BD31A84
:1034C00023F07F43184602B07047000000B58BB070
:1034D0000390029101920093039B002B03D1574963
:1034E000CD2009F0CBFD4FF48032029B02FA03F3AA
:1034F0000993029B50339BB29B00ADF82230019B95
:1035000023F07F43019309990398FFF78BFF039BF7
:103510001B681846FFF724FE0790039B1B6802995F
:103520001846FFF7DBFD0690039B1B68079A02997C
:103530001846FFF7C5FD039B1B68BDF82220114606
:103540001846FFF7F8FD07990698FFF7B3FF034603
:10355000012B0AD11020FFF79BFD039B1B68BDF8D0
:10356000222011461846FFF7E6FD039B1B6818460C
:10357000FFF7F6FD079007990198FFF79BFF05906D
:10358000039B1B6809991846FFF719FE059B012B41
:1035900015D1039B1868019B01331A460299FFF766
:1035A0008FFD1020FFF774FD039B1B681846FFF783
:1035B000D7FD0246079B934235D00D2339E0039B8C
:1035C0001B68019A02991846FFF77AFD039B1B6856
:1035D0001846FFF7C5FD0790019B013B0799184668
:1035E000FFF768FF0590009BC3F1FF1303F57F43CE
:1035F000059A9A4201D90D231BE0059B002B12D19D
:10360000039B1868019B01331A460299FFF758FD86
:10361000039B1B681846FFF7A3FD0246079B9342D6
:1036200001D00D2305E0012209990398FFF7D6FE8A
:10363000002318460BB05DF804FB00BF040B02002A
:1036400000B583B001900B468DF803309DF8033030
:103650001A4602210198FFF7C1FE00BF03B05DF8D2
:1036600004FB00B583B001904FF482710198FFF71D
:10367000F7FE0346184603B05DF804FB00B583B0BF
:10368000019000914FF48032009B02FA03F3194637
:103690000198FFF7C7FE00BF03B05DF804FB00B55B
:1036A00085B001900091009B50339BB29B00ADF818
:1036B0000E30BDF80E3019460198FFF7D1FE0346D3
:1036C000184605B05DF804FB00B583B00190019B7E
:1036D0001B681846FFF744FD0346184603B05DF823
:1036E00004FB00B583B00190019B93F904301846A8
:1036F000FFF754FC00BF03B05DF804FB08B5044BB2
:103700001B68044A12681046984700BF08BD00BFF6
:10371000780800207C08002082B00190019B03F013
:103720000303002B0CBF01230023DBB2184602B0B9
:103730007047000000B585B00190002303930EE0B0
:103740000A4A039B52F82330002B05D0074A039BFB
:1037500052F8233001989847039B01330393039B4E
:10376000032BEDD900BF05B05DF804FB94080020E1
:1037700082B001900091019B1B78013B052B61D821
:1037800001A252F823F000BFA1370000A9370000C2
:10379000CF37000001380000213800003D3800001C
:1037A000009B00221A704EE0009B01221A70019BC0
:1037B0001A89009B9A81019B9A88009BDA81019B60
:1037C000DA68009B9A60009B00221A743BE0009B21
:1037D00002221A70019B1A89009B9A81019B9A8888
:1037E000009BDA81019BDA68009B9A60019B9B7DBC
:1037F000062B0CBF01230023DAB2009B1A7422E0CF
:10380000009B03221A70019BDA88009B9A81019B1E
:103810001A89009BDA81019BDA68009B9A6012E0AA
:10382000009B04221A70019BDA88009B9A81009BFE
:103830000022DA81009B00229A6004E0009B0522AE
:103840001A7000E000BF00BF02B0704784B0019062
:103850000091019B0393039A009B9A4206D2039B1B
:103860001B68B3F1FF3F01D0012300E0002303F008
:103870000103DBB2184604B0704782B00190019B8F
:103880005B8803339B00019A1344184602B07047CB
:1038900000B583B0019000910198FFF7EEFF02465A
:1038A000009B934201D2022311E0019B9B884FF6BB
:1038B000FF72934208D0019B1B88002B04D0019B10
:1038C0009B68B3F1FF3F01D1012300E000231846BC
:1038D00003B05DF804FB000000B583B00190019BCC
:1038E000002B13D00D4BDB681A46019B93420DD37E
:1038F0000A4B1B691A46019B934207D80198FFF7B0
:103900000BFF0346002B01D0012300E0002303F04E
:103910000103DBB2184603B05DF804FB0800002089
:1039200082B00190019B002B04D0019B1B680B4AC5
:10393000934201D003230DE0019B04331B68084A26
:10394000934204D0074A934203D1012302E00023AB
:1039500000E00323184602B0704700BFDEC0ADDEB2
:10396000FE011EF1FF011EF184B00190019B1B6856
:10397000B3F1FF3F06D0019B1B680E4A934201D072
:10398000002314E0012303930CE0039B9B00019AA6
:1039900013441B68B3F1FF3F01D0002307E0039BF2
:1039A00001330393039BB3F5806FEED301231846D5
:1039B00004B07047DEC0ADDE82B003460A46ADF803
:1039C00006301346ADF80430BDF8062013491346FF
:1039D0009B0013449B000B4408331A88BDF8043045
:1039E0001344ADF80430BDF806200C4913469B0083
:1039F00013449B000B440A331A88BDF80430134467
:103A0000ADF80430BDF80430B3F5806F94BF0123E6
:103A10000023DBB2184602B0704700BF4409002003
:103A200084B00190009148F2096303930023ADF83C
:103A30000A3027E0BDF80A20164913469B001344BC
:103A40009B000B4404331B68009A9A4215D9BDF8B9
:103A50000A20104913469B0013449B000B44043377
:103A60001B6803F58053009A9A4206D20023039301
:103A7000019BBDF80A201A8008E0BDF80A30013326
:103A8000ADF80A30BDF80A30012BD3D9039B184694
:103A900004B070474409002000B589B0039002913A
:103AA0000192039B03F580530693039B0833039312
:103AB000029B02221A80039B079332E00699079823
:103AC000FFF7E6FE03468DF817309DF81730002B00
:103AD0000AD1079B9A68184B1B689A4213D9079B17
:103AE0009B68154A13600EE0019B002B02D0019BDE
:103AF00001221A709DF81730022B04D1029B4FF45B
:103B000080621A8014E0029B1A88079B5B8813442A
:103B10009BB203339AB2029B1A800798FFF7ADFE5F
:103B2000079006990798FFF791FE0346002BC5D131
:103B300009B05DF804FB00BFA408002082B001902A
:103B40000091009B9B7D022B09D9019B1A89009B48
:103B5000DB8813449BB203339AB2019B1A81019B09
:103B60005A89009BDB88D31A9BB2033B9AB2019B14
:103B70005A8100BF02B0704700B583B0074B1B6885
:103B80001946002300930823054A064802F07AFDEF
:103B90000346184603B05DF804FB00BF6C09002023
:103BA0004C0C02000800002000B585B0039003997A
:103BB000002300930823044A044802F063FD0346EF
:103BC000184605B05DF804FB540C02000800002004
:103BD00000B585B003460091ADF8063000238DF89E
:103BE0000F30BDF806300333ADF80A30BDF80A30A7
:103BF00040F2FE32934202D948F208634BE00023C0
:103C0000ADF80C303BE0BDF80C20254913469B0075
:103C100013449B000B441B78002B2BD1BDF80A20CA
:103C2000BDF80C3011461846FFF7C6FE0346002BC0
:103C300020D001238DF80F30009BBDF80C201A8096
:103C4000BDF80C20164913469B0013449B000B44FF
:103C50000A331988BDF80C20BDF80A300B4498B21D
:103C60000F4913469B0013449B000B440A33024642
:103C70001A8008E0BDF80C300133ADF80C30BDF807
:103C80000C30012BBFD99DF80F30002B01D0002341
:103C900001E048F20663184605B05DF804FB00BF7A
:103CA0004409002082B003460A46ADF806301346A8
:103CB000ADF80430BDF804200D4913469B001344B1
:103CC0009B000B440A331A88BDF80630D31A9BB206
:103CD000BDF80420033B98B2054913469B001344EA
:103CE0009B000B440A3302461A8000BF02B07047A3
:103CF0004409002008B50121024801F0F1FE034605
:103D0000184608BDA408002000B585B00346009100
:103D1000ADF80630BDF80620224913469B00134437
:103D20009B000B4404331B6803F580530293009BF4
:103D30001B680393039B002B04D00398FFF79DFDA2
:103D4000039023E0BDF80620164913469B00134458
:103D50009B000B4404331B680833039316E002995D
:103D60000398FFF795FD0346012B08D0022B0BD0DB
:103D7000002B0BD1009B039A1A6001230EE00398DD
:103D8000FFF77BFD039001E0002307E00299039811
:103D9000FFF75CFD0346002BE1D10023184605B078
:103DA0005DF804FB4409002000B585B00190009146
:103DB000019B5B681846FFF78FFD0346002B19D067
:103DC000019B1A89244B1B899A4213D1019B1A68C3
:103DD000019B5B689B689A420CD1019B5B6819460A
:103DE0000098FFF71DFE0346002B0CBF01230023A4
:103DF000DBB22CE0009B00221A8023E00023029318
:103E000010E0029B0393039B9A68019B1B689A42F4
:103E100008D1029A019B5A600F4B1A89019B1A81A3
:103E2000012314E0009B1B8802AA11461846FFF7E5
:103E30006BFF0346002BE4D1009B1B8801339AB231
:103E4000009B1A80009B1B88012BD7D900231846A2
:103E500005B05DF804FB00BF7409002000B587B011
:103E60000390029101920093324B1B78DBB283F0F6
:103E70000103DBB2002B02D048F2016355E0019B45
:103E8000002B02D0009B002B49D148F204634CE088
:103E9000009B9B881946284A0B469B000B449B00BD
:103EA00013441B78002B33D124E0009B1B6805933F
:103EB000039B002B06D0059B9A88039B1B889A4284
:103EC00000D017E0029B002B06D0059B1A88029BAE
:103ED0001B889A4200D00DE0059B9A68019B1A60EE
:103EE000009B1A68019B5A60144B1A89019B1A8126
:103EF00000231AE0009B9B88009A11461846FFF7A2
:103F000003FF0346002BD0D1009B00221A6000E083
:103F100000BF009B9B8801339AB2009B9A80009B54
:103F20009B88012BB4D948F20963184607B05DF8A5
:103F300004FB00BF8408002044090020740900200D
:103F400000B587B00291019200930346ADF80E30A0
:103F5000BDF80E20314913469B0013449B000B44CF
:103F600004331B6808330593BDF80E202B49134614
:103F70009B0013449B000B4404331B6803F58053E0
:103F8000049341E004990598FFF782FC0346012B56
:103F900004D0022B22D0002B15D034E0019B1B88CB
:103FA00001339AB2019B1A80009B1A88059B5B889B
:103FB00013449BB203339AB2009B1A800598FFF713
:103FC0005CFC059020E0029B1B8801339AB2029BA7
:103FD0001A800598FFF751FC059015E0019B1B889E
:103FE00001339AB2019B1A80009B1A880499059BA1
:103FF000CB1A9B109BB213449AB2009B1A80089B69
:1040000001221A7007E000BF04990598FFF71EFC13
:104010000346002BB6D107B05DF804FB440900202D
:1040200000B585B00190084B0199184601F0B6FB28
:1040300003901C220021039815F086FF039B18466D
:1040400005B05DF804FB00BF3409002000B583B063
:104050000190044B0199184601F0B9FB00BF03B071
:104060005DF804FB3409002000B583B00190054BD6
:104070000199184601F0BFFB0346184603B05DF8EE
:1040800004FB00BF3409002000B583B00190044B4D
:104090000199184601F0C8FB00BF03B05DF804FBAE
:1040A0003409002008B50A4B1B68002B04D10949CC
:1040B0004FF4247008F0E2FF0121054801F028FDCB
:1040C0000346002B14BF01230023DBB2184608BDB2
:1040D0008C080020D80B020000B587B000230593A0
:1040E0000023ADF812300323ADF8103000238DF813
:1040F0000F300023ADF80C30F3E0BDF80C301A039C
:10410000804BDB68134402930298FFF709FC0346D7
:104110008DF807309DF80730012B00F09C80032BB1
:1041200002D0002B62D0D7E00298FFF71DFC0346B7
:10413000002B3BD0744B1B68002B29D0BDF81220FC
:10414000724913469B0013449B000B4402221A70D1
:10415000BDF812206D4913469B0013449B000B448D
:104160000433029A1A60BDF81220684913469B0076
:1041700013449B000B44083302221A80644ABDF8A2
:1041800012305380BDF812300133ADF8123008E020
:104190005D4A029B13605C4B02229A8001238DF8DA
:1041A0000F30059B43F00103059395E0BDF81030F7
:1041B000013BADF81030BDF81220544913469B0066
:1041C00013449B000B440433029A1A60BDF812207A
:1041D0004E4913469B0013449B000B4403221A7064
:1041E000BDF812300133ADF8123075E0BDF8122081
:1041F000464913469B0013449B000B4400221A704F
:10420000BDF81220414913469B0013449B000B4408
:104210000433029A1A60BDF8122013469B0013441F
:104220009B000833394A9918BDF8122013469B00A9
:1042300013449B001033354A13441A460298FFF783
:104240002BFC059B43F002030593BDF812300133AC
:10425000ADF8123040E09DF80F30002B29D0BDF8AA
:1042600012202A4913469B0013449B000B44022250
:104270001A70BDF81220244B1968244813469B007D
:1042800013449B00034404331960BDF812201F49F6
:1042900013469B0013449B000B44083302221A80F0
:1042A0001B4ABDF812305380BDF812300133ADF80F
:1042B0001230154A029B1360002216490298FFF73C
:1042C000EBFB114B9B88022B01D1042300E0082358
:1042D000059A1343059300BFBDF80C300133ADF8C8
:1042E0000C30BDF80C30022B7FF607AFBDF8103054
:1042F000012B01D800230593059BDBB2184607B0BC
:104300005DF804FB080000206C090020440900202F
:10431000740900207009002000B587B00390029155
:10432000039B02229A750299039B1A1D0023009396
:104330000423074802F0A6F90590059B002B01D144
:10434000002301E048F20D63184607B05DF804FB56
:104350000800002000B587B003900291039B1B6901
:10436000002B01D0032200E00122039B9A75029BDF
:1043700008331946039B03F10C0200230093042326
:10438000074802F07FF90590059B002B01D100231F
:1043900001E048F20D63184607B05DF804FB00BF6A
:1043A0000800002000B587B003900291039B1B78A2
:1043B000032B01D1052200E00622039B9A75029B84
:1043C00004331946039B03F10802002300930423DE
:1043D000074802F057F90590059B002B01D10023F7
:1043E00001E048F20D63184607B05DF804FB00BF1A
:1043F0000800002000B587B003900B46ADF80A30E6
:1044000003990023009304230D4A0E4802F03AF961
:104410000590059B002B02D048F20D630BE0BDF820
:104420000A20094913469B0013449B000B44103398
:1044300001221A700023184607B05DF804FB00BF84
:104440005C0C0200080000204409002000B589B07F
:10445000019002AB00221A605A609A60019BDB68EF
:1044600002930DF1160202AB11461846FFF79CFCB1
:104470000346002B12D0039B0693069B9A88019B50
:10448000DA80069B1A88019B1A81039BBDF81620CF
:1044900011461846FFF7AEFF079002E048F20963A5
:1044A0000793079B184609B05DF804FB00B587B079
:1044B0000190019B981D02AA0D4B0021FFF7CEFC35
:1044C0000590059B002B08D1039A094B9B88194640
:1044D0001046FFF78FFF059004E0082200210448F2
:1044E00015F032FD059B184607B05DF804FB00BFD0
:1044F0008409002000B587B003900291039B01223C
:104500009A75029B0C331846039B1A69039BDB8840
:104510009900002300930B460146074802F0B2F8C9
:104520000590059B002B01D1002301E048F20D63AB
:10453000184607B05DF804FB0800002082B0184B55
:104540001B8901339AB2164B1A81154B00225A80EF
:10455000134B00221A730023ADF8063018E0BDF8A3
:104560000620104913469B0013449B000B441A7805
:10457000BDF80630002A0CBF01220022D1B2084A41
:1045800013440A469A72BDF806300133ADF806307E
:10459000BDF80630012BE2D900BF02B0704700BF62
:1045A000740900204409002084B0019000238DF894
:1045B0000F300023ADF80C3031E0BDF80C301C4A50
:1045C00013449B7A002B25D0BDF80C30184A1344B5
:1045D00000229A72BDF80C20164913469B00134422
:1045E0009B000B440C331B68002B13D1BDF80C202F
:1045F000104913469B0013449B000B4410331B7857
:10460000002B07D0019BBDF80C201A8001238DF8E8
:104610000F3008E0BDF80C300133ADF80C30BDF8B8
:104620000C30012BC9D99DF80F30184604B07047E3
:10463000740900204409002008B5084B05221A70AF
:10464000074B02229A80064B1B6819460023012261
:10465000044802F0F9F80346184608BD7409002022
:104660006C0900200800002000B583B0164B5B8861
:10467000ADF80230BDF80220144913469B001344E4
:104680009B000B440C331B68002B14D10E4B0422EF
:104690001A70BDF802200D4913469B0013449B007D
:1046A0000B4404331B68194600230122084802F01A
:1046B000CBF8019002E0FFF7BFFF0190019B184685
:1046C00003B05DF804FB00BF74090020440900201A
:1046D0000800002000B587B0114B5B680593114BB3
:1046E0001A68104B9B889B0013440493059B5B88BE
:1046F0000333ADF80E300A4B03221A700499084BAD
:104700005A68BDF80E30980000230093034606480F
:1047100001F0B8FF0346184607B05DF804FB00BF80
:10472000740900206C0900200800002000B583B047
:104730000A4B5B880A491846FFF7E6FA0346002B46
:1047400003D0FFF7C7FF019002E0FFF78DFF019054
:10475000019B184603B05DF804FB00BF74090020FC
:104760007809002008B50A4B06221A70084B5B88AE
:104770001946084A0B469B000B449B001344043324
:104780001B681846FFF710FA0346184608BD00BF1D
:10479000740900204409002008B5054B07221A704F
:1047A000034B00225A60FFF7E7F90346184608BD9D
:1047B0007409002008B50D48FFF7F6FE034683F0A4
:1047C0000103DBB2002B0BD0094B00221A70084BFF
:1047D00000225A80064B00225A6041F61D5302E027
:1047E000FFF7A4FF0346184608BD00BF7609002066
:1047F0007409002082B0094B5B680193019B5B88C0
:104800000333ADF80230064B9A88BDF802301344EA
:104810009AB2034B9A8000BF02B07047740900201F
:104820006C09002082B0184B1B680193174B5B8802
:104830001946174A0B469B000B449B001344043354
:104840001B68114A1360114B5B881946104A0B46CE
:104850009B000B449B0013440433019A1A600B4BDA
:104860005B881946084B9888094A0B469B000B4405
:104870009B001344083302461A80034B02229A809D
:1048800000BF02B0704700BF6C090020740900200F
:104890004409002008B51A4B1B78072B2CD801A21D
:1048A00052F823F0C5480000F9480000F94800001C
:1048B000D1480000DD480000E9480000E948000058
:1048C000F1480000FFF73AFE0D4B01221A7014E088
:1048D000FFF790FF0A4B02221A700EE0FFF7A2FFCB
:1048E000074B06221A7008E0054B07221A7004E0F5
:1048F000034B01221A7000E000BF00BF08BD00BFDB
:104900007409002000B587B00190009148F20E6351
:104910000593019B002B05D0634B00225A604FF496
:104920000643BCE0009B1B79032B00F2AB8001A285
:1049300052F823F04549000053490000E1490000C6
:10494000014A0000009B01221A71FFF715F905903A
:104950009BE000238DF813300023ADF810302BE0DE
:10496000BDF81020514913469B0013449B000B4493
:104970001B78022B1BD1BDF810204C4913469B001D
:1049800013449B000B4400221A7001238DF813304E
:10499000BDF81020454913469B0013449B000B446F
:1049A00004331B681846FFF7FFF8059008E0BDF8D0
:1049B00010300133ADF81030BDF81030012BCFD9D5
:1049C0009DF8133083F00103DBB2002B5CD0364B33
:1049D00001221A70344B00225A6041F61D535EE0EA
:1049E000009B00221A71324B02229A80304B1B68C6
:1049F0001946002301222F4801F026FF059044E0CC
:104A0000009B00221A712A4B1B681846FFF7CCF84E
:104A10000590294B5B88ADF80E30254B1B6802933F
:104A2000BDF80E20214913469B0013449B000B4404
:104A300004331B681E4A1360BDF80E201B49134641
:104A40009B0013449B000B440433029A1A60BDF888
:104A50000E20174B9888154913469B0013449B0062
:104A60000B44083302461A80114B02229A80BDF88B
:104A70000E200E4913469B0013449B000B4400225A
:104A80001A7002E000BF00E000BF059B002B05D0BC
:104A9000054B00225A6048F20D6300E000231846DF
:104AA00007B05DF804FB00BF840800204409002023
:104AB0006C090020080000207409002000B587B0B0
:104AC00001900091009B9B8A1A4613469B00134459
:104AD0009B003B4A13440493019B002B06D0009992
:104AE0000498FFF72BF84FF4064364E0049B5A68E0
:104AF000049B1B899B0013440393009B9B7D062B07
:104B00004DD801A252F823F04D4B0000714B00002C
:104B1000594B0000654B0000254B00007D4B000009
:104B2000974B0000274B00225A60009B9B69254A47
:104B3000136025492348FFF737F9034683F0010343
:104B4000DBB2002B02D048F2096334E003990098ED
:104B5000FFF7E2FB059026E003990098FFF7FAFBC8
:104B6000059020E003990098FFF7C4FC05901AE037
:104B700003990098FFF716FC059014E0009B0622AD
:104B80009A75104B5A68104B1B8819461046FFF750
:104B900031FC059007E041F61D53059303E048F210
:104BA0000E63059300BF059B002B03D0009904986A
:104BB000FEF7C4FF059B184607B05DF804FB00BF75
:104BC000440900208C0900209809002000B585B018
:104BD00001900091019B002B02D04FF4064326E088
:104BE000009B1B79012B0BD0022B16D0002B18D168
:104BF000009B02221A710098FFF728FC039015E031
:104C00000098FFF753FC0390039B48F2096293421C
:104C10000BD141F61D53039307E041F61D53039357
:104C200004E048F20E63039300E000BF039B1846C4
:104C300005B05DF804FB000000B585B00190019B54
:104C4000002B02D04FF406433DE0214B1B7B002B91
:104C500003D01F4B00221A7301E0FFF71BFE1C4B11
:104C60001B78013B062B29D801A252F823F000BF84
:104C70008D4C0000954C00009D4C0000A54C0000A0
:104C8000BD4C0000AD4C0000B54C0000FFF792FD9C
:104C9000039017E0FFF74AFD039013E0FFF71AFDBA
:104CA00003900FE0FFF7E0FC03900BE0FFF75AFDE5
:104CB000039007E0FFF770FD039003E048F20E63F6
:104CC000039300BF039B184605B05DF804FB00BFCB
:104CD0007409002000B589B00190404B1B68002B7F
:104CE00005D13F48FFF7C0F902463C4B1A603B4BE9
:104CF0001B68002B04D13B4940F29B5008F0BEF9E1
:104D0000364B1B681B78013B052B2CD801A252F8AF
:104D100023F000BF2D4D00003D4D00003D4D000033
:104D20004D4D00004D4D00005D4D00002B4B1B68AC
:104D300019460198FFF7E6FD019018E0274B1B6824
:104D400019460198FFF7BAFE019010E0234B1B684B
:104D500019460198FFF73AFF019008E00198FFF724
:104D60006BFF019003E048F20E63019300BF019BCB
:104D7000002B2BD003AB00221A605A609A60DA60D5
:104D80001A61019B41F61D52934201D0019B00E044
:104D900000230493114B1B6803AA11461846FEF723
:104DA000E7FC03AB1846FEF7C5FC0C4B00221A606B
:104DB000002301930A48FFF767F9FFF773F90346E9
:104DC00083F00103DBB2002B02D186E700BF00E0D5
:104DD00000BF00BF09B05DF804FB00BF9C090020C4
:104DE000A0090020D80B020008B50121054800F0F9
:104DF0005FFE0346002B02D10020FFF76BFF00BFD0
:104E000008BD00BF8C08002000B583B00190019B55
:104E10005B681846FFF75EFF00BF03B05DF804FB58
:104E200000B58BB00390029101928DF803300023FE
:104E3000ADF824300023ADF82630534B1B78DBB29D
:104E400083F00103DBB2002B02D048F2016397E04C
:104E5000029B002B02D148F2046391E0029B1B8865
:104E60004FF6FF72934203D0029B5B88002B02D166
:104E700048F2036384E0029B5B681846FEF74CFC33
:104E8000034683F00103DBB2002B02D048F2026339
:104E900076E0019B002B11D1029B9B68ADF8263078
:104EA0000DF11A02BDF8263011461846FEF790FEA5
:104EB0000890089B002B09D0089B61E0019B1B8890
:104EC000ADF81A30019B5B88ADF8263005AB18466B
:104ED000FFF7A6F80790079B002B0AD1BDF81A2010
:104EE000BDF8263011461846FEF7DCFE48F207638F
:104EF00046E0079B9DF803201A70079B00229A75D5
:104F0000BDF81A20079B9A82029B5A68079B1A6178
:104F1000FEF7F0FE0246079BDA60029B1A88079BA9
:104F20001A81029B5A88079B9A80079BBDF826200E
:104F3000DA809DF80330032B06D1079B04229A7573
:104F4000039B1A68079B9A61079BBDF824205A812E
:104F500005AB1846FFF77AF8039B002B0DD0039B97
:104F600000225A60079BDA68039B1A60039B0022A9
:104F70009A72064B1A89039B1A81FFF735FF0023AB
:104F800018460BB05DF804FB84080020740900206B
:104F900000B585B001900C4B1B68042B03D148F27F
:104FA0000B6303930BE0084B1B680849019A41F817
:104FB00023200121044800F093FD00230393039B69
:104FC000184605B05DF804FB900800209408002006
:104FD00084B040F6F8731B68B3F1FF3F02D10F4B6A
:104FE0001B6802E040F6F8731B6803934FF0805390
:104FF0001B6902934FF080535B690193039BB3F1EC
:10500000FF3F04D1019B029A02FB03F300E0039BE4
:105010000093009B184604B0704700BF14100010A6
:1050200000B583B04FF440530193FFF7D1FF024620
:10503000054B1A61044B1A69019BD31A024AD360CB
:1050400000BF03B05DF804FB0800002008B5FFF7BF
:10505000E7FF00220349044801F0CCFA0346184652
:1050600008BD00BFE00F02000800002008B504489A
:105070001C238C22034900F04AFB00BF08BD00BF7F
:1050800034090020A808002000B58BB002AB002234
:105090001A605A609A60DA601A61414B1B78DBB281
:1050A000002B05D002AB1846FEF744FB002373E04B
:1050B0003C4800F045FD0346002B01D000236BE087
:1050C000FFF7C4FF0990099B002B01D0099B63E007
:1050D000FFF7CCFFFFF700F803468DF823309DF86B
:1050E0002330022B03D0062B04D0002B0ED148F224
:1050F0000A6351E02A4B01221A70294B00225A60A0
:1051000002AB1846FEF716FB002345E000BF01ABDB
:105110001846FEF785FF0790079B002B02D148F247
:10512000076339E0079B01221A709DF82330013B89
:105130000A2B29D801A252F823F000BF69510000C0
:10514000895100006951000089510000815100001F
:105150008951000081510000895100007151000007
:105160007951000071510000079B00221A710CE078
:10517000079B03221A7108E0079B02221A7104E0C0
:10518000079B01221A7100E000BF01AB1846FEF731
:105190005DFFFFF729FE002318460BB05DF804FB06
:1051A000840800208808002000B585B00190009197
:1051B000019B002B02D0009B002B02D148F204631C
:1051C0002AE00DF10A0319460198FEF7EDFD0346AA
:1051D000002B1FD0019B5B680393BDF80A301A4671
:1051E00013469B0013449B0008330D4A13440433B9
:1051F0000121184600F074FC009B039A1A60019B81
:105200005B6803F10C02009B5A60019B01229A72B9
:10521000002301E048F20963184605B05DF804FB7D
:105220004409002000B585B00190019B002B02D1FC
:1052300048F204633BE00DF10A0319460198FEF7BA
:10524000B3FD0346002B2ED0BDF80A3019461A4A8A
:105250000B469B000B449B0013440C331B68002B34
:105260001DD0019B9B7A002B19D0BDF80A301A463D
:10527000114913469B0013449B000B440C331B68DD
:10528000591E0D4813469B0013449B0003440C33E6
:105290001960019B00229A720023039306E048F2F2
:1052A0000563039302E048F209630393039B1846E6
:1052B00005B05DF804FB00BF4409002000B583B0D1
:1052C000019000910223002200990198FFF7A8FDA8
:1052D0000346184603B05DF804FB00B583B00190A7
:1052E0000091019B002B02D148F2046306E00323E6
:1052F000002200990198FFF793FD0346184603B07A
:105300005DF804FB00B585B00346ADF806301A4BD6
:105310001B78DBB283F00103DBB2002B02D048F232
:10532000016324E0BDF806304FF6FF72934202D1CC
:1053300048F203631BE002AB1846FEF771FE0390D0
:10534000039B002B02D148F2076310E0039B052268
:105350001A70039B01221A71039BBDF80620DA80A4
:1053600002AB1846FEF772FEFFF73EFD002318461B
:1053700005B05DF804FB00BF8408002000B583B0D1
:10538000154B1B78DBB283F00103DBB2002B02D09C
:1053900048F201631BE06B461846FEF741FE0190A0
:1053A000019B002B02D148F2076310E0019B06220B
:1053B0001A706B461846FEF749FE084B1B78002B07
:1053C00002D0064B01221A73FFF70EFD0023184688
:1053D00003B05DF804FB00BF8408002074090020BE
:1053E00000B585B0029201930346ADF80E300B462E
:1053F000ADF80C3003A90DF10E00019B029AFEF7E7
:105400002DFD0346184605B05DF804FB00B585B0D8
:10541000034602910192ADF80E300DF10E01019B91
:10542000029A0020FEF71AFD0346184605B05DF803
:1054300004FB00B585B0034602910192ADF80E3031
:105440000DF10E00019B029A0021FEF707FD0346B5
:10545000184605B05DF804FB82B001900091019BF5
:10546000002B02D0009B002B02D148F2046304E021
:10547000019B1A68009B1A600023184602B070470F
:1054800010B586B003904FF48063ADF8143000235C
:10549000ADF812304F4B1B78DBB283F00103DBB267
:1054A000002B02D048F2016391E0039B002B02D154
:1054B00048F204638BE012220021039814F044FDAB
:1054C000039B03221A800023ADF816307AE0BDF862
:1054D0001620414913469B0013449B000B4408339C
:1054E0001988BDF816203C4813469B0013449B00C6
:1054F00003440A331B880B44ADF81030BDF8162066
:10550000354913469B0013449B000B4404331B682E
:105510001846FEF705FA0346032B05D1039B1B88AB
:10552000013B9AB2039B1A80BDF816202A49134604
:105530009B0013449B000B440C331968039B5A884F
:105540008BB213449AB2039B5A80039B1989BDF80E
:105550001620214813469B0013449B0003440A3342
:105560001B880B449AB2039B1A81039B5A89BDF88E
:10557000103013449AB2039B5A81BDF81420BDF831
:105580001030D31AADF81230039B9B89BDF812205E
:105590009A4203D9039BBDF812209A81039B191DDF
:1055A000039B9A1D039B03F10E04039B1033BDF86C
:1055B000160000932346FEF7C3FCBDF816300133F6
:1055C000ADF81630BDF81630012B80D900231846EF
:1055D00006B010BD840800204409002086B0019068
:1055E0000091019B53E8011F8AB2D889024498892F
:1055F000824228BF121A1889824202BFBFF32F8F3E
:10560000002307E0C2EA010243E801200028E9D1B3
:105610004FF001038DF80F30059002910492029A29
:10562000009B1A609DF80F30DBB2184606B0704739
:1056300084B00190019951E8013FC3EA034341E876
:105640000132002AF7D10392029300BF04B07047E1
:1056500086B001900091019B53E8021F1FFAA1F24E
:10566000D888824202BFBFF32F8F00230DE0D88974
:1056700002449889824228BF121AC1EA024243E8D2
:1056800002200028E8D14FF001038DF80F3005907B
:1056900002910492029A009B1A609DF80F30DBB2CF
:1056A000184606B0704784B00190019951E8023F56
:1056B000C3EA234341E80232002AF7D1039202935E
:1056C00000BF04B0704786B00190019B53E8021FF1
:1056D000DA88B1EB314F4FF0000017BF89B242EAD0
:1056E000024241EA024204E05968B1EB314F08BF7F
:1056F000012043E802210029E8D18DF80F0005912F
:1057000004929DF80F30DBB2184606B0704784B0A3
:105710000390029111461A460B46ADF80630134627
:10572000ADF80430029B002B01D10E231FE0BDF821
:105730000630BDF80420B3FBF2F102FB01F29B1A24
:105740009BB2002B01D0092311E0039B029A1A603F
:10575000039B00225A60039B00229A60039BBDF8C2
:1057600006209A81039BBDF80420DA8100231846A5
:1057700004B0704700B585B001900198FFF7A3FF12
:1057800003468DF80F309DF80F30002B01D0002319
:1057900000E01123184605B05DF804FB00B585B0A4
:1057A00001900091009B19460198FFF717FF0346EF
:1057B000002B07D0019B1B68009A128813440393A7
:1057C000039B00E00023184605B05DF804FB00B51C
:1057D00083B001900091009B1A88009B5B889A42DD
:1057E00004D10198FFF724FF012300E000231846AD
:1057F00003B05DF804FB00B585B001900091009BFB
:1058000019460198FFF724FF0346002B07D0019BA0
:105810001B68009A528813440393039B00E0002303
:10582000184605B05DF804FB00B583B00190009107
:10583000009B1A88009B5B889A4204D10198FFF76D
:1058400032FF012300E00023184603B05DF804FB9B
:1058500000B585B001900091009B5B099B00019A07
:10586000D018009B03F01F03012202FA03F319462C
:1058700000F0D6F8039000BF05B05DF804FB00B55A
:1058800083B001900091009B5B099B00019AD018A6
:10589000009B03F01F03012202FA03F3194600F0F4
:1058A000A7F80246009B03F01F0322FA03F303F05C
:1058B0000103002B14BF01230023DBB2184603B001
:1058C0005DF804FB00B585B001900091009B5B0979
:1058D0009B00019AD018009B03F01F03012202FADB
:1058E00003F3DB43194600F0CBF8039000BF05B08B
:1058F0005DF804FB82B001900091009B5B099B0066
:10590000019A13441A68009B03F01F0322FA03F361
:1059100003F00103002B14BF01230023DBB2184660
:1059200002B0704700B58BB001900091002309933D
:105930003BE0099B9B00019A13441B68DB430693E1
:10594000069B93FAA3F30593059BB3FA83F308939D
:1059500023E0099B5B01089A13440793079A009B75
:105960009A421ED207990198FFF789FF034683F0F8
:105970000103DBB2002B01D0079B1EE0099B9B00BB
:10598000019A13441B68DB430493049B93FAA3F32B
:105990000393039BB3FA83F30893089B1F2BD8D977
:1059A00000E000BF099B01330993009B013B5B09A9
:1059B0000133099A9A42BCD3009B18460BB05DF89C
:1059C00004FB10B487B001900091019B009A53E84A
:1059D000004F104643E8000191F0000FF7D1059405
:1059E00004900391059B184607B05DF8044B70477F
:1059F00010B487B001900091019B009A53E8004FCA
:105A000044EA020043E8000191F0000FF6D105944A
:105A100004900391059B184607B05DF8044B70474E
:105A200010B487B001900091019B009A53E8004F99
:105A300044EA020043E8000191F0000FF6D105941A
:105A400004900391049B184607B05DF8044B70471F
:105A500010B487B001900091019B009A53E8004F69
:105A600004EA020043E8000191F0000FF6D105942A
:105A700004900391059B184607B05DF8044B7047EE
:105A800010B487B001900091019B009A53E8004F39
:105A900004EA020043E8000191F0000FF6D10594FA
:105AA00004900391049B184607B05DF8044B7047BF
:105AB00010B487B001900091019B009A53E8004F09
:105AC00004EB020043E8000191F0000FF6D10594C9
:105AD00004900391059B184607B05DF8044B70478E
:105AE00010B487B001900091019B009A53E8004FD9
:105AF00004EB020043E8000191F0000FF6D1059499
:105B000004900391049B184607B05DF8044B70475E
:105B100010B487B001900091019B009A53E8004FA8
:105B2000A4EB020043E8000191F0000FF6D10594C8
:105B300004900391049B184607B05DF8044B70472E
:105B400000B583B0019001210198FFF751FF034692
:105B5000184603B05DF804FB00B583B00190012145
:105B60000198FFF75DFF0346184603B05DF804FB9C
:105B700000B583B0019000210198FFF769FF03464B
:105B8000184603B05DF804FB00B583B001900B46E6
:105B90008DF80330019B002B03D10849E82007F062
:105BA0006DFA019BDA689DF803300199098A01FBBF
:105BB00003F31344184603B05DF804FB6C0C0200B9
:105BC00000B583B001900091019B002B03D10849DF
:105BD000F52007F053FA009B019AD2689B1A019AAC
:105BE000128AB3FBF2F3DBB2184603B05DF804FB94
:105BF0006C0C020000B585B00190019B002B01D117
:105C00000E234CE0019B1B68002B03D12649FF208B
:105C100007F034FA019B5B68002B04D122494FF452
:105C2000807007F02BFA019B9B68002B04D11E4962
:105C300040F2011007F022FA019BDB68002B04D12F
:105C400019494FF4817007F019FA019B1B8A002B48
:105C500004D1154940F2031007F010FA019B9A682D
:105C6000019B5B68D31A8DF80F30019B1B68019A6A
:105C700052681A6007E0019B1A681368591C11608A
:105C80009DF80F201A709DF80F305A1E8DF80F20C6
:105C9000002BF0D1019B1B6800221A7100231846CB
:105CA00005B05DF804FB00BF6C0C020000B585B0C8
:105CB0000190019B002B04D11F494FF4927007F013
:105CC000DDF90023039300238DF80A300DF10A0358
:105CD0001846FDF7FFF8019B1B681A68019B5B687B
:105CE0009A421FD9019B1B681A68013A1A601B6807
:105CF0001B7819460198FFF747FF0390019B9A68AC
:105D0000019B1B681B68D31A8DF80B30019B1B6825
:105D10001B799DF80B209A4204D9019B1B689DF8C2
:105D20000B201A719DF80A301846FDF7E9F8039B1D
:105D3000184605B05DF804FB6C0C020010B584B089
:105D400001900091019B002B04D1154940F24710AE
:105D500007F094F9009B002B04D111494FF4A47073
:105D600007F08CF9009B039300238DF80B300DF1A5
:105D70000B031846FDF7AEF8019B1B681C68621CFC
:105D80001A6003990198FFF71BFF034623709DF8E3
:105D90000B301846FDF7B4F800BF04B010BD00BFCB
:105DA0006C0C020000B583B00190019B002B03D165
:105DB0000C49312007F062F9019B9B68002B0CD045
:105DC000019B5B69019A1069019A1168019A9268B6
:105DD0009847019B00229A6000E000BF03B05DF885
:105DE00004FB00BFE80C02000EB400B584B00190C3
:105DF000019B002B03D11849422007F03FF9019B7A
:105E00005B69002B03D11449432007F037F9019B4C
:105E10001B68002B03D11049442007F02FF9019B88
:105E20005B68002B03D10C49452007F027F9059B3F
:105E3000002B0AD00023039306AB039303AB1A464F
:105E40000599019800F0B8F900E000BF04B05DF8D2
:105E500004EB03B0704700BFE80C020000B583B04C
:105E600001900B468DF803309DF803300A2B03D1C7
:105E70000D210198FFF7F2FF019B1A68019B9B68B7
:105E8000581C0199886013449DF803201A70019BE7
:105E90009A68019B5B689A4202D30198FFF782FFE0
:105EA00000BF03B05DF804FB00B587B0039002911A
:105EB0000192009300230593009B03F00103002B44
:105EC00024D00BE0029B01330293059B0133059321
:105ED0009DF8133019460398FFF7C0FF029B1B780B
:105EE0008DF813309DF81330002BEBD106E0019BA9
:105EF000013B019320210398FFF7B0FF019A059B16
:105F00009A422ED9019B002BF1D12AE0029B002B53
:105F10000BD0029814F072F8059006E0019B013B4B
:105F2000019320210398FFF799FF019A059B9A425C
:105F30000FD9019B002BF1D10BE0029B013302939F
:105F4000059B013305939DF8133019460398FFF71D
:105F500085FF029B1B788DF813309DF81330002BC2
:105F6000EBD100BF07B05DF804FB000000B589B0BD
:105F70000390029101920093029B079301230693E1
:105F800007E0079A019BB2FBF3F30793069B0133EB
:105F90000693079A019B9A42F3D2009A069B9A4273
:105FA00001D9009B06930B9B03F00103002B22D128
:105FB0000A9B002B1FD00B9B03F00203002B06D083
:105FC000009B002B03D130238DF8173002E02023F3
:105FD0008DF8173008E00A9B013B0A939DF81730B3
:105FE00019460398FFF73AFF0A9B002B03D0069A45
:105FF0000A9B9A42EFD301230793009B012B03D9FD
:10600000009B013B009309E0029A079BB2FBF3F36C
:106010000493049A019B9A4200D205E0079B019ADF
:1060200002FB03F30793E8E7029A079BB2FBF3F343
:106030000493049B079A02FB03F3029AD31A029378
:10604000154A049B13441B7819460398FFF706FF73
:10605000079A019BB2FBF3F30793079B002BE3D155
:106060000B9B03F00103002B11D00A9B002B0ED0D9
:1060700006E00A9B013B0A9320210398FFF7EEFEFE
:106080000A9B002B03D0069A0A9B9A42F1D300BFC9
:1060900009B05DF804FB00BFD40D020000B589B063
:1060A0000590049103920293049B002BB8BF5B42BE
:1060B00006930123079307E0039B069A92FBF3F3F1
:1060C0000693079B01330793039B069A9A42F3DAE0
:1060D000029A079B9A4201D9029B07930A9B002BC5
:1060E0000AD0049B002B04DB0B9B03F00403002B62
:1060F00002D00A9B013B0A930B9B03F00203002B87
:1061000002D0029B002B16D00B9B03F00103002B47
:1061100011D10A9B002B0ED006E00A9B013B0A938B
:1061200020210598FFF79AFE0A9B002B03D0079ABF
:106130000A9B9A42F1D3049B002B07DA049B5B4233
:1061400004932D210598FFF789FE08E00B9B03F0CF
:106150000403002B03D02B210598FFF77FFE0B9B38
:1061600003F00203002B19D00B9B03F00103002B5B
:1061700014D1029B002B11D10A9B002B0ED006E0FC
:106180000A9B013B0A9330210598FFF767FE0A9BA3
:10619000002B03D0079A0A9B9A42F1D304990B9BD8
:1061A00001930A9B0093029B039A0598FFF7DEFE7A
:1061B00000BF09B05DF804FB00B58FB005900491F5
:1061C0000392059B002B04D1C84940F2522006F0EF
:1061D00055FF059B5B69002B04D1C4494FF4157032
:1061E00006F04CFF059B1B68002B04D1BF4940F211
:1061F000552006F043FF059B5B68002B04D1BB498B
:1062000040F2562006F03AFF049B002B00F0ED818F
:10621000049B1B788DF83730049B013304939DF861
:106220003730002B00F0D8819DF83730252B40F017
:10623000C78100230A9301230C93049B1B788DF8DC
:1062400037309DF837302D2B04D0302B0AD02B2B34
:1062500010D017E00A9B43F001030A93049B01331B
:10626000049312E00A9B43F002030A93049B013358
:1062700004930AE00A9B43F004030A93049B01334E
:10628000049302E000230C9300BF0C9B002BD4D19D
:10629000002309939DF837302A2B0CD1039B1B68F0
:1062A000191D039A11601B68099A13440993049BF2
:1062B000013304931AE0049B1B788DF837309DF866
:1062C00037302F2B12D99DF83730392B0ED8049B3D
:1062D00001330493099A13469B0013445B001A464A
:1062E0009DF837301344303B0993D3E700230B93D9
:1062F000049B1B788DF837309DF837302E2B1DD13D
:10630000049B01330493049B1B788DF837309DF870
:1063100037302F2B12D99DF83730392B0ED8049BEC
:10632000013304930B9A13469B0013445B001A46F7
:106330009DF837301344303B0B93E4E7049B1B7804
:106340008DF837309DF837306C2B03D09DF83730FF
:10635000682B07D1049B01330493049B1B788DF8B1
:106360003730EFE79DF83730253B532B00F2238180
:1063700001A252F823F000BFAD650000B765000030
:10638000B7650000B7650000B7650000B76500009D
:10639000B7650000B7650000B7650000B76500008D
:1063A000B7650000B7650000B7650000B76500007D
:1063B000B7650000B7650000B7650000B76500006D
:1063C000B7650000B7650000B7650000B76500005D
:1063D000B7650000B7650000B7650000B76500004D
:1063E000B7650000B7650000B7650000B76500003D
:1063F000B7650000B7650000B7650000B76500002D
:10640000B7650000B7650000B7650000B76500001C
:10641000B7650000B7650000B7650000B76500000C
:10642000B7650000B7650000B7650000B7650000FC
:10643000B7650000B7650000B7650000B7650000EC
:10644000B765000039650000B7650000B76500005A
:10645000B7650000B7650000B7650000B7650000CC
:10646000B7650000B7650000B7650000B7650000BC
:10647000C9640000F1640000B7650000B765000062
:10648000B7650000B7650000F1640000B765000063
:10649000B7650000B7650000B7650000B76500008C
:1064A000B765000079650000B7650000B7650000BA
:1064B0005D650000B765000015650000B765000068
:1064C000B765000039650000039B1B68191D039A1E
:1064D00011601B680C930C9B8DF823309DF82330C2
:1064E00019460598FFF7BAFC66E000BF5C0D020094
:1064F000039B1B68191D039A11601B680C930A9B70
:106500000193099B00930B9B0A220C990598FFF7B6
:10651000C5FD51E0039B1B68191D039A11601B68A0
:106520000C930C990A9B0193099B00930B9B0A22E5
:106530000598FFF71BFD3FE0039B1B68191D039A9D
:1065400011601B680C930C990A9B0193099B0093A3
:106550000B9B10220598FFF709FD2DE0039B1B689C
:10656000191D039A11601B6807930A9B099A0799E2
:106570000598FFF799FC1FE0039B1B68191D039A00
:1065800011601B680C9330210598FFF767FC782198
:106590000598FFF763FC0C990023019308230093EF
:1065A000082310220598FFF7E1FC05E02521059856
:1065B000FFF754FC00E000BF049B0133049305E0A7
:1065C0009DF8373019460598FFF748FC049B1B7867
:1065D000002B7FF41DAE00E000BF059B1B7B002B52
:1065E00004D00598FFF7DEFB00E000BF0FB05DF8B8
:1065F00004FB00BF00B587B0059004910392059B92
:10660000002B10D1194A1A4BD31ADB081B0443F094
:106610000100184A18490E2300930B46174905F04C
:1066200000FD0E231DE0049B002B10D10F4A104BE0
:10663000D31ADB081B0443F00100114A0E490E2354
:1066400000930B460D4905F0ECFC0E2309E0059B79
:10665000049A1A60059B1B681B6803990598984764
:106660000346184607B05DF804FB00BFDC060200D5
:106670004C060200F40D0200980F0200FC0D02000F
:10668000280E020010B586B0059004910392029383
:10669000059B002B10D1604A604BD31ADB081B040A
:1066A00043F001005E4A5F490E2300930B465E49AA
:1066B00005F0B7FC0E23ABE0039B002B10D1564A2C
:1066C000564BD31ADB081B0443F00100574A5549C7
:1066D0000E2300930B46544905F0A3FC0E2397E0CC
:1066E000059B1B68002B10D14B4A4C4BD31ADB087F
:1066F0001B0443F001004E4A4A49082300930B460D
:10670000494905F08EFC082382E0029B002B10D142
:10671000414A424BD31ADB081B0443F00100454AAF
:106720004049092300930B463F4905F07AFC0923B1
:106730006EE0059B5B685A68029BB3FBF2F102FBBB
:1067400001F29B1A002B10D0334A344BD31ADB08CA
:106750001B0443F00100384A3249092300930B46D9
:10676000314905F05EFC092352E0049800F062F91B
:106770000346002B10D1284A284BD31ADB081B04F0
:1067800043F001002D4A2749102300930B46264968
:1067900005F047FC10233BE0039B184600F04AF944
:1067A0000346002B10D11C4A1C4BD31ADB081B04D8
:1067B00043F00100224A1B49102300930B461A495B
:1067C00005F02FFC102323E0029A0499059800F0AD
:1067D00017F90346002B10D10F4A104BD31ADB08D0
:1067E0001B0443F00100174A0E49102300930B4687
:1067F0000D4905F016FC10230AE0059B1B68DC68B8
:10680000089B0093029B039A04990598A0470346AE
:10681000184606B010BD00BFDC0602004C060200A0
:10682000F40D0200AC0F0200FC0D0200880E020005
:10683000300E0200440E0200900E0200BC0E020058
:10684000D40E0200F80E020010B586B00590049137
:1068500003920293059B002B10D13E4A3E4BD31A64
:10686000DB081B0443F001003C4A3D490E23009322
:106870000B463C4905F0D5FB0E2368E0059B1B68E1
:10688000002B10D1334A344BD31ADB081B0443F0DE
:106890000100354A3249082300930B46314905F07F
:1068A000C0FB082353E0039B002B10D1294A2A4B3D
:1068B000D31ADB081B0443F001002C4A28490923A2
:1068C00000930B46274905F0ACFB09233FE00499F0
:1068D000059800F0BCF80346002B10D11D4A1E4B52
:1068E000D31ADB081B0443F00100214A1C49102382
:1068F00000930B461B4905F094FB102327E0059BF2
:106900005B681B68039A02FB03F31A460499059817
:1069100000F076F80346002B10D10E4A0E4BD31A26
:10692000DB081B0443F00100124A0D4910230093B9
:106930000B460C4905F075FB102308E0059B1B680E
:106940001C69029B039A04990598A04703461846C0
:1069500006B010BDDC0602004C060200F40D020079
:10696000C00F0200FC0D0200300E0200440E0200B7
:10697000200F0200480F020000B585B00190019B76
:10698000002B03D0019B1B68002B28D1002303930D
:1069900019E0039A13469B0013449B001A46154BBB
:1069A00013440193019B1B68002B09D0019B1B68BA
:1069B000DB69019898470346002B01D0012314E0BE
:1069C000039B013303930C4A0A4BD31A0B4AA2FBD5
:1069D00003231B09039A9A42DBD3002305E0019BA2
:1069E0001B68DB69019898470346184605B05DF8B7
:1069F00004FB00BF080000201C000020CDCCCCCC44
:106A000084B0039002910192039BDB68029A9A4240
:106A100009D3029A019B13445A1E039B1B699A4295
:106A200001D8012300E0002303F00103DBB2184684
:106A300004B0704782B00190019B03F00303002B68
:106A40000CBF01230023DBB2184602B0704782B0AE
:106A500001900091019B5B681B685A1E009B1340CC
:106A6000002B0CBF01230023DBB2184602B0704795
:106A700029DF704700BF184628DF704700BF18465F
:106A800000B589B001900091019B1B689B68002BA9
:106A900035D002AB00221A605A609A60DA601A613F
:106AA0005A61009B0393019B9B680793019B1B7991
:106AB000002B02D0012B0DD01AE001238DF80830F5
:106AC000019B1B690493019BDB680593019B5B6938
:106AD00006930DE002238DF80830019BDB684FF42C
