:020000022000DC
:1070000000000420757302005D73020065B3020086
:1070100061730200637302006573020000000000E8
:107020000000000000000000000000006773020084
:1070300069730200000000006B7302006D730200B0
:10704000FD0703006F7302000D0803006F73020059
:107050006F7302006F730200910403006F730200EC
:107060006F7302006F7302006F7302006F73020090
:107070006F730200DD0903006F7302006F7302007B
:107080006F73020059A302006F7302006F73020056
:107090006F7302006F730200ADA803006F730200EC
:1070A0006F7302006F7302006F7302006F73020050
:1070B0006F7302006F730200000000000000000008
:1070C0006F7302006F7302006F7302006F73020030
:1070D0006F7302006F7302006F7302000D290300CB
:1070E0006F7302006F7302001DC6030000000000F2
:1070F000000000006F730200000000006F730200C8
:10710000000000000000000000000000000000007F
:10711000000000000000000000000000000000006F
:10712000000000000000000000000000000000005F
:10713000000000000000000000000000000000004F
:10714000000000000000000000000000000000003F
:10715000000000000000000000000000000000002F
:10716000000000000000000000000000000000001F
:10717000000000000000000000000000000000000F
:1071800000000000000000000000000000000000FF
:1071900000000000000000000000000000000000EF
:1071A00000000000000000000000000000000000DF
:1071B00000000000000000000000000000000000CF
:1071C00000000000000000000000000000000000BF
:1071D00000000000000000000000000000000000AF
:1071E000000000000000000000000000000000009F
:1071F000000000000000000000000000000000008F
:10720000354936480A1A02D0072291438D4634493F
:1072100034480A1A06D00722914381F309880222D2
:1072200082F3148830483149314A00F044F831483B
:107230003149324A00F03FF831483249324A00F0D1
:107240003AF832483249334A00F035F83248334987
:10725000334A00F030F833483349344A00F02BF811
:1072600033483449344A00F026F83448344900227F
:1072700000F02CF833483449002200F027F8334856
:107280003349091A082902DB002202604160314AB1
:1072900090471F481F49884205D00268043003B454
:1072A000904703BCF7E700208646EC46002000210B
:1072B000294A9047FEE7884207D0521A05D0037842
:1072C00001300B700131013AF9D17047884202D088
:1072D00002700130FAE770470000042000E003204C
:1072E00000000420000004201C3A0400702D00203F
:1072F00008350020D0730200D0730200BCCD03001B
:107300001C3A0400702D0020702D00207CD4030056
:107310007CD403007CD403007CD403007CD4030021
:107320007CD403007CD403007CD403001C3A04000A
:10733000B44104000835002008350020083500203D
:1073400048740020487400204C7400204C740020C5
:107350004C9400209D730200154E0300FEE7FEE7EB
:10736000FEE7FEE7FEE7FEE7FEE7FEE7FEE7FEE7F5
:1073700000F002B8FFF7FCBF0F484FF00701884349
:1073800085460E4880470E48016841F4700101604F
:10739000BFF34F8FBFF36F8FFFF732BF09480A4922
:1073A0000A4A884207D0521A05D0037801300B7080
:1073B0000131013AF9D17047000004200D56030055
:1073C00088ED00E034D20300282B0020702D00202F
:1073D000004870474074002008B5012202210020B7
:1073E00000F0B8F908B1072810D1072202210120C6
:1073F00000F0B0F908B1072808D100210A22084698
:1074000000F0A8F910B1072808BF002008BD00004F
:107410000388102B10B502D0112B1ED010BD1A4CB2
:107420002168B1B90122084600F094F908B1072893
:1074300024D107220221012000F08CF908B107288D
:107440001CD104220221002000F084F908B1072891
:1074500014D1236801332360E0E70B4A1368013B32
:107460001360002BDAD1FFF7B7FF0028D6D0074B07
:107470001B68002BD2D0BDE810401847034B1B6897
:10748000002BE6D09847E4E70C35002008350020B3
:1074900008B5002000F078F908B1062806D10120CF
:1074A00000F072F910B1062808BF002008BD0000E6
:1074B00008B5094B1B7853B100200BF0C9FC012023
:1074C0000BF0C6FC0320BDE808400BF0C1BCBDE8D2
:1074D00008400BF0D7BC00BF10350020F8B57B4C3E
:1074E000237805461BB100232370FFF7E1FF172D1A
:1074F00000F28880DFE805F00C17174354657680AA
:10750000888D888D959A9A9A9A9AC4C9D1D9E4E4BB
:10751000FFF7CEFF6E4800F01BFB6E4B00220446C7
:107520001A702046F8BD00200BF05CFCF8B100207A
:107530000BF08EFC022D0CBF4FF4E1614FF47A6129
:10754000644B1D704FF400404FF47A740025E0FB4B
:1075500001454FF4FA6200232046294613F0AAFCA5
:10756000002201465A48BDE8F84000F0CFBA0BF0BF
:1075700055FC022D0CBFC8214FF4C871E0E7002074
:107580000BF030FC40B100200BF062FC4FF448716E
:10759000504B03221A70D5E70BF040FCC821F7E7E7
:1075A00000200BF01FFC38B100200BF051FC4FF411
:1075B0007A61484B0422EDE70BF030FC4FF4C871C0
:1075C000F7E700200BF00EFC48B100200BF040FC68
:1075D000404B05221A7040F6CD410022C2E70BF065
:1075E0001DFCF5E700200BF06BFC3A4B06221A70ED
:1075F000002240F26661B5E700200BF00FFC354B2E
:1076000007221A7000248CE7012020700BF058FC30
:10761000EEE7012020700BF053FC00224FF40051E4
:10762000A0E70BF03EFC2B4B0C22EAE72A482B4E3E
:1076300000F08EFAD5F1110504461CD0D8B9012D01
:1076400013D0C8235D434FF400474FF47A700021F4
:107650004FF4FA620023C7FB050113F02BFC22460E
:1076600001461D4800F052FA044602200BF0D6FBFA
:107670000123337055E702200BF0EAFB0023F8E703
:10768000FFF716FF134B1222BBE7FFF711FF002095
:107690000BF0C4FB0F4B1322B3E7FFF709FF0120E8
:1076A0000BF0BCFB0B4B1422ABE7FFF701FF0020F4
:1076B0000BF0B4FB01200BF0B1FB064B1522A0E749
:1076C0000BF0EFFB034B1D709CE700BF183500204B
:1076D000982D002019350020702D00201035002035
:1076E000002838B54FF0000014BF032500250BF02B
:1076F00007FC2F28044617D90E4940F2CD100DF093
:1077000057FB0D4804F01F0400EB8400D0F800374D
:1077100023F44033C0F80037D0F8003743EA05437C
:10772000C0F80037002038BD1F28EAD84FF0A0402D
:10773000EAE700BFCAD4030000030050044B1B68F3
:1077400013F0010301D0FFF7C9BE1846704700BF10
:107750001435002048B9012A02D1012907D0024678
:10776000012905D051B1022905D0072070470E220A
:10777000044B1A707047034B5A707047014B9A7054
:10778000704700BF1135002010B90120FFF7A8BFD6
:107790000620704782B001238DF807309DF807302E
:1077A000114B1860596044F2010188429A6012D06E
:1077B00044F20201884206D1DA60DA6812889A61DE
:1077C000DA685268DA6172B69DF80730002BFBD197
:1077D00062B602B070471A611A6992685A611A69F2
:1077E00012689A611A69ECE71C35002000B583B075
:1077F00002900091019244F2010071466A4600F045
:1078000003F803B000BD00002DE9F043064685B043
:107810000F46154672B60CF0A9FD0CF073FB00285C
:10782000FBD1DFF8008141F201029642B8F8023044
:107830003DD00ED8012E22D063B3314B31483249AE
:10784000C01AC00800043A4640F001000CF010FDD8
:1078500020E044F20102964232D044F20202964203
:10786000EAD1BBB1264B27486A682849C01AC0082C
:1078700000042B8840F001000CF003FD0AE04BB13E
:1078800020481F4B2249C01AC008000440F00100E4
:107890000CF0EAFC1F4B1B68DB0700D500BE2A4634
:1078A0003946304605B0BDE8F043FFF773BF002B03
:1078B000F0D01448124B1849C01AC0080004E5E77C
:1078C000002BE7D00E4BD5F808900E4C4846E41A32
:1078D000E40808F04BF92B680297019324046B68C5
:1078E000009344F0010403464A460C4920460CF03C
:1078F000ECFCB8F80230002BCCD009492046C7E791
:10790000F4CE03002CCF0300C1D503006DD50300D6
:107910002ED50300F0ED00E04BD5030087D5030022
:10792000ADD50300442B0020D0E90223D1E90201A8
:10793000994208BF90422CBF0120002070470000F0
:107940002DE900480C4802F0F2FC0C4BD3E900236F
:1079500012EB000B43F1000C094BD3E900239C45CB
:1079600008BF93455846614603D21BF180704CF125
:107970000001BDE8008800BFD42D00204035002064
:10798000A835002037B505460C46124801A903F07A
:10799000E2FDE8B14460057001A90E4803F005FE60
:1079A000044628B10C4802F0C7FC002003B030BDEB
:1079B0000A4B5B88012B09D909480A4B0A49C01AAE
:1079C000C008000440F002000CF04EFC2046EDE739
:1079D0000420EBE7C02D0020D42D00204C2B0020EC
:1079E0003CCF0300F4CE030014D7030043692DE914
:1079F000304804461BB91B49A2200DF0D9F91A4B97
:107A00001B781BB900252846BDE8308894F8203043
:107A100003F0FF05002BF5D0FFF792FFD4E9022316
:107A2000994208BF904217D323690BB984F82030DC
:107A3000D4E90530984721690029E3D094F8203033
:107A400003F0FF05002BDDD0D4E9022312EB010B7C
:107A500043F1000CC4E902BC2146044808F014F8C4
:107A6000D1E700BF9AD6030048350020E0D50300D7
:107A700013B5114B1149186801900823582210487A
:107A800003F034FD044698B90E4A0F4801A902F0EC
:107A9000DFFA044660B901210B4802F035FC0123EE
:107AA0000A4A0948194602F083FB094B01221A7061
:107AB000204602B010BD00BFDAD503004C350020CF
:107AC000C02D0020857B0200D42D0020FFFF7F0009
:107AD0004835002070B50C461546064620B90A49BF
:107AE00040F22E200DF064F935B940F22F200649FE
:107AF0000DF05EF9072070BD621E33685442544198
:107B00005D611C610020F6E79AD6030070B50D4652
:107B10001646044620B90D4940F23E200DF048F9C2
:107B200094F8203083B9A661FFF70AFF421941F1AA
:107B30000003C4E90223236903B125612146002023
:107B4000BDE87040FFF71EBF002070BD9AD603004D
:107B500010B5044620B907494FF415700DF028F907
:107B6000002384F8203021460120BDE81040FFF7B3
:107B700009BF00BF9AD60300014802F0D8BB00BF7E
:107B8000D42D00202DE9F04F85B0804602F0C0FBD7
:107B900040B17E4AD2E9003113F1807341F1000116
:107BA000C2E900310021404602F0BCFB784C794B21
:107BB000E41AE4082404C0B1774D2B68002B78D078
:107BC000404602F0B4FB2B689B68C01A20F07F404F
:107BD000B0F5960F04D3714940F22B100DF0E8F880
:107BE0002868FFF703FF00232B600121404602F0C5
:107BF00099FB20B1FFF7A4FE694BC3E9000103A97B
:107C00006848DFF894A1684DDFF8A4B103F0DDFC0B
:107C100044F00309002856D1DFF88CA15E4DDFF84F
:107C2000A8B144F00104504607F05AFF2B68002821
:107C300000F09D8083B12B68D0E90201D3E90223D3
:107C4000994208BF904231D22B6893F820301BB183
:107C50002968504607F018FF504607F031FF836847
:107C6000C268019300928146FFF76AFE019B009A69
:107C70001E1A62EB0107012E77F100035FDB4B4A0E
:107C8000964259D9FFF778FF484A02444FF49603C9
:107C90000021584602F0BAFA0246002859D12B6852
:107CA00013B9404602F068FAC5F8009005B0BDE887
:107CB000F08F3F4B5B88012B97D93E4944F002007F
:107CC0000CF0D2FA91E70378012B1ED053B1022BAE
:107CD00012D1284607F0F4FE00284ED0002380F889
:107CE0002030F6E7416891F820302BB9012381F864
:107CF0002030284607F0C8FE03A92A4803F090FC6C
:107D000003A9284803F061FC84E74168DAF80030F1
:107D1000994203D10023CAF80030EDE7284607F066
:107D2000EBFE0028E8D1BBF80230022BE4D922494F
:107D300048460CF099FADFE7D9F80820A6E70021B9
:107D4000584602F0E9FA4846FFF750FE00232B6040
:107D500069E70D28F7D0164B5B881BB11749204601
:107D60000CF086FA0D49F5200DF022F8EEE7002B15
:107D70009CD1404602F00EFA98E7114B01221A708E
:107D8000BBF80230022BB7D90E49D1E740350020AD
:107D90003CCF0300F4CE0300B03500209AD6030098
:107DA000A8350020C02D0020E0D50300FFFFB4005F
:107DB0004C2B0020ECD5030021D6030069D603002C
:107DC0004835002057D60300D42D0020024B5B68B5
:107DD00003B11847704700BFB4350020024B01467D
:107DE0005A681868104700BF083600200378052B32
:107DF0000CD1084AD2F88434D2F8802412F0FF0F54
:107E000004D1054ADBB2052B08BF1046034B1B68A3
:107E1000184700BF00700240C8D80300B4350020E6
:107E2000FFF7E4BF38B50D46044620B9064940F2D5
:107E300043100CF0BDFF6378AB4283BFA0784019BC
:107E40000019002038BD00BF46D7030038B50D46E5
:107E5000044620B906494FF488700CF0A9FF237A34
:107E6000AB4283BF093405EB45056019002038BDDE
:107E700046D7030070B50D46044620B90D4940F2BF
:107E80000F100CF095FF636823B90A494FF488700E
:107E90000CF08EFF63681B6823B9064940F211108D
:107EA0000CF086FF6368294620461B68BDE87040D9
:107EB000184700BF3FD8030008B520B1044940F27D
:107EC0007B200CF075FF0348BDE80840FFF78EBF2C
:107ED0003FD80300CCD8030010B5044620B90449AC
:107EE00040F243200CF064FF2368186810BD00BF07
:107EF000C8D7030000F00F0310F0800F10B51CB2BC
:107F00000AD0082B04D909494FF4CC700CF050FF6B
:107F1000074800EBC40010BD082B04D903494FF4F7
:107F2000CF700CF045FF0348F3E700BF3FD80300D4
:107F3000C03500200836002070B50D460646FFF714
:107F4000D9FF044605604DB9730604D105494FF4C5
:107F5000E1700CF02DFF0023636070BD6B681B683F
:107F6000FAE700BF3FD8030001280AD030B1022849
:107F700009D0064940F262200CF01ABF0448FFF70E
:107F800035BF0448FBE70448F9E700BF3FD80300CA
:107F9000BCD80300C0D80300C4D8030038B5831E82
:107FA000DBB2062B98BF1A4A1A4C98BFD25C2378D2
:107FB000A3F10203DBB288BF0022062B9ABF14494B
:107FC000CB5C00239342054603D0B2B1124807F0C0
:107FD000D1FE022D14D0A5F108004242424123787F
:107FE000022B0FD0A3F108014B424B41934202D028
:107FF00052B109F061FF257038BD07F005FFE8E7D1
:108000000122ECE70123F1E709F04CFFF3E700BFA1
:108010003FD7030059360020DC2D00202DE9F04F1A
:1080200087B00026054689469246984602966B68B8
:1080300000225C682946012302A8A04740B98DF8B8
:108040000600049004460746BE4203D805202AE0F5
:108050000136ECE76B680DF10602D3F804B029464F
:10806000012304A8D8476B680DF10702D3F804B0C8
:108070002946012304A8D8479DF807304B459DF8B1
:10808000063015D1544511D1109A136088F800308C
:1080900088F801906A68023B5468294608F1020298
:1080A00004A8A047002007B0BDE8F08F0134E4B277
:1080B0006A68023BD2F804B02946002204A8D847D7
:1080C0009DF806301F44BFE72DE9F341054607F050
:1080D00085FD20B92E4940F231300CF069FE2D4863
:1080E00009F02AFF0446002836D12B4B18702B4B81
:1080F00018602B4B0146186048222A4813F09CFA5E
:1081000048222146284813F097FA284B45BB284AB5
:108110001D72C3E90025002007F054FF30B1852807
:1081200004D01B4A40F25F31FFF760FBDFF8848028
:10813000002421464046FFF789FE651CEDB2074644
:1081400018BB0B2301A91B488DF80430FFF792FEE2
:10815000044608B109F034FD204602B0BDE8F081C4
:1081600095E8070083E807000028D4D1104A1A6078
:10817000D1E741460078FFF7DFFEF1B23846FFF75E
:1081800051FE01360028F4D1D3E700262C46F4E74F
:108190003FD80300217E02005936002050360020CF
:1081A00054360020C035002008360020B4350020A9
:1081B000C5850200D0D9030010B509F01BFE10B927
:1081C0000823184610BD09F01DFE04460028F7D10B
:1081D000064807F033FF03460028F2D0044A40F275
:1081E000C231FFF703FB2346EBE700BFB8D803001B
:1081F0003FD8030009F0FABC08B509F00DFE20B124
:10820000044940F2D1300CF0D3FDBDE808400AF03B
:1082100087BC00BF3FD8030008B509F0F3FD20B9C3
:108220000A494FF476700CF0C3FD4FF08043D3F849
:108230003824920704D50648BDE80840FFF7D6BDAC
:10824000D3F83824D107F2D408BD00BF3FD80300CB
:10825000CDD8030007B5822301A88DF80430FFF7BD
:10826000C5FD03B05DF804FB2DE9F341044620B9D8
:108270003B4940F26A500CF09BFD636823B93849D2
:1082800040F26B500CF094FD63681B6823B93449CD
:1082900040F26C500CF08CFD23681B6823B1304910
:1082A00040F26D500CF084FD09F0ACFD30B12C496A
:1082B00040F271500CF07CFD002617E009F09AFDA9
:1082C0000028F9D1F3E70078FFF714FE036808F1FE
:1082D000010823B1112026E04FF000083E465FFA66
:1082E00088F12846FFF79EFD0028ECD13146204654
:1082F000FFF7ACFD771CFFB205460028ECD12946FC
:108300002046FFF7A3FD6E1CF6B28046D0B9154D8E
:10831000134E2B68CBB92C600B2301A920468DF896
:108320000430FFF7A7FD02B0BDE8F08121460078D8
:10833000FFF702FEF9B24046FFF774FD013700284F
:10834000F4D1DCE700273546F4E7A34204D13146F7
:1083500040F297500CF02CFD2B681D68D9E700BF48
:108360003FD8030050360020024B1878003018BF69
:108370000120704758360020030710B5044604D486
:108380000AF0FCF820460AF0A5FC2046BDE81040A3
:108390000AF04ABC0AF012BC014B1868704700BFD3
:1083A000503600202DE9F8430E4B1C6880460F46DE
:1083B000ACB194F808900026F5B2A94504D820463F
:1083C000FFF78AFD0446F3E729462046FFF73EFD06
:1083D0000378434506F10106EED107B13D70204612
:1083E000BDE8F883503600201146FFF743BD00F08A
:1083F0000F03082B10B50C4608D8FFF77BFD00686B
:1084000020B12146BDE81040FFF734BD102010BD5B
:1084100038B5074B1C68054604B938BD29462046C7
:10842000FFF728FD2046FFF757FD0446F4E700BF9D
:108430005036002038B5084B1C6805460CB906209C
:1084400038BD29462046FFF715FD0628F8D12046FD
:10845000FFF742FD0446F1E75036002038B50446E8
:108460000D4609F0B4FD48B1054B1B78022B05D130
:1084700029462046BDE8384009F0B6BD082038BD81
:108480005936002038B504460D4609F0A0FD48B124
:10849000054B1B78022B05D129462046BDE8384004
:1084A00009F032BE082038BD5936002043689B6869
:1084B00070B505460E4614469BB92B7AB34204D2DA
:1084C0000F4940F2F9200CF073FCB4B9314628464C
:1084D000FFF7BCFC46780546E1B2B14205D3002067
:1084E00002E098470628E8D070BD2846FFF79AFCBE
:1084F0000078FFF741FF0134EEE70720F4E700BF03
:108500003FD803004368DB6870B504460D4603B1ED
:108510009847237AAB4204D20B494FF446700CF0D3
:1085200047FC29462046FFF791FC46780546002483
:10853000E1B28E4200D870BD2846FFF773FC007888
:108540000AF03CFB0134F3E73FD8030043681B69A2
:1085500003B1184718467047F8B50D4B0D4E1C680F
:1085600004B9F8BD277A0025E9B28F4204D8204625
:10857000FFF7B2FC0446F3E700222046FFF796FF20
:1085800020B1314640F26A700CF012FC0135EBE785
:10859000503600203FD80300094B70B51C6804B961
:1085A00070BD267A0025E9B28E42204603D8FFF737
:1085B00093FC0446F3E7FFF7A5FF0135F3E700BF9F
:1085C0005036002038B58C4B1B68054623B98B49C3
:1085D00040F225400CF0ECFB01F0C6FB052804D866
:1085E000864940F22C400CF0E3FB2C78092C20D07B
:1085F00023D8032C00F0C08012D8012C00F0AA80F0
:1086000040F291800320FFF7C9FC0220FFF7DEFB58
:108610002846FFF7FDFE2846BDE83840FFF7DEBBE1
:10862000052CF8D0C0F0B780062C00F0C380082CD1
:1086300013D12046FFF7CAFB99E0812C14D005D84E
:108640000F2CF6D0802C4AD00A2CF1E7832C52D084
:1086500027D3842C58D0852CDDD0684940F2265091
:10866000BDE838400CF0A4BB6548FFF7B7FB644891
:10867000FFF7CEFE0D20FFF7A9FBFFF78DFF00F0FF
:10868000FAFF604B1B6853B95F4B187A00F001008A
:1086900009F078FB0120BDE83840FFF77FBC0120DE
:1086A000F4E7FFF779FF0AF011FA0020FFF776FCF4
:1086B0005648FFF7ADFE5548FFF790FB0E20FFF739
:1086C00085FB534B1B78023BDBB2062B3AD8514A51
:1086D000D35C002B36D0BDE8384007F095BB4C4B3F
:1086E0001B78062B05D0072B01D0052B2AD10220A1
:1086F000D1E70820CFE7464B1B78032B22D10AF0A5
:1087000031FAF8B10420C6E7414B1B78032B05D1A1
:108710000AF028FA10B10420FFF740FC09F08AFBA8
:1087200080B10620B7E73A4B1B78032B01D0082B0A
:1087300002D13948FFF746FF0020FFF747FB314BD6
:108740001C6804B938BD20462946FFF793FB23680F
:108750005C68F6E7FFF720FF00F084FF0220FFF7D8
:108760001DFC2046FFF732FB2846FFF737FB284663
:10877000BDE83840FFF74CBE254B1B78082B06D1CF
:108780000220FFF70BFC09F0A1FB0320EAE705201C
:10879000FFF704FCF9E70320FFF718FB1F48FFF77A
:1087A0001DFB1E48FFF734FE194B1B78062B9ED18C
:1087B000072070E7A878FFF79DFB0368044623B9FC
:1087C0000E4940F202500CF0F3FA636823B90B49EA
:1087D00040F203500CF0ECFA636820682946984791
:1087E0000028AFD0A8780207ACD00307AAD4BDE810
:1087F000384009F085BE00BF503600203FD8030046
:10880000CED8030054360020B4350020CFD8030062
:10881000593600203FD70300D0D80300D1D8030039
:10882000CA699A4210B543600CD38C690460086F22
:10883000D21A18441C440867101C8C61CA6118BF06
:10884000012010BD01F1280202608B670020F8E7CB
:10885000CA6943609A4227BF8A69026001F128020F
:10886000026026BF0B67CB618B670020704700005A
:1088700038B50D46044620B906494FF488700CF00F
:1088800097FA237AAB4283BF093405EB450560199B
:10889000002038BDF0D8030038B50D46044620B995
:1088A000064940F243100CF083FA6378AB4283BF71
:1088B000A07840190019002038BD00BFF0D803008F
:1088C00008B50121FFF7D4FF0121FFF7E5FF00788C
:1088D00008BD00002DE9F8431746C94A99460B7AAE
:1088E00013700E460546904620B9C64940F20F3037
:1088F0000CF05EFA2B68B3F5517F00F0C58200F2F0
:10890000CF8040F22632934200F0348262D840F2A7
:108910001632934200F0F08125D840F21332934290
:1089200000F0CF81B3F5457F0AD2002B00F0B38170
:1089300040F21232934200F0B98100202860B3E186
:1089400000F0CD8140F215329342F6D100240FB1F0
:108950002B793B55013402234C452B71C0F0CD815E
:1089600040F216339EE140F21932934200F0DD816D
:1089700014D840F21732934200F0CA81B3F5467F13
:10898000DBD100240FB12B793B55013400234C453A
:108990002B71C0F0CB8140F2193383E1B3F5487FEE
:1089A00000F0DB8140F221329342C6D100240FB1A6
:1089B0002B793B55944B30461978FFF759FF934B71
:1089C000013418604C4503782B71C0F0D48140F21B
:1089D000263367E140F23332934200F00982B3F567
:1089E0004D7F38D2B3F54B7F00F0DF811CD840F2C9
:1089F0002732934200F0CA81B3F54A7F9DD100240B
:108A00000FB12B793B55814B327D1B681B789A4205
:108A100004F1010440F0E28102234C452B71C0F0C7
:108A2000C5814FF44B733DE140F22D32934200F08B
:108A3000C88140F22E3293427FF47FAF00240FB101
:108A40002B793B5501340023A1452B7100F2F081B5
:108A50004FF44F7326E1B3F54F7F00F0E88106D85D
:108A6000B3F54D7F00F0D08140F23532E3E740F2BC
:108A70004232934200F0F08100F2FA8140F241323A
:108A800093427FF45AAF00240FB12B793B55013448
:108A900024234C452B71C0F0E08140F2423301E1C8
:108AA00040F25632934200F05A826AD8B3F5537FAF
:108AB00000F01D8232D840F24932934200F0FE812C
:108AC00015D840F24532934200F0EB81B3F5527F66
:108AD0007FF433AF00240FB12B793B5501342423AD
:108AE0004C452B71C0F0EB8140F24933DAE040F2A3
:108AF0004A32934200F0EE8140F24B3293427FF4CF
:108B00001CAF00240FB12B793B550134B37D2B7181
:108B10004C45C0F0ED814FF45373C3E040F2513245
:108B2000934200F0038215D840F24F32934200F096
:108B3000EA81B3F5547F7FF400AF00240FB12B79A5
:108B40003B55013402234C452B71C0F0F08140F2BB
:108B50005133A7E040F25232934200F0F38140F2E9
:108B6000553293427FF4E9AE00240FB12B793B5587
:108B7000013424234C452B71C0F0F28140F256336E
:108B800090E040F27232934200F0378242D840F2D5
:108B90005932934200F0FC8115D840F2573293428B
:108BA00000F0E981B3F5567F7FF4C7AE00240FB122
:108BB0002B793B550134B37D2B714C45C0F0E981D5
:108BC00040F259336EE040F26D32934200F0088279
:108BD00040F26E3293427FF4B0AE00240FB12B7995
:108BE0003B550B4B1978094B1868FFF755FE0134BC
:108BF00003782B714C45C0F0018240F2723351E092
:108C00005C36002038D903005B3600206036002037
:108C10005D36002040F28332934200F01382B3F5B8
:108C2000617F14D240F27732934203D0B3F55F7F75
:108C30007FF483AE00240FB12B793B5501344023E0
:108C4000A1452B7100F2FF8140F283332AE040F20C
:108C50008932934200F00D8240F28E32934200F04E
:108C60000882B3F5617F7FF468AE00240FB12B79E1
:108C70003B55AB4B327D1B681B789A4204F10104D3
:108C800040F0ED81336A4C451B782B71C0F0F281C6
:108C900040F2893306E008232B71B9F1000F05D1AA
:108CA00040F212332B600120BDE8F8830FB12B791D
:108CB0003B700B23B9F1010F2B710ED840F2133327
:108CC000F0E700240FB12B793B550134337D2B7134
:108CD0004C4505D34FF44573E4E70124F2E7002443
:108CE0000FB12B793B55013402234C452B71FFF416
:108CF0002EAE40F21533D5E700240FB12B793B554A
:108D0000013402234C452B7103D340F21733C9E7DA
:108D100000240FB12B793B550134737E2B714C45E8
:108D2000FFF430AE4FF44673BCE700240FB12B794B
:108D30003B557C4B002201341A707A4B1A7898F814
:108D400000309A4202D340F29933ABE70923A145A0
:108D50002B7103D84FF44873A4E700240FB12B798B
:108D60003B55013404234C452B71FFF420AE40F2F7
:108D7000213397E700240FB12B793B5501340023B1
:108D80004C452B7103D340F227338BE700240FB1FE
:108D90002B793B55624B1B6801345B782B714C453A
:108DA000FFF42EAE4FF44A737CE700240FB12B7909
:108DB0003B55013402234C452B7103D340F22D3334
:108DC00070E700240FB12B793B550134737E2B7172
:108DD0004C45FFF434AE40F22E3363E7B27D9A4245
:108DE0001FD10A234C452B7103D340F2333359E78B
:108DF00000240FB12B793B55013400234C452B71D6
:108E000003D34FF44D734DE700240FB12B793B553D
:108E1000013400234C452B71FFF411AE40F2353381
:108E200040E7414940F239300BF0C2FF0BE6002425
:108E30000FB12B793B553A4B327D1B681B789A4218
:108E400004F1010440F0BC8005234C452B71FFF474
:108E50001BAE40F2413325E700240FB12B793B557F
:108E6000013400234C452B7103D340F2433319E7FF
:108E700000240FB12B793B55013410234C452B7145
:108E800003D34FF451730DE700240FB12B793B55F9
:108E9000013401204C45287104D340F245332B6046
:108EA00002E700240FB12B793B55013405234C45D3
:108EB0002B71FFF410AE4FF45273F3E600240FB1A0
:108EC0002B793B55013401204C45287103D340F2E6
:108ED0004A33E4E700240FB12B793B5501340323D7
:108EE0004C452B71FFF40EAE40F24B33DAE6002412
:108EF0000FB12B793B55013404234C452B7103D31F
:108F000040F24F33CEE600240FB12B793B550134AC
:108F100024234C452B71FFF411AE4FF45473C1E67A
:108F2000603600205B36002038D9030000240FB1E2
:108F30002B793B55013402234C452B7103D340F26E
:108F40005233AFE600240FB12B793B550134052392
:108F50004C452B71FFF409AE40F25533A2E60024D4
:108F60000FB12B793B55013406234C452B7103D3AC
:108F700040F2573396E600240FB12B793B5501346C
:108F8000337D2B714C45FFF412AE4FF4567389E6D6
:108F900000240FB12B793B5501343E4B1B685A78A6
:108FA0003D4B1A703D4B00221A703C4B1A783A4BDD
:108FB0001B789A420DD33A4A137801331370BCE6FA
:108FC000B27D9A42E9D0374940F262300BF0F0FEB0
:108FD000E3E70723A1452B7103D840F26D3361E627
:108FE00000240FB12B793B55013405234C452B71DF
:108FF000FFF4F4AD40F26E3354E600240FB12B7948
:109000003B55244B327D1B681B789A4204F10104C6
:1090100007D103234C452B71FFF40DAE40F277339B
:1090200040E6B27D9A4207D102234C452B71FFF4F2
:1090300002AE4FF45F7335E61A494FF460700BF0DF
:10904000B7FEFCE500240FB12B793B55013400231A
:109050004C452B71FFF40AAE4FF4617322E6B27DEA
:109060009A4210D100234C452B7103D340F28E332A
:1090700018E600240FB12B793B550134074A1378C9
:109080000133137091E7074940F292300BF090FEE4
:10909000F4E700BF603600205A3600205D3600201D
:1090A0005B36002038D9030010B5044618B90649CC
:1090B0005F200BF07DFE23681BB9034960200BF095
:1090C00077FE20680C3010BD38D9030001495220CA
:1090D0000BF06EBE38D9030070B50D46044608B9D2
:1090E000FFF7F4FFE36923B129462046BDE870404D
:1090F000184770BD10B5044608B9FFF7E7FF2046D2
:10910000FFF7D2FF0023838283610362C0E91B3330
:10911000C0E91D3300F12803836610BD2DE9F0433B
:109120000D4689B0064620B98C4940F2DD200BF08F
:109130003FFE25B9894940F2DE200BF039FE2B783D
:109140000E2B21D8DFE803F00B080B0B2010C220F8
:109150002008200B0B0B0B003046FFF7CBFF002441
:10916000204609B0BDE8F08326B97C494FF4E4708D
:109170000BF01EFE6A78D1094FEA52133AD013F071
:10918000030303D0012B25D00624E9E702F01F02D8
:10919000012AF9D1AC78062CF6D105A8039300F08A
:1091A0003FFD03AB009307460346EA782979304632
:1091B000FEF734FF0528D3D0039B3F2B03D9674923
:1091C000C9200BF0F5FD039A3946681C00F06EFAD1
:1091D0000446C5E70EB9FFF779FF3046FFF764FF95
:1091E000AB78212BD0D1B5F80720072ACCD100F1DC
:1091F0000C01EAE7012BC7D10EB9FFF767FF304634
:10920000FFF752FFAB78202B074632D0222BBBD181
:10921000B5F80730002BB7D1027DB5F80330838253
:1092200002F0010203F001039A429CB297D0002C95
:1092300014BF022103213046FFF74EFF002C8ED1D0
:1092400001213046FFF714FB2146FFF725FB00788C
:1092500009F022FB3046FFF733FB09F01DFB07F155
:109260002803BC613C62C7E91B44C7E91D44BB66D7
:1092700076E7B5F80730072B86D10EB9FFF726FF42
:109280003046FFF711FFAB780370B5F80730DBB25B
:10929000437002300024CDE905030DF10B00079463
:1092A0008DF80B4000F010FD204605A9FFF7D6F819
:1092B000044630B92A4B03A9CDE9033600F0E4F99E
:1092C00004469DF80B0000F02FFD49E700213046D1
:1092D000FFF7CEFA0021FFF7DFFAAB7802789A4267
:1092E0003FF43DAF1B06EC780AD524B1032C3FF4C4
:1092F00036AF032434E701213046FFF7EDFE2FE7B8
:10930000012C3FF42CAF002CF0D10EB9FFF7DEFE9C
:109310003046FFF7C9FE05463046FFF7D1FA114B3C
:10932000EC698046CDE90535F4B92B6FEC66C5E9EB
:109330001C432B6A73B105F1200292E8030005F18A
:10934000180383E803002C6205A94046FFF79AF84A
:10935000044600E0AC610021CEE700BF38D903002D
:109360000D94020021880200D5F87890A8694C4538
:1093700028BF4C4605F128072246394612F033F93A
:109380002B6F23446B67A9EB0403EB662B6A002267
:109390003C442A67AC66002B35D005F1200999E8DA
:1093A000030005F1180787E8030014462A62EB6EF4
:1093B000A86923B3EA69A96E9A4215D812F013F985
:1093C000EB69EA6E6B67D21AEA66AA6E1A44AA665D
:1093D00000213046FFF780FE2B6AA3B199E8030015
:1093E00087E803002C62E2E71A4612F0FCF8EA6E06
:1093F000EB692A679B1AEB61AB691344AB61AB69FC
:10940000002BA1D100E0AB610024A4E710B5044615
:1094100060B90846FFF748FE0378202B08D1811C6D
:1094200007220C3012F0DFF8204610BD0320FCE7C5
:109430000620FAE77FB5144606460D46FFF734FED0
:10944000838ADA0713D501213046FFF711FA00218C
:10945000FFF722FAA30600780CBF0123002301A91D
:10946000CDE901540393FEF7F9FF04B070BD082065
:10947000FBE708B5FFF718FE406F08BD2DE9F04384
:10948000804685B091460F4621B9204940F21F40E1
:109490000BF08EFC4046FFF707FE838ADB0704468D
:1094A00032D500250DF107008DF8075000F00CFCB7
:1094B000E66EB6B14E4528BF4E463246A16E3846DE
:1094C00012F091F8E36E66679B1BE366A36E33446C
:1094D000A3669DF8070000F027FC284605B0BDE80C
:1094E000F083A36973B9C4E906794046FFF7E8F948
:1094F000074B02A9CDE90234FEF7C4FF051E08BFE1
:109500009225E6E71125E4E70825E6E738D90300C8
:10951000518802000020704710B5044620B9044964
:1095200040F243200BF044FC2368186810BD00BFD4
:10953000C8D703002DE9F04F4B6885B081460C4633
:1095400093465BB90868FFF7E7FF38B9A5682DB9FE
:10955000C9E90055284605B0BDE8F08FBBF1400FC2
:1095600004D9334940F297100BF022FC08F01CFE9E
:10957000E76800905F454FF0000A04F1100328BF30
:109580005F46564601250193002F2DD0A3686168E0
:10959000BB42984628BFB84651B3009B4246981933
:1095A00012F021F800236360A368E268A3EB0803CC
:1095B000A2EB0802A360E260A7EB0807464433B9B8
:1095C000BAF1000F03D02068FFF7A6FF2060E36820
:1095D000002B2BD0A368002BD6D12268B2B96260D1
:1095E00016B1B34588BF0025009BC9E90036B1E735
:1095F000002BD9D02168009A4B680198D3F804A0B9
:1096000032444346D0474FF0010ACDE70293216828
:109610004B680022D3F8048002A80123C04708B990
:109620002061B1E7A3680133A360F0E71D46ABE713
:109630002ADA0300084B1A7882420CD0052818BF9A
:10964000064A187018BF137805481CBF23F00203A0
:109650001370FEF7B7BF7047703600208C360020BD
:10966000E0D9030008B50020FEF786FE8020BDE8A3
:109670000840FEF781BE08B50020FEF78BFE802073
:10968000BDE80840FEF786BE38B505460C4609F031
:1096900003F8A84205BFD4E90001034B1020C3E939
:1096A000000108BF002038BD903600207FB5C38878
:1096B00093421D4628BF154693420E46144625D9AF
:1096C000802008F07FFCB4FBF0F303FB1040B0FAFD
:1096D00080F04009002303900DF103008DF8033062
:1096E000CDE9016500F0F0FA01A98020FEF7B6FE91
:1096F000044620B906498020FFF7C6FF04469DF8BE
:10970000030000F011FB204604B070BD0020E1E72B
:1097100014DA03002DE9F04F0C78062C87B00746C9
:109720000D4600F0438220D8022C51D003D8012CE2
:109730003CD0062453E0032C3CD0052CF9D10DF18C
:109740000D008DF80C4008F03DFF9DF80D60AC4D0C
:10975000002306F01F062B60032E00F2C881DFE80D
:1097600016F042007601BD0119010D2C00F00B82AC
:1097700011D80B2C00F0FC810C2CDAD1A14B1B78FA
:10978000012B04D0A04940F252400BF011FB002005
:10979000FFF750FF1CE00E2C00F0FD81852CC8D196
:1097A000984B1B78032BC4D1042000E00320FFF763
:1097B00041FFBEE7954801F0F7FF30B1944B01221D
:1097C0001A60BFF36F8FBFF34F8F8E4B1C780CB1B5
:1097D000002404E08C494FF487600BF0E9FA20463E
:1097E00007B0BDE8F08F27B9874940F25E300BF033
:1097F000DFFA9DF80D30C3F34112002A40F0CA8011
:10980000DB099DF80E1000F0B680062918D0082953
:1098100000F0A480002940F0BD807E4C022220464A
:1098200011F00AFF237843F0010222707A4A12787D
:10983000910744BF43F003032370022275490FE0F0
:109840009DF81030022B11D0032B79D0012B40F062
:10985000A180BDF81330002B00F0B0806F491222B8
:109860000DF10D00FFF722FF04463FE0BDF8133075
:10987000002B00F0A380092B28BF09239846FEF790
:109880008BFDDFF884A104464FF009099CBB614CB5
:1098900063494246204611F0A6FE2671A4F80290C4
:1098A000FEF762FD18B1E37943F02003E371FEF7A0
:1098B00073FD5C4BC3E90004C3F80880BDF81320B6
:1098C000DA6001A800238DF8043000F0FDF9564954
:1098D0008020FEF7D7FD044620B954498020FFF7C9
:1098E000D3FE04469DF8040000F01EFA062C51D069
:1098F000002C63D05AE0636823B9514640F2C72078
:109900000BF056FA63685B6823B951464FF4327026
:109910000BF04EFA0027019763680022D3F804B0D9
:109920002146012301A8D84740B9237A20461E4486
:10993000FFF7F2FDB944F6B20446A7E70137EBE7BB
:10994000BDF81330002B39D0BDF811109DF80F0071
:1099500000F098F90146E8B1027881E729490978D1
:10996000052903D12B4A1370012267E7042911D17D
:10997000284B1A70F8E7013908290BD8DFE801F005
:109980002B0A0E0A050A0A0A38001F4940F28230E3
:109990000BF00EFA03A8FEF74DFD9DE0BDF80F3069
:1099A000012BF7D1FEF7E0FC18B90F2408F071FE87
:1099B00015E7194A137843F0020313702C68002C42
:1099C00000F01C8108F068FE044600287FF400AF18
:1099D00008F01EFE03E7BDF80F30012BDAD1FEF7C9
:1099E000C3FC0028E1D00C4A137823F00203E4E71B
:1099F000044B1B78043B012B1AD90824D6E700BF7F
:109A000090360020703600202ADA030098360020B5
:109A10005C7002409C3600208C36002000DA030087
:109A2000E1D9030074360020A8DA030014DA030039
:109A30009DF80F302BB9FEF7AFFD0420FFF7FAFDBC
:109A4000BCE7012B41D1FEF787FD0520F6E701A910
:109A50009DF81100FEF7A6FC074608B91024A5E7FB
:109A600003AA9DF80410FEF7BFFC062804467FF405
:109A70003FAF9DF80D2012F0600F97D1624B9DF81B
:109A8000041018789DF80E30D60915D073B10A2B42
:109A90008CD10528B1D13846FEF758FD5B493246D6
:109AA00008700DF10D00FFF701FE15E00528A4D1A7
:109AB00056490B800222F4E70B2B7FF477AF052881
:109AC0009BD1BDF80F30FF2B01D907246EE79DF81D
:109AD0000F203846FEF7EAFC044609E79DF811001E
:109AE000020706D19DF80D3013F0600F09D006244F
:109AF0005CE703A9FEF77BFC062804467FF4F8AE7A
:109B0000F0E79DF80E20404B9DF811401B78012A8C
:109B10001CD082B1032AEAD12707E8D4BDF80F2070
:109B2000002AE4D1052B02D026077FF466AF204639
:109B300008F0E6FC42E7052B02D023077FF45DAF77
:109B4000204608F0FBFC31490880B3E72007CED45B
:109B5000BDF80F20002ACAD1052B02D021077FF4BF
:109B60004CAF204608F00AFD204609F0B3F825E77F
:109B7000254B1B78002B3FF42BAE254940F24C407F
:109B80000BF016F924E64FF08043D3F83834DA07A7
:109B90000AD50220FCE51C4B1B78012B04D81C497C
:109BA00040F266400BF004F90120F1E5CB78032B7D
:109BB0003FF415AE8B785B0604D0154940F2754032
:109BC0000BF0F6F8134E3368DBB100223260716897
:109BD000E8789847044600287FF4E8AE336823B15C
:109BE000AB78002B7FF4F4ADF2E60B4B1B68082B2F
:109BF00004D10A4B1B68002B3FF4EAAD08F046FD88
:109C0000EDE50E24D2E600BF703600209C36002021
:109C10002ADA0300903600203001001034010010D1
:109C200008B1402303600148704700BF9C36002004
:109C3000F8B5124B53F820502B7813B9AE1C3046B0
:109C4000F8BD0020FFF7ECFF0D4F0646013D002355
:109C500015F8012F5C1C2AB96400E4B244F4407486
:109C60003480ECE71E2B03D93946E6200BF0A0F830
:109C7000E3B22A7826F81320EAE700BF8CDB030062
:109C800007DB030008B9FFF7D3BF052807D8054A4B
:109C9000105C20B1044B53F82030002BF3D100208E
:109CA000704700BFA4DB03008CDB0300EFF30583E8
:109CB000C3F308032BB9EFF31480C04300F0010095
:109CC000704701207047000070B50446FFF7EEFFB3
:109CD000012803D0104943200BF06AF8EFF31086F7
:109CE00072B60E4A9068012398B993600C4B0D4DE3
:109CF000D3F8801029401160C3F88050D3F8841045
:109D000051604FF0FF32C3F88420207006B962B66C
:109D100070BD2370FAE700BFAADB0300DC36002029
:109D200000E100E0FC06FFBD10B50446FFF7BEFFF2
:109D3000012803D0094951200BF03AF8084B9A68E2
:109D40005AB154B9EFF3108172B6064A1868106020
:109D5000586850609C6001B962B610BDAADB030070
:109D6000DC36002000E100E0EFF30583C3F30803D5
:109D70008BB1103B5AB2002AADBF02F1604303F031
:109D80000F03064A03F56143B4BFD05C93F80003A8
:109D90004009C0B270470F20704700BF14ED00E0CB
:109DA0008368D3F854339B0703D50022114603F090
:109DB000B5BDBFF34F8F0549054BCA6802F4E06299
:109DC0001343CB60BFF34F8F00BFFDE700ED00E012
:109DD0000400FA0570B58368D3F85443C4F3400413
:109DE00015462CB100221146BDE8704003F096BD27
:109DF0000139274B01295B8819D051B102292AD09A
:109E0000012B43D92348244B2449C01AC00800041D
:109E100007E0012B3AD91F481F4B2149C01AC0083F
:109E2000000440F00200BDE870400AF01DBA012BAA
:109E30002CD921460A22686811F080FB164A154B7E
:109E400018499B1ADB081B040246BDE8704043F02A
:109E500002000AF00DBA012B18D921460A226868BF
:109E600011F06CFB214606460A22A868094C11F045
:109E700065FB094B0C49E41AE40824040346324606
:109E800044F00200BDE870400AF0FBB970BD00BFAD
:109E9000442B00202CCF0300F4CE030097DD0300F9
:109EA0004DDD030062DD03007BDD030070B58368D8
:109EB000D3F85443C4F3400415462CB10022114694
:109EC000BDE8704003F02ABD0139264B01295B88AB
:109ED00019D051B1022929D0002B41D02248234B5F
:109EE0002349C01AC008000407E0002B38D01E48E0
:109EF0001E4B2049C01AC008000440F00100BDE814
:109F000070400AF0B1B95BB321460A22686811F0CB
:109F100015FB164A144B18499B1ADB081B04024612
:109F2000BDE8704043F001000AF0A2B9C3B1214678
:109F30000A22686811F002FB214606460A22A86838
:109F4000094C11F0FBFA094B0C49E41AE40824040B
:109F50000346324644F00100BDE870400AF091B972
:109F600070BD00BF442B00202CCF0300F4CE0300B3
:109F70001FDD0300DBDC0300EEDC030005DD030076
:109F80001FB58368D3F854339B0706D500221146CA
:109F900005B05DF804EB03F0C1BC064B064A009324
:109FA000D21ACDE901220821044A02F0CFF905B006
:109FB0005DF804FB00700200B44104002ADC0300D9
:109FC0008368D3F854339B0703D50022114603F06E
:109FD000A5BC024A45210320FDF708BC5FDC030055
:109FE00038B50C46054618B90449B3200AF0E0FE1E
:109FF0002B68C3F84843C3F8084338BDB2DF0300F9
:10A0000070B50C461646054618B90549A9200AF050
:10A01000CFFE2B68C3F844430EB1C3F8044370BDB0
:10A02000B2DF030037B50C46054618B90749BA2018
:10A030000AF0BEFE2B68185928B100221A511B598C
:10A040000193019B012003B030BD00BFB2DF0300CC
:10A050002DE9F8430D461446064618B93A495520ED
:10A060000AF0A6FE1DB9384956200AF0A1FE1CB917
:10A07000354957200AF09CFE7379344A344F42F830
:10A08000234007EBC303DFF8EC801B7983B1B8F8FA
:10A090000230012B09D92F482F4B3049C01AC00874
:10A0A000000440F002000AF0DFF80820BDE8F88361
:10A0B0002C88D6F80090B4F5805F04D328494FF47B
:10A0C000BE700AF075FEC9F80845AD7896F90440EF
:10A0D000AB1E012B06D96B1F022B03D921496B2024
:10A0E0000AF066FE002CB8BF1F4B2049ACBF04F13C
:10A0F000604404F00F044FEA4515EDB2AABF04F521
:10A1000061441D5584F8005396F904300122580922
:10A1100003F01F0302FA03F341F82030737907EBD1
:10A12000C30147F83360B8F802300A71022B09D92D
:10A130000848094B0E49C01AC008000440F003004B
:10A140000AF092F80020B1E7B2DF0300F0360020F9
:10A15000E83600203CCF0300F4CE030016DF0300F6
:10A1600038DF03006BDF030014ED00E000E100E0E6
:10A17000A0DF03004C2B002010B5044618B9044999
:10A1800087200AF015FE236801221A6010BD00BF67
:10A19000B2DF030010B5044618B904498D200AF057
:10A1A00007FE236801225A6010BD00BFB2DF030022
:10A1B0002DE9F3410D4616461F46804618B912494F
:10A1C00096200AF0F5FD05F150018900D8F800004D
:10A1D00089B24FF48034AC400023C0F80843C0F883
:10A1E0004843435005F5A8754358019326F07F4630
:10A1F000019B40F82560C0F844430FB1C0F8044308
:10A2000002B0BDE8F08100BFB2DF03002DE9F74FD7
:10A21000894614469846064618B93949CD200AF0B1
:10A22000C7FD4FF4803707FA09F739463046FFF784
:10A23000D7FE32684FEA890A09F1500502EB0A009D
:10A24000AD00ADB2D2F80415D0F84035C0F84015D5
:10A250004FF0000B42F805B05B1A5259009223F000
:10A260007F43012B24F07F44009A0BD1254B4FF400
:10A27000806043F001039847336843F805B05B59A9
:10A280000193019B3068D0F80455C0F84473631BF8
:10A2900023F07F43012B1AD109F5A879194B01341A
:10A2A00040F8294043F001034FF480609847336839
:10A2B000D3F804359D4208D1304601223946FFF7D4
:10A2C0009FFE002003B0BDE8F08F0D20FAE7824426
:10A2D000621ECAF84045D0F80435C8F1FF18D21AFA
:10A2E00022F07F4208F57F489045EED3002AE3D163
:10A2F0000134CAF84045D0F804259342DBE700BF9B
:10A30000B2DF030010DF03000A460221FFF778BE28
:10A310004FF48271FFF786BE4FF4803303FA01F1E8
:10A32000FFF75EBE5031890089B2FFF77BBE03683C
:10A33000D3F804057047000090F9043001215A0950
:10A3400003F01F0301FA03F34032024941F82230BF
:10A35000704700BF00E100E0024B034A1B68106831
:10A36000184700BFF0360020E836002070B5064DD3
:10A370000646002455F8043B0BB13046984701349B
:10A38000042CF7D170BD00BF00370020033080B22D
:10A3900040F2FE33984230B51FD8134B1A783AB9C1
:10A3A0001C895D892C440444A4B2B4F5806F0AD999
:10A3B0001A7DAAB99A8BDC8B2244024492B2B2F580
:10A3C000806F0DD801220A801446142202FB043348
:10A3D0005A8910445881002030BD48F20860FBE7DC
:10A3E00048F20660F8E700BF343700200B4A0C4BF8
:10A3F0005188142000FB0131CB6833B9042049682F
:10A4000010700122074804F0F3BC052306491370BD
:10A4100002238B80012200230968F3E7183700200C
:10A4200034370020482D0020EC37002007B50023EA
:10A4300005490093054A09680548082304F018FCFB
:10A4400003B05DF804FB00BFEC37002038E00300E8
:10A45000482D002007B50023009301460823034A36
:10A46000034804F005FC03B05DF804FB30E0030092
:10A47000482D002013B500230C4600930146042309
:10A48000074A084804F0F4FB38B9074B142202FBD2
:10A4900004340123237402B010BD48F20D60FAE7C2
:10A4A0002CE00300482D00203437002037B50A483F
:10A4B0000A4B42689C88196853880325033305704A
:10A4C0009BB2002000909B0001EB8401044804F043
:10A4D000CFFB03B030BD00BF18370020EC370020A1
:10A4E000482D002010B50146044801F034F81C2224
:10A4F0000446002111F0A0F8204610BDE42D0020F4
:10A5000068B10268084B9A4209D14068074B9842EB
:10A5100007D0013398420CBF01200320704703206D
:10A5200070470020704700BFDEC0ADDEFE011EF1A7
:10A530004388033300EB830399420BD382884FF6A1
:10A54000FF739A4208D0038833B18068431C584295
:10A550005841704702207047012070472DE9F843A9
:10A560000223DFF860800B800D46174600F5805609
:10A5700000F108044FF00109B4420FD223680133FF
:10A580000CD031462046FFF7D3FF48B10FB187F812
:10A59000009002280BD14FF480632B80BDE8F88334
:10A5A000A368D8F80020934201D9C8F800302B885E
:10A5B0006288033313442B806388033304EB8304E2
:10A5C000DAE700BF2C370020154A142303FB0020D4
:10A5D00070B50B6844680D4604F58056ABB15C88D5
:10A5E000033403EB8404B4420DD2236801330AD050
:10A5F00031462046FFF79CFF01280BD010F0FF0FDB
:10A6000005D00228EFD1002003E00834EBE72C60EE
:10A61000012070BD6388033304EB8304E3E700BFCC
:10A6200034370020436873B504460D466BB3244AA3
:10A63000D1688B4229D31269934226D813F00300C4
:10A6400023D1204A2189128991421ED121689A681A
:10A6500091421AD11C4A51688B4203D901F58051AD
:10A660008B420DD3926993420CD902F580529342EA
:10A6700008D201232B80B0FA80F0400902B070BDEF
:10A680000346F7E748F20960F5E700232B801E46F2
:10A69000019601A92888FFF797FF30B92B8801336D
:10A6A0009BB2012B2B80F3D9E8E7019B22689968C4
:10A6B0009142EED16360034B1B892381DEE700BF2B
:10A6C000482D002018370020343700202DE9F843AA
:10A6D0001C461D4B1B7806460F46154673B382B3C6
:10A6E0007CB3DFF86C804FF01409A388012B02D9EA
:10A6F00048F2096020E009FB03F318F803302BB996
:10A700002146A088FFF760FF20B92060A3880133AD
:10A71000A380EAE723681EB1998832889142EFD17D
:10A720001FB119883A889142EAD19A68C5E9002395
:10A73000064B1B892B810020BDE8F88348F201609D
:10A74000FAE748F20460F7E71037002018370020D6
:10A750003437002008B5074B191D5888FFF734FF20
:10A7600018B1BDE80840FFF7A1BEBDE80840FFF7FB
:10A770003DBE00BF183700202DE9F04FA64FDFF88F
:10A78000C09289B00646B8463B6853B94946A348CB
:10A7900000F01BFF386020B9A14940F29B500AF03D
:10A7A00007FBD8F8005029784B1E052B00F2FE80DD
:10A7B000DFE813F0060060006000F200F2006601BE
:10A7C0002EB1984B00225A604FF40644F0E02B79EA
:10A7D000032B1DD8DFE803F015022B3692490B78C6
:10A7E000022B08461AD00B7D022B4FF0010317D124
:10A7F00014225343C2180020C8545068FFF72AFEA1
:10A8000003E001232B71FFF711FE002800F0BE804A
:10A81000844B00225A6048F20D64C9E00023E7E748
:10A82000804A13700023536041F61D54C0E07F49F5
:10A830007F48002302222B718A800122096804F0DC
:10A84000D7FAE2E7794C00262E712068764DFFF7A3
:10A8500001FE784BD4F800C05A8814235343EA18F9
:10A86000EE5451682160A188C2F804C0118102220F
:10A87000A280CAE7B5F814A0AA7DDFF8ACB1AEB1EA
:10A88000022AEB8806D9142101FB0AB1DA1C0889D7
:10A8900002440A81142202FB0ABAC3F57F43BAF8C4
:10A8A0000A20FD331344AAF80A308DE7142303FB72
:10A8B0000AB318895C6804EB8004062A69D8DFE8CB
:10A8C00002F0274E36441D5A040041F61D54AA7D5D
:10A8D000EB88022A06D9142101FB0AB1DA1C088987
:10A8E00002440A81142202FB0ABAC3F57F43BAF874
:10A8F0000A20FD331344AAF80A3059E04E484F4964
:10A9000000234360AB690360FFF78CFE002874D01E
:10A910000223AB75002300930423EA182146444820
:10A9200004F0A6F9002831D048F20D64CFE72B6976
:10A93000002B14BF03230123AB750023009305F103
:10A940000C02042304F10801E9E70123AB7500229E
:10A95000EB8800929B002A6904F10C01DFE70329D0
:10A960000CBF05230623AB7500230093042305F1D8
:10A970000802E118D3E70623AB75304B19882E4B3C
:10A980005868FFF777FD04460028A0D109B0BDE85C
:10A99000F08F48F20E649AE7002E7FF415AF2B7902
:10A9A000012B4FD0EBB1022B3FF43EAF48F20E64C7
:10A9B0001422002103A810F03FFE41F61D539C42D3
:10A9C00008BF0024D8F8003004941A78023A042A08
:10A9D00000F20A81DFE812F0EB00F70023012B01FF
:10A9E000320102232B710DF10A01EB68039303A8D6
:10A9F000CDE90466FFF716FE10B948F20964D7E7FF
:10AA00000498BDF80A108388EB8003882B81FFF738
:10AA100031FD04462BE000BF30370020E42D00203C
:10AA200040E003001037002034370020EC370020CE
:10AA3000482D002018370020F4360020F43700207D
:10AA400028370020DFF814A203AA53463146A81D78
:10AA5000FFF73CFE044668B9BAF804100498FFF703
:10AA600009FD044648F209639C423FF4DDAE002C28
:10AA70009ED18BE708223146504610F0DDFDF1E70C
:10AA8000002E7FF4A1AE6F4B1A7BAAB11E731A7809
:10AA9000013A062A8AD801A151F822F043AB0200FC
:10AAA00069AB020087AB02008DAB0200ADA90200CA
:10AAB00093AB0200A5AB02001A78072AE7D801A1E0
:10AAC00051F822F0E5AA02008FAA02008FAA020024
:10AAD0000BAB02001FAB02003FAB02003FAB02001A
:10AAE00007AB02001A89584901321A8100225A80A4
:10AAF0001A730A78B2FA82F252099A720A7DB2FA8D
:10AB000082F25209DA72012207E0504958688A88B5
:10AB10004088033202448A8002221A70B7E74A4C06
:10AB20005A884A49142505FB024208685468506057
:10AB30008888108102228A800C600622EDE70722B5
:10AB4000EBE79A7A32B9DA7A8AB900221A705A8017
:10AB50005A6069E63C4900229A72CA68002AF2D11A
:10AB6000097C0029EFD05A80FFF7F4FD51E700225D
:10AB7000DA72354A116A0029E7D192F82420002AB6
:10AB8000E3D00122EFE7FFF791FC42E7FFF72EFC4D
:10AB90003FE72D4A5B88142101FB03235868FFF728
:10ABA00059FC36E700225A60FFF740FC31E70122EA
:10ABB0008DF80C201A89ADF818209A88DB68ADF85A
:10ABC0001A20059310E002228DF80C201A89ADF8A6
:10ABD00018209A88ADF81A20DA689B7D05929A1F92
:10ABE000534253418DF81C3003A8FFF7BFFB0023ED
:10ABF00049461748C8F8003000F012FD154B1B6895
:10AC000023B915494FF424700AF0D2F801211148F4
:10AC100000F0B9FD00283FF4B9AE0026B4E50322E8
:10AC20008DF80C20DA88ADF818201A89C6E70422BE
:10AC3000DB888DF80C20ADF81830D5E705238DF8AA
:10AC40000C30D1E71837002034370020EC370020D3
:10AC5000E42D0020E837002040E00300F837002012
:10AC60004068FFF789BD000008B50121044800F0E5
:10AC700074FD18B9BDE80840FFF77EBD08BD00BFF0
:10AC8000E83700202DE9F3419846374B1B780646FC
:10AC90000D46002B5CD000295DD009884FF6FF736C
:10ACA00099425BD06B88002B58D06B689B0758D1BA
:10ACB0004AB92F890DF102013846FFF767FB30B121
:10ACC00002B0BDE8F08113885788ADF8023001A8C2
:10ACD000FFF708FC044660B9BDF80230234A14218E
:10ACE00001FB032358890338C01B588148F20760D1
:10ACF000E6E700238375BDF8023083826B68036149
:10AD000080F8008001211A4800F032FD2B88238151
:10AD1000B8F1030F6B88A38004BF0423A3754FF021
:10AD2000000508BF3368E06008BFA361E780658164
:10AD300001A9104800F039FC36B1E36833600E4BCE
:10AD400075601B89B5723381FFF78EFF0020B7E76E
:10AD500048F20160B4E748F20460B1E748F20360EA
:10AD6000AEE748F20260ABE710370020343700202E
:10AD70002C370020E42D0020183700202DE9F04F5B
:10AD800089B01422002103A810F056FC784A1378E9
:10AD900003F0FF01009190463BB103A8FFF7E6FAEC
:10ADA0000027384609B0BDE8F08F101D00F0F6FC12
:10ADB0000028F5D140F6F8734FF080521B685C1CF8
:10ADC00008BF6C4B6C4C08BF1B6811695269581C5A
:10ADD00008BF02FB01F323610022A3F5405367493A
:10ADE000E360204603F008FF019407460028D8D10D
:10ADF0001C238C2262496348DFF89CB100F076FB8B
:10AE0000BA463D464FF003093C46019BDE68564476
:10AE10003046FFF775FB012860D042B2002A4AD0C5
:10AE2000032827D13268531C02D0574B9A4234D1A1
:10AE3000321D06F58051106801302ED10432914246
:10AE4000F9D1DBF800203AB902220123CBF80060E7
:10AE5000ABF8042000930BE0142262434B4B02201A
:10AE6000991898544A4A4E60548001340881A4B21B
:10AE700045F001050AF5805ABAF5405FC5D1B9F130
:10AE8000010F98BF0025EDB2022D03D0062D44D04E
:10AE9000002D4CD148F20A6783E73C4914226243F3
:10AEA000881809F1FF394660032088541FFA89F990
:10AEB0000134A4B2DEE735491420604301EB000CF5
:10AEC0000A5400F1100208300A44CCF8046001442E
:10AED0003046FFF743FB45F00205E9E7009B6BB105
:10AEE0002A4B14226243991802209854DBF8002060
:10AEF0004A60274A088154800134A4B200222549BF
:10AF0000CBF800603046FFF729FBBBF80420022A8B
:10AF10000CBF042208221543ACE7012388F8003057
:10AF200003A80023C8F80430FFF720FA39E702A885
:10AF3000FFF7D8FAC8B10123013D03700A2D09D8E3
:10AF4000DFE805F006080608070807080F110F00DC
:10AF50000023037102A90B4800F027FBFFF784FED2
:10AF60001FE70323F5E70223F3E748F2076718E733
:10AF70001037002014100010482D002008F30300A3
:10AF80005C370020E42D0020DEC0ADDE3437002029
:10AF900018370020F0370020EC37002073B50D463D
:10AFA0000446C8B1C1B10DF10601FFF73BFBB0B1DA
:10AFB0000C4BBDF806006668142202FB003001212C
:10AFC0000C3000F0D5FB63682E600C336B600123FE
:10AFD000A372002002B070BD48F20460FAE748F2A4
:10AFE0000960F7E73437002013B50446A8B10DF126
:10AFF0000601FFF717FB98B10C4ABDF80630142183
:10B0000001FB0323DA6872B1A27A62B1DA68002028
:10B01000013ADA60A07202B010BD48F20460FAE7AB
:10B0200048F20960F7E748F20560F4E7343700209A
:10B0300002230022FFF726BE18B103230022FFF7E8
:10B0400021BE48F204607047114B1B7813B50446CB
:10B05000ABB14FF6FF73984214D001A8FFF742FA44
:10B0600098B10523037001230371C48001A9094825
:10B0700000F09BFAFFF7F8FD002002B010BD48F287
:10B080000160FAE748F20360F7E748F20760F4E787
:10B0900010370020E42D002007B5ADF80600ADF80C
:10B0A00004100DF1060001A9FFF710FB03B05DF8D5
:10B0B00004FB07B51346ADF806000A4600200DF163
:10B0C0000601FFF703FB03B05DF804FB07B5134669
:10B0D000ADF806000A460DF106000021FFF7F6FA6A
:10B0E00003B05DF804FB20B119B103680B600020C8
:10B0F000704748F2046070470B0710B5044607D547
:10B100000FF098FF20B12046BDE810400FF0CABFF5
:10B11000204610BD2DE9F04F87B08A4615460293B0
:10B12000064618B9012007B0BDE8F08F0029F9D014
:10B13000029B002B00F0118102F004030C460493E3
:10B14000B046294618F8010BFFF7D6FFC7B23F2FCC
:10B1500022D00ADCCFB12A2F36D0294614F8010BB1
:10B16000FFF7CAFF87421FD0DCE75B2F7CD05C2F44
:10B17000F3D1EB07F1D429467078FFF7BDFFC7B2D2
:10B18000002FEAD006F10208E7E7E906207838D573
:10B190002F2836D10020C6E72378002BC2D02F2BD2
:10B1A00004D1AA07BED401344646C9E72E2BFAD1F2
:10B1B000049B002BF7D05445B4D0AB07F3D514F85B
:10B1C000013C2F2BEFD1ADE770782946FFF794FFB4
:10B1D000C1B22A2919D023782E2B09D1049B3BB167
:10B1E00054459FD0AF0703D514F8013C2F2B99D0BD
:10B1F00079B9AE07CED5ED06CCD42F21204610F07C
:10B200004DF9003018BF01208DE7294618F8010FCD
:10B21000DCE72F2901D1A8071FD4029B25F00409E0
:10B220005F1E05F0020AA34629469BF80000FFF7BF
:10B2300063FFC6B20134002E3FF474AF3B464A466A
:10B2400059464046FFF766FF01287FF46CAF2F2E6A
:10B25000E9D1BAF1000FE6D064E7204610F01EF9FC
:10B2600004460028A0D15DE7207800283FF45AAFBB
:10B270002F2802D1A9073FF555AF2946FFF73CFF1C
:10B280008346B8F1000F3FF44DAF7378212B01D006
:10B290005E2B25D1023601230122019305EA020328
:10B2A0004FF0000903933746294617F8010B059222
:10B2B000FFF722FFC3B25D2B059A14D112BB019B8D
:10B2C0004B453FF42FAF002F3FF42CAF7A1C04D135
:10B2D00023785B2B7FF426AF47460134B84663E7FB
:10B2E00046460023D8E72F2BF2D05C2B07D1039AD8
:10B2F00042B929467078FFF7FFFEB71CC3B2002B96
:10B300003FF410AF3A782D2A21D129467878059359
:10B31000FFF7F2FEC0B2059BC8B15D2817D05C28CC
:10B3200007F102060BD1039A4AB92946B878FFF70C
:10B33000E3FEC0B200283FF4F5AE059BFE1C9B4522
:10B3400003DB8345D8BF4FF001090022ABE73E463F
:10B350009B4508BF4FF00109F7E70320E3E64023D0
:10B36000FFF7D8BE1EF0040F1CBFEFF309800AE000
:10B37000EFF308800549064A884201D8904202D876
:10B380008D464FF00000034B1847000000000420DA
:10B3900000E00320BDB30200BFF34F8F0549064B09
:10B3A000CA6802F4E0621343CB60BFF34F8F00BF63
:10B3B000FDE700BF00ED00E00400FA052DE9F74FBE
:10B3C000064608F0D3FF08F09DFD0028FBD1394C5C
:10B3D000394A3A4B3A4D9F6A6B88A41AE408240410
:10B3E00044F00104002E5ED0D3B1B2693549204645
:10B3F00008F03EFF6B889BB1F3680193B36800933C
:10B400003149D6E90023204608F051FF6B883BB153
:10B41000F36900932D49D6E90423204608F03BFF49
:10B42000264BDB6A980705D56B881BB12849204657
:10B4300008F01AFFDFF8ACA0DFF8ACB04FF000085E
:10B440004FF0010909FA08F33B4208D05AF82820C6
:10B450002AB16B881BB15946204608F009FF08F154
:10B460000108B8F11A0FEDD1390607D56B882BB159
:10B47000124B18495A6B204608F0FAFE3A0407D5D9
:10B480006B882BB10D4B14499A6B204608F0F0FEE7
:10B49000124B1B68DB0700D500BE3046FFF77CFF70
:10B4A00003B0BDE8F08F002BBAD00D49204608F05C
:10B4B000DBFEB5E7F4CF0300F4CE030000ED00E0BF
:10B4C000A82B0020C0E00300D5E003000AE1030040
:10B4D00065E10300B4E10300D4E10300F0ED00E016
:10B4E00032E10300F0E10300A9E1030010B561B10E
:10B4F000B2FBF3F403FB1424A4B244B9C0E9001472
:10B5000084608281C381204610BD0E20FCE70920A3
:10B51000FAE782B050E8022FC188B2EB324F4FF009
:10B52000000317BF92B241EA014142EA014104E03F
:10B530004268B2EB324F08BF012340E80212002AF2
:10B54000E8D18DF807309DF80730002B0CBF112093
:10B55000002002B0704737B550E8013F9DB2C48962
:10B5600025448489A54228BF2D1B0489A54202BF1A
:10B57000BFF32F8F002207E0C5EA030540E801541E
:10B58000002CE9D14FF001028DF803200193019BBB
:10B590009DF803200B6002F0FF0322B10B880068C6
:10B5A000184403B030BD1846FBE70A884B889A421E
:10B5B00009D150E8012FC2EA024240E80123002BE2
:10B5C000F7D1012070470020704737B550E8023F9F
:10B5D0001FFAA3F5C488A54202BFBFF32F8F002234
:10B5E0000DE0C48925448489A54228BF2D1BC3EAE8
:10B5F000054540E80254002CE8D14FF001028DF8D7
:10B6000003200193019B9DF803200B6002F0FF03D0
:10B6100022B14B880068184403B030BD1846FBE7E0
:10B620000A884B889A4209D150E8022FC2EA224286
:10B6300040E80223002BF7D101207047002070471B
:10B6400001F01F024B090121914000EB830000F043
:10B6500063B84B0910B501F01F040121A14000EBB4
:10B66000830000F04EF8E04000F0010010BD01F052
:10B670001F0301229A404B0900EB8300D14300F0E5
:10B6800061B84B0901F01F0150F82300C84000F0D9
:10B69000010070472DE9F0474E1E760980460F469F
:10B6A0000136002558F8254008EB8509E44394FA53
:10B6B000A4F4B4FA84F44FEA451A202C06D10135DB
:10B6C000AE42EFD83C462046BDE8F0875444A7423E
:10B6D000F5D921464046FFF7BCFF0028F3D0D9F842
:10B6E0000040E44394FAA4F4B4FA84F4E5E750E8A3
:10B6F000002F0B4640E8003C9CF0000FF7D11046AD
:10B70000704750E8002F42EA010340E8003C9CF0FB
:10B71000000FF6D11046704750E8003F43EA01029F
:10B7200040E8002C9CF0000FF6D11046704750E81E
:10B73000002F02EA010340E8003C9CF0000FF6D124
:10B740001046704750E8003F03EA010240E8002C31
:10B750009CF0000FF6D11046704750E8002F02EB26
:10B76000010340E8003C9CF0000FF6D11046704702
:10B7700050E8003F03EB010240E8002C9CF0000F72
:10B78000F6D11046704750E8003FA3EB010240E8B5
:10B79000002C9CF0000FF6D1104670470121FFF7F6
:10B7A000B0BF0121FFF7B8BF0021FFF7C0BF0021E4
:10B7B000FFF7C8BF10B50446002834D003681BB992
:10B7C0001A49FF2009F0F4FA636823B917494FF4C6
:10B7D000807009F0EDFAA36823B9144940F2011012
:10B7E00009F0E6FAE36823B910494FF4817009F0D3
:10B7F000DFFAA38A23B90D4940F2031009F0D8FA01
:10B80000D4E9012321689B1ADBB20A60013BDBB259
:10B81000FF2B226802D10020107110BD1168481C56
:10B8200010600B70F2E70E20F7E700BF21E703007E
:10B8300037B5054620B913494FF4927009F0B8FAAC
:10B8400000240DF107008DF80740FEF73DFA2A6845
:10B850006B68116899420ED9481E106011F8014CAE
:10B86000EB68A98A01FB0434AB6811791B1ADBB2BF
:10B87000994238BF13719DF80700FEF755FA20462C
:10B8800003B030BD21E7030037B50C46054620B9AB
:10B89000104940F2471009F08BFA24B90D494FF4D2
:10B8A000A47009F085FA00230DF107008DF8073028
:10B8B000FEF70AFA2A681368591C1160EA68A41A8C
:10B8C000AA8AB4FBF2F41C709DF80700FEF72CFA6C
:10B8D00003B030BD21E70300436810B59C68606881
:10B8E000036801219B689847A36810B903221A7066
:10B8F00010BD0422FBE7000038B505460C4621B90F
:10B90000064940F62F2009F053FA35B1A268B2F883
:10B91000543343F02003A2F8543338BDCDE703007D
:10B9200038B50D46044620B9084940F6232009F0F1
:10B930003FFA25B9054940F6242009F039FA29686B
:10B940002068BDE838400FF0CCBE00BFCDE7030053
:10B950002DE9F843089C1E460F46E1B9184D194CD5
:10B96000641BE408944204D9174800EB8208BC42E7
:10B9700001D100230AE06B68D8F8000019680FF0C5
:10B98000B0FEA946083520B9D9F804303360BDE8C7
:10B99000F8830137EBE70028EBD00178436839B131
:10B9A0002146104698472368002BE2D03460EEE72A
:10B9B000120199189B58002BDBD03160E7E700BFDC
:10B9C0007CD10300DCD10300182D002010B5044603
:10B9D00020B909494FF4EA7009F0EAF9236923B95B
:10B9E00005494FF4EA7009F0E3F92069034A044974
:10B9F000BDE8104002F0D2BCCDE7030051E80300DF
:10BA000004EC030010B5044620B909494FF4ED7069
:10BA100009F0CEF9236923B905494FF4ED7009F017
:10BA2000C7F92069034A0449BDE8104002F0B6BCDA
:10BA3000CDE7030055E8030004EC030010B504460D
:10BA400020B909494FF4F07009F0B2F9236923B91C
:10BA500005494FF4F07009F0ABF92069034A044935
:10BA6000BDE8104002F09ABCCDE7030058E803009F
:10BA700004EC030008B10FF05BBE704710B504463C
:10BA8000FFF7F8FF23462044834201D1002010BD78
:10BA900013F8012B3F2A01D02A2AF5D10120F6E71D
:10BAA00038B58368054600681C8DFFF7E3FFAB6877
:10BAB000DA8B2044B0FBF2F302FB1300B0FA80F003
:10BAC000400938BD10B584680068FFF7D3FF238DA7
:10BAD000E28B84F82000C0B20344B3FBF2F102FB16
:10BAE00011330133A382E38C013118442183B0FB6D
:10BAF000F2F3591C02FB130301336183E38204F167
:10BB0000140010BD38B5836805460068DC8CFFF76B
:10BB1000B1FFAB68DA8B2044B0FBF2F302FB1300F9
:10BB2000B0FA80F0400938BD30B50368D3F84C5303
:10BB300085B00446EDB100230A2201A9284603F08E
:10BB4000CDFC2368029AC3F84C2300210A2201A8E5
:10BB50000FF072FD00230A2201A9284603F0AAFC77
:10BB6000284603F04FFC2368D3F84C0318B9C3F8F8
:10BB7000480305B030BD01A900230A2203F0AEFC42
:10BB8000206800230A2201A9D0F84C03019303F096
:10BB900091FCEEE707B58368C9B193F822208A4289
:10BBA00012D00D4A009233228DF8042001F12F02A9
:10BBB0008DF805206D22ADF8062083F822106A4624
:10BBC0000649006902F0EAFB03B05DF804FB83F864
:10BBD0002210034AF4E700BF1B5B313B04EC030077
:10BBE0005BE80300836807B593F823208A4214D0EA
:10BBF00045F61B32ADF8002034228DF8022001F109
:10BC00002F028DF803206D22ADF8042083F8231055
:10BC10006A460349006902F0C1FB03B05DF804FB0A
:10BC200004EC0300014902F0B9BB00BF19EC0300AA
:10BC30000A460068014902F0B1BB00BF85E8030075
:10BC400009B1FFF7F5BF70472DE9F047002506461B
:10BC50000F4614460560207840B10FF018FAA0B1E5
:10BC6000002304F8013B33680B2BF4D933680C2B09
:10BC700004D9584940F22A5009F09AF83368002252
:10BC800047F823202846BDE8F08733685A1C326005
:10BC900047F82340054694F80080B8F1000FE2D041
:10BCA000002D40F08280B8F1270F06D0B8F15C0F6C
:10BCB00000F08380B8F1220F6FD12046FFF7DAFE43
:10BCC000611C024620460FF0ACFA4546E3E72046E9
:10BCD000FFF7D0FE611C024620460FF0A2FA0025B5
:10BCE000D9E7302825D102234FF00008E05CA0F10D
:10BCF0003001C9B207295FFA83F917D8013341EA45
:10BD0000C801052B5FFA81F8F0D199462046FFF76C
:10BD1000B1FE09F1FF3AA244821CA2EB090251468E
:10BD200020460FF07EFA04F8018BB4E7B9F1020F58
:10BD3000ECD1782837D102214FF00008635CA3F1E1
:10BD40003002D2B2092AC8B214D842EA0813032931
:10BD50005FFA83F80CD14FF0040A2046FFF78AFE01
:10BD60000AF1FF39A144821CA2EB0A024946D7E737
:10BD70000321E3E7A3F16102052A03D8573B43EA15
:10BD80000813E4E7A3F14102052A01D8373BF6E79F
:10BD9000022808D04FF0030ADFE740460FF077F99A
:10BDA00000287FF460AF013475E7A8458FD0B8F163
:10BDB0005C0FF8D16078854293D12046FFF75AFE98
:10BDC00004F101080246414620460FF02AFA444693
:10BDD00061E700BFCDE7030070B50D461646044687
:10BDE00020B90B4940F2231008F0E2FF636823B941
:10BDF00007494FF4927008F0DBFF606803681C6924
:10BE000029463346A4460122BDE87040604700BF82
:10BE1000CDE70300F7B505468068424E00244FF495
:10BE2000C072214600F5D6708DF803400FF004FC77
:10BE30003D49286902F0B2FA286902F09DFA4FF4F0
:10BE40007A7746F0010601AA0DF103012846FFF7B3
:10BE5000C3FF019B5BB94FF6C010B047019A002A9F
:10BE6000F1D17B1E9FB2002FEDD10D2035E09DF862
:10BE70000330AA681B2B49D092F8AC111B29EDD1D5
:10BE8000522B43D11444002384F8AC3192F8AD1105
:10BE90005B291FD102F5D77002251E4610F8011B41
:10BEA00001353B29ADB21AD1B5F5C07F20D005F5DB
:10BEB000D6741444002314F8010BD8B9FA2B28BF08
:10BEC000FA23FA2E9382334628BFFA23138382F88B
:10BED000AC0102E082F8AC310B2003B0F0BD06EB00
:10BEE000860301EB4303303BB5F5C07F9EB2D5D14D
:10BEF0000C20F2E703EB8303013500EB4300ADB206
:10BF00003038B5F5C07F83B2D5D3F1E711190134CC
:10BF1000A4B2092C81F8AC31A0D9002382F8AC314D
:10BF20000420DAE7A0E8030070E803002DE9F743F6
:10BF30000F461446054600B119B91D49F42008F012
:10BF400037FF6B681B681BB91949F52008F030FFF3
:10BF5000DFF85C80002614B903B0BDE8F0836868A0
:10BF600003682246D3F80C90B91901ABC84718B141
:10BF70004146FF2008F01CFF019B9C4204D2414631
:10BF80004FF4807008F014FF019B1E44E41A002B4C
:10BF9000E1D1AB681A78032ADDD0D3F85423920696
:10BFA000FBD5B3F854236FF34512A3F85423D2E71B
:10BFB000CDE703002DE9F04F054685B090460F46CA
:10BFC000002971D00024385D0FF061F840BB1FFAE2
:10BFD00088FB05F1100A3846FFF74CFDAB68DB8B98
:10BFE000001BA3EB0803984207EB04091AD94A4641
:10BFF000002612F8010B0293019203920FF047F80A
:10C00000DDE9012320B112F8013C0A2B35D033467B
:10C01000A968C88B08EB060188422DD90136E8E7EC
:10C020000134D0E74B460026B04219D013F8012B5B
:10C030000A2A04EB060A1DD1286902F09DF932464E
:10C040002E4649462846FFF771FF56F8100FFFF7B6
:10C05000E9FD1FFA88F130460AF10104FFF7F0FD0F
:10C060002869391902F09AF9286905B0BDE8F04F3E
:10C07000FFF7D8BD0136D7E71E46286902F07CF9E4
:10C08000324649462846FFF751FF3444385D0EF0EA
:10C09000FEFF38B92869FFF7C5FD59465046FFF73E
:10C0A000CFFD98E70134F1E705B0BDE8F08F00005F
:10C0B0000A4619B10249006802F070B9704700BF22
:10C0C0007FE803000A4619B10249006802F066B928
:10C0D000704700BF79E8030070B50546FFF7F2FC32
:10C0E00043880288C1889A420446838801D18B42E2
:10C0F00014D0994205F1100604D9C91A89B2304604
:10C10000FFF7E0FF238861888B4208D9591A89B26A
:10C110003046FFF7CDFFAB68DA8C1A8570BDC91ABF
:10C1200089B23046FFF78CFDF5E700000A4619B1E9
:10C130000249006802F032B9704700BF8BE8030083
:10C1400070B50546FFF7BEFC037B0288818801338A
:10C150009A42044601D1012915D0012905F11006A2
:10C1600004D9013989B23046FFF7E0FF2388217BEB
:10C170008B4209D9013B591A89B23046FFF798FF23
:10C18000AB6800221A8570BDC91A013189B23046E8
:10C19000FFF756FDF4E7F8B50546FFF793FC0446B4
:10C1A0008788C6882846FFF77BFC78B12869FFF7A7
:10C1B00039FDB74205F110050ED161882388C91AEF
:10C1C000284689B2BDE8F840FFF772BF2846FFF75E
:10C1D00099FC0028EAD1ECE7A388E188C91A89B262
:10C1E0002846FFF7A3FF238861888B42E7D9591AB5
:10C1F000284689B2BDE8F840FFF722BD2DE9F74F88
:10C200000F4616460193044648B9484940F6A22015
:10C2100008F0CEFD454940F6452008F0C9FDA36869
:10C220001BB163680BB1236823B9404940F646202F
:10C2300008F0BEFDE36860685B683D4A9C60036887
:10C2400039461D682346A8470546002850D1636932
:10C2500023B9364940F6552008F0AAFD606903F07D
:10C26000CFF80546002843D1A068DFF8D8A0314FA9
:10C27000DFF8CC80DFF8B4904FF45672C0E9D255A5
:10C2800029460FF0D9F9A368B3F8542342F02002ED
:10C29000A3F85423B3F8542366F38202A3F854237B
:10C2A000B3F8542342F00802A3F8542301221A7071
:10C2B000A7EB0A07204ADA614FEAD70B2E465E4504
:10C2C0001AD1072F05D91D4B1D48042231460EF007
:10C2D000C5FF019B63B19DF83010E06808F006F8D7
:10C2E0000028A1BFE368DB6801225A71B8BF0425AA
:10C2F000284603B0BDE8F08FBAF1000F04D14946DB
:10C3000040F6712008F054FDDAF80420126822B9D2
:10C31000494640F6722008F04BFDDAF80420126816
:10C3200048F8042B01360AF1080AC8E7CDE70300F4
:10C33000F9B80200DCD103001800500021B9020056
:10C34000182D00207CD10300FFF7F0BD0CB473B5AD
:10C35000069D04460E4625B9224940F65F3008F096
:10C3600027FD24B91F494FF4366008F021FDA3686A
:10C370001BB163680BB1236823B91A4940F66130D9
:10C3800008F016FD07ABA1680193D1F854335B07A1
:10C3900021D591F82230B3421DD0022222316846C5
:10C3A0000FF021F931462046FFF7F4FB01AA294698
:10C3B000206902F0EFFA9DF800102046FFF7EAFB33
:10C3C0009DF8011011B12046FFF70CFC02B0BDE84A
:10C3D000704002B0704701AA2946206902F0DAFADB
:10C3E000F4E700BFCDE70300F8B5044616460F4654
:10C3F00021B9234940F2536008F0DAFCA068C58CEB
:10C40000AB19B3F5C07F3ADA002E38D0038DED1AA0
:10C4100003F12C0133442C33ADB201446A1C18449F
:10C420000EF0FFFEA068038D2C33324639461844C7
:10C430000EF0F7FEA0682C30FFF71CFBA268138DEE
:10C44000D0842C33134420460E4A0821FFF77EFF88
:10C45000A3681A8D16441E852046FFF721FB40B1C4
:10C460002069FFF7DFFB55B12046BDE8F840FFF734
:10C4700092BE2046FFF746FB0028F1D1F3E7F8BD56
:10C48000CDE7030004EC03002DE9F0410446806889
:10C49000D0F85433C28CC3F30008038D5FFA88F7D9
:10C4A000D51A0E46ADB2002F3FD1B2F5BF7F41D8AD
:10C4B0003DB103F12C012D3301442A4618440EF0FE
:10C4C000B0FEA3681A8D1A4482F82C60002F6CD13C
:10C4D000DA8C013292B2DA84134483F82C80002D76
:10C4E0006CD02046FFF7EEFA8288C3889A4204F1A6
:10C4F000100621D1A268138D2C3313440821204645
:10C50000314AFFF723FFE91B89B23046FFF7D0FD20
:10C51000A268138D013313852046FFF7C1FAF8B1E5
:10C520002069BDE8F041FFF77DBBB2F5BF7FC8D9F8
:10C53000002DC6D1BDE8F0812046FFF763FAA2685E
:10C54000138D2C33134408211F4A2046FFF7FEFEAB
:10C550002046FFF773FA01213046FFF769FBD7E762
:10C560002046FFF7CFFA0028E4D02046FFF7AAFACA
:10C57000C1888388013904F11006C91A054689B2B9
:10C580003046FFF79FFD2069FFF74CFBE988AB8839
:10C59000C91A304689B2FFF7C9FD298801393046EA
:10C5A00089B2BDE8F041FFF74BBB002D99D1DA8C81
:10C5B000013292B2DA84134483F82C503246034994
:10C5C000206901F0EBFEA3E704EC03009CE7030005
:10C5D000F0B5826885B000250446CDE90155ADF877
:10C5E0000C50D2F850630F46002942D1002E3BD0A8
:10C5F000FFF7A6FDA0683B46D0F850030A2201A928
:10C6000002F06CFFA068029BC0F85033C58C002B71
:10C610004ED100F5D670FFF72DFAA36830B303F5BD
:10C62000D67103F12C000FF03AF8A0682C30FFF718
:10C6300021FAADF80C00BDF80C30A268AB421385AE
:10C64000D38402D22046FFF7C1F9A3682D4A2046C1
:10C650002C330821FFF77AFE2046FFF721FA002845
:10C6600049D02069FFF7DEFA05B0F0BD83F82C0051
:10C67000DBE7D2F84C33B342F6D0D2F84833002B84
:10C68000F2D0FFF75DFDA368D3F8500338BB03F188
:10C690002C00FFF7EFF985B2A068D0F84833C0F856
:10C6A0005033CDB100F12C0100F5D6700EF0F7FF3C
:10C6B000A06801A900230A22D0F8500302F00EFF5F
:10C6C000A068BDF80C2000F12C010A230132D0F83B
:10C6D000500302F003FFAEE780F8AC51E8E72B46C9
:10C6E0000A2201A902F0FAFEA368019ABDF80C50D3
:10C6F000C3F85023DCE72046FFF704FA0028B0D146
:10C70000B2E700BF04EC030038B504468068038D2F
:10C71000C58CED1AADB2002D43D003F12D012C33A1
:10C7200001442A4618440EF07CFDA268D38C013BDC
:10C73000D3842046FFF7C6F98288C3889A421CD169
:10C74000A268138D2C3313440821164A2046FFF7A4
:10C75000FDFD236923B9144940F28F4008F028FBFE
:10C7600054F8100F0F49114A01F018FE691E2046B7
:10C7700089B2BDE83840FFF79BBC2046FFF742F97D
:10C780002046FFF723F9A268138D2C33134420466B
:10C79000044A0821FFF7DAFD2046BDE83840FFF7DC
:10C7A0004DB938BD04EC0300CDE703005FE803009A
:10C7B000F0B5C3685B6891B004460D46002203A93A
:10C7C000186802F0C1FF002840F08A8085B1039804
:10C7D00002F061FEA268D2F844330133C2F8443358
:10C7E00003F00703012B03D00125284611B0F0BD4B
:10C7F0002046FFF767F981880129064605D90139E6
:10C8000089B204F11000FFF791FC3188012905D9A4
:10C81000013989B204F11000FFF74AFC2046FFF706
:10C82000D5F82DB12F4A02212046FFF78FFDDCE716
:10C8300000230C2204A9039802F050FE069B0793E4
:10C84000059B089301238DF825309DF8103003F0E7
:10C850000302012A25D1BDF81050049E0398C3F3AA
:10C86000C203C5F383158DF82430AA000C230AA94E
:10C8700002F034FEC6F39526236900932A4607ABDF
:10C880000AA9304607F0ECFE039802F004FEE368C4
:10C890005B68002203A9186802F056FF0028C7D081
:10C8A000A2E7022AF0D1BDF81250C3F3C203AD09CA
:10C8B0008DF824300C27082D2E4628BF08263B462D
:10C8C00032460AA9039802F009FEAD1B236907AAA4
:10C8D00031460AA8374407F027FF002DEBD1D3E7F4
:10C8E000002582E79FE70300436801219868FFF76E
:10C8F0005FBFF7B547680191BC68A3681E78042E36
:10C900000ED001A9386802F061FE054650B90198C1
:10C9100002F0BDFD032E03D129462046FFF748FF54
:10C9200003B0F0BDF11E18BF01212046FFF740FF04
:10C93000E7E70000836802221A70002283F82C20A7
:10C940001A85DA8403210368014AFFF7FFBC00BFA0
:10C9500004EC03002DE9F04F8246A5B020B9C94987
:10C9600040F6293008F024FADAF808302BB1DAF86A
:10C97000043013B1DAF8003023B9C24940F62A3046
:10C9800008F016FADAF80800102100F55570FEF7E5
:10C99000C3FEDAF808301B78022B40F08F800023AA
:10C9A0000B930BAA0DF12B015046FFF715FA0B9BC9
:10C9B000002B68D09DF92B30002BF2DB02F0A2FD9A
:10C9C000DAF808406378022B00F26A87DFE813F098
:10C9D00003009806AC069DF82B000D2837D00A28D6
:10C9E00035D0B4F854336FF38D13A4F854330928B9
:10C9F00000F0888400F27183032800F0958300F230
:10CA000023830028CDD0012800F032870EF044FBAC
:10CA10000028C6D0DAF808309DF82B10D3F854431C
:10CA2000C4F3C00414F0FF0F40F0A185D88CB0F51A
:10CA3000BF7FB6D81D8D6A1C92B21A851D441A4458
:10CA4000013085F82C1082F82C40D884A9E7D4F85E
:10CA5000543313F47F5F05D0D4F85433C3F38713F2
:10CA60009842C4D1B4F8543360F38D13A4F854330E
:10CA7000E38C93BBC4F85033DAF81000FFF7D2F818
:10CA80005046FFF757FF00215046FFF791FEA8B12F
:10CA9000DAF800307C4A03215046FFF757FCDAF8F9
:10CAA0000830D3F85423120708D550462C33764A61
:10CAB0000821FFF74BFC5046FFF76DFBDAF810003A
:10CAC00001F05AFCDAF808006FF0100100F555701B
:10CAD000FEF738FE25B0BDE8F08F94F82C30002B1F
